{
  "contractName": "AdminModule",
  "abi": [
    {
      "inputs": [
        {
          "internalType": "address",
          "name": "_resDb",
          "type": "address"
        },
        {
          "internalType": "address",
          "name": "_orderDb",
          "type": "address"
        }
      ],
      "stateMutability": "nonpayable",
      "type": "constructor"
    },
    {
      "anonymous": false,
      "inputs": [
        {
          "indexed": false,
          "internalType": "string",
          "name": "info",
          "type": "string"
        },
        {
          "indexed": false,
          "internalType": "address",
          "name": "_resId",
          "type": "address"
        },
        {
          "indexed": true,
          "internalType": "address",
          "name": "_author",
          "type": "address"
        },
        {
          "indexed": false,
          "internalType": "address",
          "name": "who",
          "type": "address"
        }
      ],
      "name": "LogAddress",
      "type": "event"
    },
    {
      "anonymous": false,
      "inputs": [
        {
          "indexed": false,
          "internalType": "string",
          "name": "",
          "type": "string"
        },
        {
          "indexed": false,
          "internalType": "address",
          "name": "",
          "type": "address"
        },
        {
          "indexed": false,
          "internalType": "address",
          "name": "",
          "type": "address"
        }
      ],
      "name": "LogAddress",
      "type": "event"
    },
    {
      "anonymous": false,
      "inputs": [
        {
          "indexed": true,
          "internalType": "address",
          "name": "_old",
          "type": "address"
        },
        {
          "indexed": true,
          "internalType": "address",
          "name": "_new",
          "type": "address"
        }
      ],
      "name": "LogAdminshipTransferred",
      "type": "event"
    },
    {
      "anonymous": false,
      "inputs": [
        {
          "indexed": false,
          "internalType": "enum ErrorModule.RScorr",
          "name": "_errorNumber",
          "type": "uint8"
        }
      ],
      "name": "LogError",
      "type": "event"
    },
    {
      "anonymous": false,
      "inputs": [
        {
          "indexed": true,
          "internalType": "address",
          "name": "previousOwner",
          "type": "address"
        }
      ],
      "name": "LogOwnershipRenounced",
      "type": "event"
    },
    {
      "anonymous": false,
      "inputs": [
        {
          "indexed": true,
          "internalType": "address",
          "name": "previousOwner",
          "type": "address"
        },
        {
          "indexed": true,
          "internalType": "address",
          "name": "newOwner",
          "type": "address"
        }
      ],
      "name": "LogOwnershipTransferred",
      "type": "event"
    },
    {
      "anonymous": false,
      "inputs": [
        {
          "indexed": true,
          "internalType": "address",
          "name": "_target",
          "type": "address"
        },
        {
          "indexed": false,
          "internalType": "bool",
          "name": "_allow",
          "type": "bool"
        }
      ],
      "name": "LogWhileChanged",
      "type": "event"
    },
    {
      "inputs": [],
      "name": "Order_",
      "outputs": [
        {
          "internalType": "contract OrderDB",
          "name": "",
          "type": "address"
        }
      ],
      "stateMutability": "view",
      "type": "function",
      "constant": true
    },
    {
      "inputs": [],
      "name": "Resource_",
      "outputs": [
        {
          "internalType": "contract ResourceDB",
          "name": "",
          "type": "address"
        }
      ],
      "stateMutability": "view",
      "type": "function",
      "constant": true
    },
    {
      "inputs": [],
      "name": "acceptOwnership",
      "outputs": [],
      "stateMutability": "nonpayable",
      "type": "function"
    },
    {
      "inputs": [],
      "name": "admin",
      "outputs": [
        {
          "internalType": "address",
          "name": "",
          "type": "address"
        }
      ],
      "stateMutability": "view",
      "type": "function",
      "constant": true
    },
    {
      "inputs": [
        {
          "internalType": "address",
          "name": "_target",
          "type": "address"
        },
        {
          "internalType": "bool",
          "name": "_allow",
          "type": "bool"
        }
      ],
      "name": "mangeWhiteList",
      "outputs": [
        {
          "internalType": "bool",
          "name": "",
          "type": "bool"
        }
      ],
      "stateMutability": "nonpayable",
      "type": "function"
    },
    {
      "inputs": [
        {
          "internalType": "address[]",
          "name": "_addresses",
          "type": "address[]"
        }
      ],
      "name": "mulInsertWhite",
      "outputs": [
        {
          "internalType": "bool",
          "name": "",
          "type": "bool"
        }
      ],
      "stateMutability": "nonpayable",
      "type": "function"
    },
    {
      "inputs": [],
      "name": "newOwner",
      "outputs": [
        {
          "internalType": "address",
          "name": "",
          "type": "address"
        }
      ],
      "stateMutability": "view",
      "type": "function",
      "constant": true
    },
    {
      "inputs": [],
      "name": "owner",
      "outputs": [
        {
          "internalType": "address",
          "name": "",
          "type": "address"
        }
      ],
      "stateMutability": "view",
      "type": "function",
      "constant": true
    },
    {
      "inputs": [],
      "name": "renounceOwnership",
      "outputs": [],
      "stateMutability": "nonpayable",
      "type": "function"
    },
    {
      "inputs": [
        {
          "internalType": "address",
          "name": "_newAdmin",
          "type": "address"
        }
      ],
      "name": "transferAdminship",
      "outputs": [],
      "stateMutability": "nonpayable",
      "type": "function"
    },
    {
      "inputs": [
        {
          "internalType": "address",
          "name": "_newOwner",
          "type": "address"
        }
      ],
      "name": "transferOwnership",
      "outputs": [],
      "stateMutability": "nonpayable",
      "type": "function"
    },
    {
      "inputs": [
        {
          "internalType": "address",
          "name": "",
          "type": "address"
        }
      ],
      "name": "whitelist_",
      "outputs": [
        {
          "internalType": "bool",
          "name": "",
          "type": "bool"
        }
      ],
      "stateMutability": "view",
      "type": "function",
      "constant": true
    },
    {
      "inputs": [
        {
          "internalType": "address",
          "name": "_contract",
          "type": "address"
        },
        {
          "internalType": "address",
          "name": "_target",
          "type": "address"
        },
        {
          "internalType": "bool",
          "name": "_allow",
          "type": "bool"
        }
      ],
      "name": "mangeDestWhite",
      "outputs": [
        {
          "internalType": "bool",
          "name": "",
          "type": "bool"
        }
      ],
      "stateMutability": "nonpayable",
      "type": "function"
    },
    {
      "inputs": [
        {
          "internalType": "bytes16",
          "name": "_resId",
          "type": "bytes16"
        }
      ],
      "name": "deleteResource",
      "outputs": [
        {
          "internalType": "bool",
          "name": "",
          "type": "bool"
        }
      ],
      "stateMutability": "nonpayable",
      "type": "function"
    },
    {
      "inputs": [
        {
          "internalType": "address",
          "name": "_newResourceDB",
          "type": "address"
        }
      ],
      "name": "changeResourceDB",
      "outputs": [
        {
          "internalType": "bool",
          "name": "",
          "type": "bool"
        }
      ],
      "stateMutability": "nonpayable",
      "type": "function"
    },
    {
      "inputs": [
        {
          "internalType": "bytes32",
          "name": "_orderId",
          "type": "bytes32"
        }
      ],
      "name": "deleteOrder",
      "outputs": [
        {
          "internalType": "bool",
          "name": "",
          "type": "bool"
        }
      ],
      "stateMutability": "nonpayable",
      "type": "function"
    },
    {
      "inputs": [
        {
          "internalType": "address",
          "name": "_newOrderDB",
          "type": "address"
        }
      ],
      "name": "changeOrderDB",
      "outputs": [
        {
          "internalType": "bool",
          "name": "",
          "type": "bool"
        }
      ],
      "stateMutability": "nonpayable",
      "type": "function"
    },
    {
      "inputs": [
        {
          "internalType": "address",
          "name": "_newAdmin",
          "type": "address"
        },
        {
          "internalType": "address[]",
          "name": "_contract",
          "type": "address[]"
        }
      ],
      "name": "migrate",
      "outputs": [
        {
          "internalType": "bool",
          "name": "",
          "type": "bool"
        }
      ],
      "stateMutability": "nonpayable",
      "type": "function"
    },
    {
      "inputs": [
        {
          "internalType": "address",
          "name": "_contract",
          "type": "address"
        }
      ],
      "name": "isAdmin",
      "outputs": [
        {
          "internalType": "bool",
          "name": "",
          "type": "bool"
        }
      ],
      "stateMutability": "view",
      "type": "function",
      "constant": true
    }
  ],
  "bytecode": "0x608060405234801561001057600080fd5b50604051612dbb380380612dbb8339818101604052604081101561003357600080fd5b810190808051906020019092919080519060200190929190505050336000806101000a81548173ffffffffffffffffffffffffffffffffffffffff021916908373ffffffffffffffffffffffffffffffffffffffff16021790555033600260006101000a81548173ffffffffffffffffffffffffffffffffffffffff021916908373ffffffffffffffffffffffffffffffffffffffff1602179055506000809054906101000a900473ffffffffffffffffffffffffffffffffffffffff1673ffffffffffffffffffffffffffffffffffffffff167f9e6965ca244a67ad615b5114db3886405a40a12f1190493f8e9201020885af1d600260009054906101000a900473ffffffffffffffffffffffffffffffffffffffff163360405180806020018473ffffffffffffffffffffffffffffffffffffffff1673ffffffffffffffffffffffffffffffffffffffff1681526020018373ffffffffffffffffffffffffffffffffffffffff1673ffffffffffffffffffffffffffffffffffffffff1681526020018281038252600a8152602001807f636f6e73747275636f7200000000000000000000000000000000000000000000815250602001935050505060405180910390a26000809054906101000a900473ffffffffffffffffffffffffffffffffffffffff1673ffffffffffffffffffffffffffffffffffffffff167f9e6965ca244a67ad615b5114db3886405a40a12f1190493f8e9201020885af1d600260009054906101000a900473ffffffffffffffffffffffffffffffffffffffff163360405180806020018473ffffffffffffffffffffffffffffffffffffffff1673ffffffffffffffffffffffffffffffffffffffff1681526020018373ffffffffffffffffffffffffffffffffffffffff1673ffffffffffffffffffffffffffffffffffffffff1681526020018281038252600a8152602001807f636f6e73747275636f7200000000000000000000000000000000000000000000815250602001935050505060405180910390a281600460006101000a81548173ffffffffffffffffffffffffffffffffffffffff021916908373ffffffffffffffffffffffffffffffffffffffff16021790555080600560006101000a81548173ffffffffffffffffffffffffffffffffffffffff021916908373ffffffffffffffffffffffffffffffffffffffff1602179055505050612a05806103b66000396000f3fe608060405234801561001057600080fd5b50600436106101215760003560e01c8063a5b8adb8116100ad578063e56a7c5d11610071578063e56a7c5d14610628578063e8de42df14610684578063f2fde38b146106dd578063f62d0eb014610721578063f851a440146107a957610121565b8063a5b8adb814610486578063a66bdd2f146104d0578063a8e1fba31461051a578063af2b86b114610582578063d4ee1d90146105de57610121565b80636dd41a71116100f45780636dd41a7114610386578063715018a6146103e257806379ba5097146103ec57806387a61cbd146103f65780638da5cb5b1461043c57610121565b8063047701e41461012657806324d7806c1461021657806335e60e89146102725780635be7cc1614610342575b600080fd5b6101fc6004803603604081101561013c57600080fd5b81019080803573ffffffffffffffffffffffffffffffffffffffff1690602001909291908035906020019064010000000081111561017957600080fd5b82018360208201111561018b57600080fd5b803590602001918460208302840111640100000000831117156101ad57600080fd5b919080806020026020016040519081016040528093929190818152602001838360200280828437600081840152601f19601f8201169050808301925050505050505091929192905050506107f3565b604051808215151515815260200191505060405180910390f35b6102586004803603602081101561022c57600080fd5b81019080803573ffffffffffffffffffffffffffffffffffffffff169060200190929190505050610b1e565b604051808215151515815260200191505060405180910390f35b6103286004803603602081101561028857600080fd5b81019080803590602001906401000000008111156102a557600080fd5b8201836020820111156102b757600080fd5b803590602001918460208302840111640100000000831117156102d957600080fd5b919080806020026020016040519081016040528093929190818152602001838360200280828437600081840152601f19601f820116905080830192505050505050509192919290505050610be7565b604051808215151515815260200191505060405180910390f35b6103846004803603602081101561035857600080fd5b81019080803573ffffffffffffffffffffffffffffffffffffffff169060200190929190505050610e96565b005b6103c86004803603602081101561039c57600080fd5b81019080803573ffffffffffffffffffffffffffffffffffffffff169060200190929190505050611133565b604051808215151515815260200191505060405180910390f35b6103ea6113ff565b005b6103f46115f2565b005b6104226004803603602081101561040c57600080fd5b8101908080359060200190929190505050611882565b604051808215151515815260200191505060405180910390f35b610444611b18565b604051808273ffffffffffffffffffffffffffffffffffffffff1673ffffffffffffffffffffffffffffffffffffffff16815260200191505060405180910390f35b61048e611b3d565b604051808273ffffffffffffffffffffffffffffffffffffffff1673ffffffffffffffffffffffffffffffffffffffff16815260200191505060405180910390f35b6104d8611b63565b604051808273ffffffffffffffffffffffffffffffffffffffff1673ffffffffffffffffffffffffffffffffffffffff16815260200191505060405180910390f35b6105686004803603604081101561053057600080fd5b81019080803573ffffffffffffffffffffffffffffffffffffffff169060200190929190803515159060200190929190505050611b89565b604051808215151515815260200191505060405180910390f35b6105c46004803603602081101561059857600080fd5b81019080803573ffffffffffffffffffffffffffffffffffffffff169060200190929190505050611dc2565b604051808215151515815260200191505060405180910390f35b6105e661208e565b604051808273ffffffffffffffffffffffffffffffffffffffff1673ffffffffffffffffffffffffffffffffffffffff16815260200191505060405180910390f35b61066a6004803603602081101561063e57600080fd5b81019080803573ffffffffffffffffffffffffffffffffffffffff1690602001909291905050506120b4565b604051808215151515815260200191505060405180910390f35b6106c36004803603602081101561069a57600080fd5b8101908080356fffffffffffffffffffffffffffffffff191690602001909291905050506120d4565b604051808215151515815260200191505060405180910390f35b61071f600480360360208110156106f357600080fd5b81019080803573ffffffffffffffffffffffffffffffffffffffff169060200190929190505050612390565b005b61078f6004803603606081101561073757600080fd5b81019080803573ffffffffffffffffffffffffffffffffffffffff169060200190929190803573ffffffffffffffffffffffffffffffffffffffff1690602001909291908035151590602001909291905050506125c3565b604051808215151515815260200191505060405180910390f35b6107b161297b565b604051808273ffffffffffffffffffffffffffffffffffffffff1673ffffffffffffffffffffffffffffffffffffffff16815260200191505060405180910390f35b60008060009054906101000a900473ffffffffffffffffffffffffffffffffffffffff1673ffffffffffffffffffffffffffffffffffffffff163373ffffffffffffffffffffffffffffffffffffffff161415610a265760008251905060008090505b81811015610a1f57600084828151811061086c57fe5b602002602001015190503073ffffffffffffffffffffffffffffffffffffffff168173ffffffffffffffffffffffffffffffffffffffff1663f851a4406040518163ffffffff1660e01b815260040160206040518083038186803b1580156108d357600080fd5b505afa1580156108e7573d6000803e3d6000fd5b505050506040513d60208110156108fd57600080fd5b810190808051906020019092919050505073ffffffffffffffffffffffffffffffffffffffff161461097a576040517f08c379a000000000000000000000000000000000000000000000000000000000815260040180806020018281038252602e8152602001806129a2602e913960400191505060405180910390fd5b8073ffffffffffffffffffffffffffffffffffffffff16635be7cc16876040518263ffffffff1660e01b8152600401808273ffffffffffffffffffffffffffffffffffffffff1673ffffffffffffffffffffffffffffffffffffffff168152602001915050600060405180830381600087803b1580156109f957600080fd5b505af1158015610a0d573d6000803e3d6000fd5b50505050508080600101915050610856565b5050610b18565b7f6b26c3fc447c71078386bc5ad946c760ce605d2bc61b762901400eb9ac003a9a6000809054906101000a900473ffffffffffffffffffffffffffffffffffffffff163360405180806020018473ffffffffffffffffffffffffffffffffffffffff1673ffffffffffffffffffffffffffffffffffffffff1681526020018373ffffffffffffffffffffffffffffffffffffffff1673ffffffffffffffffffffffffffffffffffffffff1681526020018281038252600a8152602001807f6f6e6c79206f776e657200000000000000000000000000000000000000000000815250602001935050505060405180910390a15b92915050565b60003073ffffffffffffffffffffffffffffffffffffffff168273ffffffffffffffffffffffffffffffffffffffff1663f851a4406040518163ffffffff1660e01b815260040160206040518083038186803b158015610b7d57600080fd5b505afa158015610b91573d6000803e3d6000fd5b505050506040513d6020811015610ba757600080fd5b810190808051906020019092919050505073ffffffffffffffffffffffffffffffffffffffff161415610bdd5760019050610be2565b600090505b919050565b60008060009054906101000a900473ffffffffffffffffffffffffffffffffffffffff1673ffffffffffffffffffffffffffffffffffffffff163373ffffffffffffffffffffffffffffffffffffffff1614158015610c945750600260009054906101000a900473ffffffffffffffffffffffffffffffffffffffff1673ffffffffffffffffffffffffffffffffffffffff163373ffffffffffffffffffffffffffffffffffffffff1614155b15610ce8577f0489f2369368f4688acd012107ac5a7d98ca739b913449d852f35d871e433cc3600f6040518082601d811115610ccc57fe5b60ff16815260200191505060405180910390a160009050610e91565b60008090505b8251811015610e8b57600073ffffffffffffffffffffffffffffffffffffffff16838281518110610d1b57fe5b602002602001015173ffffffffffffffffffffffffffffffffffffffff161415610dad576040517f08c379a000000000000000000000000000000000000000000000000000000000815260040180806020018281038252600f8152602001807f61646472657373206973206e756c6c000000000000000000000000000000000081525060200191505060405180910390fd5b600160036000858481518110610dbf57fe5b602002602001015173ffffffffffffffffffffffffffffffffffffffff1673ffffffffffffffffffffffffffffffffffffffff16815260200190815260200160002060006101000a81548160ff021916908315150217905550828181518110610e2457fe5b602002602001015173ffffffffffffffffffffffffffffffffffffffff167f9b3b880c67f4fab4215412179771cffd326a045e6016a7e363eb38460f7e91766001604051808215151515815260200191505060405180910390a28080600101915050610cee565b50600190505b919050565b6000809054906101000a900473ffffffffffffffffffffffffffffffffffffffff1673ffffffffffffffffffffffffffffffffffffffff163373ffffffffffffffffffffffffffffffffffffffff161480610f3e5750600260009054906101000a900473ffffffffffffffffffffffffffffffffffffffff1673ffffffffffffffffffffffffffffffffffffffff163373ffffffffffffffffffffffffffffffffffffffff16145b15611005578073ffffffffffffffffffffffffffffffffffffffff16600260009054906101000a900473ffffffffffffffffffffffffffffffffffffffff1673ffffffffffffffffffffffffffffffffffffffff167ff73aa4459d935dbacd9313fffe485016147551d99ef401461704cd39e6e9028760405160405180910390a380600260006101000a81548173ffffffffffffffffffffffffffffffffffffffff021916908373ffffffffffffffffffffffffffffffffffffffff160217905550611130565b6000809054906101000a900473ffffffffffffffffffffffffffffffffffffffff1673ffffffffffffffffffffffffffffffffffffffff167f9e6965ca244a67ad615b5114db3886405a40a12f1190493f8e9201020885af1d600260009054906101000a900473ffffffffffffffffffffffffffffffffffffffff163360405180806020018473ffffffffffffffffffffffffffffffffffffffff1673ffffffffffffffffffffffffffffffffffffffff1681526020018373ffffffffffffffffffffffffffffffffffffffff1673ffffffffffffffffffffffffffffffffffffffff168152602001828103825260098152602001807f6f6e6c7941646d696e0000000000000000000000000000000000000000000000815250602001935050505060405180910390a25b50565b60008060009054906101000a900473ffffffffffffffffffffffffffffffffffffffff1673ffffffffffffffffffffffffffffffffffffffff163373ffffffffffffffffffffffffffffffffffffffff1614806111dd5750600260009054906101000a900473ffffffffffffffffffffffffffffffffffffffff1673ffffffffffffffffffffffffffffffffffffffff163373ffffffffffffffffffffffffffffffffffffffff16145b156112cf57600073ffffffffffffffffffffffffffffffffffffffff168273ffffffffffffffffffffffffffffffffffffffff161415611285576040517f08c379a00000000000000000000000000000000000000000000000000000000081526004018080602001828103825260148152602001807f205f6e65775265736f757263654442203d3d203000000000000000000000000081525060200191505060405180910390fd5b81600460006101000a81548173ffffffffffffffffffffffffffffffffffffffff021916908373ffffffffffffffffffffffffffffffffffffffff160217905550600190506113fa565b6000809054906101000a900473ffffffffffffffffffffffffffffffffffffffff1673ffffffffffffffffffffffffffffffffffffffff167f9e6965ca244a67ad615b5114db3886405a40a12f1190493f8e9201020885af1d600260009054906101000a900473ffffffffffffffffffffffffffffffffffffffff163360405180806020018473ffffffffffffffffffffffffffffffffffffffff1673ffffffffffffffffffffffffffffffffffffffff1681526020018373ffffffffffffffffffffffffffffffffffffffff1673ffffffffffffffffffffffffffffffffffffffff168152602001828103825260098152602001807f6f6e6c7941646d696e0000000000000000000000000000000000000000000000815250602001935050505060405180910390a25b919050565b6000809054906101000a900473ffffffffffffffffffffffffffffffffffffffff1673ffffffffffffffffffffffffffffffffffffffff163373ffffffffffffffffffffffffffffffffffffffff1614156114fe576000809054906101000a900473ffffffffffffffffffffffffffffffffffffffff1673ffffffffffffffffffffffffffffffffffffffff167f2dde1bc8b58ef192e7df3e7a354521d958331021e450d544346b936936916ef460405160405180910390a260008060006101000a81548173ffffffffffffffffffffffffffffffffffffffff021916908373ffffffffffffffffffffffffffffffffffffffff1602179055506115f0565b7f6b26c3fc447c71078386bc5ad946c760ce605d2bc61b762901400eb9ac003a9a6000809054906101000a900473ffffffffffffffffffffffffffffffffffffffff163360405180806020018473ffffffffffffffffffffffffffffffffffffffff1673ffffffffffffffffffffffffffffffffffffffff1681526020018373ffffffffffffffffffffffffffffffffffffffff1673ffffffffffffffffffffffffffffffffffffffff1681526020018281038252600a8152602001807f6f6e6c79206f776e657200000000000000000000000000000000000000000000815250602001935050505060405180910390a15b565b600160009054906101000a900473ffffffffffffffffffffffffffffffffffffffff1673ffffffffffffffffffffffffffffffffffffffff163373ffffffffffffffffffffffffffffffffffffffff16141561178e57600160009054906101000a900473ffffffffffffffffffffffffffffffffffffffff1673ffffffffffffffffffffffffffffffffffffffff166000809054906101000a900473ffffffffffffffffffffffffffffffffffffffff1673ffffffffffffffffffffffffffffffffffffffff167fdb6d05f3295cede580affa301a1eb5297528f3b3f6a56b075887ce6f61c45f2160405160405180910390a3600160009054906101000a900473ffffffffffffffffffffffffffffffffffffffff166000806101000a81548173ffffffffffffffffffffffffffffffffffffffff021916908373ffffffffffffffffffffffffffffffffffffffff1602179055506000600160006101000a81548173ffffffffffffffffffffffffffffffffffffffff021916908373ffffffffffffffffffffffffffffffffffffffff160217905550611880565b7f6b26c3fc447c71078386bc5ad946c760ce605d2bc61b762901400eb9ac003a9a6000809054906101000a900473ffffffffffffffffffffffffffffffffffffffff163360405180806020018473ffffffffffffffffffffffffffffffffffffffff1673ffffffffffffffffffffffffffffffffffffffff1681526020018373ffffffffffffffffffffffffffffffffffffffff1673ffffffffffffffffffffffffffffffffffffffff1681526020018281038252600a8152602001807f6f6e6c79206f776e657200000000000000000000000000000000000000000000815250602001935050505060405180910390a15b565b60008060009054906101000a900473ffffffffffffffffffffffffffffffffffffffff1673ffffffffffffffffffffffffffffffffffffffff163373ffffffffffffffffffffffffffffffffffffffff16148061192c5750600260009054906101000a900473ffffffffffffffffffffffffffffffffffffffff1673ffffffffffffffffffffffffffffffffffffffff163373ffffffffffffffffffffffffffffffffffffffff16145b156119e857600560009054906101000a900473ffffffffffffffffffffffffffffffffffffffff1673ffffffffffffffffffffffffffffffffffffffff166395bc2673836040518263ffffffff1660e01b815260040180828152602001915050602060405180830381600087803b1580156119a657600080fd5b505af11580156119ba573d6000803e3d6000fd5b505050506040513d60208110156119d057600080fd5b81019080805190602001909291905050509050611b13565b6000809054906101000a900473ffffffffffffffffffffffffffffffffffffffff1673ffffffffffffffffffffffffffffffffffffffff167f9e6965ca244a67ad615b5114db3886405a40a12f1190493f8e9201020885af1d600260009054906101000a900473ffffffffffffffffffffffffffffffffffffffff163360405180806020018473ffffffffffffffffffffffffffffffffffffffff1673ffffffffffffffffffffffffffffffffffffffff1681526020018373ffffffffffffffffffffffffffffffffffffffff1673ffffffffffffffffffffffffffffffffffffffff168152602001828103825260098152602001807f6f6e6c7941646d696e0000000000000000000000000000000000000000000000815250602001935050505060405180910390a25b919050565b6000809054906101000a900473ffffffffffffffffffffffffffffffffffffffff1681565b600560009054906101000a900473ffffffffffffffffffffffffffffffffffffffff1681565b600460009054906101000a900473ffffffffffffffffffffffffffffffffffffffff1681565b60008060009054906101000a900473ffffffffffffffffffffffffffffffffffffffff1673ffffffffffffffffffffffffffffffffffffffff163373ffffffffffffffffffffffffffffffffffffffff1614158015611c365750600260009054906101000a900473ffffffffffffffffffffffffffffffffffffffff1673ffffffffffffffffffffffffffffffffffffffff163373ffffffffffffffffffffffffffffffffffffffff1614155b15611c8a577f0489f2369368f4688acd012107ac5a7d98ca739b913449d852f35d871e433cc3600f6040518082601d811115611c6e57fe5b60ff16815260200191505060405180910390a160009050611dbc565b600073ffffffffffffffffffffffffffffffffffffffff168373ffffffffffffffffffffffffffffffffffffffff161415611d0e577f0489f2369368f4688acd012107ac5a7d98ca739b913449d852f35d871e433cc360026040518082601d811115611cf257fe5b60ff16815260200191505060405180910390a160009050611dbc565b81600360008573ffffffffffffffffffffffffffffffffffffffff1673ffffffffffffffffffffffffffffffffffffffff16815260200190815260200160002060006101000a81548160ff0219169083151502179055508273ffffffffffffffffffffffffffffffffffffffff167f9b3b880c67f4fab4215412179771cffd326a045e6016a7e363eb38460f7e917683604051808215151515815260200191505060405180910390a2600190505b92915050565b60008060009054906101000a900473ffffffffffffffffffffffffffffffffffffffff1673ffffffffffffffffffffffffffffffffffffffff163373ffffffffffffffffffffffffffffffffffffffff161480611e6c5750600260009054906101000a900473ffffffffffffffffffffffffffffffffffffffff1673ffffffffffffffffffffffffffffffffffffffff163373ffffffffffffffffffffffffffffffffffffffff16145b15611f5e57600073ffffffffffffffffffffffffffffffffffffffff168273ffffffffffffffffffffffffffffffffffffffff161415611f14576040517f08c379a00000000000000000000000000000000000000000000000000000000081526004018080602001828103825260108152602001807f5f6e65774f726465724442203d3d20300000000000000000000000000000000081525060200191505060405180910390fd5b81600560006101000a81548173ffffffffffffffffffffffffffffffffffffffff021916908373ffffffffffffffffffffffffffffffffffffffff16021790555060019050612089565b6000809054906101000a900473ffffffffffffffffffffffffffffffffffffffff1673ffffffffffffffffffffffffffffffffffffffff167f9e6965ca244a67ad615b5114db3886405a40a12f1190493f8e9201020885af1d600260009054906101000a900473ffffffffffffffffffffffffffffffffffffffff163360405180806020018473ffffffffffffffffffffffffffffffffffffffff1673ffffffffffffffffffffffffffffffffffffffff1681526020018373ffffffffffffffffffffffffffffffffffffffff1673ffffffffffffffffffffffffffffffffffffffff168152602001828103825260098152602001807f6f6e6c7941646d696e0000000000000000000000000000000000000000000000815250602001935050505060405180910390a25b919050565b600160009054906101000a900473ffffffffffffffffffffffffffffffffffffffff1681565b60036020528060005260406000206000915054906101000a900460ff1681565b60008060009054906101000a900473ffffffffffffffffffffffffffffffffffffffff1673ffffffffffffffffffffffffffffffffffffffff163373ffffffffffffffffffffffffffffffffffffffff16148061217e5750600260009054906101000a900473ffffffffffffffffffffffffffffffffffffffff1673ffffffffffffffffffffffffffffffffffffffff163373ffffffffffffffffffffffffffffffffffffffff16145b1561226057600460009054906101000a900473ffffffffffffffffffffffffffffffffffffffff1673ffffffffffffffffffffffffffffffffffffffff1663e8de42df836040518263ffffffff1660e01b815260040180826fffffffffffffffffffffffffffffffff19166fffffffffffffffffffffffffffffffff19168152602001915050602060405180830381600087803b15801561221e57600080fd5b505af1158015612232573d6000803e3d6000fd5b505050506040513d602081101561224857600080fd5b8101908080519060200190929190505050905061238b565b6000809054906101000a900473ffffffffffffffffffffffffffffffffffffffff1673ffffffffffffffffffffffffffffffffffffffff167f9e6965ca244a67ad615b5114db3886405a40a12f1190493f8e9201020885af1d600260009054906101000a900473ffffffffffffffffffffffffffffffffffffffff163360405180806020018473ffffffffffffffffffffffffffffffffffffffff1673ffffffffffffffffffffffffffffffffffffffff1681526020018373ffffffffffffffffffffffffffffffffffffffff1673ffffffffffffffffffffffffffffffffffffffff168152602001828103825260098152602001807f6f6e6c7941646d696e0000000000000000000000000000000000000000000000815250602001935050505060405180910390a25b919050565b6000809054906101000a900473ffffffffffffffffffffffffffffffffffffffff1673ffffffffffffffffffffffffffffffffffffffff163373ffffffffffffffffffffffffffffffffffffffff1614156124ce57600073ffffffffffffffffffffffffffffffffffffffff168173ffffffffffffffffffffffffffffffffffffffff161415612488576040517f08c379a00000000000000000000000000000000000000000000000000000000081526004018080602001828103825260108152602001807f6e65774f776e6572206973206e756c6c0000000000000000000000000000000081525060200191505060405180910390fd5b80600160006101000a81548173ffffffffffffffffffffffffffffffffffffffff021916908373ffffffffffffffffffffffffffffffffffffffff1602179055506125c0565b7f6b26c3fc447c71078386bc5ad946c760ce605d2bc61b762901400eb9ac003a9a6000809054906101000a900473ffffffffffffffffffffffffffffffffffffffff163360405180806020018473ffffffffffffffffffffffffffffffffffffffff1673ffffffffffffffffffffffffffffffffffffffff1681526020018373ffffffffffffffffffffffffffffffffffffffff1673ffffffffffffffffffffffffffffffffffffffff1681526020018281038252600a8152602001807f6f6e6c79206f776e657200000000000000000000000000000000000000000000815250602001935050505060405180910390a15b50565b60008060009054906101000a900473ffffffffffffffffffffffffffffffffffffffff1673ffffffffffffffffffffffffffffffffffffffff163373ffffffffffffffffffffffffffffffffffffffff16148061266d5750600260009054906101000a900473ffffffffffffffffffffffffffffffffffffffff1673ffffffffffffffffffffffffffffffffffffffff163373ffffffffffffffffffffffffffffffffffffffff16145b156128495760008490503073ffffffffffffffffffffffffffffffffffffffff168173ffffffffffffffffffffffffffffffffffffffff1663f851a4406040518163ffffffff1660e01b815260040160206040518083038186803b1580156126d457600080fd5b505afa1580156126e8573d6000803e3d6000fd5b505050506040513d60208110156126fe57600080fd5b810190808051906020019092919050505073ffffffffffffffffffffffffffffffffffffffff161461277a577f0489f2369368f4688acd012107ac5a7d98ca739b913449d852f35d871e433cc3600f6040518082601d81111561275d57fe5b60ff16815260200191505060405180910390a16000915050612844565b8073ffffffffffffffffffffffffffffffffffffffff1663a8e1fba385856040518363ffffffff1660e01b8152600401808373ffffffffffffffffffffffffffffffffffffffff1673ffffffffffffffffffffffffffffffffffffffff1681526020018215151515815260200192505050602060405180830381600087803b15801561280557600080fd5b505af1158015612819573d6000803e3d6000fd5b505050506040513d602081101561282f57600080fd5b81019080805190602001909291905050509150505b612974565b6000809054906101000a900473ffffffffffffffffffffffffffffffffffffffff1673ffffffffffffffffffffffffffffffffffffffff167f9e6965ca244a67ad615b5114db3886405a40a12f1190493f8e9201020885af1d600260009054906101000a900473ffffffffffffffffffffffffffffffffffffffff163360405180806020018473ffffffffffffffffffffffffffffffffffffffff1673ffffffffffffffffffffffffffffffffffffffff1681526020018373ffffffffffffffffffffffffffffffffffffffff1673ffffffffffffffffffffffffffffffffffffffff168152602001828103825260098152602001807f6f6e6c7941646d696e0000000000000000000000000000000000000000000000815250602001935050505060405180910390a25b9392505050565b600260009054906101000a900473ffffffffffffffffffffffffffffffffffffffff168156fe536f7272792c20796f7520656e746572656420616e20696e76616c696420636f6e74726163742061646472657373a2646970667358221220520e159bf83fa7337e6d8b0fd883b07e39096fbaacda6e16ea17426e15a91bb964736f6c63430006030033",
  "source": "pragma solidity >=0.5.12 <0.7.0;\r\n\r\nimport \"./WhiteMange.sol\";\r\nimport \"./ResourceDB.sol\";\r\nimport \"./OrderDB.sol\";\r\n\r\n/**\r\n * @title \r\n * @dev AdminOwner,ownerAdmin\r\n * @dev \r\n *\r\n *  1. ResourceDB \r\n *  2. ResourceDB \r\n *  3. \r\n *  4. OrderDB \r\n *  5. \r\n */\r\ncontract AdminModule is WhiteMange{\r\n    ResourceDB public Resource_;\r\n    OrderDB public Order_;\r\n    //CenterPublish public Center;\r\n\r\n    // constructor (address _resDb, address _orderDb, address _owner) public\r\n    // {\r\n    //     owner = _owner;\r\n    //     Resource_ = ResourceDB(_resDb);\r\n    //     Order_ = OrderDB(_orderDb);\r\n    // }\r\n\r\n      constructor (address _resDb, address _orderDb) public\r\n    {\r\n        // owner = msg.sender;\r\n        // admin = msg.sender;\r\n        emit  LogAddress(\"construcor\",admin, owner,msg.sender);\r\n        Resource_ = ResourceDB(_resDb);\r\n        Order_ = OrderDB(_orderDb);\r\n    }\r\n\r\n    /**\r\n     * @dev    \r\n     * @param  _contract address   : \r\n     * @param  _target   address   : \r\n     * @param  _allow    bool      : ture \r\n     * @return           bool      : true\r\n     */\r\n    function mangeDestWhite(address _contract, address _target, bool _allow) public onlyAdmin\r\n        returns(bool)\r\n    {\r\n        // \r\n        WhiteMange _destCon = WhiteMange(_contract);\r\n        if (_destCon.admin() != address(this)){\r\n            emit LogError(RScorr.PermissionDenied);\r\n            return false;\r\n        }\r\n\r\n        // \"0xa8e1fba3\": \"mangeWhiteList(address,bool)\"\r\n        //return _contract.call(bytes4(0xa8e1fba3), _target, _allow); bool\r\n        return _destCon.mangeWhiteList(_target, _allow);\r\n    }\r\n\r\n    /****************** Resource  ********************/\r\n    /**\r\n     * @dev    \r\n     * @param  _resId  bytes16  : ID\r\n     * @return           bool     : true\r\n     */\r\n    function deleteResource(bytes16 _resId) public onlyAdmin\r\n        returns(bool)\r\n    {\r\n        return Resource_.deleteResource(_resId);\r\n    }\r\n\r\n\r\n    /**\r\n     * @dev    ResourceDB\r\n     * @param  _newResourceDB address  : claimDB\r\n     * @return             bool     :  true\r\n     */\r\n    function changeResourceDB(address _newResourceDB) public onlyAdmin returns(bool)\r\n    {\r\n        require(_newResourceDB != address(0),\" _newResourceDB == 0\");\r\n        Resource_ = ResourceDB(_newResourceDB);\r\n        return true;\r\n    }\r\n\r\n    /****************** Order  ********************/\r\n\r\n    /**\r\n     * @dev    \r\n     * @param  _orderId  bytes32  :  ID\r\n     * @return           bool     :  true\r\n     */\r\n    function deleteOrder(bytes32 _orderId) public onlyAdmin returns(bool)\r\n    {\r\n        return Order_.remove(_orderId);\r\n    }\r\n\r\n    /**\r\n     * @dev    OrderDB\r\n     * @param  _newOrderDB address :  orderDB\r\n     * @return             bool    :  true\r\n     */\r\n    function changeOrderDB(address _newOrderDB) public onlyAdmin\r\n        returns(bool)\r\n    {\r\n        require(_newOrderDB != address(0),\"_newOrderDB == 0\");\r\n        Order_ = OrderDB(_newOrderDB);\r\n        return true;\r\n    }\r\n\r\n    /****************** Info  ********************/\r\n\r\n    // Null\r\n\r\n\r\n    /****************** center  ********************/\r\n\r\n\r\n    // admin\r\n\r\n    /**\r\n     * @dev \r\n     * @notice owner\r\n     * @param _newAdmin address   : \r\n     * @param _contract address[] : \r\n     * @return          bool      true\r\n     */\r\n    function migrate(address _newAdmin, address[] memory _contract) public onlyOwner\r\n        returns(bool)\r\n    {\r\n        uint256 _len = _contract.length;\r\n        for (uint256 i = 0; i < _len; i++){\r\n            WhiteMange _addr = WhiteMange(_contract[i]);\r\n            require(_addr.admin() == address(this), \"Sorry, you entered an invalid contract address\");\r\n            _addr.transferAdminship(_newAdmin);\r\n        }\r\n    }\r\n\r\n    /**\r\n     * @dev \r\n     * @param _contract address : \r\n     * @return          bool    : amdintrue\r\n     */\r\n    function isAdmin(address _contract) public view  returns(bool){\r\n        if (WhiteMange(_contract).admin() == address(this)){\r\n            return true;\r\n        }else{\r\n            return false;\r\n        }\r\n\r\n    }\r\n}\r\n\r\n",
  "sourcePath": "E:\\contracts\\contracts\\AdminModule.sol",
  "compiler": {
    "name": "solc",
    "version": "0.6.3+commit.8dda9521.Emscripten.clang"
  },
  "schemaVersion": "3.0.23",
  "updatedAt": "2020-03-09T03:33:22.406Z",
  "networkType": "ethereum",
  "devdoc": {
    "details": "AdminOwner,ownerAdmin  *  1. ResourceDB  2. ResourceDB  3.  4. OrderDB  5. ",
    "methods": {
      "acceptOwnership()": {
        "details": "Allows the newOwner address to finalize the transfer."
      },
      "changeOrderDB(address)": {
        "details": "OrderDB",
        "params": {
          "_newOrderDB": "address :  orderDB"
        },
        "returns": {
          "_0": "bool    :  true"
        }
      },
      "changeResourceDB(address)": {
        "details": "ResourceDB",
        "params": {
          "_newResourceDB": "address  : claimDB"
        },
        "returns": {
          "_0": "bool     :  true"
        }
      },
      "deleteOrder(bytes32)": {
        "details": "",
        "params": {
          "_orderId": "bytes32  :  ID"
        },
        "returns": {
          "_0": "bool     :  true"
        }
      },
      "deleteResource(bytes16)": {
        "details": "",
        "params": {
          "_resId": "bytes16  : ID"
        },
        "returns": {
          "_0": "bool     : true"
        }
      },
      "isAdmin(address)": {
        "details": "",
        "params": {
          "_contract": "address : "
        },
        "returns": {
          "_0": "bool    : amdintrue"
        }
      },
      "mangeDestWhite(address,address,bool)": {
        "details": "",
        "params": {
          "_allow": "bool      : ture ",
          "_contract": "address   : ",
          "_target": "address   : "
        },
        "returns": {
          "_0": "bool      : true"
        }
      },
      "mangeWhiteList(address,bool)": {
        "details": "",
        "params": {
          "_allow": "bool     : truefalse",
          "_target": "address  : "
        },
        "returns": {
          "_0": "bool     : true"
        }
      },
      "migrate(address,address[])": {
        "details": "",
        "params": {
          "_contract": "address[] : ",
          "_newAdmin": "address   : "
        },
        "returns": {
          "_0": "bool      true"
        }
      },
      "mulInsertWhite(address[])": {
        "details": "",
        "params": {
          "_addresses": "address[] : "
        },
        "returns": {
          "_0": "bool      : true"
        }
      },
      "renounceOwnership()": {
        "details": "Allows the current owner to relinquish control of the contract."
      },
      "transferAdminship(address)": {
        "details": "Allows the current admin to transfer control of the contract to a newadmin.",
        "params": {
          "_newAdmin": "address : new admin address"
        }
      },
      "transferOwnership(address)": {
        "details": "Allows the current owner to transfer control of the contract to a newOwner.",
        "params": {
          "_newOwner": "The address to transfer ownership to."
        }
      }
    },
    "title": ""
  },
  "userdoc": {
    "methods": {
      "mangeWhiteList(address,bool)": {
        "notice": ""
      },
      "migrate(address,address[])": {
        "notice": "owner"
      },
      "mulInsertWhite(address[])": {
        "notice": ""
      },
      "renounceOwnership()": {
        "notice": "Renouncing to ownership will leave the contract without an owner. It will not be possible to call the functions with the `onlyOwner` modifier anymore."
      }
    }
  }
}