{
  "contractName": "AuthorModule",
  "abi": [
    {
      "inputs": [
        {
          "internalType": "address",
          "name": "_center",
          "type": "address"
        },
        {
          "internalType": "address",
          "name": "_info",
          "type": "address"
        }
      ],
      "stateMutability": "nonpayable",
      "type": "constructor"
    },
    {
      "anonymous": false,
      "inputs": [
        {
          "indexed": false,
          "internalType": "enum ErrorModule.RScorr",
          "name": "_errorNumber",
          "type": "uint8"
        }
      ],
      "name": "LogError",
      "type": "event"
    },
    {
      "inputs": [],
      "name": "Center_",
      "outputs": [
        {
          "internalType": "contract CenterControl",
          "name": "",
          "type": "address"
        }
      ],
      "stateMutability": "view",
      "type": "function",
      "constant": true
    },
    {
      "inputs": [],
      "name": "Info_",
      "outputs": [
        {
          "internalType": "contract InfoDB",
          "name": "",
          "type": "address"
        }
      ],
      "stateMutability": "view",
      "type": "function",
      "constant": true
    },
    {
      "inputs": [
        {
          "internalType": "string",
          "name": "_ipfs",
          "type": "string"
        },
        {
          "internalType": "string[]",
          "name": "_thubanail",
          "type": "string[]"
        },
        {
          "internalType": "string",
          "name": "_cover",
          "type": "string"
        },
        {
          "internalType": "string",
          "name": "_title",
          "type": "string"
        }
      ],
      "name": "publish",
      "outputs": [
        {
          "internalType": "bytes16",
          "name": "",
          "type": "bytes16"
        }
      ],
      "stateMutability": "payable",
      "type": "function",
      "payable": true
    },
    {
      "inputs": [
        {
          "internalType": "bytes16",
          "name": "_sId",
          "type": "bytes16"
        },
        {
          "internalType": "string",
          "name": "_ipfs",
          "type": "string"
        },
        {
          "internalType": "string[]",
          "name": "_thubanail",
          "type": "string[]"
        },
        {
          "internalType": "string",
          "name": "_cover",
          "type": "string"
        },
        {
          "internalType": "string",
          "name": "_title",
          "type": "string"
        }
      ],
      "name": "updateResource",
      "outputs": [
        {
          "internalType": "bool",
          "name": "",
          "type": "bool"
        }
      ],
      "stateMutability": "nonpayable",
      "type": "function"
    },
    {
      "inputs": [
        {
          "internalType": "bytes16",
          "name": "_resId",
          "type": "bytes16"
        }
      ],
      "name": "abandonResource",
      "outputs": [
        {
          "internalType": "bool",
          "name": "",
          "type": "bool"
        }
      ],
      "stateMutability": "nonpayable",
      "type": "function"
    },
    {
      "inputs": [],
      "name": "myResource",
      "outputs": [
        {
          "internalType": "bytes16[]",
          "name": "",
          "type": "bytes16[]"
        }
      ],
      "stateMutability": "view",
      "type": "function",
      "constant": true
    },
    {
      "inputs": [
        {
          "internalType": "address",
          "name": "_author",
          "type": "address"
        }
      ],
      "name": "resourceByAddress",
      "outputs": [
        {
          "internalType": "bytes16[]",
          "name": "",
          "type": "bytes16[]"
        }
      ],
      "stateMutability": "view",
      "type": "function",
      "constant": true
    },
    {
      "inputs": [
        {
          "internalType": "bytes16",
          "name": "_resId",
          "type": "bytes16"
        }
      ],
      "name": "consumerByClaim",
      "outputs": [
        {
          "internalType": "address[]",
          "name": "",
          "type": "address[]"
        }
      ],
      "stateMutability": "view",
      "type": "function",
      "constant": true
    },
    {
      "inputs": [
        {
          "internalType": "bytes16",
          "name": "_resID",
          "type": "bytes16"
        }
      ],
      "name": "findResourceInfo",
      "outputs": [
        {
          "components": [
            {
              "internalType": "uint256",
              "name": "initDate",
              "type": "uint256"
            },
            {
              "internalType": "address",
              "name": "author",
              "type": "address"
            },
            {
              "internalType": "bool",
              "name": "waive",
              "type": "bool"
            },
            {
              "internalType": "string",
              "name": "ipfs",
              "type": "string"
            },
            {
              "internalType": "uint256",
              "name": "gratuityNum",
              "type": "uint256"
            },
            {
              "internalType": "string[]",
              "name": "thubanail",
              "type": "string[]"
            },
            {
              "internalType": "string",
              "name": "cover",
              "type": "string"
            },
            {
              "internalType": "string",
              "name": "title",
              "type": "string"
            }
          ],
          "internalType": "struct ResourceDB.Resource",
          "name": "",
          "type": "tuple"
        }
      ],
      "stateMutability": "view",
      "type": "function",
      "constant": true
    },
    {
      "inputs": [
        {
          "internalType": "bytes32",
          "name": "_orderId",
          "type": "bytes32"
        }
      ],
      "name": "findOrderInfo",
      "outputs": [
        {
          "internalType": "uint256",
          "name": "time",
          "type": "uint256"
        },
        {
          "internalType": "uint256",
          "name": "value",
          "type": "uint256"
        },
        {
          "internalType": "address",
          "name": "author",
          "type": "address"
        },
        {
          "internalType": "address",
          "name": "payer",
          "type": "address"
        },
        {
          "internalType": "bytes16",
          "name": "resId",
          "type": "bytes16"
        }
      ],
      "stateMutability": "view",
      "type": "function",
      "constant": true
    }
  ],
  "bytecode": "0x60806040523480156200001157600080fd5b5060405162001ce938038062001ce98339818101604052620000379190810190620000d7565b816000806101000a81548173ffffffffffffffffffffffffffffffffffffffff021916908373ffffffffffffffffffffffffffffffffffffffff16021790555080600160006101000a81548173ffffffffffffffffffffffffffffffffffffffff021916908373ffffffffffffffffffffffffffffffffffffffff160217905550505062000166565b600081519050620000d1816200014c565b92915050565b60008060408385031215620000eb57600080fd5b6000620000fb85828601620000c0565b92505060206200010e85828601620000c0565b9150509250929050565b600062000125826200012c565b9050919050565b600073ffffffffffffffffffffffffffffffffffffffff82169050919050565b620001578162000118565b81146200016357600080fd5b50565b611b7380620001766000396000f3fe6080604052600436106100915760003560e01c8063555ef0d411610059578063555ef0d4146101a857806355e41698146101d35780638f72f5bd14610214578063954b0370146102515780639b9903aa1461028e57610091565b80631a13d145146100965780631d87af35146100d35780632e090f28146101105780633d1ad1e11461013b5780635407790014610178575b600080fd5b3480156100a257600080fd5b506100bd60048036036100b89190810190610e1a565b6102b9565b6040516100ca91906116c5565b60405180910390f35b3480156100df57600080fd5b506100fa60048036036100f59190810190610e1a565b610377565b604051610107919061151b565b60405180910390f35b34801561011c57600080fd5b50610125610431565b6040516101329190611620565b60405180910390f35b34801561014757600080fd5b50610162600480360361015d9190810190610e1a565b610456565b60405161016f91906114d7565b60405180910390f35b610192600480360361018d9190810190610f6c565b61050f565b60405161019f9190611536565b60405180910390f35b3480156101b457600080fd5b506101bd6105cf565b6040516101ca919061163b565b60405180910390f35b3480156101df57600080fd5b506101fa60048036036101f59190810190610f43565b6105f5565b60405161020b9594939291906116e7565b60405180910390f35b34801561022057600080fd5b5061023b60048036036102369190810190610e6c565b6106ba565b604051610248919061151b565b60405180910390f35b34801561025d57600080fd5b5061027860048036036102739190810190610d46565b61077d565b60405161028591906114f9565b60405180910390f35b34801561029a57600080fd5b506102a3610836565b6040516102b091906114f9565b60405180910390f35b6102c1610846565b6000809054906101000a900473ffffffffffffffffffffffffffffffffffffffff1673ffffffffffffffffffffffffffffffffffffffff166370ce4e08836040518263ffffffff1660e01b815260040161031b9190611536565b60006040518083038186803b15801561033357600080fd5b505afa158015610347573d6000803e3d6000fd5b505050506040513d6000823e3d601f19601f82011682018060405250610370919081019061102f565b9050919050565b60008060009054906101000a900473ffffffffffffffffffffffffffffffffffffffff1673ffffffffffffffffffffffffffffffffffffffff1663aa492ec2833360016040518463ffffffff1660e01b81526004016103d893929190611551565b602060405180830381600087803b1580156103f257600080fd5b505af1158015610406573d6000803e3d6000fd5b505050506040513d601f19601f8201168201806040525061042a9190810190610df1565b9050919050565b6000809054906101000a900473ffffffffffffffffffffffffffffffffffffffff1681565b6060600160009054906101000a900473ffffffffffffffffffffffffffffffffffffffff1673ffffffffffffffffffffffffffffffffffffffff16631a0d24c5836040518263ffffffff1660e01b81526004016104b39190611536565b60006040518083038186803b1580156104cb57600080fd5b505afa1580156104df573d6000803e3d6000fd5b505050506040513d6000823e3d601f19601f820116820180604052506105089190810190610d6f565b9050919050565b60008060009054906101000a900473ffffffffffffffffffffffffffffffffffffffff1673ffffffffffffffffffffffffffffffffffffffff1663703ddbca86338787876040518663ffffffff1660e01b8152600401610573959493929190611656565b602060405180830381600087803b15801561058d57600080fd5b505af11580156105a1573d6000803e3d6000fd5b505050506040513d601f19601f820116820180604052506105c59190810190610e43565b9050949350505050565b600160009054906101000a900473ffffffffffffffffffffffffffffffffffffffff1681565b60008060008060008060009054906101000a900473ffffffffffffffffffffffffffffffffffffffff1673ffffffffffffffffffffffffffffffffffffffff1663024663f7876040518263ffffffff1660e01b81526004016106579190611605565b60a06040518083038186803b15801561066f57600080fd5b505afa158015610683573d6000803e3d6000fd5b505050506040513d601f19601f820116820180604052506106a79190810190611070565b9450945094509450945091939590929450565b60008060009054906101000a900473ffffffffffffffffffffffffffffffffffffffff1673ffffffffffffffffffffffffffffffffffffffff16639af2a7a68733888888886040518763ffffffff1660e01b815260040161072096959493929190611588565b602060405180830381600087803b15801561073a57600080fd5b505af115801561074e573d6000803e3d6000fd5b505050506040513d601f19601f820116820180604052506107729190810190610df1565b905095945050505050565b6060600160009054906101000a900473ffffffffffffffffffffffffffffffffffffffff1673ffffffffffffffffffffffffffffffffffffffff166369a32767836040518263ffffffff1660e01b81526004016107da91906114bc565b60006040518083038186803b1580156107f257600080fd5b505afa158015610806573d6000803e3d6000fd5b505050506040513d6000823e3d601f19601f8201168201806040525061082f9190810190610db0565b9050919050565b60606108413361077d565b905090565b60405180610100016040528060008152602001600073ffffffffffffffffffffffffffffffffffffffff16815260200160001515815260200160608152602001600081526020016060815260200160608152602001606081525090565b6000813590506108b281611aca565b92915050565b6000815190506108c781611aca565b92915050565b600082601f8301126108de57600080fd5b81516108f16108ec82611767565b61173a565b9150818183526020840193506020810190508385602084028201111561091657600080fd5b60005b83811015610946578161092c88826108b8565b845260208401935060208301925050600181019050610919565b5050505092915050565b600082601f83011261096157600080fd5b815161097461096f8261178f565b61173a565b9150818183526020840193506020810190508385602084028201111561099957600080fd5b60005b838110156109c957816109af8882610ae5565b84526020840193506020830192505060018101905061099c565b5050505092915050565b600082601f8301126109e457600080fd5b81516109f76109f2826117b7565b61173a565b9150818183526020840193506020810190508360005b83811015610a3d5781518601610a238882610b63565b845260208401935060208301925050600181019050610a0d565b5050505092915050565b600082601f830112610a5857600080fd5b8135610a6b610a66826117df565b61173a565b9150818183526020840193506020810190508360005b83811015610ab15781358601610a978882610b0f565b845260208401935060208301925050600181019050610a81565b5050505092915050565b600081519050610aca81611ae1565b92915050565b600081359050610adf81611af8565b92915050565b600081519050610af481611af8565b92915050565b600081359050610b0981611b0f565b92915050565b600082601f830112610b2057600080fd5b8135610b33610b2e82611807565b61173a565b91508082526020830160208301858383011115610b4f57600080fd5b610b5a838284611a77565b50505092915050565b600082601f830112610b7457600080fd5b8151610b87610b8282611807565b61173a565b91508082526020830160208301858383011115610ba357600080fd5b610bae838284611a86565b50505092915050565b600082601f830112610bc857600080fd5b8135610bdb610bd682611833565b61173a565b91508082526020830160208301858383011115610bf757600080fd5b610c02838284611a77565b50505092915050565b60006101008284031215610c1e57600080fd5b610c2961010061173a565b90506000610c3984828501610d31565b6000830152506020610c4d848285016108b8565b6020830152506040610c6184828501610abb565b604083015250606082015167ffffffffffffffff811115610c8157600080fd5b610c8d84828501610b63565b6060830152506080610ca184828501610d31565b60808301525060a082015167ffffffffffffffff811115610cc157600080fd5b610ccd848285016109d3565b60a08301525060c082015167ffffffffffffffff811115610ced57600080fd5b610cf984828501610b63565b60c08301525060e082015167ffffffffffffffff811115610d1957600080fd5b610d2584828501610b63565b60e08301525092915050565b600081519050610d4081611b26565b92915050565b600060208284031215610d5857600080fd5b6000610d66848285016108a3565b91505092915050565b600060208284031215610d8157600080fd5b600082015167ffffffffffffffff811115610d9b57600080fd5b610da7848285016108cd565b91505092915050565b600060208284031215610dc257600080fd5b600082015167ffffffffffffffff811115610ddc57600080fd5b610de884828501610950565b91505092915050565b600060208284031215610e0357600080fd5b6000610e1184828501610abb565b91505092915050565b600060208284031215610e2c57600080fd5b6000610e3a84828501610ad0565b91505092915050565b600060208284031215610e5557600080fd5b6000610e6384828501610ae5565b91505092915050565b600080600080600060a08688031215610e8457600080fd5b6000610e9288828901610ad0565b955050602086013567ffffffffffffffff811115610eaf57600080fd5b610ebb88828901610bb7565b945050604086013567ffffffffffffffff811115610ed857600080fd5b610ee488828901610a47565b935050606086013567ffffffffffffffff811115610f0157600080fd5b610f0d88828901610bb7565b925050608086013567ffffffffffffffff811115610f2a57600080fd5b610f3688828901610bb7565b9150509295509295909350565b600060208284031215610f5557600080fd5b6000610f6384828501610afa565b91505092915050565b60008060008060808587031215610f8257600080fd5b600085013567ffffffffffffffff811115610f9c57600080fd5b610fa887828801610bb7565b945050602085013567ffffffffffffffff811115610fc557600080fd5b610fd187828801610a47565b935050604085013567ffffffffffffffff811115610fee57600080fd5b610ffa87828801610bb7565b925050606085013567ffffffffffffffff81111561101757600080fd5b61102387828801610bb7565b91505092959194509250565b60006020828403121561104157600080fd5b600082015167ffffffffffffffff81111561105b57600080fd5b61106784828501610c0b565b91505092915050565b600080600080600060a0868803121561108857600080fd5b600061109688828901610d31565b95505060206110a788828901610d31565b94505060406110b8888289016108b8565b93505060606110c9888289016108b8565b92505060806110da88828901610ae5565b9150509295509295909350565b60006110f3838361113a565b60208301905092915050565b600061110b838361131c565b60208301905092915050565b600061112383836113a0565b905092915050565b611134816119f9565b82525050565b6111438161197b565b82525050565b6111528161197b565b82525050565b60006111638261189f565b61116d8185611915565b93506111788361185f565b8060005b838110156111a957815161119088826110e7565b975061119b836118e1565b92505060018101905061117c565b5085935050505092915050565b60006111c1826118aa565b6111cb8185611926565b93506111d68361186f565b8060005b838110156112075781516111ee88826110ff565b97506111f9836118ee565b9250506001810190506111da565b5085935050505092915050565b600061121f826118c0565b6112298185611948565b93508360208202850161123b8561188f565b8060005b8581101561127757848403895281516112588582611117565b945061126383611908565b925060208a0199505060018101905061123f565b50829750879550505050505092915050565b6000611294826118b5565b61129e8185611937565b9350836020820285016112b08561187f565b8060005b858110156112ec57848403895281516112cd8582611117565b94506112d8836118fb565b925060208a019950506001810190506112b4565b50829750879550505050505092915050565b6113078161198d565b82525050565b6113168161198d565b82525050565b61132581611999565b82525050565b61133481611999565b82525050565b611343816119c5565b82525050565b61135281611a0b565b82525050565b61136181611a2f565b82525050565b6000611372826118d6565b61137c818561196a565b935061138c818560208601611a86565b61139581611ab9565b840191505092915050565b60006113ab826118cb565b6113b58185611959565b93506113c5818560208601611a86565b6113ce81611ab9565b840191505092915050565b6000610100830160008301516113f2600086018261149e565b506020830151611405602086018261113a565b50604083015161141860408601826112fe565b506060830151848203606086015261143082826113a0565b9150506080830151611445608086018261149e565b5060a083015184820360a086015261145d8282611289565b91505060c083015184820360c086015261147782826113a0565b91505060e083015184820360e086015261149182826113a0565b9150508091505092915050565b6114a7816119ef565b82525050565b6114b6816119ef565b82525050565b60006020820190506114d16000830184611149565b92915050565b600060208201905081810360008301526114f18184611158565b905092915050565b6000602082019050818103600083015261151381846111b6565b905092915050565b6000602082019050611530600083018461130d565b92915050565b600060208201905061154b600083018461132b565b92915050565b6000606082019050611566600083018661132b565b611573602083018561112b565b611580604083018461130d565b949350505050565b600060c08201905061159d600083018961132b565b6115aa602083018861112b565b81810360408301526115bc8187611367565b905081810360608301526115d08186611214565b905081810360808301526115e48185611367565b905081810360a08301526115f88184611367565b9050979650505050505050565b600060208201905061161a600083018461133a565b92915050565b60006020820190506116356000830184611349565b92915050565b60006020820190506116506000830184611358565b92915050565b600060a08201905081810360008301526116708188611367565b905061167f602083018761112b565b81810360408301526116918186611214565b905081810360608301526116a58185611367565b905081810360808301526116b98184611367565b90509695505050505050565b600060208201905081810360008301526116df81846113d9565b905092915050565b600060a0820190506116fc60008301886114ad565b61170960208301876114ad565b6117166040830186611149565b6117236060830185611149565b611730608083018461132b565b9695505050505050565b6000604051905081810181811067ffffffffffffffff8211171561175d57600080fd5b8060405250919050565b600067ffffffffffffffff82111561177e57600080fd5b602082029050602081019050919050565b600067ffffffffffffffff8211156117a657600080fd5b602082029050602081019050919050565b600067ffffffffffffffff8211156117ce57600080fd5b602082029050602081019050919050565b600067ffffffffffffffff8211156117f657600080fd5b602082029050602081019050919050565b600067ffffffffffffffff82111561181e57600080fd5b601f19601f8301169050602081019050919050565b600067ffffffffffffffff82111561184a57600080fd5b601f19601f8301169050602081019050919050565b6000819050602082019050919050565b6000819050602082019050919050565b6000819050602082019050919050565b6000819050602082019050919050565b600081519050919050565b600081519050919050565b600081519050919050565b600081519050919050565b600081519050919050565b600081519050919050565b6000602082019050919050565b6000602082019050919050565b6000602082019050919050565b6000602082019050919050565b600082825260208201905092915050565b600082825260208201905092915050565b600082825260208201905092915050565b600082825260208201905092915050565b600082825260208201905092915050565b600082825260208201905092915050565b6000611986826119cf565b9050919050565b60008115159050919050565b60007fffffffffffffffffffffffffffffffff0000000000000000000000000000000082169050919050565b6000819050919050565b600073ffffffffffffffffffffffffffffffffffffffff82169050919050565b6000819050919050565b6000611a0482611a53565b9050919050565b6000611a1682611a1d565b9050919050565b6000611a28826119cf565b9050919050565b6000611a3a82611a41565b9050919050565b6000611a4c826119cf565b9050919050565b6000611a5e82611a65565b9050919050565b6000611a70826119cf565b9050919050565b82818337600083830152505050565b60005b83811015611aa4578082015181840152602081019050611a89565b83811115611ab3576000848401525b50505050565b6000601f19601f8301169050919050565b611ad38161197b565b8114611ade57600080fd5b50565b611aea8161198d565b8114611af557600080fd5b50565b611b0181611999565b8114611b0c57600080fd5b50565b611b18816119c5565b8114611b2357600080fd5b50565b611b2f816119ef565b8114611b3a57600080fd5b5056fea264697066735822122000aec62f23355bb03498e0b931eb98bb215bf098d6cd10064222ae2412ce287864736f6c63430006030033",
  "source": "pragma solidity >=0.5.12 <0.7.0;\r\npragma experimental ABIEncoderV2;\r\n\r\nimport \"./CenterControl.sol\";\r\nimport \"./ErrorModule.sol\";\r\nimport \"./InfoDB.sol\";\r\nimport \"./SafeMath.sol\";\r\nimport \"./ResourceDB.sol\";\r\n\r\ncontract AuthorModule is ErrorModule {\r\n    using SafeMath for uint256;\r\n\r\n    CenterControl public Center_;\r\n    InfoDB public Info_;\r\n\r\n    /**\r\n     * @dev \r\n     * @param _center address : \r\n     * @param _info   address : \r\n     */\r\n    constructor(address _center, address _info) public {\r\n        Center_ = CenterControl(_center);\r\n        Info_ = InfoDB(_info);\r\n    }\r\n\r\n    /**\r\n     * @dev \r\n     * @dev \r\n     * @param _ipfs      string  : UDFS Hash\r\n     * @param _thubanail :\r\n     * @param _cover :\r\n     * @param _title :\r\n     * @return           bool    :  true\r\n     */\r\n    function publish(\r\n        string memory _ipfs,\r\n        string[] memory _thubanail,\r\n        string memory _cover,\r\n        string memory _title\r\n    ) public payable returns (bytes16) {\r\n        // if (_hashFilter(_ipfs) == false) {\r\n        //     emit LogError(RScorr.InvalidUdfs);\r\n        //     return false;\r\n        // }\r\n\r\n        // \r\n        //return Center_.createClaim(_udfs, msg.sender, _price, _type, true);\\]\r\n\r\n        return Center_.createResource(\r\n                _ipfs,\r\n                msg.sender,\r\n                _thubanail,\r\n                _cover,\r\n                _title\r\n            ) ;\r\n    }\r\n\r\n    /**\r\n     * @dev \r\n     * @param _sId  bytes16 : \r\n     * @param _ipfs  string  : udfs\r\n     * @param _thubanail :\r\n     * @param _cover :\r\n     * @param _title :\r\n     * @return          bool    :  true\r\n     */\r\n    function updateResource(\r\n        bytes16 _sId,\r\n        string memory _ipfs,\r\n        string[] memory _thubanail,\r\n        string memory _cover,\r\n        string memory _title\r\n    ) public returns (bool) {\r\n        return\r\n            Center_.updateResource(\r\n                _sId,\r\n                msg.sender,\r\n                _ipfs,\r\n                _thubanail,\r\n                _cover,\r\n                _title\r\n            );\r\n    }\r\n\r\n    /**\r\n     * @dev \r\n     * @param _resId bytes16 : \r\n     * @return         bool    :  true\r\n     */\r\n    function abandonResource(bytes16 _resId) public returns (bool) {\r\n        return Center_.updateResourceWaive(_resId, msg.sender, true);\r\n    } //TODO : How?\r\n\r\n    /////////////////////////\r\n    /// View\r\n    /////////////////////////\r\n\r\n    /**\r\n     * @dev \r\n     * @return bytes16[] :claimId\r\n     */\r\n    function myResource() public view returns (bytes16[] memory) {\r\n        return resourceByAddress(msg.sender);\r\n    }\r\n\r\n    /**\r\n     * @dev \r\n     * @return  bytes16[] :claimId\r\n     */\r\n    function resourceByAddress(address _author)\r\n        public\r\n        view\r\n        returns (bytes16[] memory)\r\n    {\r\n        return Info_.getResourceByAuthor(_author);\r\n    }\r\n\r\n    /**\r\n     * @dev \r\n     * @return address[] :\r\n     */\r\n    function consumerByClaim(bytes16 _resId)\r\n        public\r\n        view\r\n        returns (address[] memory)\r\n    {\r\n        return Info_.getConsumerByResource(_resId);\r\n    }\r\n\r\n    /**\r\n     * @dev \r\n     * @param _resID   bytes16 : id\r\n     */\r\n    function findResourceInfo(bytes16 _resID)\r\n        public\r\n        view\r\n        returns (ResourceDB.Resource memory\r\n            // address author,\r\n            // string memory ipfs,\r\n            // uint256 initDate,\r\n            // bool waive,\r\n            // uint256 gratuityNum,\r\n            // string memory _cover,\r\n            // string memory _title,\r\n            //  string[] memory _thubanail\r\n        )\r\n    {\r\n        return Center_.getResourceDetails(_resID);\r\n    }\r\n\r\n    /**\r\n     * @dev \r\n     * @param _orderId bytes32  : ID\r\n     */\r\n    function findOrderInfo(bytes32 _orderId)\r\n        public\r\n        view\r\n        returns (\r\n            uint256 time,\r\n            uint256 value,\r\n            address author,\r\n            address payer,\r\n            bytes16 resId\r\n        )\r\n    {\r\n        return Center_.getOrderDetails(_orderId);\r\n    }\r\n\r\n    ///////////////////////\r\n    /// Internal Function\r\n    //////////////////////\r\n\r\n    // /**\r\n    //  * @dev HASH\r\n    //  * @param _input string  : \r\n    //  * @return bool          : true\r\n    //  */\r\n    // function _hashFilter(string memory _input) internal pure returns (bool) {\r\n    //     bytes memory _temp = bytes(_input);\r\n\r\n    //     // length == 46 , Qm~\r\n    //     if (_temp.length == 46 && _temp[0] == 0x51 && _temp[1] == 0x6D) {\r\n    //         return true;\r\n    //     }\r\n    //     return false;\r\n    // }\r\n\r\n}\r\n",
  "sourcePath": "E:\\contracts\\contracts\\AuthorModule.sol",
  "compiler": {
    "name": "solc",
    "version": "0.6.3+commit.8dda9521.Emscripten.clang"
  },
  "schemaVersion": "3.0.23",
  "updatedAt": "2020-04-06T14:58:02.385Z",
  "networkType": "ethereum",
  "devdoc": {
    "methods": {
      "abandonResource(bytes16)": {
        "details": "",
        "params": {
          "_resId": "bytes16 : "
        },
        "returns": {
          "_0": "bool    :  true"
        }
      },
      "constructor": {
        "details": "",
        "params": {
          "_center": "address : ",
          "_info": "address : "
        }
      },
      "consumerByClaim(bytes16)": {
        "details": "",
        "returns": {
          "_0": "address[] :"
        }
      },
      "findOrderInfo(bytes32)": {
        "details": "",
        "params": {
          "_orderId": "bytes32  : ID"
        }
      },
      "findResourceInfo(bytes16)": {
        "details": "",
        "params": {
          "_resID": "bytes16 : id"
        }
      },
      "myResource()": {
        "details": "",
        "returns": {
          "_0": "bytes16[] :claimId"
        }
      },
      "publish(string,string[],string,string)": {
        "details": "",
        "params": {
          "_cover": ":",
          "_ipfs": "string  : UDFS Hash",
          "_thubanail": ":",
          "_title": ":"
        },
        "returns": {
          "_0": "bool    :  true"
        }
      },
      "resourceByAddress(address)": {
        "details": "",
        "returns": {
          "_0": "bytes16[] :claimId"
        }
      },
      "updateResource(bytes16,string,string[],string,string)": {
        "details": "",
        "params": {
          "_cover": ":",
          "_ipfs": "string  : udfs",
          "_sId": "bytes16 : ",
          "_thubanail": ":",
          "_title": ":"
        },
        "returns": {
          "_0": "bool    :  true"
        }
      }
    }
  },
  "userdoc": {
    "methods": {}
  }
}