{
  "contractName": "AuthorModule",
  "abi": [
    {
      "inputs": [
        {
          "internalType": "address",
          "name": "_center",
          "type": "address"
        },
        {
          "internalType": "address",
          "name": "_info",
          "type": "address"
        }
      ],
      "stateMutability": "nonpayable",
      "type": "constructor"
    },
    {
      "anonymous": false,
      "inputs": [
        {
          "indexed": false,
          "internalType": "enum ErrorModule.RScorr",
          "name": "_errorNumber",
          "type": "uint8"
        }
      ],
      "name": "LogError",
      "type": "event"
    },
    {
      "inputs": [],
      "name": "Center_",
      "outputs": [
        {
          "internalType": "contract CenterControl",
          "name": "",
          "type": "address"
        }
      ],
      "stateMutability": "view",
      "type": "function",
      "constant": true
    },
    {
      "inputs": [],
      "name": "Info_",
      "outputs": [
        {
          "internalType": "contract InfoDB",
          "name": "",
          "type": "address"
        }
      ],
      "stateMutability": "view",
      "type": "function",
      "constant": true
    },
    {
      "inputs": [
        {
          "internalType": "string",
          "name": "_ipfs",
          "type": "string"
        },
        {
          "internalType": "string[]",
          "name": "_thubanail",
          "type": "string[]"
        },
        {
          "internalType": "string",
          "name": "_cover",
          "type": "string"
        },
        {
          "internalType": "string",
          "name": "_title",
          "type": "string"
        }
      ],
      "name": "publish",
      "outputs": [
        {
          "internalType": "bytes16",
          "name": "",
          "type": "bytes16"
        }
      ],
      "stateMutability": "payable",
      "type": "function",
      "payable": true
    },
    {
      "inputs": [
        {
          "internalType": "bytes16",
          "name": "_sId",
          "type": "bytes16"
        },
        {
          "internalType": "string",
          "name": "_ipfs",
          "type": "string"
        },
        {
          "internalType": "string[]",
          "name": "_thubanail",
          "type": "string[]"
        },
        {
          "internalType": "string",
          "name": "_cover",
          "type": "string"
        },
        {
          "internalType": "string",
          "name": "_title",
          "type": "string"
        }
      ],
      "name": "updateResource",
      "outputs": [
        {
          "internalType": "bool",
          "name": "",
          "type": "bool"
        }
      ],
      "stateMutability": "nonpayable",
      "type": "function"
    },
    {
      "inputs": [
        {
          "internalType": "bytes16",
          "name": "_resId",
          "type": "bytes16"
        },
        {
          "internalType": "bool",
          "name": "waive",
          "type": "bool"
        }
      ],
      "name": "changeResourceWaive",
      "outputs": [
        {
          "internalType": "bool",
          "name": "",
          "type": "bool"
        }
      ],
      "stateMutability": "nonpayable",
      "type": "function"
    },
    {
      "inputs": [],
      "name": "myResource",
      "outputs": [
        {
          "internalType": "bytes16[]",
          "name": "",
          "type": "bytes16[]"
        }
      ],
      "stateMutability": "view",
      "type": "function",
      "constant": true
    },
    {
      "inputs": [
        {
          "internalType": "address",
          "name": "_author",
          "type": "address"
        }
      ],
      "name": "resourceByAddress",
      "outputs": [
        {
          "internalType": "bytes16[]",
          "name": "",
          "type": "bytes16[]"
        }
      ],
      "stateMutability": "view",
      "type": "function",
      "constant": true
    },
    {
      "inputs": [
        {
          "internalType": "bytes16",
          "name": "_resId",
          "type": "bytes16"
        }
      ],
      "name": "consumerByClaim",
      "outputs": [
        {
          "internalType": "address[]",
          "name": "",
          "type": "address[]"
        }
      ],
      "stateMutability": "view",
      "type": "function",
      "constant": true
    },
    {
      "inputs": [
        {
          "internalType": "bytes16",
          "name": "_resID",
          "type": "bytes16"
        }
      ],
      "name": "findResourceInfo",
      "outputs": [
        {
          "components": [
            {
              "internalType": "uint256",
              "name": "initDate",
              "type": "uint256"
            },
            {
              "internalType": "address",
              "name": "author",
              "type": "address"
            },
            {
              "internalType": "bool",
              "name": "waive",
              "type": "bool"
            },
            {
              "internalType": "string",
              "name": "ipfs",
              "type": "string"
            },
            {
              "internalType": "uint256",
              "name": "gratuityNum",
              "type": "uint256"
            },
            {
              "internalType": "string[]",
              "name": "thubanail",
              "type": "string[]"
            },
            {
              "internalType": "string",
              "name": "cover",
              "type": "string"
            },
            {
              "internalType": "string",
              "name": "title",
              "type": "string"
            }
          ],
          "internalType": "struct ResourceDB.Resource",
          "name": "",
          "type": "tuple"
        }
      ],
      "stateMutability": "view",
      "type": "function",
      "constant": true
    },
    {
      "inputs": [
        {
          "internalType": "bytes32",
          "name": "_orderId",
          "type": "bytes32"
        }
      ],
      "name": "findOrderInfo",
      "outputs": [
        {
          "internalType": "uint256",
          "name": "time",
          "type": "uint256"
        },
        {
          "internalType": "uint256",
          "name": "value",
          "type": "uint256"
        },
        {
          "internalType": "address",
          "name": "author",
          "type": "address"
        },
        {
          "internalType": "address",
          "name": "payer",
          "type": "address"
        },
        {
          "internalType": "bytes16",
          "name": "resId",
          "type": "bytes16"
        }
      ],
      "stateMutability": "view",
      "type": "function",
      "constant": true
    }
  ],
  "bytecode": "0x60806040523480156200001157600080fd5b5060405162001d3a38038062001d3a8339818101604052620000379190810190620000d7565b816000806101000a81548173ffffffffffffffffffffffffffffffffffffffff021916908373ffffffffffffffffffffffffffffffffffffffff16021790555080600160006101000a81548173ffffffffffffffffffffffffffffffffffffffff021916908373ffffffffffffffffffffffffffffffffffffffff160217905550505062000166565b600081519050620000d1816200014c565b92915050565b60008060408385031215620000eb57600080fd5b6000620000fb85828601620000c0565b92505060206200010e85828601620000c0565b9150509250929050565b600062000125826200012c565b9050919050565b600073ffffffffffffffffffffffffffffffffffffffff82169050919050565b620001578162000118565b81146200016357600080fd5b50565b611bc480620001766000396000f3fe6080604052600436106100915760003560e01c806355e416981161005957806355e41698146101965780638f72f5bd146101d7578063954b0370146102145780639b9903aa14610251578063f457084d1461027c57610091565b80631a13d145146100965780632e090f28146100d35780633d1ad1e1146100fe578063540779001461013b578063555ef0d41461016b575b600080fd5b3480156100a257600080fd5b506100bd60048036036100b89190810190610e2f565b6102b9565b6040516100ca9190611716565b60405180910390f35b3480156100df57600080fd5b506100e8610377565b6040516100f59190611671565b60405180910390f35b34801561010a57600080fd5b5061012560048036036101209190810190610e2f565b61039c565b6040516101329190611528565b60405180910390f35b61015560048036036101509190810190610fbd565b610455565b6040516101629190611587565b60405180910390f35b34801561017757600080fd5b50610180610515565b60405161018d919061168c565b60405180910390f35b3480156101a257600080fd5b506101bd60048036036101b89190810190610f94565b61053b565b6040516101ce959493929190611738565b60405180910390f35b3480156101e357600080fd5b506101fe60048036036101f99190810190610ebd565b610600565b60405161020b919061156c565b60405180910390f35b34801561022057600080fd5b5061023b60048036036102369190810190610d5b565b6106c3565b604051610248919061154a565b60405180910390f35b34801561025d57600080fd5b5061026661077c565b604051610273919061154a565b60405180910390f35b34801561028857600080fd5b506102a3600480360361029e9190810190610e81565b61078c565b6040516102b0919061156c565b60405180910390f35b6102c1610846565b6000809054906101000a900473ffffffffffffffffffffffffffffffffffffffff1673ffffffffffffffffffffffffffffffffffffffff166370ce4e08836040518263ffffffff1660e01b815260040161031b9190611587565b60006040518083038186803b15801561033357600080fd5b505afa158015610347573d6000803e3d6000fd5b505050506040513d6000823e3d601f19601f820116820180604052506103709190810190611080565b9050919050565b6000809054906101000a900473ffffffffffffffffffffffffffffffffffffffff1681565b6060600160009054906101000a900473ffffffffffffffffffffffffffffffffffffffff1673ffffffffffffffffffffffffffffffffffffffff16631a0d24c5836040518263ffffffff1660e01b81526004016103f99190611587565b60006040518083038186803b15801561041157600080fd5b505afa158015610425573d6000803e3d6000fd5b505050506040513d6000823e3d601f19601f8201168201806040525061044e9190810190610d84565b9050919050565b60008060009054906101000a900473ffffffffffffffffffffffffffffffffffffffff1673ffffffffffffffffffffffffffffffffffffffff1663703ddbca86338787876040518663ffffffff1660e01b81526004016104b99594939291906116a7565b602060405180830381600087803b1580156104d357600080fd5b505af11580156104e7573d6000803e3d6000fd5b505050506040513d601f19601f8201168201806040525061050b9190810190610e58565b9050949350505050565b600160009054906101000a900473ffffffffffffffffffffffffffffffffffffffff1681565b60008060008060008060009054906101000a900473ffffffffffffffffffffffffffffffffffffffff1673ffffffffffffffffffffffffffffffffffffffff1663024663f7876040518263ffffffff1660e01b815260040161059d9190611656565b60a06040518083038186803b1580156105b557600080fd5b505afa1580156105c9573d6000803e3d6000fd5b505050506040513d601f19601f820116820180604052506105ed91908101906110c1565b9450945094509450945091939590929450565b60008060009054906101000a900473ffffffffffffffffffffffffffffffffffffffff1673ffffffffffffffffffffffffffffffffffffffff16639af2a7a68733888888886040518763ffffffff1660e01b8152600401610666969594939291906115d9565b602060405180830381600087803b15801561068057600080fd5b505af1158015610694573d6000803e3d6000fd5b505050506040513d601f19601f820116820180604052506106b89190810190610e06565b905095945050505050565b6060600160009054906101000a900473ffffffffffffffffffffffffffffffffffffffff1673ffffffffffffffffffffffffffffffffffffffff166369a32767836040518263ffffffff1660e01b8152600401610720919061150d565b60006040518083038186803b15801561073857600080fd5b505afa15801561074c573d6000803e3d6000fd5b505050506040513d6000823e3d601f19601f820116820180604052506107759190810190610dc5565b9050919050565b6060610787336106c3565b905090565b60008060009054906101000a900473ffffffffffffffffffffffffffffffffffffffff1673ffffffffffffffffffffffffffffffffffffffff1663aa492ec28433856040518463ffffffff1660e01b81526004016107ec939291906115a2565b602060405180830381600087803b15801561080657600080fd5b505af115801561081a573d6000803e3d6000fd5b505050506040513d601f19601f8201168201806040525061083e9190810190610e06565b905092915050565b60405180610100016040528060008152602001600073ffffffffffffffffffffffffffffffffffffffff16815260200160001515815260200160608152602001600081526020016060815260200160608152602001606081525090565b6000813590506108b281611b1b565b92915050565b6000815190506108c781611b1b565b92915050565b600082601f8301126108de57600080fd5b81516108f16108ec826117b8565b61178b565b9150818183526020840193506020810190508385602084028201111561091657600080fd5b60005b83811015610946578161092c88826108b8565b845260208401935060208301925050600181019050610919565b5050505092915050565b600082601f83011261096157600080fd5b815161097461096f826117e0565b61178b565b9150818183526020840193506020810190508385602084028201111561099957600080fd5b60005b838110156109c957816109af8882610afa565b84526020840193506020830192505060018101905061099c565b5050505092915050565b600082601f8301126109e457600080fd5b81516109f76109f282611808565b61178b565b9150818183526020840193506020810190508360005b83811015610a3d5781518601610a238882610b78565b845260208401935060208301925050600181019050610a0d565b5050505092915050565b600082601f830112610a5857600080fd5b8135610a6b610a6682611830565b61178b565b9150818183526020840193506020810190508360005b83811015610ab15781358601610a978882610b24565b845260208401935060208301925050600181019050610a81565b5050505092915050565b600081359050610aca81611b32565b92915050565b600081519050610adf81611b32565b92915050565b600081359050610af481611b49565b92915050565b600081519050610b0981611b49565b92915050565b600081359050610b1e81611b60565b92915050565b600082601f830112610b3557600080fd5b8135610b48610b4382611858565b61178b565b91508082526020830160208301858383011115610b6457600080fd5b610b6f838284611ac8565b50505092915050565b600082601f830112610b8957600080fd5b8151610b9c610b9782611858565b61178b565b91508082526020830160208301858383011115610bb857600080fd5b610bc3838284611ad7565b50505092915050565b600082601f830112610bdd57600080fd5b8135610bf0610beb82611884565b61178b565b91508082526020830160208301858383011115610c0c57600080fd5b610c17838284611ac8565b50505092915050565b60006101008284031215610c3357600080fd5b610c3e61010061178b565b90506000610c4e84828501610d46565b6000830152506020610c62848285016108b8565b6020830152506040610c7684828501610ad0565b604083015250606082015167ffffffffffffffff811115610c9657600080fd5b610ca284828501610b78565b6060830152506080610cb684828501610d46565b60808301525060a082015167ffffffffffffffff811115610cd657600080fd5b610ce2848285016109d3565b60a08301525060c082015167ffffffffffffffff811115610d0257600080fd5b610d0e84828501610b78565b60c08301525060e082015167ffffffffffffffff811115610d2e57600080fd5b610d3a84828501610b78565b60e08301525092915050565b600081519050610d5581611b77565b92915050565b600060208284031215610d6d57600080fd5b6000610d7b848285016108a3565b91505092915050565b600060208284031215610d9657600080fd5b600082015167ffffffffffffffff811115610db057600080fd5b610dbc848285016108cd565b91505092915050565b600060208284031215610dd757600080fd5b600082015167ffffffffffffffff811115610df157600080fd5b610dfd84828501610950565b91505092915050565b600060208284031215610e1857600080fd5b6000610e2684828501610ad0565b91505092915050565b600060208284031215610e4157600080fd5b6000610e4f84828501610ae5565b91505092915050565b600060208284031215610e6a57600080fd5b6000610e7884828501610afa565b91505092915050565b60008060408385031215610e9457600080fd5b6000610ea285828601610ae5565b9250506020610eb385828601610abb565b9150509250929050565b600080600080600060a08688031215610ed557600080fd5b6000610ee388828901610ae5565b955050602086013567ffffffffffffffff811115610f0057600080fd5b610f0c88828901610bcc565b945050604086013567ffffffffffffffff811115610f2957600080fd5b610f3588828901610a47565b935050606086013567ffffffffffffffff811115610f5257600080fd5b610f5e88828901610bcc565b925050608086013567ffffffffffffffff811115610f7b57600080fd5b610f8788828901610bcc565b9150509295509295909350565b600060208284031215610fa657600080fd5b6000610fb484828501610b0f565b91505092915050565b60008060008060808587031215610fd357600080fd5b600085013567ffffffffffffffff811115610fed57600080fd5b610ff987828801610bcc565b945050602085013567ffffffffffffffff81111561101657600080fd5b61102287828801610a47565b935050604085013567ffffffffffffffff81111561103f57600080fd5b61104b87828801610bcc565b925050606085013567ffffffffffffffff81111561106857600080fd5b61107487828801610bcc565b91505092959194509250565b60006020828403121561109257600080fd5b600082015167ffffffffffffffff8111156110ac57600080fd5b6110b884828501610c20565b91505092915050565b600080600080600060a086880312156110d957600080fd5b60006110e788828901610d46565b95505060206110f888828901610d46565b9450506040611109888289016108b8565b935050606061111a888289016108b8565b925050608061112b88828901610afa565b9150509295509295909350565b6000611144838361118b565b60208301905092915050565b600061115c838361136d565b60208301905092915050565b600061117483836113f1565b905092915050565b61118581611a4a565b82525050565b611194816119cc565b82525050565b6111a3816119cc565b82525050565b60006111b4826118f0565b6111be8185611966565b93506111c9836118b0565b8060005b838110156111fa5781516111e18882611138565b97506111ec83611932565b9250506001810190506111cd565b5085935050505092915050565b6000611212826118fb565b61121c8185611977565b9350611227836118c0565b8060005b8381101561125857815161123f8882611150565b975061124a8361193f565b92505060018101905061122b565b5085935050505092915050565b600061127082611911565b61127a8185611999565b93508360208202850161128c856118e0565b8060005b858110156112c857848403895281516112a98582611168565b94506112b483611959565b925060208a01995050600181019050611290565b50829750879550505050505092915050565b60006112e582611906565b6112ef8185611988565b935083602082028501611301856118d0565b8060005b8581101561133d578484038952815161131e8582611168565b94506113298361194c565b925060208a01995050600181019050611305565b50829750879550505050505092915050565b611358816119de565b82525050565b611367816119de565b82525050565b611376816119ea565b82525050565b611385816119ea565b82525050565b61139481611a16565b82525050565b6113a381611a5c565b82525050565b6113b281611a80565b82525050565b60006113c382611927565b6113cd81856119bb565b93506113dd818560208601611ad7565b6113e681611b0a565b840191505092915050565b60006113fc8261191c565b61140681856119aa565b9350611416818560208601611ad7565b61141f81611b0a565b840191505092915050565b60006101008301600083015161144360008601826114ef565b506020830151611456602086018261118b565b506040830151611469604086018261134f565b506060830151848203606086015261148182826113f1565b915050608083015161149660808601826114ef565b5060a083015184820360a08601526114ae82826112da565b91505060c083015184820360c08601526114c882826113f1565b91505060e083015184820360e08601526114e282826113f1565b9150508091505092915050565b6114f881611a40565b82525050565b61150781611a40565b82525050565b6000602082019050611522600083018461119a565b92915050565b6000602082019050818103600083015261154281846111a9565b905092915050565b600060208201905081810360008301526115648184611207565b905092915050565b6000602082019050611581600083018461135e565b92915050565b600060208201905061159c600083018461137c565b92915050565b60006060820190506115b7600083018661137c565b6115c4602083018561117c565b6115d1604083018461135e565b949350505050565b600060c0820190506115ee600083018961137c565b6115fb602083018861117c565b818103604083015261160d81876113b8565b905081810360608301526116218186611265565b9050818103608083015261163581856113b8565b905081810360a083015261164981846113b8565b9050979650505050505050565b600060208201905061166b600083018461138b565b92915050565b6000602082019050611686600083018461139a565b92915050565b60006020820190506116a160008301846113a9565b92915050565b600060a08201905081810360008301526116c181886113b8565b90506116d0602083018761117c565b81810360408301526116e28186611265565b905081810360608301526116f681856113b8565b9050818103608083015261170a81846113b8565b90509695505050505050565b60006020820190508181036000830152611730818461142a565b905092915050565b600060a08201905061174d60008301886114fe565b61175a60208301876114fe565b611767604083018661119a565b611774606083018561119a565b611781608083018461137c565b9695505050505050565b6000604051905081810181811067ffffffffffffffff821117156117ae57600080fd5b8060405250919050565b600067ffffffffffffffff8211156117cf57600080fd5b602082029050602081019050919050565b600067ffffffffffffffff8211156117f757600080fd5b602082029050602081019050919050565b600067ffffffffffffffff82111561181f57600080fd5b602082029050602081019050919050565b600067ffffffffffffffff82111561184757600080fd5b602082029050602081019050919050565b600067ffffffffffffffff82111561186f57600080fd5b601f19601f8301169050602081019050919050565b600067ffffffffffffffff82111561189b57600080fd5b601f19601f8301169050602081019050919050565b6000819050602082019050919050565b6000819050602082019050919050565b6000819050602082019050919050565b6000819050602082019050919050565b600081519050919050565b600081519050919050565b600081519050919050565b600081519050919050565b600081519050919050565b600081519050919050565b6000602082019050919050565b6000602082019050919050565b6000602082019050919050565b6000602082019050919050565b600082825260208201905092915050565b600082825260208201905092915050565b600082825260208201905092915050565b600082825260208201905092915050565b600082825260208201905092915050565b600082825260208201905092915050565b60006119d782611a20565b9050919050565b60008115159050919050565b60007fffffffffffffffffffffffffffffffff0000000000000000000000000000000082169050919050565b6000819050919050565b600073ffffffffffffffffffffffffffffffffffffffff82169050919050565b6000819050919050565b6000611a5582611aa4565b9050919050565b6000611a6782611a6e565b9050919050565b6000611a7982611a20565b9050919050565b6000611a8b82611a92565b9050919050565b6000611a9d82611a20565b9050919050565b6000611aaf82611ab6565b9050919050565b6000611ac182611a20565b9050919050565b82818337600083830152505050565b60005b83811015611af5578082015181840152602081019050611ada565b83811115611b04576000848401525b50505050565b6000601f19601f8301169050919050565b611b24816119cc565b8114611b2f57600080fd5b50565b611b3b816119de565b8114611b4657600080fd5b50565b611b52816119ea565b8114611b5d57600080fd5b50565b611b6981611a16565b8114611b7457600080fd5b50565b611b8081611a40565b8114611b8b57600080fd5b5056fea264697066735822122073740e9d90430c870c553714c0b2453879fc0d1ebd52275439e2833c3e4b7d4864736f6c63430006030033",
  "source": "pragma solidity >=0.5.12 <0.7.0;\r\npragma experimental ABIEncoderV2;\r\n\r\nimport \"./CenterControl.sol\";\r\nimport \"./ErrorModule.sol\";\r\nimport \"./InfoDB.sol\";\r\nimport \"./SafeMath.sol\";\r\nimport \"./ResourceDB.sol\";\r\n\r\ncontract AuthorModule is ErrorModule {\r\n    using SafeMath for uint256;\r\n\r\n    CenterControl public Center_;\r\n    InfoDB public Info_;\r\n\r\n    /**\r\n     * @dev \r\n     * @param _center address : \r\n     * @param _info   address : \r\n     */\r\n    constructor(address _center, address _info) public {\r\n        Center_ = CenterControl(_center);\r\n        Info_ = InfoDB(_info);\r\n    }\r\n\r\n    /**\r\n     * @dev \r\n     * @dev \r\n     * @param _ipfs      string  : UDFS Hash\r\n     * @param _thubanail :\r\n     * @param _cover :\r\n     * @param _title :\r\n     * @return           bool    :  true\r\n     */\r\n    function publish(\r\n        string memory _ipfs,\r\n        string[] memory _thubanail,\r\n        string memory _cover,\r\n        string memory _title\r\n    ) public payable returns (bytes16) {\r\n        // if (_hashFilter(_ipfs) == false) {\r\n        //     emit LogError(RScorr.InvalidUdfs);\r\n        //     return false;\r\n        // }\r\n\r\n        // \r\n        //return Center_.createClaim(_udfs, msg.sender, _price, _type, true);\\]\r\n\r\n        return Center_.createResource(\r\n                _ipfs,\r\n                msg.sender,\r\n                _thubanail,\r\n                _cover,\r\n                _title\r\n            ) ;\r\n    }\r\n\r\n    /**\r\n     * @dev \r\n     * @param _sId  bytes16 : \r\n     * @param _ipfs  string  : udfs\r\n     * @param _thubanail :\r\n     * @param _cover :\r\n     * @param _title :\r\n     * @return          bool    :  true\r\n     */\r\n    function updateResource(\r\n        bytes16 _sId,\r\n        string memory _ipfs,\r\n        string[] memory _thubanail,\r\n        string memory _cover,\r\n        string memory _title\r\n    ) public returns (bool) {\r\n        return\r\n            Center_.updateResource(\r\n                _sId,\r\n                msg.sender,\r\n                _ipfs,\r\n                _thubanail,\r\n                _cover,\r\n                _title\r\n            );\r\n    }\r\n\r\n    /**\r\n     * @dev \r\n     * @param _resId bytes16 : \r\n     * @return         bool    :  true\r\n     */\r\n    function changeResourceWaive(bytes16 _resId,bool waive) public returns (bool) {\r\n        return Center_.updateResourceWaive(_resId, msg.sender, waive);\r\n    } //TODO : How?\r\n\r\n    /////////////////////////\r\n    /// View\r\n    /////////////////////////\r\n\r\n    /**\r\n     * @dev \r\n     * @return bytes16[] :claimId\r\n     */\r\n    function myResource() public view returns (bytes16[] memory) {\r\n        return resourceByAddress(msg.sender);\r\n    }\r\n\r\n    /**\r\n     * @dev \r\n     * @return  bytes16[] :claimId\r\n     */\r\n    function resourceByAddress(address _author)\r\n        public\r\n        view\r\n        returns (bytes16[] memory)\r\n    {\r\n        return Info_.getResourceByAuthor(_author);\r\n    }\r\n\r\n    /**\r\n     * @dev \r\n     * @return address[] :\r\n     */\r\n    function consumerByClaim(bytes16 _resId)\r\n        public\r\n        view\r\n        returns (address[] memory)\r\n    {\r\n        return Info_.getConsumerByResource(_resId);\r\n    }\r\n\r\n    /**\r\n     * @dev \r\n     * @param _resID   bytes16 : id\r\n     */\r\n    function findResourceInfo(bytes16 _resID)\r\n        public\r\n        view\r\n        returns (ResourceDB.Resource memory\r\n            // address author,\r\n            // string memory ipfs,\r\n            // uint256 initDate,\r\n            // bool waive,\r\n            // uint256 gratuityNum,\r\n            // string memory _cover,\r\n            // string memory _title,\r\n            //  string[] memory _thubanail\r\n        )\r\n    {\r\n        return Center_.getResourceDetails(_resID);\r\n    }\r\n\r\n    /**\r\n     * @dev \r\n     * @param _orderId bytes32  : ID\r\n     */\r\n    function findOrderInfo(bytes32 _orderId)\r\n        public\r\n        view\r\n        returns (\r\n            uint256 time,\r\n            uint256 value,\r\n            address author,\r\n            address payer,\r\n            bytes16 resId\r\n        )\r\n    {\r\n        return Center_.getOrderDetails(_orderId);\r\n    }\r\n\r\n    ///////////////////////\r\n    /// Internal Function\r\n    //////////////////////\r\n\r\n    // /**\r\n    //  * @dev HASH\r\n    //  * @param _input string  : \r\n    //  * @return bool          : true\r\n    //  */\r\n    // function _hashFilter(string memory _input) internal pure returns (bool) {\r\n    //     bytes memory _temp = bytes(_input);\r\n\r\n    //     // length == 46 , Qm~\r\n    //     if (_temp.length == 46 && _temp[0] == 0x51 && _temp[1] == 0x6D) {\r\n    //         return true;\r\n    //     }\r\n    //     return false;\r\n    // }\r\n\r\n}\r\n",
  "sourcePath": "E:\\contracts\\contracts\\AuthorModule.sol",
  "compiler": {
    "name": "solc",
    "version": "0.6.3+commit.8dda9521.Emscripten.clang"
  },
  "schemaVersion": "3.0.23",
  "updatedAt": "2020-04-07T04:37:03.531Z",
  "networkType": "ethereum",
  "devdoc": {
    "methods": {
      "changeResourceWaive(bytes16,bool)": {
        "details": "",
        "params": {
          "_resId": "bytes16 : "
        },
        "returns": {
          "_0": "bool    :  true"
        }
      },
      "constructor": {
        "details": "",
        "params": {
          "_center": "address : ",
          "_info": "address : "
        }
      },
      "consumerByClaim(bytes16)": {
        "details": "",
        "returns": {
          "_0": "address[] :"
        }
      },
      "findOrderInfo(bytes32)": {
        "details": "",
        "params": {
          "_orderId": "bytes32  : ID"
        }
      },
      "findResourceInfo(bytes16)": {
        "details": "",
        "params": {
          "_resID": "bytes16 : id"
        }
      },
      "myResource()": {
        "details": "",
        "returns": {
          "_0": "bytes16[] :claimId"
        }
      },
      "publish(string,string[],string,string)": {
        "details": "",
        "params": {
          "_cover": ":",
          "_ipfs": "string  : UDFS Hash",
          "_thubanail": ":",
          "_title": ":"
        },
        "returns": {
          "_0": "bool    :  true"
        }
      },
      "resourceByAddress(address)": {
        "details": "",
        "returns": {
          "_0": "bytes16[] :claimId"
        }
      },
      "updateResource(bytes16,string,string[],string,string)": {
        "details": "",
        "params": {
          "_cover": ":",
          "_ipfs": "string  : udfs",
          "_sId": "bytes16 : ",
          "_thubanail": ":",
          "_title": ":"
        },
        "returns": {
          "_0": "bool    :  true"
        }
      }
    }
  },
  "userdoc": {
    "methods": {}
  }
}