{
  "contractName": "AuthorModule",
  "abi": [
    {
      "inputs": [
        {
          "internalType": "address",
          "name": "_center",
          "type": "address"
        },
        {
          "internalType": "address",
          "name": "_info",
          "type": "address"
        }
      ],
      "stateMutability": "nonpayable",
      "type": "constructor"
    },
    {
      "anonymous": false,
      "inputs": [
        {
          "indexed": false,
          "internalType": "enum ErrorModule.RScorr",
          "name": "_errorNumber",
          "type": "uint8"
        }
      ],
      "name": "LogError",
      "type": "event"
    },
    {
      "anonymous": false,
      "inputs": [
        {
          "indexed": false,
          "internalType": "bool",
          "name": "success",
          "type": "bool"
        }
      ],
      "name": "LogMaiveChange",
      "type": "event"
    },
    {
      "anonymous": false,
      "inputs": [
        {
          "indexed": false,
          "internalType": "bytes16",
          "name": "resDb_",
          "type": "bytes16"
        }
      ],
      "name": "LogNewResourceResID",
      "type": "event"
    },
    {
      "inputs": [],
      "name": "Center_",
      "outputs": [
        {
          "internalType": "contract CenterControl",
          "name": "",
          "type": "address"
        }
      ],
      "stateMutability": "view",
      "type": "function",
      "constant": true
    },
    {
      "inputs": [],
      "name": "Info_",
      "outputs": [
        {
          "internalType": "contract InfoDB",
          "name": "",
          "type": "address"
        }
      ],
      "stateMutability": "view",
      "type": "function",
      "constant": true
    },
    {
      "inputs": [
        {
          "internalType": "string",
          "name": "_ipfs",
          "type": "string"
        },
        {
          "internalType": "string[]",
          "name": "_thubanail",
          "type": "string[]"
        },
        {
          "internalType": "string",
          "name": "_cover",
          "type": "string"
        },
        {
          "internalType": "string",
          "name": "_title",
          "type": "string"
        }
      ],
      "name": "publish",
      "outputs": [],
      "stateMutability": "nonpayable",
      "type": "function"
    },
    {
      "inputs": [
        {
          "internalType": "bytes16",
          "name": "_sId",
          "type": "bytes16"
        },
        {
          "internalType": "string",
          "name": "_ipfs",
          "type": "string"
        },
        {
          "internalType": "string[]",
          "name": "_thubanail",
          "type": "string[]"
        },
        {
          "internalType": "string",
          "name": "_cover",
          "type": "string"
        },
        {
          "internalType": "string",
          "name": "_title",
          "type": "string"
        }
      ],
      "name": "updateResource",
      "outputs": [
        {
          "internalType": "bool",
          "name": "",
          "type": "bool"
        }
      ],
      "stateMutability": "nonpayable",
      "type": "function"
    },
    {
      "inputs": [
        {
          "internalType": "bytes16",
          "name": "_resId",
          "type": "bytes16"
        },
        {
          "internalType": "bool",
          "name": "waive",
          "type": "bool"
        }
      ],
      "name": "changeResourceWaive",
      "outputs": [],
      "stateMutability": "nonpayable",
      "type": "function"
    },
    {
      "inputs": [],
      "name": "myResource",
      "outputs": [
        {
          "internalType": "bytes16[]",
          "name": "",
          "type": "bytes16[]"
        }
      ],
      "stateMutability": "view",
      "type": "function",
      "constant": true
    },
    {
      "inputs": [
        {
          "internalType": "address",
          "name": "_author",
          "type": "address"
        }
      ],
      "name": "resourceByAddress",
      "outputs": [
        {
          "internalType": "bytes16[]",
          "name": "",
          "type": "bytes16[]"
        }
      ],
      "stateMutability": "view",
      "type": "function",
      "constant": true
    },
    {
      "inputs": [
        {
          "internalType": "bytes16",
          "name": "_resId",
          "type": "bytes16"
        }
      ],
      "name": "consumerByClaim",
      "outputs": [
        {
          "internalType": "address[]",
          "name": "",
          "type": "address[]"
        }
      ],
      "stateMutability": "view",
      "type": "function",
      "constant": true
    },
    {
      "inputs": [
        {
          "internalType": "bytes16",
          "name": "_resID",
          "type": "bytes16"
        }
      ],
      "name": "findResourceInfo",
      "outputs": [
        {
          "components": [
            {
              "internalType": "uint256",
              "name": "initDate",
              "type": "uint256"
            },
            {
              "internalType": "address",
              "name": "author",
              "type": "address"
            },
            {
              "internalType": "bool",
              "name": "waive",
              "type": "bool"
            },
            {
              "internalType": "string",
              "name": "ipfs",
              "type": "string"
            },
            {
              "internalType": "uint256",
              "name": "gratuityNum",
              "type": "uint256"
            },
            {
              "internalType": "string[]",
              "name": "thubanail",
              "type": "string[]"
            },
            {
              "internalType": "string",
              "name": "cover",
              "type": "string"
            },
            {
              "internalType": "string",
              "name": "title",
              "type": "string"
            }
          ],
          "internalType": "struct ResourceDB.Resource",
          "name": "",
          "type": "tuple"
        }
      ],
      "stateMutability": "view",
      "type": "function",
      "constant": true
    },
    {
      "inputs": [
        {
          "internalType": "bytes32",
          "name": "_orderId",
          "type": "bytes32"
        }
      ],
      "name": "findOrderInfo",
      "outputs": [
        {
          "internalType": "uint256",
          "name": "time",
          "type": "uint256"
        },
        {
          "internalType": "uint256",
          "name": "value",
          "type": "uint256"
        },
        {
          "internalType": "address",
          "name": "author",
          "type": "address"
        },
        {
          "internalType": "address",
          "name": "payer",
          "type": "address"
        },
        {
          "internalType": "bytes16",
          "name": "resId",
          "type": "bytes16"
        }
      ],
      "stateMutability": "view",
      "type": "function",
      "constant": true
    }
  ],
  "bytecode": "0x60806040523480156200001157600080fd5b5060405162001d1638038062001d168339818101604052620000379190810190620000d7565b816000806101000a81548173ffffffffffffffffffffffffffffffffffffffff021916908373ffffffffffffffffffffffffffffffffffffffff16021790555080600160006101000a81548173ffffffffffffffffffffffffffffffffffffffff021916908373ffffffffffffffffffffffffffffffffffffffff160217905550505062000166565b600081519050620000d1816200014c565b92915050565b60008060408385031215620000eb57600080fd5b6000620000fb85828601620000c0565b92505060206200010e85828601620000c0565b9150509250929050565b600062000125826200012c565b9050919050565b600073ffffffffffffffffffffffffffffffffffffffff82169050919050565b620001578162000118565b81146200016357600080fd5b50565b611ba080620001766000396000f3fe608060405234801561001057600080fd5b506004361061009e5760003560e01c806355e416981161006657806355e416981461015b5780638f72f5bd1461018f578063954b0370146101bf5780639b9903aa146101ef578063f457084d1461020d5761009e565b80631a13d145146100a35780632e090f28146100d35780633d1ad1e1146100f15780635407790014610121578063555ef0d41461013d575b600080fd5b6100bd60048036036100b89190810190610e0b565b610229565b6040516100ca91906116f2565b60405180910390f35b6100db6102e7565b6040516100e8919061164d565b60405180910390f35b61010b60048036036101069190810190610e0b565b61030c565b6040516101189190611504565b60405180910390f35b61013b60048036036101369190810190610f99565b6103c5565b005b6101456104bb565b6040516101529190611668565b60405180910390f35b61017560048036036101709190810190610f70565b6104e1565b604051610186959493929190611714565b60405180910390f35b6101a960048036036101a49190810190610e99565b6105a6565b6040516101b69190611548565b60405180910390f35b6101d960048036036101d49190810190610d37565b610669565b6040516101e69190611526565b60405180910390f35b6101f7610722565b6040516102049190611526565b60405180910390f35b61022760048036036102229190810190610e5d565b610732565b005b610231610822565b6000809054906101000a900473ffffffffffffffffffffffffffffffffffffffff1673ffffffffffffffffffffffffffffffffffffffff166370ce4e08836040518263ffffffff1660e01b815260040161028b9190611563565b60006040518083038186803b1580156102a357600080fd5b505afa1580156102b7573d6000803e3d6000fd5b505050506040513d6000823e3d601f19601f820116820180604052506102e0919081019061105c565b9050919050565b6000809054906101000a900473ffffffffffffffffffffffffffffffffffffffff1681565b6060600160009054906101000a900473ffffffffffffffffffffffffffffffffffffffff1673ffffffffffffffffffffffffffffffffffffffff16631a0d24c5836040518263ffffffff1660e01b81526004016103699190611563565b60006040518083038186803b15801561038157600080fd5b505afa158015610395573d6000803e3d6000fd5b505050506040513d6000823e3d601f19601f820116820180604052506103be9190810190610d60565b9050919050565b60008060009054906101000a900473ffffffffffffffffffffffffffffffffffffffff1673ffffffffffffffffffffffffffffffffffffffff1663703ddbca86338787876040518663ffffffff1660e01b8152600401610429959493929190611683565b602060405180830381600087803b15801561044357600080fd5b505af1158015610457573d6000803e3d6000fd5b505050506040513d601f19601f8201168201806040525061047b9190810190610e34565b90507f68e03759b28b56652fedb98db9f8d0e432e903b1bd7027d70c76298958f09129816040516104ac9190611563565b60405180910390a15050505050565b600160009054906101000a900473ffffffffffffffffffffffffffffffffffffffff1681565b60008060008060008060009054906101000a900473ffffffffffffffffffffffffffffffffffffffff1673ffffffffffffffffffffffffffffffffffffffff1663024663f7876040518263ffffffff1660e01b81526004016105439190611632565b60a06040518083038186803b15801561055b57600080fd5b505afa15801561056f573d6000803e3d6000fd5b505050506040513d601f19601f82011682018060405250610593919081019061109d565b9450945094509450945091939590929450565b60008060009054906101000a900473ffffffffffffffffffffffffffffffffffffffff1673ffffffffffffffffffffffffffffffffffffffff16639af2a7a68733888888886040518763ffffffff1660e01b815260040161060c969594939291906115b5565b602060405180830381600087803b15801561062657600080fd5b505af115801561063a573d6000803e3d6000fd5b505050506040513d601f19601f8201168201806040525061065e9190810190610de2565b905095945050505050565b6060600160009054906101000a900473ffffffffffffffffffffffffffffffffffffffff1673ffffffffffffffffffffffffffffffffffffffff166369a32767836040518263ffffffff1660e01b81526004016106c691906114e9565b60006040518083038186803b1580156106de57600080fd5b505afa1580156106f2573d6000803e3d6000fd5b505050506040513d6000823e3d601f19601f8201168201806040525061071b9190810190610da1565b9050919050565b606061072d33610669565b905090565b60008060009054906101000a900473ffffffffffffffffffffffffffffffffffffffff1673ffffffffffffffffffffffffffffffffffffffff1663aa492ec28433856040518463ffffffff1660e01b81526004016107929392919061157e565b602060405180830381600087803b1580156107ac57600080fd5b505af11580156107c0573d6000803e3d6000fd5b505050506040513d601f19601f820116820180604052506107e49190810190610de2565b90507ff39e790e11a04bb808239fa23f7468798bc1ffee204ced6c64ca21fe072f33c4816040516108159190611548565b60405180910390a1505050565b60405180610100016040528060008152602001600073ffffffffffffffffffffffffffffffffffffffff16815260200160001515815260200160608152602001600081526020016060815260200160608152602001606081525090565b60008135905061088e81611af7565b92915050565b6000815190506108a381611af7565b92915050565b600082601f8301126108ba57600080fd5b81516108cd6108c882611794565b611767565b915081818352602084019350602081019050838560208402820111156108f257600080fd5b60005b8381101561092257816109088882610894565b8452602084019350602083019250506001810190506108f5565b5050505092915050565b600082601f83011261093d57600080fd5b815161095061094b826117bc565b611767565b9150818183526020840193506020810190508385602084028201111561097557600080fd5b60005b838110156109a5578161098b8882610ad6565b845260208401935060208301925050600181019050610978565b5050505092915050565b600082601f8301126109c057600080fd5b81516109d36109ce826117e4565b611767565b9150818183526020840193506020810190508360005b83811015610a1957815186016109ff8882610b54565b8452602084019350602083019250506001810190506109e9565b5050505092915050565b600082601f830112610a3457600080fd5b8135610a47610a428261180c565b611767565b9150818183526020840193506020810190508360005b83811015610a8d5781358601610a738882610b00565b845260208401935060208301925050600181019050610a5d565b5050505092915050565b600081359050610aa681611b0e565b92915050565b600081519050610abb81611b0e565b92915050565b600081359050610ad081611b25565b92915050565b600081519050610ae581611b25565b92915050565b600081359050610afa81611b3c565b92915050565b600082601f830112610b1157600080fd5b8135610b24610b1f82611834565b611767565b91508082526020830160208301858383011115610b4057600080fd5b610b4b838284611aa4565b50505092915050565b600082601f830112610b6557600080fd5b8151610b78610b7382611834565b611767565b91508082526020830160208301858383011115610b9457600080fd5b610b9f838284611ab3565b50505092915050565b600082601f830112610bb957600080fd5b8135610bcc610bc782611860565b611767565b91508082526020830160208301858383011115610be857600080fd5b610bf3838284611aa4565b50505092915050565b60006101008284031215610c0f57600080fd5b610c1a610100611767565b90506000610c2a84828501610d22565b6000830152506020610c3e84828501610894565b6020830152506040610c5284828501610aac565b604083015250606082015167ffffffffffffffff811115610c7257600080fd5b610c7e84828501610b54565b6060830152506080610c9284828501610d22565b60808301525060a082015167ffffffffffffffff811115610cb257600080fd5b610cbe848285016109af565b60a08301525060c082015167ffffffffffffffff811115610cde57600080fd5b610cea84828501610b54565b60c08301525060e082015167ffffffffffffffff811115610d0a57600080fd5b610d1684828501610b54565b60e08301525092915050565b600081519050610d3181611b53565b92915050565b600060208284031215610d4957600080fd5b6000610d578482850161087f565b91505092915050565b600060208284031215610d7257600080fd5b600082015167ffffffffffffffff811115610d8c57600080fd5b610d98848285016108a9565b91505092915050565b600060208284031215610db357600080fd5b600082015167ffffffffffffffff811115610dcd57600080fd5b610dd98482850161092c565b91505092915050565b600060208284031215610df457600080fd5b6000610e0284828501610aac565b91505092915050565b600060208284031215610e1d57600080fd5b6000610e2b84828501610ac1565b91505092915050565b600060208284031215610e4657600080fd5b6000610e5484828501610ad6565b91505092915050565b60008060408385031215610e7057600080fd5b6000610e7e85828601610ac1565b9250506020610e8f85828601610a97565b9150509250929050565b600080600080600060a08688031215610eb157600080fd5b6000610ebf88828901610ac1565b955050602086013567ffffffffffffffff811115610edc57600080fd5b610ee888828901610ba8565b945050604086013567ffffffffffffffff811115610f0557600080fd5b610f1188828901610a23565b935050606086013567ffffffffffffffff811115610f2e57600080fd5b610f3a88828901610ba8565b925050608086013567ffffffffffffffff811115610f5757600080fd5b610f6388828901610ba8565b9150509295509295909350565b600060208284031215610f8257600080fd5b6000610f9084828501610aeb565b91505092915050565b60008060008060808587031215610faf57600080fd5b600085013567ffffffffffffffff811115610fc957600080fd5b610fd587828801610ba8565b945050602085013567ffffffffffffffff811115610ff257600080fd5b610ffe87828801610a23565b935050604085013567ffffffffffffffff81111561101b57600080fd5b61102787828801610ba8565b925050606085013567ffffffffffffffff81111561104457600080fd5b61105087828801610ba8565b91505092959194509250565b60006020828403121561106e57600080fd5b600082015167ffffffffffffffff81111561108857600080fd5b61109484828501610bfc565b91505092915050565b600080600080600060a086880312156110b557600080fd5b60006110c388828901610d22565b95505060206110d488828901610d22565b94505060406110e588828901610894565b93505060606110f688828901610894565b925050608061110788828901610ad6565b9150509295509295909350565b60006111208383611167565b60208301905092915050565b60006111388383611349565b60208301905092915050565b600061115083836113cd565b905092915050565b61116181611a26565b82525050565b611170816119a8565b82525050565b61117f816119a8565b82525050565b6000611190826118cc565b61119a8185611942565b93506111a58361188c565b8060005b838110156111d65781516111bd8882611114565b97506111c88361190e565b9250506001810190506111a9565b5085935050505092915050565b60006111ee826118d7565b6111f88185611953565b93506112038361189c565b8060005b8381101561123457815161121b888261112c565b97506112268361191b565b925050600181019050611207565b5085935050505092915050565b600061124c826118ed565b6112568185611975565b935083602082028501611268856118bc565b8060005b858110156112a457848403895281516112858582611144565b945061129083611935565b925060208a0199505060018101905061126c565b50829750879550505050505092915050565b60006112c1826118e2565b6112cb8185611964565b9350836020820285016112dd856118ac565b8060005b8581101561131957848403895281516112fa8582611144565b945061130583611928565b925060208a019950506001810190506112e1565b50829750879550505050505092915050565b611334816119ba565b82525050565b611343816119ba565b82525050565b611352816119c6565b82525050565b611361816119c6565b82525050565b611370816119f2565b82525050565b61137f81611a38565b82525050565b61138e81611a5c565b82525050565b600061139f82611903565b6113a98185611997565b93506113b9818560208601611ab3565b6113c281611ae6565b840191505092915050565b60006113d8826118f8565b6113e28185611986565b93506113f2818560208601611ab3565b6113fb81611ae6565b840191505092915050565b60006101008301600083015161141f60008601826114cb565b5060208301516114326020860182611167565b506040830151611445604086018261132b565b506060830151848203606086015261145d82826113cd565b915050608083015161147260808601826114cb565b5060a083015184820360a086015261148a82826112b6565b91505060c083015184820360c08601526114a482826113cd565b91505060e083015184820360e08601526114be82826113cd565b9150508091505092915050565b6114d481611a1c565b82525050565b6114e381611a1c565b82525050565b60006020820190506114fe6000830184611176565b92915050565b6000602082019050818103600083015261151e8184611185565b905092915050565b6000602082019050818103600083015261154081846111e3565b905092915050565b600060208201905061155d600083018461133a565b92915050565b60006020820190506115786000830184611358565b92915050565b60006060820190506115936000830186611358565b6115a06020830185611158565b6115ad604083018461133a565b949350505050565b600060c0820190506115ca6000830189611358565b6115d76020830188611158565b81810360408301526115e98187611394565b905081810360608301526115fd8186611241565b905081810360808301526116118185611394565b905081810360a08301526116258184611394565b9050979650505050505050565b60006020820190506116476000830184611367565b92915050565b60006020820190506116626000830184611376565b92915050565b600060208201905061167d6000830184611385565b92915050565b600060a082019050818103600083015261169d8188611394565b90506116ac6020830187611158565b81810360408301526116be8186611241565b905081810360608301526116d28185611394565b905081810360808301526116e68184611394565b90509695505050505050565b6000602082019050818103600083015261170c8184611406565b905092915050565b600060a08201905061172960008301886114da565b61173660208301876114da565b6117436040830186611176565b6117506060830185611176565b61175d6080830184611358565b9695505050505050565b6000604051905081810181811067ffffffffffffffff8211171561178a57600080fd5b8060405250919050565b600067ffffffffffffffff8211156117ab57600080fd5b602082029050602081019050919050565b600067ffffffffffffffff8211156117d357600080fd5b602082029050602081019050919050565b600067ffffffffffffffff8211156117fb57600080fd5b602082029050602081019050919050565b600067ffffffffffffffff82111561182357600080fd5b602082029050602081019050919050565b600067ffffffffffffffff82111561184b57600080fd5b601f19601f8301169050602081019050919050565b600067ffffffffffffffff82111561187757600080fd5b601f19601f8301169050602081019050919050565b6000819050602082019050919050565b6000819050602082019050919050565b6000819050602082019050919050565b6000819050602082019050919050565b600081519050919050565b600081519050919050565b600081519050919050565b600081519050919050565b600081519050919050565b600081519050919050565b6000602082019050919050565b6000602082019050919050565b6000602082019050919050565b6000602082019050919050565b600082825260208201905092915050565b600082825260208201905092915050565b600082825260208201905092915050565b600082825260208201905092915050565b600082825260208201905092915050565b600082825260208201905092915050565b60006119b3826119fc565b9050919050565b60008115159050919050565b60007fffffffffffffffffffffffffffffffff0000000000000000000000000000000082169050919050565b6000819050919050565b600073ffffffffffffffffffffffffffffffffffffffff82169050919050565b6000819050919050565b6000611a3182611a80565b9050919050565b6000611a4382611a4a565b9050919050565b6000611a55826119fc565b9050919050565b6000611a6782611a6e565b9050919050565b6000611a79826119fc565b9050919050565b6000611a8b82611a92565b9050919050565b6000611a9d826119fc565b9050919050565b82818337600083830152505050565b60005b83811015611ad1578082015181840152602081019050611ab6565b83811115611ae0576000848401525b50505050565b6000601f19601f8301169050919050565b611b00816119a8565b8114611b0b57600080fd5b50565b611b17816119ba565b8114611b2257600080fd5b50565b611b2e816119c6565b8114611b3957600080fd5b50565b611b45816119f2565b8114611b5057600080fd5b50565b611b5c81611a1c565b8114611b6757600080fd5b5056fea26469706673582212208fdcd5bbbed1544859c90e0f1a4875ffabebf34c08b993e1818ed06237a9a6a464736f6c63430006030033",
  "source": "pragma solidity >=0.5.12 <0.7.0;\r\npragma experimental ABIEncoderV2;\r\n\r\nimport \"./CenterControl.sol\";\r\nimport \"./ErrorModule.sol\";\r\nimport \"./InfoDB.sol\";\r\nimport \"./SafeMath.sol\";\r\nimport \"./ResourceDB.sol\";\r\n\r\ncontract AuthorModule is ErrorModule {\r\n    using SafeMath for uint256;\r\n\r\n    CenterControl public Center_;\r\n    InfoDB public Info_;\r\n\r\n    event LogNewResourceResID(bytes16 resDb_);\r\n    event LogMaiveChange(bool success);\r\n\r\n    /**\r\n     * @dev \r\n     * @param _center address : \r\n     * @param _info   address : \r\n     */\r\n    constructor(address _center, address _info) public {\r\n        Center_ = CenterControl(_center);\r\n        Info_ = InfoDB(_info);\r\n    }\r\n\r\n    /**\r\n     * @dev \r\n     * @dev \r\n     * @param _ipfs      string  : UDFS Hash\r\n     * @param _thubanail :\r\n     * @param _cover :\r\n     * @param _title :\r\n     */\r\n    function publish(\r\n        string memory _ipfs,\r\n        string[] memory _thubanail,\r\n        string memory _cover,\r\n        string memory _title\r\n    ) public {\r\n        // if (_hashFilter(_ipfs) == false) {\r\n        //     emit LogError(RScorr.InvalidUdfs);\r\n        //     return false;\r\n        // }\r\n\r\n        // \r\n        //return Center_.createClaim(_udfs, msg.sender, _price, _type, true);\\]\r\n        bytes16  resId = Center_.createResource(\r\n                _ipfs,\r\n                msg.sender,\r\n                _thubanail,\r\n                _cover,\r\n                _title\r\n            );\r\n        emit LogNewResourceResID(resId);\r\n    }\r\n\r\n    /**\r\n     * @dev \r\n     * @param _sId  bytes16 : \r\n     * @param _ipfs  string  : udfs\r\n     * @param _thubanail :\r\n     * @param _cover :\r\n     * @param _title :\r\n     * @return          bool    :  true\r\n     */\r\n    function updateResource(\r\n        bytes16 _sId,\r\n        string memory _ipfs,\r\n        string[] memory _thubanail,\r\n        string memory _cover,\r\n        string memory _title\r\n    ) public returns (bool) {\r\n        return\r\n            Center_.updateResource(\r\n                _sId,\r\n                msg.sender,\r\n                _ipfs,\r\n                _thubanail,\r\n                _cover,\r\n                _title\r\n            );\r\n    }\r\n\r\n    /**\r\n     * @dev \r\n     * @param _resId bytes16 : \r\n     */\r\n    function changeResourceWaive(bytes16 _resId,bool waive) public {\r\n        bool success = Center_.updateResourceWaive(_resId, msg.sender, waive);\r\n        emit LogMaiveChange(success);\r\n    } //TODO : How?\r\n\r\n    /////////////////////////\r\n    /// View\r\n    /////////////////////////\r\n\r\n    /**\r\n     * @dev \r\n     * @return bytes16[] :claimId\r\n     */\r\n    function myResource() public view returns (bytes16[] memory) {\r\n        return resourceByAddress(msg.sender);\r\n    }\r\n\r\n    /**\r\n     * @dev \r\n     * @return  bytes16[] :claimId\r\n     */\r\n    function resourceByAddress(address _author)\r\n        public\r\n        view\r\n        returns (bytes16[] memory)\r\n    {\r\n        return Info_.getResourceByAuthor(_author);\r\n    }\r\n\r\n    /**\r\n     * @dev \r\n     * @return address[] :\r\n     */\r\n    function consumerByClaim(bytes16 _resId)\r\n        public\r\n        view\r\n        returns (address[] memory)\r\n    {\r\n        return Info_.getConsumerByResource(_resId);\r\n    }\r\n\r\n    /**\r\n     * @dev \r\n     * @param _resID   bytes16 : id\r\n     */\r\n    function findResourceInfo(bytes16 _resID)\r\n        public\r\n        view\r\n        returns (ResourceDB.Resource memory\r\n            // address author,\r\n            // string memory ipfs,\r\n            // uint256 initDate,\r\n            // bool waive,\r\n            // uint256 gratuityNum,\r\n            // string memory _cover,\r\n            // string memory _title,\r\n            //  string[] memory _thubanail\r\n        )\r\n    {\r\n        return Center_.getResourceDetails(_resID);\r\n    }\r\n\r\n    /**\r\n     * @dev \r\n     * @param _orderId bytes32  : ID\r\n     */\r\n    function findOrderInfo(bytes32 _orderId)\r\n        public\r\n        view\r\n        returns (\r\n            uint256 time,\r\n            uint256 value,\r\n            address author,\r\n            address payer,\r\n            bytes16 resId\r\n        )\r\n    {\r\n        return Center_.getOrderDetails(_orderId);\r\n    }\r\n\r\n    ///////////////////////\r\n    /// Internal Function\r\n    //////////////////////\r\n\r\n    // /**\r\n    //  * @dev HASH\r\n    //  * @param _input string  : \r\n    //  * @return bool          : true\r\n    //  */\r\n    // function _hashFilter(string memory _input) internal pure returns (bool) {\r\n    //     bytes memory _temp = bytes(_input);\r\n\r\n    //     // length == 46 , Qm~\r\n    //     if (_temp.length == 46 && _temp[0] == 0x51 && _temp[1] == 0x6D) {\r\n    //         return true;\r\n    //     }\r\n    //     return false;\r\n    // }\r\n\r\n}\r\n",
  "sourcePath": "E:\\contracts\\contracts\\AuthorModule.sol",
  "compiler": {
    "name": "solc",
    "version": "0.6.3+commit.8dda9521.Emscripten.clang"
  },
  "schemaVersion": "3.0.23",
  "updatedAt": "2020-04-21T09:45:18.973Z",
  "networkType": "ethereum",
  "devdoc": {
    "methods": {
      "changeResourceWaive(bytes16,bool)": {
        "details": "",
        "params": {
          "_resId": "bytes16 : "
        }
      },
      "constructor": {
        "details": "",
        "params": {
          "_center": "address : ",
          "_info": "address : "
        }
      },
      "consumerByClaim(bytes16)": {
        "details": "",
        "returns": {
          "_0": "address[] :"
        }
      },
      "findOrderInfo(bytes32)": {
        "details": "",
        "params": {
          "_orderId": "bytes32  : ID"
        }
      },
      "findResourceInfo(bytes16)": {
        "details": "",
        "params": {
          "_resID": "bytes16 : id"
        }
      },
      "myResource()": {
        "details": "",
        "returns": {
          "_0": "bytes16[] :claimId"
        }
      },
      "publish(string,string[],string,string)": {
        "details": "",
        "params": {
          "_cover": ":",
          "_ipfs": "string  : UDFS Hash",
          "_thubanail": ":",
          "_title": ":"
        }
      },
      "resourceByAddress(address)": {
        "details": "",
        "returns": {
          "_0": "bytes16[] :claimId"
        }
      },
      "updateResource(bytes16,string,string[],string,string)": {
        "details": "",
        "params": {
          "_cover": ":",
          "_ipfs": "string  : udfs",
          "_sId": "bytes16 : ",
          "_thubanail": ":",
          "_title": ":"
        },
        "returns": {
          "_0": "bool    :  true"
        }
      }
    }
  },
  "userdoc": {
    "methods": {}
  }
}