{
  "contractName": "AuthorModule",
  "abi": [
    {
      "inputs": [
        {
          "internalType": "address",
          "name": "_center",
          "type": "address"
        },
        {
          "internalType": "address",
          "name": "_info",
          "type": "address"
        }
      ],
      "stateMutability": "nonpayable",
      "type": "constructor"
    },
    {
      "anonymous": false,
      "inputs": [
        {
          "indexed": false,
          "internalType": "enum ErrorModule.RScorr",
          "name": "_errorNumber",
          "type": "uint8"
        }
      ],
      "name": "LogError",
      "type": "event"
    },
    {
      "inputs": [],
      "name": "Center_",
      "outputs": [
        {
          "internalType": "contract CenterControl",
          "name": "",
          "type": "address"
        }
      ],
      "stateMutability": "view",
      "type": "function",
      "constant": true
    },
    {
      "inputs": [],
      "name": "Info_",
      "outputs": [
        {
          "internalType": "contract InfoDB",
          "name": "",
          "type": "address"
        }
      ],
      "stateMutability": "view",
      "type": "function",
      "constant": true
    },
    {
      "inputs": [
        {
          "internalType": "string",
          "name": "_ipfs",
          "type": "string"
        },
        {
          "internalType": "string[]",
          "name": "_thubanail",
          "type": "string[]"
        },
        {
          "internalType": "string",
          "name": "_cover",
          "type": "string"
        },
        {
          "internalType": "string",
          "name": "_title",
          "type": "string"
        }
      ],
      "name": "publish",
      "outputs": [
        {
          "internalType": "bool",
          "name": "",
          "type": "bool"
        }
      ],
      "stateMutability": "payable",
      "type": "function",
      "payable": true
    },
    {
      "inputs": [
        {
          "internalType": "bytes16",
          "name": "_sId",
          "type": "bytes16"
        },
        {
          "internalType": "string",
          "name": "_ipfs",
          "type": "string"
        },
        {
          "internalType": "string[]",
          "name": "_thubanail",
          "type": "string[]"
        },
        {
          "internalType": "string",
          "name": "_cover",
          "type": "string"
        },
        {
          "internalType": "string",
          "name": "_title",
          "type": "string"
        }
      ],
      "name": "updateResource",
      "outputs": [
        {
          "internalType": "bool",
          "name": "",
          "type": "bool"
        }
      ],
      "stateMutability": "nonpayable",
      "type": "function"
    },
    {
      "inputs": [
        {
          "internalType": "bytes16",
          "name": "_resId",
          "type": "bytes16"
        }
      ],
      "name": "abandonResource",
      "outputs": [
        {
          "internalType": "bool",
          "name": "",
          "type": "bool"
        }
      ],
      "stateMutability": "nonpayable",
      "type": "function"
    },
    {
      "inputs": [],
      "name": "myResource",
      "outputs": [
        {
          "internalType": "bytes16[]",
          "name": "",
          "type": "bytes16[]"
        }
      ],
      "stateMutability": "view",
      "type": "function",
      "constant": true
    },
    {
      "inputs": [
        {
          "internalType": "address",
          "name": "_author",
          "type": "address"
        }
      ],
      "name": "resourceByAddress",
      "outputs": [
        {
          "internalType": "bytes16[]",
          "name": "",
          "type": "bytes16[]"
        }
      ],
      "stateMutability": "view",
      "type": "function",
      "constant": true
    },
    {
      "inputs": [
        {
          "internalType": "bytes16",
          "name": "_resId",
          "type": "bytes16"
        }
      ],
      "name": "consumerByClaim",
      "outputs": [
        {
          "internalType": "address[]",
          "name": "",
          "type": "address[]"
        }
      ],
      "stateMutability": "view",
      "type": "function",
      "constant": true
    },
    {
      "inputs": [
        {
          "internalType": "bytes16",
          "name": "_resID",
          "type": "bytes16"
        }
      ],
      "name": "findResourceInfo",
      "outputs": [
        {
          "components": [
            {
              "internalType": "uint256",
              "name": "initDate",
              "type": "uint256"
            },
            {
              "internalType": "address",
              "name": "author",
              "type": "address"
            },
            {
              "internalType": "bool",
              "name": "waive",
              "type": "bool"
            },
            {
              "internalType": "string",
              "name": "ipfs",
              "type": "string"
            },
            {
              "internalType": "uint256",
              "name": "gratuityNum",
              "type": "uint256"
            },
            {
              "internalType": "string[]",
              "name": "thubanail",
              "type": "string[]"
            },
            {
              "internalType": "string",
              "name": "cover",
              "type": "string"
            },
            {
              "internalType": "string",
              "name": "title",
              "type": "string"
            }
          ],
          "internalType": "struct ResourceDB.Resource",
          "name": "",
          "type": "tuple"
        }
      ],
      "stateMutability": "view",
      "type": "function",
      "constant": true
    },
    {
      "inputs": [
        {
          "internalType": "bytes32",
          "name": "_orderId",
          "type": "bytes32"
        }
      ],
      "name": "findOrderInfo",
      "outputs": [
        {
          "internalType": "uint256",
          "name": "time",
          "type": "uint256"
        },
        {
          "internalType": "uint256",
          "name": "value",
          "type": "uint256"
        },
        {
          "internalType": "address",
          "name": "author",
          "type": "address"
        },
        {
          "internalType": "address",
          "name": "payer",
          "type": "address"
        },
        {
          "internalType": "bytes16",
          "name": "resId",
          "type": "bytes16"
        }
      ],
      "stateMutability": "view",
      "type": "function",
      "constant": true
    }
  ],
  "bytecode": "0x60806040523480156200001157600080fd5b5060405162001cd138038062001cd18339818101604052620000379190810190620000d7565b816000806101000a81548173ffffffffffffffffffffffffffffffffffffffff021916908373ffffffffffffffffffffffffffffffffffffffff16021790555080600160006101000a81548173ffffffffffffffffffffffffffffffffffffffff021916908373ffffffffffffffffffffffffffffffffffffffff160217905550505062000166565b600081519050620000d1816200014c565b92915050565b60008060408385031215620000eb57600080fd5b6000620000fb85828601620000c0565b92505060206200010e85828601620000c0565b9150509250929050565b600062000125826200012c565b9050919050565b600073ffffffffffffffffffffffffffffffffffffffff82169050919050565b620001578162000118565b81146200016357600080fd5b50565b611b5b80620001766000396000f3fe6080604052600436106100915760003560e01c8063555ef0d411610059578063555ef0d4146101a857806355e41698146101d35780638f72f5bd14610214578063954b0370146102515780639b9903aa1461028e57610091565b80631a13d145146100965780631d87af35146100d35780632e090f28146101105780633d1ad1e11461013b5780635407790014610178575b600080fd5b3480156100a257600080fd5b506100bd60048036036100b89190810190610e2b565b6102b9565b6040516100ca91906116ad565b60405180910390f35b3480156100df57600080fd5b506100fa60048036036100f59190810190610e2b565b610377565b6040516101079190611503565b60405180910390f35b34801561011c57600080fd5b50610125610431565b6040516101329190611608565b60405180910390f35b34801561014757600080fd5b50610162600480360361015d9190810190610e2b565b610456565b60405161016f91906114bf565b60405180910390f35b610192600480360361018d9190810190610f54565b61050f565b60405161019f9190611503565b60405180910390f35b3480156101b457600080fd5b506101bd6105e0565b6040516101ca9190611623565b60405180910390f35b3480156101df57600080fd5b506101fa60048036036101f59190810190610f2b565b610606565b60405161020b9594939291906116cf565b60405180910390f35b34801561022057600080fd5b5061023b60048036036102369190810190610e54565b6106cb565b6040516102489190611503565b60405180910390f35b34801561025d57600080fd5b5061027860048036036102739190810190610d57565b61078e565b60405161028591906114e1565b60405180910390f35b34801561029a57600080fd5b506102a3610847565b6040516102b091906114e1565b60405180910390f35b6102c1610857565b6000809054906101000a900473ffffffffffffffffffffffffffffffffffffffff1673ffffffffffffffffffffffffffffffffffffffff166370ce4e08836040518263ffffffff1660e01b815260040161031b919061151e565b60006040518083038186803b15801561033357600080fd5b505afa158015610347573d6000803e3d6000fd5b505050506040513d6000823e3d601f19601f820116820180604052506103709190810190611017565b9050919050565b60008060009054906101000a900473ffffffffffffffffffffffffffffffffffffffff1673ffffffffffffffffffffffffffffffffffffffff1663aa492ec2833360016040518463ffffffff1660e01b81526004016103d893929190611539565b602060405180830381600087803b1580156103f257600080fd5b505af1158015610406573d6000803e3d6000fd5b505050506040513d601f19601f8201168201806040525061042a9190810190610e02565b9050919050565b6000809054906101000a900473ffffffffffffffffffffffffffffffffffffffff1681565b6060600160009054906101000a900473ffffffffffffffffffffffffffffffffffffffff1673ffffffffffffffffffffffffffffffffffffffff16631a0d24c5836040518263ffffffff1660e01b81526004016104b3919061151e565b60006040518083038186803b1580156104cb57600080fd5b505afa1580156104df573d6000803e3d6000fd5b505050506040513d6000823e3d601f19601f820116820180604052506105089190810190610d80565b9050919050565b60008060009054906101000a900473ffffffffffffffffffffffffffffffffffffffff1673ffffffffffffffffffffffffffffffffffffffff1663703ddbca86338787876040518663ffffffff1660e01b815260040161057395949392919061163e565b602060405180830381600087803b15801561058d57600080fd5b505af11580156105a1573d6000803e3d6000fd5b505050506040513d601f19601f820116820180604052506105c59190810190610e02565b156105d357600190506105d8565b600090505b949350505050565b600160009054906101000a900473ffffffffffffffffffffffffffffffffffffffff1681565b60008060008060008060009054906101000a900473ffffffffffffffffffffffffffffffffffffffff1673ffffffffffffffffffffffffffffffffffffffff1663024663f7876040518263ffffffff1660e01b815260040161066891906115ed565b60a06040518083038186803b15801561068057600080fd5b505afa158015610694573d6000803e3d6000fd5b505050506040513d601f19601f820116820180604052506106b89190810190611058565b9450945094509450945091939590929450565b60008060009054906101000a900473ffffffffffffffffffffffffffffffffffffffff1673ffffffffffffffffffffffffffffffffffffffff16639af2a7a68733888888886040518763ffffffff1660e01b815260040161073196959493929190611570565b602060405180830381600087803b15801561074b57600080fd5b505af115801561075f573d6000803e3d6000fd5b505050506040513d601f19601f820116820180604052506107839190810190610e02565b905095945050505050565b6060600160009054906101000a900473ffffffffffffffffffffffffffffffffffffffff1673ffffffffffffffffffffffffffffffffffffffff166369a32767836040518263ffffffff1660e01b81526004016107eb91906114a4565b60006040518083038186803b15801561080357600080fd5b505afa158015610817573d6000803e3d6000fd5b505050506040513d6000823e3d601f19601f820116820180604052506108409190810190610dc1565b9050919050565b60606108523361078e565b905090565b60405180610100016040528060008152602001600073ffffffffffffffffffffffffffffffffffffffff16815260200160001515815260200160608152602001600081526020016060815260200160608152602001606081525090565b6000813590506108c381611ab2565b92915050565b6000815190506108d881611ab2565b92915050565b600082601f8301126108ef57600080fd5b81516109026108fd8261174f565b611722565b9150818183526020840193506020810190508385602084028201111561092757600080fd5b60005b83811015610957578161093d88826108c9565b84526020840193506020830192505060018101905061092a565b5050505092915050565b600082601f83011261097257600080fd5b815161098561098082611777565b611722565b915081818352602084019350602081019050838560208402820111156109aa57600080fd5b60005b838110156109da57816109c08882610af6565b8452602084019350602083019250506001810190506109ad565b5050505092915050565b600082601f8301126109f557600080fd5b8151610a08610a038261179f565b611722565b9150818183526020840193506020810190508360005b83811015610a4e5781518601610a348882610b74565b845260208401935060208301925050600181019050610a1e565b5050505092915050565b600082601f830112610a6957600080fd5b8135610a7c610a77826117c7565b611722565b9150818183526020840193506020810190508360005b83811015610ac25781358601610aa88882610b20565b845260208401935060208301925050600181019050610a92565b5050505092915050565b600081519050610adb81611ac9565b92915050565b600081359050610af081611ae0565b92915050565b600081519050610b0581611ae0565b92915050565b600081359050610b1a81611af7565b92915050565b600082601f830112610b3157600080fd5b8135610b44610b3f826117ef565b611722565b91508082526020830160208301858383011115610b6057600080fd5b610b6b838284611a5f565b50505092915050565b600082601f830112610b8557600080fd5b8151610b98610b93826117ef565b611722565b91508082526020830160208301858383011115610bb457600080fd5b610bbf838284611a6e565b50505092915050565b600082601f830112610bd957600080fd5b8135610bec610be78261181b565b611722565b91508082526020830160208301858383011115610c0857600080fd5b610c13838284611a5f565b50505092915050565b60006101008284031215610c2f57600080fd5b610c3a610100611722565b90506000610c4a84828501610d42565b6000830152506020610c5e848285016108c9565b6020830152506040610c7284828501610acc565b604083015250606082015167ffffffffffffffff811115610c9257600080fd5b610c9e84828501610b74565b6060830152506080610cb284828501610d42565b60808301525060a082015167ffffffffffffffff811115610cd257600080fd5b610cde848285016109e4565b60a08301525060c082015167ffffffffffffffff811115610cfe57600080fd5b610d0a84828501610b74565b60c08301525060e082015167ffffffffffffffff811115610d2a57600080fd5b610d3684828501610b74565b60e08301525092915050565b600081519050610d5181611b0e565b92915050565b600060208284031215610d6957600080fd5b6000610d77848285016108b4565b91505092915050565b600060208284031215610d9257600080fd5b600082015167ffffffffffffffff811115610dac57600080fd5b610db8848285016108de565b91505092915050565b600060208284031215610dd357600080fd5b600082015167ffffffffffffffff811115610ded57600080fd5b610df984828501610961565b91505092915050565b600060208284031215610e1457600080fd5b6000610e2284828501610acc565b91505092915050565b600060208284031215610e3d57600080fd5b6000610e4b84828501610ae1565b91505092915050565b600080600080600060a08688031215610e6c57600080fd5b6000610e7a88828901610ae1565b955050602086013567ffffffffffffffff811115610e9757600080fd5b610ea388828901610bc8565b945050604086013567ffffffffffffffff811115610ec057600080fd5b610ecc88828901610a58565b935050606086013567ffffffffffffffff811115610ee957600080fd5b610ef588828901610bc8565b925050608086013567ffffffffffffffff811115610f1257600080fd5b610f1e88828901610bc8565b9150509295509295909350565b600060208284031215610f3d57600080fd5b6000610f4b84828501610b0b565b91505092915050565b60008060008060808587031215610f6a57600080fd5b600085013567ffffffffffffffff811115610f8457600080fd5b610f9087828801610bc8565b945050602085013567ffffffffffffffff811115610fad57600080fd5b610fb987828801610a58565b935050604085013567ffffffffffffffff811115610fd657600080fd5b610fe287828801610bc8565b925050606085013567ffffffffffffffff811115610fff57600080fd5b61100b87828801610bc8565b91505092959194509250565b60006020828403121561102957600080fd5b600082015167ffffffffffffffff81111561104357600080fd5b61104f84828501610c1c565b91505092915050565b600080600080600060a0868803121561107057600080fd5b600061107e88828901610d42565b955050602061108f88828901610d42565b94505060406110a0888289016108c9565b93505060606110b1888289016108c9565b92505060806110c288828901610af6565b9150509295509295909350565b60006110db8383611122565b60208301905092915050565b60006110f38383611304565b60208301905092915050565b600061110b8383611388565b905092915050565b61111c816119e1565b82525050565b61112b81611963565b82525050565b61113a81611963565b82525050565b600061114b82611887565b61115581856118fd565b935061116083611847565b8060005b8381101561119157815161117888826110cf565b9750611183836118c9565b925050600181019050611164565b5085935050505092915050565b60006111a982611892565b6111b3818561190e565b93506111be83611857565b8060005b838110156111ef5781516111d688826110e7565b97506111e1836118d6565b9250506001810190506111c2565b5085935050505092915050565b6000611207826118a8565b6112118185611930565b93508360208202850161122385611877565b8060005b8581101561125f578484038952815161124085826110ff565b945061124b836118f0565b925060208a01995050600181019050611227565b50829750879550505050505092915050565b600061127c8261189d565b611286818561191f565b93508360208202850161129885611867565b8060005b858110156112d457848403895281516112b585826110ff565b94506112c0836118e3565b925060208a0199505060018101905061129c565b50829750879550505050505092915050565b6112ef81611975565b82525050565b6112fe81611975565b82525050565b61130d81611981565b82525050565b61131c81611981565b82525050565b61132b816119ad565b82525050565b61133a816119f3565b82525050565b61134981611a17565b82525050565b600061135a826118be565b6113648185611952565b9350611374818560208601611a6e565b61137d81611aa1565b840191505092915050565b6000611393826118b3565b61139d8185611941565b93506113ad818560208601611a6e565b6113b681611aa1565b840191505092915050565b6000610100830160008301516113da6000860182611486565b5060208301516113ed6020860182611122565b50604083015161140060408601826112e6565b50606083015184820360608601526114188282611388565b915050608083015161142d6080860182611486565b5060a083015184820360a08601526114458282611271565b91505060c083015184820360c086015261145f8282611388565b91505060e083015184820360e08601526114798282611388565b9150508091505092915050565b61148f816119d7565b82525050565b61149e816119d7565b82525050565b60006020820190506114b96000830184611131565b92915050565b600060208201905081810360008301526114d98184611140565b905092915050565b600060208201905081810360008301526114fb818461119e565b905092915050565b600060208201905061151860008301846112f5565b92915050565b60006020820190506115336000830184611313565b92915050565b600060608201905061154e6000830186611313565b61155b6020830185611113565b61156860408301846112f5565b949350505050565b600060c0820190506115856000830189611313565b6115926020830188611113565b81810360408301526115a4818761134f565b905081810360608301526115b881866111fc565b905081810360808301526115cc818561134f565b905081810360a08301526115e0818461134f565b9050979650505050505050565b60006020820190506116026000830184611322565b92915050565b600060208201905061161d6000830184611331565b92915050565b60006020820190506116386000830184611340565b92915050565b600060a0820190508181036000830152611658818861134f565b90506116676020830187611113565b818103604083015261167981866111fc565b9050818103606083015261168d818561134f565b905081810360808301526116a1818461134f565b90509695505050505050565b600060208201905081810360008301526116c781846113c1565b905092915050565b600060a0820190506116e46000830188611495565b6116f16020830187611495565b6116fe6040830186611131565b61170b6060830185611131565b6117186080830184611313565b9695505050505050565b6000604051905081810181811067ffffffffffffffff8211171561174557600080fd5b8060405250919050565b600067ffffffffffffffff82111561176657600080fd5b602082029050602081019050919050565b600067ffffffffffffffff82111561178e57600080fd5b602082029050602081019050919050565b600067ffffffffffffffff8211156117b657600080fd5b602082029050602081019050919050565b600067ffffffffffffffff8211156117de57600080fd5b602082029050602081019050919050565b600067ffffffffffffffff82111561180657600080fd5b601f19601f8301169050602081019050919050565b600067ffffffffffffffff82111561183257600080fd5b601f19601f8301169050602081019050919050565b6000819050602082019050919050565b6000819050602082019050919050565b6000819050602082019050919050565b6000819050602082019050919050565b600081519050919050565b600081519050919050565b600081519050919050565b600081519050919050565b600081519050919050565b600081519050919050565b6000602082019050919050565b6000602082019050919050565b6000602082019050919050565b6000602082019050919050565b600082825260208201905092915050565b600082825260208201905092915050565b600082825260208201905092915050565b600082825260208201905092915050565b600082825260208201905092915050565b600082825260208201905092915050565b600061196e826119b7565b9050919050565b60008115159050919050565b60007fffffffffffffffffffffffffffffffff0000000000000000000000000000000082169050919050565b6000819050919050565b600073ffffffffffffffffffffffffffffffffffffffff82169050919050565b6000819050919050565b60006119ec82611a3b565b9050919050565b60006119fe82611a05565b9050919050565b6000611a10826119b7565b9050919050565b6000611a2282611a29565b9050919050565b6000611a34826119b7565b9050919050565b6000611a4682611a4d565b9050919050565b6000611a58826119b7565b9050919050565b82818337600083830152505050565b60005b83811015611a8c578082015181840152602081019050611a71565b83811115611a9b576000848401525b50505050565b6000601f19601f8301169050919050565b611abb81611963565b8114611ac657600080fd5b50565b611ad281611975565b8114611add57600080fd5b50565b611ae981611981565b8114611af457600080fd5b50565b611b00816119ad565b8114611b0b57600080fd5b50565b611b17816119d7565b8114611b2257600080fd5b5056fea26469706673582212203a3a235cca327a86730c83449ed108627e1574f747ef51fa49c86233b5abbc3964736f6c63430006030033",
  "source": "pragma solidity >=0.5.12 <0.7.0;\r\npragma experimental ABIEncoderV2;\r\n\r\nimport \"./CenterControl.sol\";\r\nimport \"./ErrorModule.sol\";\r\nimport \"./InfoDB.sol\";\r\nimport \"./SafeMath.sol\";\r\nimport \"./ResourceDB.sol\";\r\n\r\ncontract AuthorModule is ErrorModule {\r\n    using SafeMath for uint256;\r\n\r\n    CenterControl public Center_;\r\n    InfoDB public Info_;\r\n\r\n    /**\r\n     * @dev \r\n     * @param _center address : \r\n     * @param _info   address : \r\n     */\r\n    constructor(address _center, address _info) public {\r\n        Center_ = CenterControl(_center);\r\n        Info_ = InfoDB(_info);\r\n    }\r\n\r\n    /**\r\n     * @dev \r\n     * @dev \r\n     * @param _ipfs      string  : UDFS Hash\r\n     * @param _thubanail :\r\n     * @param _cover :\r\n     * @param _title :\r\n     * @return           bool    :  true\r\n     */\r\n    function publish(\r\n        string memory _ipfs,\r\n        string[] memory _thubanail,\r\n        string memory _cover,\r\n        string memory _title\r\n    ) public payable returns (bool) {\r\n        // if (_hashFilter(_ipfs) == false) {\r\n        //     emit LogError(RScorr.InvalidUdfs);\r\n        //     return false;\r\n        // }\r\n\r\n        // \r\n        //return Center_.createClaim(_udfs, msg.sender, _price, _type, true);\r\n        if (\r\n            Center_.createResource(\r\n                _ipfs,\r\n                msg.sender,\r\n                _thubanail,\r\n                _cover,\r\n                _title\r\n            )\r\n        ) {\r\n            return true;\r\n        } else {\r\n            return false;\r\n        }\r\n    }\r\n\r\n    /**\r\n     * @dev \r\n     * @param _sId  bytes16 : \r\n     * @param _ipfs  string  : udfs\r\n     * @param _thubanail :\r\n     * @param _cover :\r\n     * @param _title :\r\n     * @return          bool    :  true\r\n     */\r\n    function updateResource(\r\n        bytes16 _sId,\r\n        string memory _ipfs,\r\n        string[] memory _thubanail,\r\n        string memory _cover,\r\n        string memory _title\r\n    ) public returns (bool) {\r\n        return\r\n            Center_.updateResource(\r\n                _sId,\r\n                msg.sender,\r\n                _ipfs,\r\n                _thubanail,\r\n                _cover,\r\n                _title\r\n            );\r\n    }\r\n\r\n    /**\r\n     * @dev \r\n     * @param _resId bytes16 : \r\n     * @return         bool    :  true\r\n     */\r\n    function abandonResource(bytes16 _resId) public returns (bool) {\r\n        return Center_.updateResourceWaive(_resId, msg.sender, true);\r\n    } //TODO : How?\r\n\r\n    /////////////////////////\r\n    /// View\r\n    /////////////////////////\r\n\r\n    /**\r\n     * @dev \r\n     * @return bytes16[] :claimId\r\n     */\r\n    function myResource() public view returns (bytes16[] memory) {\r\n        return resourceByAddress(msg.sender);\r\n    }\r\n\r\n    /**\r\n     * @dev \r\n     * @return  bytes16[] :claimId\r\n     */\r\n    function resourceByAddress(address _author)\r\n        public\r\n        view\r\n        returns (bytes16[] memory)\r\n    {\r\n        return Info_.getResourceByAuthor(_author);\r\n    }\r\n\r\n    /**\r\n     * @dev \r\n     * @return address[] :\r\n     */\r\n    function consumerByClaim(bytes16 _resId)\r\n        public\r\n        view\r\n        returns (address[] memory)\r\n    {\r\n        return Info_.getConsumerByResource(_resId);\r\n    }\r\n\r\n    /**\r\n     * @dev \r\n     * @param _resID   bytes16 : id\r\n     */\r\n    function findResourceInfo(bytes16 _resID)\r\n        public\r\n        view\r\n        returns (ResourceDB.Resource memory\r\n            // address author,\r\n            // string memory ipfs,\r\n            // uint256 initDate,\r\n            // bool waive,\r\n            // uint256 gratuityNum,\r\n            // string memory _cover,\r\n            // string memory _title,\r\n            //  string[] memory _thubanail\r\n        )\r\n    {\r\n        return Center_.getResourceDetails(_resID);\r\n    }\r\n\r\n    /**\r\n     * @dev \r\n     * @param _orderId bytes32  : ID\r\n     */\r\n    function findOrderInfo(bytes32 _orderId)\r\n        public\r\n        view\r\n        returns (\r\n            uint256 time,\r\n            uint256 value,\r\n            address author,\r\n            address payer,\r\n            bytes16 resId\r\n        )\r\n    {\r\n        return Center_.getOrderDetails(_orderId);\r\n    }\r\n\r\n    ///////////////////////\r\n    /// Internal Function\r\n    //////////////////////\r\n\r\n    // /**\r\n    //  * @dev HASH\r\n    //  * @param _input string  : \r\n    //  * @return bool          : true\r\n    //  */\r\n    // function _hashFilter(string memory _input) internal pure returns (bool) {\r\n    //     bytes memory _temp = bytes(_input);\r\n\r\n    //     // length == 46 , Qm~\r\n    //     if (_temp.length == 46 && _temp[0] == 0x51 && _temp[1] == 0x6D) {\r\n    //         return true;\r\n    //     }\r\n    //     return false;\r\n    // }\r\n\r\n}\r\n",
  "sourcePath": "E:\\contracts\\contracts\\AuthorModule.sol",
  "compiler": {
    "name": "solc",
    "version": "0.6.3+commit.8dda9521.Emscripten.clang"
  },
  "schemaVersion": "3.0.23",
  "updatedAt": "2020-03-09T03:33:22.428Z",
  "networkType": "ethereum",
  "devdoc": {
    "methods": {
      "abandonResource(bytes16)": {
        "details": "",
        "params": {
          "_resId": "bytes16 : "
        },
        "returns": {
          "_0": "bool    :  true"
        }
      },
      "constructor": {
        "details": "",
        "params": {
          "_center": "address : ",
          "_info": "address : "
        }
      },
      "consumerByClaim(bytes16)": {
        "details": "",
        "returns": {
          "_0": "address[] :"
        }
      },
      "findOrderInfo(bytes32)": {
        "details": "",
        "params": {
          "_orderId": "bytes32  : ID"
        }
      },
      "findResourceInfo(bytes16)": {
        "details": "",
        "params": {
          "_resID": "bytes16 : id"
        }
      },
      "myResource()": {
        "details": "",
        "returns": {
          "_0": "bytes16[] :claimId"
        }
      },
      "publish(string,string[],string,string)": {
        "details": "",
        "params": {
          "_cover": ":",
          "_ipfs": "string  : UDFS Hash",
          "_thubanail": ":",
          "_title": ":"
        },
        "returns": {
          "_0": "bool    :  true"
        }
      },
      "resourceByAddress(address)": {
        "details": "",
        "returns": {
          "_0": "bytes16[] :claimId"
        }
      },
      "updateResource(bytes16,string,string[],string,string)": {
        "details": "",
        "params": {
          "_cover": ":",
          "_ipfs": "string  : udfs",
          "_sId": "bytes16 : ",
          "_thubanail": ":",
          "_title": ":"
        },
        "returns": {
          "_0": "bool    :  true"
        }
      }
    }
  },
  "userdoc": {
    "methods": {}
  }
}