{
  "contractName": "CenterControl",
  "abi": [
    {
      "inputs": [],
      "stateMutability": "nonpayable",
      "type": "constructor"
    },
    {
      "anonymous": false,
      "inputs": [
        {
          "indexed": false,
          "internalType": "string",
          "name": "info",
          "type": "string"
        },
        {
          "indexed": false,
          "internalType": "address",
          "name": "_resId",
          "type": "address"
        },
        {
          "indexed": true,
          "internalType": "address",
          "name": "_author",
          "type": "address"
        },
        {
          "indexed": false,
          "internalType": "address",
          "name": "who",
          "type": "address"
        }
      ],
      "name": "LogAddress",
      "type": "event"
    },
    {
      "anonymous": false,
      "inputs": [
        {
          "indexed": true,
          "internalType": "address",
          "name": "_old",
          "type": "address"
        },
        {
          "indexed": true,
          "internalType": "address",
          "name": "_new",
          "type": "address"
        }
      ],
      "name": "LogAdminshipTransferred",
      "type": "event"
    },
    {
      "anonymous": false,
      "inputs": [
        {
          "indexed": false,
          "internalType": "enum ErrorModule.RScorr",
          "name": "_errorNumber",
          "type": "uint8"
        }
      ],
      "name": "LogError",
      "type": "event"
    },
    {
      "anonymous": false,
      "inputs": [
        {
          "indexed": true,
          "internalType": "address",
          "name": "previousOwner",
          "type": "address"
        }
      ],
      "name": "LogOwnershipRenounced",
      "type": "event"
    },
    {
      "anonymous": false,
      "inputs": [
        {
          "indexed": true,
          "internalType": "address",
          "name": "previousOwner",
          "type": "address"
        },
        {
          "indexed": true,
          "internalType": "address",
          "name": "newOwner",
          "type": "address"
        }
      ],
      "name": "LogOwnershipTransferred",
      "type": "event"
    },
    {
      "anonymous": false,
      "inputs": [
        {
          "indexed": true,
          "internalType": "address",
          "name": "_target",
          "type": "address"
        },
        {
          "indexed": false,
          "internalType": "bool",
          "name": "_allow",
          "type": "bool"
        }
      ],
      "name": "LogWhileChanged",
      "type": "event"
    },
    {
      "inputs": [],
      "name": "acceptOwnership",
      "outputs": [],
      "stateMutability": "nonpayable",
      "type": "function"
    },
    {
      "inputs": [],
      "name": "admin",
      "outputs": [
        {
          "internalType": "address",
          "name": "",
          "type": "address"
        }
      ],
      "stateMutability": "view",
      "type": "function",
      "constant": true
    },
    {
      "inputs": [],
      "name": "infoDb_",
      "outputs": [
        {
          "internalType": "contract InfoDB",
          "name": "",
          "type": "address"
        }
      ],
      "stateMutability": "view",
      "type": "function",
      "constant": true
    },
    {
      "inputs": [
        {
          "internalType": "address",
          "name": "_target",
          "type": "address"
        },
        {
          "internalType": "bool",
          "name": "_allow",
          "type": "bool"
        }
      ],
      "name": "mangeWhiteList",
      "outputs": [
        {
          "internalType": "bool",
          "name": "",
          "type": "bool"
        }
      ],
      "stateMutability": "nonpayable",
      "type": "function"
    },
    {
      "inputs": [
        {
          "internalType": "address[]",
          "name": "_addresses",
          "type": "address[]"
        }
      ],
      "name": "mulInsertWhite",
      "outputs": [
        {
          "internalType": "bool",
          "name": "",
          "type": "bool"
        }
      ],
      "stateMutability": "nonpayable",
      "type": "function"
    },
    {
      "inputs": [],
      "name": "newOwner",
      "outputs": [
        {
          "internalType": "address",
          "name": "",
          "type": "address"
        }
      ],
      "stateMutability": "view",
      "type": "function",
      "constant": true
    },
    {
      "inputs": [],
      "name": "orderDb_",
      "outputs": [
        {
          "internalType": "contract OrderDB",
          "name": "",
          "type": "address"
        }
      ],
      "stateMutability": "view",
      "type": "function",
      "constant": true
    },
    {
      "inputs": [],
      "name": "owner",
      "outputs": [
        {
          "internalType": "address",
          "name": "",
          "type": "address"
        }
      ],
      "stateMutability": "view",
      "type": "function",
      "constant": true
    },
    {
      "inputs": [],
      "name": "renounceOwnership",
      "outputs": [],
      "stateMutability": "nonpayable",
      "type": "function"
    },
    {
      "inputs": [],
      "name": "resDb_",
      "outputs": [
        {
          "internalType": "contract ResourceDB",
          "name": "",
          "type": "address"
        }
      ],
      "stateMutability": "view",
      "type": "function",
      "constant": true
    },
    {
      "inputs": [
        {
          "internalType": "address",
          "name": "_newAdmin",
          "type": "address"
        }
      ],
      "name": "transferAdminship",
      "outputs": [],
      "stateMutability": "nonpayable",
      "type": "function"
    },
    {
      "inputs": [
        {
          "internalType": "address",
          "name": "_newOwner",
          "type": "address"
        }
      ],
      "name": "transferOwnership",
      "outputs": [],
      "stateMutability": "nonpayable",
      "type": "function"
    },
    {
      "inputs": [
        {
          "internalType": "address",
          "name": "",
          "type": "address"
        }
      ],
      "name": "whitelist_",
      "outputs": [
        {
          "internalType": "bool",
          "name": "",
          "type": "bool"
        }
      ],
      "stateMutability": "view",
      "type": "function",
      "constant": true
    },
    {
      "inputs": [
        {
          "internalType": "address",
          "name": "_resource",
          "type": "address"
        },
        {
          "internalType": "address",
          "name": "_order",
          "type": "address"
        },
        {
          "internalType": "address",
          "name": "_info",
          "type": "address"
        }
      ],
      "name": "initialize",
      "outputs": [
        {
          "internalType": "bool",
          "name": "",
          "type": "bool"
        }
      ],
      "stateMutability": "nonpayable",
      "type": "function"
    },
    {
      "inputs": [
        {
          "internalType": "string",
          "name": "_ipfs",
          "type": "string"
        },
        {
          "internalType": "address",
          "name": "_author",
          "type": "address"
        },
        {
          "internalType": "string[]",
          "name": "_thubanail",
          "type": "string[]"
        },
        {
          "internalType": "string",
          "name": "_cover",
          "type": "string"
        },
        {
          "internalType": "string",
          "name": "_title",
          "type": "string"
        }
      ],
      "name": "createResource",
      "outputs": [
        {
          "internalType": "bool",
          "name": "",
          "type": "bool"
        }
      ],
      "stateMutability": "nonpayable",
      "type": "function"
    },
    {
      "inputs": [
        {
          "internalType": "address",
          "name": "_author",
          "type": "address"
        },
        {
          "internalType": "bytes16",
          "name": "_resId",
          "type": "bytes16"
        },
        {
          "internalType": "uint256",
          "name": "_value",
          "type": "uint256"
        },
        {
          "internalType": "address",
          "name": "_payer",
          "type": "address"
        }
      ],
      "name": "createOrder",
      "outputs": [
        {
          "internalType": "bool",
          "name": "succ",
          "type": "bool"
        },
        {
          "internalType": "string",
          "name": "info",
          "type": "string"
        }
      ],
      "stateMutability": "nonpayable",
      "type": "function"
    },
    {
      "inputs": [
        {
          "internalType": "bytes16",
          "name": "_sid",
          "type": "bytes16"
        },
        {
          "internalType": "address",
          "name": "_author",
          "type": "address"
        },
        {
          "internalType": "string",
          "name": "_newipfs",
          "type": "string"
        },
        {
          "internalType": "string[]",
          "name": "_thubanail",
          "type": "string[]"
        },
        {
          "internalType": "string",
          "name": "_cover",
          "type": "string"
        },
        {
          "internalType": "string",
          "name": "_title",
          "type": "string"
        }
      ],
      "name": "updateResource",
      "outputs": [
        {
          "internalType": "bool",
          "name": "",
          "type": "bool"
        }
      ],
      "stateMutability": "nonpayable",
      "type": "function"
    },
    {
      "inputs": [
        {
          "internalType": "bytes16",
          "name": "_cid",
          "type": "bytes16"
        },
        {
          "internalType": "address",
          "name": "_author",
          "type": "address"
        },
        {
          "internalType": "bool",
          "name": "_waive",
          "type": "bool"
        }
      ],
      "name": "updateResourceWaive",
      "outputs": [
        {
          "internalType": "bool",
          "name": "",
          "type": "bool"
        }
      ],
      "stateMutability": "nonpayable",
      "type": "function"
    },
    {
      "inputs": [
        {
          "internalType": "bytes16",
          "name": "_resid",
          "type": "bytes16"
        }
      ],
      "name": "getResourceDetails",
      "outputs": [
        {
          "components": [
            {
              "internalType": "uint256",
              "name": "initDate",
              "type": "uint256"
            },
            {
              "internalType": "address",
              "name": "author",
              "type": "address"
            },
            {
              "internalType": "bool",
              "name": "waive",
              "type": "bool"
            },
            {
              "internalType": "string",
              "name": "ipfs",
              "type": "string"
            },
            {
              "internalType": "uint256",
              "name": "gratuityNum",
              "type": "uint256"
            },
            {
              "internalType": "string[]",
              "name": "thubanail",
              "type": "string[]"
            },
            {
              "internalType": "string",
              "name": "cover",
              "type": "string"
            },
            {
              "internalType": "string",
              "name": "title",
              "type": "string"
            }
          ],
          "internalType": "struct ResourceDB.Resource",
          "name": "",
          "type": "tuple"
        }
      ],
      "stateMutability": "view",
      "type": "function",
      "constant": true
    },
    {
      "inputs": [
        {
          "internalType": "bytes32",
          "name": "_oid",
          "type": "bytes32"
        }
      ],
      "name": "getOrderDetails",
      "outputs": [
        {
          "internalType": "uint256",
          "name": "time",
          "type": "uint256"
        },
        {
          "internalType": "uint256",
          "name": "value",
          "type": "uint256"
        },
        {
          "internalType": "address",
          "name": "author",
          "type": "address"
        },
        {
          "internalType": "address",
          "name": "payer",
          "type": "address"
        },
        {
          "internalType": "bytes16",
          "name": "resId",
          "type": "bytes16"
        }
      ],
      "stateMutability": "view",
      "type": "function",
      "constant": true
    },
    {
      "inputs": [
        {
          "internalType": "bytes16",
          "name": "_sid",
          "type": "bytes16"
        }
      ],
      "name": "getResourceAutherInfo",
      "outputs": [
        {
          "internalType": "address",
          "name": "",
          "type": "address"
        }
      ],
      "stateMutability": "view",
      "type": "function",
      "constant": true
    }
  ],
  "bytecode": "0x60806040523480156200001157600080fd5b5073482ba190ce6f932808a745173e733ccb19ae9b5e6000806101000a81548173ffffffffffffffffffffffffffffffffffffffff021916908373ffffffffffffffffffffffffffffffffffffffff16021790555033600260006101000a81548173ffffffffffffffffffffffffffffffffffffffff021916908373ffffffffffffffffffffffffffffffffffffffff160217905550336000806101000a81548173ffffffffffffffffffffffffffffffffffffffff021916908373ffffffffffffffffffffffffffffffffffffffff160217905550336000806101000a81548173ffffffffffffffffffffffffffffffffffffffff021916908373ffffffffffffffffffffffffffffffffffffffff16021790555033600260006101000a81548173ffffffffffffffffffffffffffffffffffffffff021916908373ffffffffffffffffffffffffffffffffffffffff1602179055506000809054906101000a900473ffffffffffffffffffffffffffffffffffffffff1673ffffffffffffffffffffffffffffffffffffffff167f9e6965ca244a67ad615b5114db3886405a40a12f1190493f8e9201020885af1d600260009054906101000a900473ffffffffffffffffffffffffffffffffffffffff1633604051620001f592919062000267565b60405180910390a26200032a565b6200020e81620002ee565b82525050565b6200021f81620002ba565b82525050565b600062000234600a83620002a9565b91507f636f6e73747275636f72000000000000000000000000000000000000000000006000830152602082019050919050565b60006060820190508181036000830152620002828162000225565b905062000293602083018562000214565b620002a2604083018462000203565b9392505050565b600082825260208201905092915050565b6000620002c782620002ce565b9050919050565b600073ffffffffffffffffffffffffffffffffffffffff82169050919050565b6000620002fb8262000302565b9050919050565b60006200030f8262000316565b9050919050565b60006200032382620002ce565b9050919050565b613816806200033a6000396000f3fe608060405234801561001057600080fd5b50600436106101375760003560e01c80638da5cb5b116100b8578063d035360b1161007c578063d035360b1461037b578063d4ee1d90146103ab578063ddbf54d5146103c9578063e56a7c5d146103e7578063f2fde38b14610417578063f851a4401461043357610137565b80638da5cb5b1461029d5780639af2a7a6146102bb578063a8e1fba3146102eb578063aa492ec21461031b578063c0c53b8b1461034b57610137565b80636df56608116100ff5780636df566081461020b578063703ddbca1461022957806370ce4e0814610259578063715018a61461028957806379ba50971461029357610137565b8063024663f71461013c57806305cc9a611461017057806316be9cfe146101a157806335e60e89146101bf5780635be7cc16146101ef575b600080fd5b61015660048036036101519190810190612816565b610451565b6040516101679594939291906133be565b60405180910390f35b61018a600480360361018591908101906125e8565b610517565b604051610198929190612ffa565b60405180910390f35b6101a96109dd565b6040516101b691906131f0565b60405180910390f35b6101d960048036036101d4919081019061264b565b610a03565b6040516101e69190612fdf565b60405180910390f35b6102096004803603610204919081019061250b565b610c6d565b005b610213610e14565b604051610220919061320b565b60405180910390f35b610243600480360361023e919081019061283f565b610e3a565b6040516102509190612fdf565b60405180910390f35b610273600480360361026e91908101906126b5565b6111e7565b604051610280919061339c565b60405180910390f35b6102916112a6565b005b61029b6113dc565b005b6102a56115ae565b6040516102b29190612fc4565b60405180910390f35b6102d560048036036102d0919081019061272d565b6115d3565b6040516102e29190612fdf565b60405180910390f35b610305600480360361030091908101906125ac565b611732565b6040516103129190612fdf565b60405180910390f35b610335600480360361033091908101906126de565b61194b565b6040516103429190612fdf565b60405180910390f35b6103656004803603610360919081019061255d565b611ab1565b6040516103729190612fdf565b60405180910390f35b610395600480360361039091908101906126b5565b611ddb565b6040516103a29190612fc4565b60405180910390f35b6103b3611e8f565b6040516103c09190612fc4565b60405180910390f35b6103d1611eb5565b6040516103de9190613226565b60405180910390f35b61040160048036036103fc919081019061250b565b611edb565b60405161040e9190612fdf565b60405180910390f35b610431600480360361042c919081019061250b565b611efb565b005b61043b61203e565b6040516104489190612fc4565b60405180910390f35b6000806000806000600560009054906101000a900473ffffffffffffffffffffffffffffffffffffffff1673ffffffffffffffffffffffffffffffffffffffff16635d1d1e67876040518263ffffffff1660e01b81526004016104b4919061314b565b60a06040518083038186803b1580156104cc57600080fd5b505afa1580156104e0573d6000803e3d6000fd5b505050506040513d601f19601f820116820180604052506105049190810190612957565b9450945094509450945091939590929450565b6000606060011515600360003373ffffffffffffffffffffffffffffffffffffffff1673ffffffffffffffffffffffffffffffffffffffff16815260200190815260200160002060009054906101000a900460ff161515146105ec577f0489f2369368f4688acd012107ac5a7d98ca739b913449d852f35d871e433cc3600e6040516105a39190613241565b60405180910390a160006040518060400160405280601081526020017f6e6f7420696e2077686974656c69737400000000000000000000000000000000815250915091506109d4565b600460009054906101000a900473ffffffffffffffffffffffffffffffffffffffff1673ffffffffffffffffffffffffffffffffffffffff1663f207a088866040518263ffffffff1660e01b8152600401610647919061302a565b60206040518083038186803b15801561065f57600080fd5b505afa158015610673573d6000803e3d6000fd5b505050506040513d601f19601f82011682018060405250610697919081019061268c565b610714577f0489f2369368f4688acd012107ac5a7d98ca739b913449d852f35d871e433cc360066040516106cb9190613241565b60405180910390a160006040518060400160405280601681526020017f7265736f75726365206861766520207368656c76657300000000000000000000815250915091506109d4565b60008386604051602001610729929190612f70565b604051602081830303815290604052805190602001209050600460009054906101000a900473ffffffffffffffffffffffffffffffffffffffff1673ffffffffffffffffffffffffffffffffffffffff1663157ffbe987876040518363ffffffff1660e01b815260040161079e929190613122565b600060405180830381600087803b1580156107b857600080fd5b505af11580156107cc573d6000803e3d6000fd5b50505050600560009054906101000a900473ffffffffffffffffffffffffffffffffffffffff1673ffffffffffffffffffffffffffffffffffffffff166363e319f4828989888a6040518663ffffffff1660e01b8152600401610833959493929190613166565b602060405180830381600087803b15801561084d57600080fd5b505af1158015610861573d6000803e3d6000fd5b505050506040513d601f19601f82011682018060405250610885919081019061268c565b1561099657600660009054906101000a900473ffffffffffffffffffffffffffffffffffffffff1673ffffffffffffffffffffffffffffffffffffffff1663ee9a45508288876040518463ffffffff1660e01b81526004016108e9939291906131b9565b602060405180830381600087803b15801561090357600080fd5b505af1158015610917573d6000803e3d6000fd5b505050506040513d601f19601f8201168201806040525061093b919081019061268c565b61097a576040517f08c379a0000000000000000000000000000000000000000000000000000000008152600401610971906132dc565b60405180910390fd5b60016040518060200160405280600081525092509250506109d4565b60006040518060400160405280600581526020017f4641494c4500000000000000000000000000000000000000000000000000000081525092509250505b94509492505050565b600660009054906101000a900473ffffffffffffffffffffffffffffffffffffffff1681565b60008060009054906101000a900473ffffffffffffffffffffffffffffffffffffffff1673ffffffffffffffffffffffffffffffffffffffff163373ffffffffffffffffffffffffffffffffffffffff1614158015610ab05750600260009054906101000a900473ffffffffffffffffffffffffffffffffffffffff1673ffffffffffffffffffffffffffffffffffffffff163373ffffffffffffffffffffffffffffffffffffffff1614155b15610af6577f0489f2369368f4688acd012107ac5a7d98ca739b913449d852f35d871e433cc3600f604051610ae59190613241565b60405180910390a160009050610c68565b60008090505b8251811015610c6257600073ffffffffffffffffffffffffffffffffffffffff16838281518110610b2957fe5b602002602001015173ffffffffffffffffffffffffffffffffffffffff161415610b88576040517f08c379a0000000000000000000000000000000000000000000000000000000008152600401610b7f9061331c565b60405180910390fd5b600160036000858481518110610b9a57fe5b602002602001015173ffffffffffffffffffffffffffffffffffffffff1673ffffffffffffffffffffffffffffffffffffffff16815260200190815260200160002060006101000a81548160ff021916908315150217905550828181518110610bff57fe5b602002602001015173ffffffffffffffffffffffffffffffffffffffff167f9b3b880c67f4fab4215412179771cffd326a045e6016a7e363eb38460f7e91766001604051610c4d9190612fdf565b60405180910390a28080600101915050610afc565b50600190505b919050565b6000809054906101000a900473ffffffffffffffffffffffffffffffffffffffff1673ffffffffffffffffffffffffffffffffffffffff163373ffffffffffffffffffffffffffffffffffffffff161480610d155750600260009054906101000a900473ffffffffffffffffffffffffffffffffffffffff1673ffffffffffffffffffffffffffffffffffffffff163373ffffffffffffffffffffffffffffffffffffffff16145b610d54576040517f08c379a0000000000000000000000000000000000000000000000000000000008152600401610d4b906132fc565b60405180910390fd5b8073ffffffffffffffffffffffffffffffffffffffff16600260009054906101000a900473ffffffffffffffffffffffffffffffffffffffff1673ffffffffffffffffffffffffffffffffffffffff167ff73aa4459d935dbacd9313fffe485016147551d99ef401461704cd39e6e9028760405160405180910390a380600260006101000a81548173ffffffffffffffffffffffffffffffffffffffff021916908373ffffffffffffffffffffffffffffffffffffffff16021790555050565b600560009054906101000a900473ffffffffffffffffffffffffffffffffffffffff1681565b600060011515600360003373ffffffffffffffffffffffffffffffffffffffff1673ffffffffffffffffffffffffffffffffffffffff16815260200190815260200160002060009054906101000a900460ff16151514610ed5577f0489f2369368f4688acd012107ac5a7d98ca739b913449d852f35d871e433cc3600e604051610ec49190613241565b60405180910390a1600090506111de565b60008686604051602001610eea929190612f9c565b604051602081830303815290604052805190602001209050600460009054906101000a900473ffffffffffffffffffffffffffffffffffffffff1673ffffffffffffffffffffffffffffffffffffffff16639b03ced2826040518263ffffffff1660e01b8152600401610f5d919061302a565b60206040518083038186803b158015610f7557600080fd5b505afa158015610f89573d6000803e3d6000fd5b505050506040513d601f19601f82011682018060405250610fad919081019061268c565b15610ff4577f0489f2369368f4688acd012107ac5a7d98ca739b913449d852f35d871e433cc3600a604051610fe29190613241565b60405180910390a160009150506111de565b600460009054906101000a900473ffffffffffffffffffffffffffffffffffffffff1673ffffffffffffffffffffffffffffffffffffffff1663b3f956578289898989896040518763ffffffff1660e01b8152600401611059969594939291906130a5565b602060405180830381600087803b15801561107357600080fd5b505af1158015611087573d6000803e3d6000fd5b505050506040513d601f19601f820116820180604052506110ab919081019061268c565b6110ea576040517f08c379a00000000000000000000000000000000000000000000000000000000081526004016110e1906132bc565b60405180910390fd5b600660009054906101000a900473ffffffffffffffffffffffffffffffffffffffff1673ffffffffffffffffffffffffffffffffffffffff1663fd4dd1fe82886040518363ffffffff1660e01b8152600401611147929190613045565b602060405180830381600087803b15801561116157600080fd5b505af1158015611175573d6000803e3d6000fd5b505050506040513d601f19601f82011682018060405250611199919081019061268c565b6111d8576040517f08c379a00000000000000000000000000000000000000000000000000000000081526004016111cf9061333c565b60405180910390fd5b60019150505b95945050505050565b6111ef612064565b600460009054906101000a900473ffffffffffffffffffffffffffffffffffffffff1673ffffffffffffffffffffffffffffffffffffffff16638d4a3974836040518263ffffffff1660e01b815260040161124a919061302a565b60006040518083038186803b15801561126257600080fd5b505afa158015611276573d6000803e3d6000fd5b505050506040513d6000823e3d601f19601f8201168201806040525061129f9190810190612916565b9050919050565b6000809054906101000a900473ffffffffffffffffffffffffffffffffffffffff1673ffffffffffffffffffffffffffffffffffffffff163373ffffffffffffffffffffffffffffffffffffffff1614611335576040517f08c379a000000000000000000000000000000000000000000000000000000000815260040161132c9061335c565b60405180910390fd5b6000809054906101000a900473ffffffffffffffffffffffffffffffffffffffff1673ffffffffffffffffffffffffffffffffffffffff167f2dde1bc8b58ef192e7df3e7a354521d958331021e450d544346b936936916ef460405160405180910390a260008060006101000a81548173ffffffffffffffffffffffffffffffffffffffff021916908373ffffffffffffffffffffffffffffffffffffffff160217905550565b6000809054906101000a900473ffffffffffffffffffffffffffffffffffffffff1673ffffffffffffffffffffffffffffffffffffffff163373ffffffffffffffffffffffffffffffffffffffff161461146b576040517f08c379a00000000000000000000000000000000000000000000000000000000081526004016114629061325c565b60405180910390fd5b600160009054906101000a900473ffffffffffffffffffffffffffffffffffffffff1673ffffffffffffffffffffffffffffffffffffffff166000809054906101000a900473ffffffffffffffffffffffffffffffffffffffff1673ffffffffffffffffffffffffffffffffffffffff167fdb6d05f3295cede580affa301a1eb5297528f3b3f6a56b075887ce6f61c45f2160405160405180910390a3600160009054906101000a900473ffffffffffffffffffffffffffffffffffffffff166000806101000a81548173ffffffffffffffffffffffffffffffffffffffff021916908373ffffffffffffffffffffffffffffffffffffffff1602179055506000600160006101000a81548173ffffffffffffffffffffffffffffffffffffffff021916908373ffffffffffffffffffffffffffffffffffffffff160217905550565b6000809054906101000a900473ffffffffffffffffffffffffffffffffffffffff1681565b600060011515600360003373ffffffffffffffffffffffffffffffffffffffff1673ffffffffffffffffffffffffffffffffffffffff16815260200190815260200160002060009054906101000a900460ff1615151461166e577f0489f2369368f4688acd012107ac5a7d98ca739b913449d852f35d871e433cc3600e60405161165d9190613241565b60405180910390a160009050611728565b600460009054906101000a900473ffffffffffffffffffffffffffffffffffffffff1673ffffffffffffffffffffffffffffffffffffffff1663a864022d8887898888886040518763ffffffff1660e01b81526004016116d3969594939291906130a5565b602060405180830381600087803b1580156116ed57600080fd5b505af1158015611701573d6000803e3d6000fd5b505050506040513d601f19601f82011682018060405250611725919081019061268c565b90505b9695505050505050565b60008060009054906101000a900473ffffffffffffffffffffffffffffffffffffffff1673ffffffffffffffffffffffffffffffffffffffff163373ffffffffffffffffffffffffffffffffffffffff16141580156117df5750600260009054906101000a900473ffffffffffffffffffffffffffffffffffffffff1673ffffffffffffffffffffffffffffffffffffffff163373ffffffffffffffffffffffffffffffffffffffff1614155b15611825577f0489f2369368f4688acd012107ac5a7d98ca739b913449d852f35d871e433cc3600f6040516118149190613241565b60405180910390a160009050611945565b600073ffffffffffffffffffffffffffffffffffffffff168373ffffffffffffffffffffffffffffffffffffffff16141561189b577f0489f2369368f4688acd012107ac5a7d98ca739b913449d852f35d871e433cc3600260405161188a9190613241565b60405180910390a160009050611945565b81600360008573ffffffffffffffffffffffffffffffffffffffff1673ffffffffffffffffffffffffffffffffffffffff16815260200190815260200160002060006101000a81548160ff0219169083151502179055508273ffffffffffffffffffffffffffffffffffffffff167f9b3b880c67f4fab4215412179771cffd326a045e6016a7e363eb38460f7e9176836040516119389190612fdf565b60405180910390a2600190505b92915050565b600060011515600360003373ffffffffffffffffffffffffffffffffffffffff1673ffffffffffffffffffffffffffffffffffffffff16815260200190815260200160002060009054906101000a900460ff161515146119e6577f0489f2369368f4688acd012107ac5a7d98ca739b913449d852f35d871e433cc3600e6040516119d59190613241565b60405180910390a160009050611aaa565b600460009054906101000a900473ffffffffffffffffffffffffffffffffffffffff1673ffffffffffffffffffffffffffffffffffffffff1663aa492ec28585856040518463ffffffff1660e01b8152600401611a459392919061306e565b602060405180830381600087803b158015611a5f57600080fd5b505af1158015611a73573d6000803e3d6000fd5b505050506040513d601f19601f82011682018060405250611a97919081019061268c565b15611aa55760019050611aaa565b600090505b9392505050565b60008060009054906101000a900473ffffffffffffffffffffffffffffffffffffffff1673ffffffffffffffffffffffffffffffffffffffff163373ffffffffffffffffffffffffffffffffffffffff161480611b5b5750600260009054906101000a900473ffffffffffffffffffffffffffffffffffffffff1673ffffffffffffffffffffffffffffffffffffffff163373ffffffffffffffffffffffffffffffffffffffff16145b611b9a576040517f08c379a0000000000000000000000000000000000000000000000000000000008152600401611b91906132fc565b60405180910390fd5b600073ffffffffffffffffffffffffffffffffffffffff16600460009054906101000a900473ffffffffffffffffffffffffffffffffffffffff1673ffffffffffffffffffffffffffffffffffffffff1614611c2b576040517f08c379a0000000000000000000000000000000000000000000000000000000008152600401611c229061329c565b60405180910390fd5b600073ffffffffffffffffffffffffffffffffffffffff168473ffffffffffffffffffffffffffffffffffffffff1614158015611c955750600073ffffffffffffffffffffffffffffffffffffffff168373ffffffffffffffffffffffffffffffffffffffff1614155b8015611cce5750600073ffffffffffffffffffffffffffffffffffffffff168273ffffffffffffffffffffffffffffffffffffffff1614155b611d0d576040517f08c379a0000000000000000000000000000000000000000000000000000000008152600401611d049061327c565b60405180910390fd5b83600460006101000a81548173ffffffffffffffffffffffffffffffffffffffff021916908373ffffffffffffffffffffffffffffffffffffffff16021790555082600560006101000a81548173ffffffffffffffffffffffffffffffffffffffff021916908373ffffffffffffffffffffffffffffffffffffffff16021790555081600660006101000a81548173ffffffffffffffffffffffffffffffffffffffff021916908373ffffffffffffffffffffffffffffffffffffffff160217905550600190509392505050565b6000600460009054906101000a900473ffffffffffffffffffffffffffffffffffffffff1673ffffffffffffffffffffffffffffffffffffffff1663ba33cb58836040518263ffffffff1660e01b8152600401611e38919061302a565b60206040518083038186803b158015611e5057600080fd5b505afa158015611e64573d6000803e3d6000fd5b505050506040513d601f19601f82011682018060405250611e889190810190612534565b9050919050565b600160009054906101000a900473ffffffffffffffffffffffffffffffffffffffff1681565b600460009054906101000a900473ffffffffffffffffffffffffffffffffffffffff1681565b60036020528060005260406000206000915054906101000a900460ff1681565b6000809054906101000a900473ffffffffffffffffffffffffffffffffffffffff1673ffffffffffffffffffffffffffffffffffffffff163373ffffffffffffffffffffffffffffffffffffffff1614611f8a576040517f08c379a0000000000000000000000000000000000000000000000000000000008152600401611f819061335c565b60405180910390fd5b600073ffffffffffffffffffffffffffffffffffffffff168173ffffffffffffffffffffffffffffffffffffffff161415611ffa576040517f08c379a0000000000000000000000000000000000000000000000000000000008152600401611ff19061337c565b60405180910390fd5b80600160006101000a81548173ffffffffffffffffffffffffffffffffffffffff021916908373ffffffffffffffffffffffffffffffffffffffff16021790555050565b600260009054906101000a900473ffffffffffffffffffffffffffffffffffffffff1681565b60405180610100016040528060008152602001600073ffffffffffffffffffffffffffffffffffffffff16815260200160001515815260200160608152602001600081526020016060815260200160608152602001606081525090565b6000813590506120d08161376d565b92915050565b6000815190506120e58161376d565b92915050565b600082601f8301126120fc57600080fd5b813561210f61210a8261343e565b613411565b9150818183526020840193506020810190508385602084028201111561213457600080fd5b60005b83811015612164578161214a88826120c1565b845260208401935060208301925050600181019050612137565b5050505092915050565b600082601f83011261217f57600080fd5b815161219261218d82613466565b613411565b9150818183526020840193506020810190508360005b838110156121d857815186016121be8882612313565b8452602084019350602083019250506001810190506121a8565b5050505092915050565b600082601f8301126121f357600080fd5b81356122066122018261348e565b613411565b9150818183526020840193506020810190508360005b8381101561224c578135860161223288826122bf565b84526020840193506020830192505060018101905061221c565b5050505092915050565b60008135905061226581613784565b92915050565b60008151905061227a81613784565b92915050565b60008135905061228f8161379b565b92915050565b6000815190506122a48161379b565b92915050565b6000813590506122b9816137b2565b92915050565b600082601f8301126122d057600080fd5b81356122e36122de826134b6565b613411565b915080825260208301602083018583830111156122ff57600080fd5b61230a8382846136d2565b50505092915050565b600082601f83011261232457600080fd5b8151612337612332826134b6565b613411565b9150808252602083016020830185838301111561235357600080fd5b61235e8382846136e1565b50505092915050565b600082601f83011261237857600080fd5b813561238b612386826134e2565b613411565b915080825260208301602083018583830111156123a757600080fd5b6123b28382846136d2565b50505092915050565b600061010082840312156123ce57600080fd5b6123d9610100613411565b905060006123e9848285016124f6565b60008301525060206123fd848285016120d6565b60208301525060406124118482850161226b565b604083015250606082015167ffffffffffffffff81111561243157600080fd5b61243d84828501612313565b6060830152506080612451848285016124f6565b60808301525060a082015167ffffffffffffffff81111561247157600080fd5b61247d8482850161216e565b60a08301525060c082015167ffffffffffffffff81111561249d57600080fd5b6124a984828501612313565b60c08301525060e082015167ffffffffffffffff8111156124c957600080fd5b6124d584828501612313565b60e08301525092915050565b6000813590506124f0816137c9565b92915050565b600081519050612505816137c9565b92915050565b60006020828403121561251d57600080fd5b600061252b848285016120c1565b91505092915050565b60006020828403121561254657600080fd5b6000612554848285016120d6565b91505092915050565b60008060006060848603121561257257600080fd5b6000612580868287016120c1565b9350506020612591868287016120c1565b92505060406125a2868287016120c1565b9150509250925092565b600080604083850312156125bf57600080fd5b60006125cd858286016120c1565b92505060206125de85828601612256565b9150509250929050565b600080600080608085870312156125fe57600080fd5b600061260c878288016120c1565b945050602061261d87828801612280565b935050604061262e878288016124e1565b925050606061263f878288016120c1565b91505092959194509250565b60006020828403121561265d57600080fd5b600082013567ffffffffffffffff81111561267757600080fd5b612683848285016120eb565b91505092915050565b60006020828403121561269e57600080fd5b60006126ac8482850161226b565b91505092915050565b6000602082840312156126c757600080fd5b60006126d584828501612280565b91505092915050565b6000806000606084860312156126f357600080fd5b600061270186828701612280565b9350506020612712868287016120c1565b925050604061272386828701612256565b9150509250925092565b60008060008060008060c0878903121561274657600080fd5b600061275489828a01612280565b965050602061276589828a016120c1565b955050604087013567ffffffffffffffff81111561278257600080fd5b61278e89828a01612367565b945050606087013567ffffffffffffffff8111156127ab57600080fd5b6127b789828a016121e2565b935050608087013567ffffffffffffffff8111156127d457600080fd5b6127e089828a01612367565b92505060a087013567ffffffffffffffff8111156127fd57600080fd5b61280989828a01612367565b9150509295509295509295565b60006020828403121561282857600080fd5b6000612836848285016122aa565b91505092915050565b600080600080600060a0868803121561285757600080fd5b600086013567ffffffffffffffff81111561287157600080fd5b61287d88828901612367565b955050602061288e888289016120c1565b945050604086013567ffffffffffffffff8111156128ab57600080fd5b6128b7888289016121e2565b935050606086013567ffffffffffffffff8111156128d457600080fd5b6128e088828901612367565b925050608086013567ffffffffffffffff8111156128fd57600080fd5b61290988828901612367565b9150509295509295909350565b60006020828403121561292857600080fd5b600082015167ffffffffffffffff81111561294257600080fd5b61294e848285016123bb565b91505092915050565b600080600080600060a0868803121561296f57600080fd5b600061297d888289016124f6565b955050602061298e888289016124f6565b945050604061299f888289016120d6565b93505060606129b0888289016120d6565b92505060806129c188828901612295565b9150509295509295909350565b60006129da8383612bfa565b905092915050565b6129eb816135c3565b82525050565b6129fa816135c3565b82525050565b612a11612a0c826135c3565b613714565b82525050565b6000612a2282613539565b612a2c8185613585565b935083602082028501612a3e8561351e565b8060005b85811015612a7a5784840389528151612a5b85826129ce565b9450612a6683613567565b925060208a01995050600181019050612a42565b50829750879550505050505092915050565b6000612a978261352e565b612aa18185613574565b935083602082028501612ab38561350e565b8060005b85811015612aef5784840389528151612ad085826129ce565b9450612adb8361355a565b925060208a01995050600181019050612ab7565b50829750879550505050505092915050565b612b0a816135d5565b82525050565b612b19816135d5565b82525050565b612b28816135e1565b82525050565b612b3f612b3a826135e1565b613726565b82525050565b612b4e8161360d565b82525050565b612b5d81613654565b82525050565b612b6c81613678565b82525050565b612b7b8161369c565b82525050565b612b8a816136c0565b82525050565b6000612b9b8261354f565b612ba581856135a7565b9350612bb58185602086016136e1565b612bbe81613742565b840191505092915050565b6000612bd48261354f565b612bde81856135b8565b9350612bee8185602086016136e1565b80840191505092915050565b6000612c0582613544565b612c0f8185613596565b9350612c1f8185602086016136e1565b612c2881613742565b840191505092915050565b6000612c40600d836135a7565b91507f6e6f7420746865206f776e6572000000000000000000000000000000000000006000830152602082019050919050565b6000612c80601d836135a7565b91507f636f6e747261637420616464726573732063616e6e6f7420626520302e0000006000830152602082019050919050565b6000612cc06019836135a7565b91507f596f752063616e206f6e6c792063616c6c206974206f6e6365000000000000006000830152602082019050919050565b6000612d006016836135a7565b91507f7265736f7572636520637265617465206661696c6564000000000000000000006000830152602082019050919050565b6000612d40601d836135a7565b91507f6f7264657220696e7365727420696e746f20696e666f20206572726f720000006000830152602082019050919050565b6000612d80600b836135a7565b91507f6e6f2069732061646d696e0000000000000000000000000000000000000000006000830152602082019050919050565b6000612dc0600f836135a7565b91507f61646472657373206973206e756c6c00000000000000000000000000000000006000830152602082019050919050565b6000612e006000836135a7565b9150600082019050919050565b6000612e1a600b836135a7565b91507f6e6f206973204f776e65720000000000000000000000000000000000000000006000830152602082019050919050565b6000612e5a6010836135a7565b91507f6e65774f776e6572206973206e756c6c000000000000000000000000000000006000830152602082019050919050565b600061010083016000830151612ea66000860182612f52565b506020830151612eb960208601826129e2565b506040830151612ecc6040860182612b01565b5060608301518482036060860152612ee48282612bfa565b9150506080830151612ef96080860182612f52565b5060a083015184820360a0860152612f118282612a8c565b91505060c083015184820360c0860152612f2b8282612bfa565b91505060e083015184820360e0860152612f458282612bfa565b9150508091505092915050565b612f5b8161364a565b82525050565b612f6a8161364a565b82525050565b6000612f7c8285612a00565b601482019150612f8c8284612b2e565b6010820191508190509392505050565b6000612fa88285612bc9565b9150612fb48284612a00565b6014820191508190509392505050565b6000602082019050612fd960008301846129f1565b92915050565b6000602082019050612ff46000830184612b10565b92915050565b600060408201905061300f6000830185612b10565b81810360208301526130218184612b90565b90509392505050565b600060208201905061303f6000830184612b1f565b92915050565b600060408201905061305a6000830185612b1f565b61306760208301846129f1565b9392505050565b60006060820190506130836000830186612b1f565b61309060208301856129f1565b61309d6040830184612b10565b949350505050565b600060c0820190506130ba6000830189612b1f565b81810360208301526130cc8188612b90565b90506130db60408301876129f1565b81810360608301526130ed8186612a17565b905081810360808301526131018185612b90565b905081810360a08301526131158184612b90565b9050979650505050505050565b60006040820190506131376000830185612b1f565b6131446020830184612f61565b9392505050565b60006020820190506131606000830184612b45565b92915050565b600060a08201905061317b6000830188612b45565b61318860208301876129f1565b6131956040830186612b1f565b6131a260608301856129f1565b6131af6080830184612f61565b9695505050505050565b60006060820190506131ce6000830186612b45565b6131db6020830185612b1f565b6131e860408301846129f1565b949350505050565b60006020820190506132056000830184612b54565b92915050565b60006020820190506132206000830184612b63565b92915050565b600060208201905061323b6000830184612b72565b92915050565b60006020820190506132566000830184612b81565b92915050565b6000602082019050818103600083015261327581612c33565b9050919050565b6000602082019050818103600083015261329581612c73565b9050919050565b600060208201905081810360008301526132b581612cb3565b9050919050565b600060208201905081810360008301526132d581612cf3565b9050919050565b600060208201905081810360008301526132f581612d33565b9050919050565b6000602082019050818103600083015261331581612d73565b9050919050565b6000602082019050818103600083015261333581612db3565b9050919050565b6000602082019050818103600083015261335581612df3565b9050919050565b6000602082019050818103600083015261337581612e0d565b9050919050565b6000602082019050818103600083015261339581612e4d565b9050919050565b600060208201905081810360008301526133b68184612e8d565b905092915050565b600060a0820190506133d36000830188612f61565b6133e06020830187612f61565b6133ed60408301866129f1565b6133fa60608301856129f1565b6134076080830184612b1f565b9695505050505050565b6000604051905081810181811067ffffffffffffffff8211171561343457600080fd5b8060405250919050565b600067ffffffffffffffff82111561345557600080fd5b602082029050602081019050919050565b600067ffffffffffffffff82111561347d57600080fd5b602082029050602081019050919050565b600067ffffffffffffffff8211156134a557600080fd5b602082029050602081019050919050565b600067ffffffffffffffff8211156134cd57600080fd5b601f19601f8301169050602081019050919050565b600067ffffffffffffffff8211156134f957600080fd5b601f19601f8301169050602081019050919050565b6000819050602082019050919050565b6000819050602082019050919050565b600081519050919050565b600081519050919050565b600081519050919050565b600081519050919050565b6000602082019050919050565b6000602082019050919050565b600082825260208201905092915050565b600082825260208201905092915050565b600082825260208201905092915050565b600082825260208201905092915050565b600081905092915050565b60006135ce8261362a565b9050919050565b60008115159050919050565b60007fffffffffffffffffffffffffffffffff0000000000000000000000000000000082169050919050565b6000819050919050565b600081905061362582613760565b919050565b600073ffffffffffffffffffffffffffffffffffffffff82169050919050565b6000819050919050565b600061365f82613666565b9050919050565b60006136718261362a565b9050919050565b60006136838261368a565b9050919050565b60006136958261362a565b9050919050565b60006136a7826136ae565b9050919050565b60006136b98261362a565b9050919050565b60006136cb82613617565b9050919050565b82818337600083830152505050565b60005b838110156136ff5780820151818401526020810190506136e4565b8381111561370e576000848401525b50505050565b600061371f82613730565b9050919050565b6000819050919050565b600061373b82613753565b9050919050565b6000601f19601f8301169050919050565b60008160601b9050919050565b601e811061376a57fe5b50565b613776816135c3565b811461378157600080fd5b50565b61378d816135d5565b811461379857600080fd5b50565b6137a4816135e1565b81146137af57600080fd5b50565b6137bb8161360d565b81146137c657600080fd5b50565b6137d28161364a565b81146137dd57600080fd5b5056fea2646970667358221220059a7940ff09af2f5d30610707f29a44d1fe098b02c43507e00bdcbfccc3403c64736f6c63430006030033",
  "source": "pragma solidity >=0.5.12 <0.7.0;\r\npragma experimental ABIEncoderV2;\r\n\r\nimport \"./WhiteMange.sol\";\r\nimport \"./SafeMath.sol\";\r\n\r\nimport \"./ResourceDB.sol\";\r\nimport \"./OrderDB.sol\";\r\nimport \"./InfoDB.sol\";\r\n\r\n//TODO: TO modify ERC20 to GAS;\r\n\r\n/*\r\n    \r\n    1. \r\n    2. 00\r\n    3. \r\n    4. \r\n    5. \r\n*/\r\n\r\n/**\r\n * @title \r\n * @dev \r\n * @notice \r\n */\r\ncontract CenterControl is WhiteMange {\r\n    using SafeMath for uint256;\r\n    //Payment public pay_;\r\n\r\n    ResourceDB public resDb_;\r\n    OrderDB public orderDb_;\r\n    InfoDB public infoDb_;\r\n\r\n    /**\r\n     * @dev constructo\r\n     */\r\n    constructor() public {\r\n       owner = msg.sender;\r\n       admin = msg.sender;\r\n        emit  LogAddress(\"construcor\",admin, owner,msg.sender);\r\n    }\r\n\r\n    /**\r\n     * @dev Initialization function,related contract of the project\r\n     * @notice Can only be called once by the owner.\r\n     * @param _resource address : ClaimDB's contract address\r\n     * @param _order address : OrderDB's contract address\r\n     * @param _info  address : InfoDB's contract address\r\n     * @return       bool    : The successful call returns true.\r\n     */\r\n    function initialize(address _resource, address _order, address _info)\r\n        public\r\n        onlyAdmin\r\n        returns (bool)\r\n    {\r\n        require(address(resDb_) == address(0), \"You can only call it once\");\r\n        require(\r\n            _resource != address(0) &&\r\n                _order != address(0) &&\r\n                _info != address(0),\r\n            \"contract address cannot be 0.\"\r\n        );\r\n\r\n        resDb_ = ResourceDB(_resource);\r\n        orderDb_ = OrderDB(_order);\r\n        infoDb_ = InfoDB(_info);\r\n\r\n        return true;\r\n    }\r\n\r\n    // TODO\r\n    // \r\n    //function  () public payable  {\r\n    // \r\n    //}\r\n\r\n    /**\r\n     * @dev  \r\n     * @param _ipfs    string  : IPFS Hash\r\n     * @param _author  address : \r\n     * @param _thubanail :\r\n     * @param _cover :\r\n     * @param _title :\r\n     * @return         bool    : true\r\n     */\r\n    function createResource(\r\n        string memory _ipfs,\r\n        address _author,\r\n        string[] memory _thubanail,\r\n        string memory _cover,\r\n        string memory _title\r\n    ) public returns (bool) {\r\n        if (whitelist_[msg.sender] != true) {\r\n            emit LogError(RScorr.Insufficient);\r\n            return false;\r\n        }\r\n\r\n        // if (_storage == false) {\r\n        //     emit LogSimpleClaim(_author, _fs);\r\n        //     return false;\r\n        // }\r\n\r\n        bytes16 _resId = bytes16(keccak256(abi.encodePacked(_ipfs, _author)));\r\n        if (resDb_.isExist(_resId)) {\r\n            emit LogError(RScorr.ObjExist);\r\n            return false;\r\n        } /* Check if the resource exists */\r\n\r\n        require(\r\n            resDb_.insertResource(\r\n                _resId,\r\n                _ipfs,\r\n                _author,\r\n                _thubanail,\r\n                _cover,\r\n                _title\r\n            ),\r\n            \"resource create failed\"\r\n        );\r\n\r\n        require(infoDb_.insertResource(_resId, _author), \"\");\r\n\r\n        return true;\r\n\r\n    }\r\n\r\n    /**\r\n     * @dev  \r\n     * @param _author address : \r\n     * @param _resId  bytes16 : ID\r\n     * @param _value  uint256  : \r\n     * @param _payer  address : \r\n     */\r\n    function createOrder(\r\n        address _author,\r\n        bytes16 _resId,\r\n        uint256 _value,\r\n        address _payer\r\n    ) public returns (bool succ, string memory info) {\r\n        if (whitelist_[msg.sender] != true) {\r\n            emit LogError(RScorr.Insufficient);\r\n            return (false, \"not in whitelist\");\r\n        } // Check the caller's whitelist permission.\r\n\r\n        if (!resDb_.getResourceWaive(_resId)) {\r\n            emit LogError(RScorr.InvalidObj);\r\n            return (false, \"resource have  shelves\");\r\n        } //\r\n\r\n        // id\r\n        bytes32 _orderId = bytes32(keccak256(abi.encodePacked(_payer, _resId)));\r\n        resDb_.addResourceGratuityNum(_resId, _value);\r\n\r\n        // \r\n        if (orderDb_.insert(_orderId, _author, _resId, _payer, _value)) {\r\n            require(\r\n                infoDb_.insertOrder(_orderId, _resId, _payer),\r\n                \"order insert into info  error\"\r\n            );\r\n            return (true, \"\");\r\n        } else {\r\n            return (false, \"FAILE\");\r\n        }\r\n    }\r\n\r\n    // /*\r\n    //  * @dev  \r\n    //  * @param _author address : \r\n    //  * @param _claimId  bytes16 : ID\r\n    //  * @param _payer    address : \r\n    //  * @return          bool    : true\r\n    // */\r\n    // function isPayed(address _author, bytes16 _resId, address _payer)\r\n    //     public\r\n    //     view\r\n    //     returns (bool)\r\n    // {\r\n    //     bytes32 _orderId = bytes32(keccak256(abi.encodePacked(_payer, _resId)));\r\n    //     return orderDb_.isExist(_orderId);\r\n    // }\r\n\r\n    ///@dev \r\n    function updateResource(\r\n        bytes16 _sid,\r\n        address _author,\r\n        string memory _newipfs,\r\n        string[] memory _thubanail,\r\n        string memory _cover,\r\n        string memory _title\r\n    ) public returns (bool) {\r\n        if (whitelist_[msg.sender] != true) {\r\n            emit LogError(RScorr.Insufficient);\r\n            return false;\r\n        } // \r\n\r\n        return\r\n            resDb_.updateResource(\r\n                _sid,\r\n                _newipfs,\r\n                _author,\r\n                _thubanail,\r\n                _cover,\r\n                _title\r\n            );\r\n    }\r\n\r\n    ///@dev \r\n    function updateResourceWaive(bytes16 _cid, address _author, bool _waive)\r\n        public\r\n        returns (bool)\r\n    {\r\n        if (whitelist_[msg.sender] != true) {\r\n            emit LogError(RScorr.Insufficient);\r\n            return false;\r\n        } // \r\n\r\n        if (resDb_.updateResourceWaive(_cid, _author, _waive)) {\r\n            return true;\r\n        }\r\n        return false;\r\n    }\r\n\r\n    /////////////////////////\r\n    /// Internal\r\n    /////////////////////////\r\n\r\n    ///@dev ResId\r\n    function getResourceDetails(bytes16 _resid)\r\n        public\r\n        view\r\n        returns (ResourceDB.Resource memory)\r\n    // address author,\r\n    // string memory ipfs,\r\n    // uint256 initDate,\r\n    // bool waive,\r\n    // uint256 gratuityNum,\r\n    // string memory _cover,\r\n    // string memory _title,\r\n    // string[] memory _thubanail\r\n    {\r\n        return resDb_.getResourceInfoByID(_resid);\r\n    }\r\n\r\n    ///@dev OrderId\r\n    function getOrderDetails(bytes32 _oid)\r\n        public\r\n        view\r\n        returns (\r\n            uint256 time,\r\n            uint256 value,\r\n            address author,\r\n            address payer,\r\n            bytes16 resId\r\n        )\r\n    {\r\n        return orderDb_.getOrderInfoByID(_oid);\r\n    }\r\n\r\n    function getResourceAutherInfo(bytes16 _sid) public view returns (address) {\r\n        return resDb_.getAuthor(_sid);\r\n    }\r\n\r\n}\r\n",
  "sourcePath": "E:\\contracts\\contracts\\CenterControl.sol",
  "compiler": {
    "name": "solc",
    "version": "0.6.3+commit.8dda9521.Emscripten.clang"
  },
  "schemaVersion": "3.0.23",
  "updatedAt": "2020-03-07T03:13:29.980Z",
  "networkType": "ethereum",
  "devdoc": {
    "details": "",
    "methods": {
      "acceptOwnership()": {
        "details": "Allows the newOwner address to finalize the transfer."
      },
      "constructor": {
        "details": "constructo"
      },
      "createOrder(address,bytes16,uint256,address)": {
        "details": "",
        "params": {
          "_author": "address : ",
          "_payer": "address : ",
          "_resId": "bytes16 : ID",
          "_value": "uint256  : "
        }
      },
      "createResource(string,address,string[],string,string)": {
        "details": "",
        "params": {
          "_author": "address : ",
          "_cover": ":",
          "_ipfs": "string  : IPFS Hash",
          "_thubanail": ":",
          "_title": ":"
        },
        "returns": {
          "_0": "bool    : true"
        }
      },
      "getOrderDetails(bytes32)": {
        "details": "OrderId"
      },
      "getResourceDetails(bytes16)": {
        "details": "ResId"
      },
      "initialize(address,address,address)": {
        "details": "Initialization function,related contract of the project",
        "params": {
          "_info": "address : InfoDB's contract address",
          "_order": "address : OrderDB's contract address",
          "_resource": "address : ClaimDB's contract address"
        },
        "returns": {
          "_0": "bool    : The successful call returns true."
        }
      },
      "mangeWhiteList(address,bool)": {
        "details": "",
        "params": {
          "_allow": "bool     : truefalse",
          "_target": "address  : "
        },
        "returns": {
          "_0": "bool     : true"
        }
      },
      "mulInsertWhite(address[])": {
        "details": "",
        "params": {
          "_addresses": "address[] : "
        },
        "returns": {
          "_0": "bool      : true"
        }
      },
      "renounceOwnership()": {
        "details": "Allows the current owner to relinquish control of the contract."
      },
      "transferAdminship(address)": {
        "details": "Allows the current admin to transfer control of the contract to a newadmin.",
        "params": {
          "_newAdmin": "address : new admin address"
        }
      },
      "transferOwnership(address)": {
        "details": "Allows the current owner to transfer control of the contract to a newOwner.",
        "params": {
          "_newOwner": "The address to transfer ownership to."
        }
      },
      "updateResource(bytes16,address,string,string[],string,string)": {
        "details": ""
      },
      "updateResourceWaive(bytes16,address,bool)": {
        "details": ""
      }
    },
    "title": ""
  },
  "userdoc": {
    "methods": {
      "getResourceDetails(bytes16)": {
        "notice": "////////////////////// Internal //////////////////////"
      },
      "initialize(address,address,address)": {
        "notice": "Can only be called once by the owner."
      },
      "mangeWhiteList(address,bool)": {
        "notice": ""
      },
      "mulInsertWhite(address[])": {
        "notice": ""
      },
      "renounceOwnership()": {
        "notice": "Renouncing to ownership will leave the contract without an owner. It will not be possible to call the functions with the `onlyOwner` modifier anymore."
      }
    },
    "notice": ""
  }
}