{
  "contractName": "CenterControl",
  "abi": [
    {
      "inputs": [],
      "stateMutability": "nonpayable",
      "type": "constructor"
    },
    {
      "anonymous": false,
      "inputs": [
        {
          "indexed": false,
          "internalType": "string",
          "name": "info",
          "type": "string"
        },
        {
          "indexed": false,
          "internalType": "address",
          "name": "_resId",
          "type": "address"
        },
        {
          "indexed": true,
          "internalType": "address",
          "name": "_author",
          "type": "address"
        },
        {
          "indexed": false,
          "internalType": "address",
          "name": "who",
          "type": "address"
        }
      ],
      "name": "LogAddress",
      "type": "event"
    },
    {
      "anonymous": false,
      "inputs": [
        {
          "indexed": false,
          "internalType": "string",
          "name": "",
          "type": "string"
        },
        {
          "indexed": false,
          "internalType": "address",
          "name": "",
          "type": "address"
        },
        {
          "indexed": false,
          "internalType": "address",
          "name": "",
          "type": "address"
        }
      ],
      "name": "LogAddress",
      "type": "event"
    },
    {
      "anonymous": false,
      "inputs": [
        {
          "indexed": true,
          "internalType": "address",
          "name": "_old",
          "type": "address"
        },
        {
          "indexed": true,
          "internalType": "address",
          "name": "_new",
          "type": "address"
        }
      ],
      "name": "LogAdminshipTransferred",
      "type": "event"
    },
    {
      "anonymous": false,
      "inputs": [
        {
          "indexed": false,
          "internalType": "enum ErrorModule.RScorr",
          "name": "_errorNumber",
          "type": "uint8"
        }
      ],
      "name": "LogError",
      "type": "event"
    },
    {
      "anonymous": false,
      "inputs": [
        {
          "indexed": true,
          "internalType": "address",
          "name": "previousOwner",
          "type": "address"
        }
      ],
      "name": "LogOwnershipRenounced",
      "type": "event"
    },
    {
      "anonymous": false,
      "inputs": [
        {
          "indexed": true,
          "internalType": "address",
          "name": "previousOwner",
          "type": "address"
        },
        {
          "indexed": true,
          "internalType": "address",
          "name": "newOwner",
          "type": "address"
        }
      ],
      "name": "LogOwnershipTransferred",
      "type": "event"
    },
    {
      "anonymous": false,
      "inputs": [
        {
          "indexed": true,
          "internalType": "address",
          "name": "_target",
          "type": "address"
        },
        {
          "indexed": false,
          "internalType": "bool",
          "name": "_allow",
          "type": "bool"
        }
      ],
      "name": "LogWhileChanged",
      "type": "event"
    },
    {
      "anonymous": false,
      "inputs": [
        {
          "indexed": false,
          "internalType": "string",
          "name": "info",
          "type": "string"
        }
      ],
      "name": "info",
      "type": "event"
    },
    {
      "inputs": [],
      "name": "acceptOwnership",
      "outputs": [],
      "stateMutability": "nonpayable",
      "type": "function"
    },
    {
      "inputs": [],
      "name": "admin",
      "outputs": [
        {
          "internalType": "address",
          "name": "",
          "type": "address"
        }
      ],
      "stateMutability": "view",
      "type": "function",
      "constant": true
    },
    {
      "inputs": [],
      "name": "infoDb_",
      "outputs": [
        {
          "internalType": "contract InfoDB",
          "name": "",
          "type": "address"
        }
      ],
      "stateMutability": "view",
      "type": "function",
      "constant": true
    },
    {
      "inputs": [
        {
          "internalType": "address",
          "name": "_target",
          "type": "address"
        },
        {
          "internalType": "bool",
          "name": "_allow",
          "type": "bool"
        }
      ],
      "name": "mangeWhiteList",
      "outputs": [
        {
          "internalType": "bool",
          "name": "",
          "type": "bool"
        }
      ],
      "stateMutability": "nonpayable",
      "type": "function"
    },
    {
      "inputs": [
        {
          "internalType": "address[]",
          "name": "_addresses",
          "type": "address[]"
        }
      ],
      "name": "mulInsertWhite",
      "outputs": [
        {
          "internalType": "bool",
          "name": "",
          "type": "bool"
        }
      ],
      "stateMutability": "nonpayable",
      "type": "function"
    },
    {
      "inputs": [],
      "name": "newOwner",
      "outputs": [
        {
          "internalType": "address",
          "name": "",
          "type": "address"
        }
      ],
      "stateMutability": "view",
      "type": "function",
      "constant": true
    },
    {
      "inputs": [],
      "name": "orderDb_",
      "outputs": [
        {
          "internalType": "contract OrderDB",
          "name": "",
          "type": "address"
        }
      ],
      "stateMutability": "view",
      "type": "function",
      "constant": true
    },
    {
      "inputs": [],
      "name": "owner",
      "outputs": [
        {
          "internalType": "address",
          "name": "",
          "type": "address"
        }
      ],
      "stateMutability": "view",
      "type": "function",
      "constant": true
    },
    {
      "inputs": [],
      "name": "renounceOwnership",
      "outputs": [],
      "stateMutability": "nonpayable",
      "type": "function"
    },
    {
      "inputs": [],
      "name": "resDb_",
      "outputs": [
        {
          "internalType": "contract ResourceDB",
          "name": "",
          "type": "address"
        }
      ],
      "stateMutability": "view",
      "type": "function",
      "constant": true
    },
    {
      "inputs": [
        {
          "internalType": "address",
          "name": "_newAdmin",
          "type": "address"
        }
      ],
      "name": "transferAdminship",
      "outputs": [],
      "stateMutability": "nonpayable",
      "type": "function"
    },
    {
      "inputs": [
        {
          "internalType": "address",
          "name": "_newOwner",
          "type": "address"
        }
      ],
      "name": "transferOwnership",
      "outputs": [],
      "stateMutability": "nonpayable",
      "type": "function"
    },
    {
      "inputs": [
        {
          "internalType": "address",
          "name": "",
          "type": "address"
        }
      ],
      "name": "whitelist_",
      "outputs": [
        {
          "internalType": "bool",
          "name": "",
          "type": "bool"
        }
      ],
      "stateMutability": "view",
      "type": "function",
      "constant": true
    },
    {
      "inputs": [
        {
          "internalType": "address",
          "name": "_resource",
          "type": "address"
        },
        {
          "internalType": "address",
          "name": "_order",
          "type": "address"
        },
        {
          "internalType": "address",
          "name": "_info",
          "type": "address"
        }
      ],
      "name": "initialize",
      "outputs": [
        {
          "internalType": "bool",
          "name": "",
          "type": "bool"
        }
      ],
      "stateMutability": "nonpayable",
      "type": "function"
    },
    {
      "inputs": [
        {
          "internalType": "string",
          "name": "_ipfs",
          "type": "string"
        },
        {
          "internalType": "address",
          "name": "_author",
          "type": "address"
        },
        {
          "internalType": "string[]",
          "name": "_thubanail",
          "type": "string[]"
        },
        {
          "internalType": "string",
          "name": "_cover",
          "type": "string"
        },
        {
          "internalType": "string",
          "name": "_title",
          "type": "string"
        }
      ],
      "name": "createResource",
      "outputs": [
        {
          "internalType": "bytes16",
          "name": "",
          "type": "bytes16"
        }
      ],
      "stateMutability": "nonpayable",
      "type": "function"
    },
    {
      "inputs": [
        {
          "internalType": "address",
          "name": "_author",
          "type": "address"
        },
        {
          "internalType": "bytes16",
          "name": "_resId",
          "type": "bytes16"
        },
        {
          "internalType": "uint256",
          "name": "_value",
          "type": "uint256"
        },
        {
          "internalType": "address",
          "name": "_payer",
          "type": "address"
        }
      ],
      "name": "createOrder",
      "outputs": [
        {
          "internalType": "bool",
          "name": "succ",
          "type": "bool"
        },
        {
          "internalType": "string",
          "name": "info",
          "type": "string"
        },
        {
          "internalType": "bytes32",
          "name": "orderID",
          "type": "bytes32"
        }
      ],
      "stateMutability": "nonpayable",
      "type": "function"
    },
    {
      "inputs": [
        {
          "internalType": "bytes16",
          "name": "_sid",
          "type": "bytes16"
        },
        {
          "internalType": "address",
          "name": "_author",
          "type": "address"
        },
        {
          "internalType": "string",
          "name": "_newipfs",
          "type": "string"
        },
        {
          "internalType": "string[]",
          "name": "_thubanail",
          "type": "string[]"
        },
        {
          "internalType": "string",
          "name": "_cover",
          "type": "string"
        },
        {
          "internalType": "string",
          "name": "_title",
          "type": "string"
        }
      ],
      "name": "updateResource",
      "outputs": [
        {
          "internalType": "bool",
          "name": "",
          "type": "bool"
        }
      ],
      "stateMutability": "nonpayable",
      "type": "function"
    },
    {
      "inputs": [
        {
          "internalType": "bytes16",
          "name": "_cid",
          "type": "bytes16"
        },
        {
          "internalType": "address",
          "name": "_author",
          "type": "address"
        },
        {
          "internalType": "bool",
          "name": "_waive",
          "type": "bool"
        }
      ],
      "name": "updateResourceWaive",
      "outputs": [
        {
          "internalType": "bool",
          "name": "",
          "type": "bool"
        }
      ],
      "stateMutability": "nonpayable",
      "type": "function"
    },
    {
      "inputs": [
        {
          "internalType": "bytes16",
          "name": "_resid",
          "type": "bytes16"
        }
      ],
      "name": "getResourceDetails",
      "outputs": [
        {
          "components": [
            {
              "internalType": "uint256",
              "name": "initDate",
              "type": "uint256"
            },
            {
              "internalType": "address",
              "name": "author",
              "type": "address"
            },
            {
              "internalType": "bool",
              "name": "waive",
              "type": "bool"
            },
            {
              "internalType": "string",
              "name": "ipfs",
              "type": "string"
            },
            {
              "internalType": "uint256",
              "name": "gratuityNum",
              "type": "uint256"
            },
            {
              "internalType": "string[]",
              "name": "thubanail",
              "type": "string[]"
            },
            {
              "internalType": "string",
              "name": "cover",
              "type": "string"
            },
            {
              "internalType": "string",
              "name": "title",
              "type": "string"
            }
          ],
          "internalType": "struct ResourceDB.Resource",
          "name": "",
          "type": "tuple"
        }
      ],
      "stateMutability": "view",
      "type": "function",
      "constant": true
    },
    {
      "inputs": [
        {
          "internalType": "bytes32",
          "name": "_oid",
          "type": "bytes32"
        }
      ],
      "name": "getOrderDetails",
      "outputs": [
        {
          "internalType": "uint256",
          "name": "time",
          "type": "uint256"
        },
        {
          "internalType": "uint256",
          "name": "value",
          "type": "uint256"
        },
        {
          "internalType": "address",
          "name": "author",
          "type": "address"
        },
        {
          "internalType": "address",
          "name": "payer",
          "type": "address"
        },
        {
          "internalType": "bytes16",
          "name": "resId",
          "type": "bytes16"
        }
      ],
      "stateMutability": "view",
      "type": "function",
      "constant": true
    },
    {
      "inputs": [
        {
          "internalType": "bytes16",
          "name": "_sid",
          "type": "bytes16"
        }
      ],
      "name": "getResourceAutherInfo",
      "outputs": [
        {
          "internalType": "address",
          "name": "",
          "type": "address"
        }
      ],
      "stateMutability": "view",
      "type": "function",
      "constant": true
    },
    {
      "inputs": [
        {
          "internalType": "address",
          "name": "admin_",
          "type": "address"
        }
      ],
      "name": "setOwner",
      "outputs": [],
      "stateMutability": "nonpayable",
      "type": "function"
    },
    {
      "inputs": [
        {
          "internalType": "bytes16",
          "name": "_resId",
          "type": "bytes16"
        },
        {
          "internalType": "uint256",
          "name": "value",
          "type": "uint256"
        }
      ],
      "name": "addResourceGratuityNum",
      "outputs": [],
      "stateMutability": "nonpayable",
      "type": "function"
    }
  ],
  "bytecode": "0x60806040526000600660146101000a81548160ff0219169083151502179055503480156200002c57600080fd5b50336000806101000a81548173ffffffffffffffffffffffffffffffffffffffff021916908373ffffffffffffffffffffffffffffffffffffffff16021790555033600260006101000a81548173ffffffffffffffffffffffffffffffffffffffff021916908373ffffffffffffffffffffffffffffffffffffffff1602179055506000809054906101000a900473ffffffffffffffffffffffffffffffffffffffff1673ffffffffffffffffffffffffffffffffffffffff167f9e6965ca244a67ad615b5114db3886405a40a12f1190493f8e9201020885af1d600260009054906101000a900473ffffffffffffffffffffffffffffffffffffffff16336040516200013b92919062000242565b60405180910390a26000809054906101000a900473ffffffffffffffffffffffffffffffffffffffff1673ffffffffffffffffffffffffffffffffffffffff167f9e6965ca244a67ad615b5114db3886405a40a12f1190493f8e9201020885af1d600260009054906101000a900473ffffffffffffffffffffffffffffffffffffffff1633604051620001d092919062000242565b60405180910390a262000305565b620001e981620002c9565b82525050565b620001fa8162000295565b82525050565b60006200020f600a8362000284565b91507f636f6e73747275636f72000000000000000000000000000000000000000000006000830152602082019050919050565b600060608201905081810360008301526200025d8162000200565b90506200026e6020830185620001ef565b6200027d6040830184620001de565b9392505050565b600082825260208201905092915050565b6000620002a282620002a9565b9050919050565b600073ffffffffffffffffffffffffffffffffffffffff82169050919050565b6000620002d682620002dd565b9050919050565b6000620002ea82620002f1565b9050919050565b6000620002fe82620002a9565b9050919050565b61410d80620003156000396000f3fe608060405234801561001057600080fd5b506004361061014d5760003560e01c806379ba5097116100c3578063d035360b1161007c578063d035360b146103ca578063d4ee1d90146103fa578063ddbf54d514610418578063e56a7c5d14610436578063f2fde38b14610466578063f851a440146104825761014d565b806379ba5097146102e25780638da5cb5b146102ec5780639af2a7a61461030a578063a8e1fba31461033a578063aa492ec21461036a578063c0c53b8b1461039a5761014d565b806335e60e891161011557806335e60e891461020e5780635be7cc161461023e5780636df566081461025a578063703ddbca1461027857806370ce4e08146102a8578063715018a6146102d85761014d565b8063024663f71461015257806305cc9a611461018657806313af4035146101b8578063157ffbe9146101d457806316be9cfe146101f0575b600080fd5b61016c60048036036101679190810190612f64565b6104a0565b60405161017d959493929190613c7f565b60405180910390f35b6101a0600480360361019b9190810190612cfa565b610566565b6040516101af939291906137fd565b60405180910390f35b6101d260048036036101cd9190810190612c1d565b610aac565b005b6101ee60048036036101e99190810190612f28565b610cde565b005b6101f8610d71565b6040516102059190613a01565b60405180910390f35b61022860048036036102239190810190612d5d565b610d97565b60405161023591906137e2565b60405180910390f35b61025860048036036102539190810190612c1d565b611001565b005b610262611207565b60405161026f9190613a1c565b60405180910390f35b610292600480360361028d9190810190612f8d565b61122d565b60405161029f919061383b565b60405180910390f35b6102c260048036036102bd9190810190612dc7565b611646565b6040516102cf9190613c5d565b60405180910390f35b6102e0611705565b005b6102ea611861565b005b6102f4611a5a565b60405161030191906137c7565b60405180910390f35b610324600480360361031f9190810190612e3f565b611a7f565b60405161033191906137e2565b60405180910390f35b610354600480360361034f9190810190612cbe565b611c39565b60405161036191906137e2565b60405180910390f35b610384600480360361037f9190810190612df0565b611e52565b60405161039191906137e2565b60405180910390f35b6103b460048036036103af9190810190612c6f565b612013565b6040516103c191906137e2565b60405180910390f35b6103e460048036036103df9190810190612dc7565b6124c7565b6040516103f191906137c7565b60405180910390f35b61040261257b565b60405161040f91906137c7565b60405180910390f35b6104206125a1565b60405161042d9190613a37565b60405180910390f35b610450600480360361044b9190810190612c1d565b6125c7565b60405161045d91906137e2565b60405180910390f35b610480600480360361047b9190810190612c1d565b6125e7565b005b61048a612750565b60405161049791906137c7565b60405180910390f35b6000806000806000600560009054906101000a900473ffffffffffffffffffffffffffffffffffffffff1673ffffffffffffffffffffffffffffffffffffffff16635d1d1e67876040518263ffffffff1660e01b8152600401610503919061395c565b60a06040518083038186803b15801561051b57600080fd5b505afa15801561052f573d6000803e3d6000fd5b505050506040513d601f19601f8201168201806040525061055391908101906130a5565b9450945094509450945091939590929450565b6000606060008673ffffffffffffffffffffffffffffffffffffffff166000809054906101000a900473ffffffffffffffffffffffffffffffffffffffff1673ffffffffffffffffffffffffffffffffffffffff161415801561061a575060011515600360003373ffffffffffffffffffffffffffffffffffffffff1673ffffffffffffffffffffffffffffffffffffffff16815260200190815260200160002060009054906101000a900460ff16151514155b156106a2577f0489f2369368f4688acd012107ac5a7d98ca739b913449d852f35d871e433cc3600e60405161064f9190613a52565b60405180910390a16000806040518060400160405280601081526020017f6e6f7420696e2077686974656c69737400000000000000000000000000000000815250908060001b9050925092509250610aa2565b600460009054906101000a900473ffffffffffffffffffffffffffffffffffffffff1673ffffffffffffffffffffffffffffffffffffffff1663f207a088876040518263ffffffff1660e01b81526004016106fd919061383b565b60206040518083038186803b15801561071557600080fd5b505afa158015610729573d6000803e3d6000fd5b505050506040513d601f19601f8201168201806040525061074d9190810190612d9e565b6107d4577f0489f2369368f4688acd012107ac5a7d98ca739b913449d852f35d871e433cc360066040516107819190613a52565b60405180910390a16000806040518060400160405280601681526020017f7265736f75726365206861766520207368656c76657300000000000000000000815250908060001b9050925092509250610aa2565b600084876040516020016107e9929190613773565b604051602081830303815290604052805190602001209050600460009054906101000a900473ffffffffffffffffffffffffffffffffffffffff1673ffffffffffffffffffffffffffffffffffffffff1663157ffbe988886040518363ffffffff1660e01b815260040161085e929190613933565b600060405180830381600087803b15801561087857600080fd5b505af115801561088c573d6000803e3d6000fd5b50505050600560009054906101000a900473ffffffffffffffffffffffffffffffffffffffff1673ffffffffffffffffffffffffffffffffffffffff166363e319f4828a8a898b6040518663ffffffff1660e01b81526004016108f3959493929190613977565b602060405180830381600087803b15801561090d57600080fd5b505af1158015610921573d6000803e3d6000fd5b505050506040513d601f19601f820116820180604052506109459190810190612d9e565b15610a5a57600660009054906101000a900473ffffffffffffffffffffffffffffffffffffffff1673ffffffffffffffffffffffffffffffffffffffff1663ee9a45508289886040518463ffffffff1660e01b81526004016109a9939291906139ca565b602060405180830381600087803b1580156109c357600080fd5b505af11580156109d7573d6000803e3d6000fd5b505050506040513d601f19601f820116820180604052506109fb9190810190612d9e565b610a3a576040517f08c379a0000000000000000000000000000000000000000000000000000000008152600401610a3190613ba1565b60405180910390fd5b600181604051806020016040528060008152509093509350935050610aa2565b6000806040518060400160405280600581526020017f4641494c45000000000000000000000000000000000000000000000000000000815250908060001b9050935093509350505b9450945094915050565b600660149054906101000a900460ff1615610afc576040517f08c379a0000000000000000000000000000000000000000000000000000000008152600401610af390613b45565b60405180910390fd5b6001600660146101000a81548160ff021916908315150217905550336000806101000a81548173ffffffffffffffffffffffffffffffffffffffff021916908373ffffffffffffffffffffffffffffffffffffffff16021790555080600260006101000a81548173ffffffffffffffffffffffffffffffffffffffff021916908373ffffffffffffffffffffffffffffffffffffffff1602179055506001600360008373ffffffffffffffffffffffffffffffffffffffff1673ffffffffffffffffffffffffffffffffffffffff16815260200190815260200160002060006101000a81548160ff0219169083151502179055506001600360003373ffffffffffffffffffffffffffffffffffffffff1673ffffffffffffffffffffffffffffffffffffffff16815260200190815260200160002060006101000a81548160ff0219169083151502179055506000809054906101000a900473ffffffffffffffffffffffffffffffffffffffff1673ffffffffffffffffffffffffffffffffffffffff167f9e6965ca244a67ad615b5114db3886405a40a12f1190493f8e9201020885af1d600260009054906101000a900473ffffffffffffffffffffffffffffffffffffffff1633604051610cd3929190613b09565b60405180910390a250565b600460009054906101000a900473ffffffffffffffffffffffffffffffffffffffff1673ffffffffffffffffffffffffffffffffffffffff1663157ffbe983836040518363ffffffff1660e01b8152600401610d3b929190613933565b600060405180830381600087803b158015610d5557600080fd5b505af1158015610d69573d6000803e3d6000fd5b505050505050565b600660009054906101000a900473ffffffffffffffffffffffffffffffffffffffff1681565b60008060009054906101000a900473ffffffffffffffffffffffffffffffffffffffff1673ffffffffffffffffffffffffffffffffffffffff163373ffffffffffffffffffffffffffffffffffffffff1614158015610e445750600260009054906101000a900473ffffffffffffffffffffffffffffffffffffffff1673ffffffffffffffffffffffffffffffffffffffff163373ffffffffffffffffffffffffffffffffffffffff1614155b15610e8a577f0489f2369368f4688acd012107ac5a7d98ca739b913449d852f35d871e433cc3600f604051610e799190613a52565b60405180910390a160009050610ffc565b60008090505b8251811015610ff657600073ffffffffffffffffffffffffffffffffffffffff16838281518110610ebd57fe5b602002602001015173ffffffffffffffffffffffffffffffffffffffff161415610f1c576040517f08c379a0000000000000000000000000000000000000000000000000000000008152600401610f1390613be1565b60405180910390fd5b600160036000858481518110610f2e57fe5b602002602001015173ffffffffffffffffffffffffffffffffffffffff1673ffffffffffffffffffffffffffffffffffffffff16815260200190815260200160002060006101000a81548160ff021916908315150217905550828181518110610f9357fe5b602002602001015173ffffffffffffffffffffffffffffffffffffffff167f9b3b880c67f4fab4215412179771cffd326a045e6016a7e363eb38460f7e91766001604051610fe191906137e2565b60405180910390a28080600101915050610e90565b50600190505b919050565b6000809054906101000a900473ffffffffffffffffffffffffffffffffffffffff1673ffffffffffffffffffffffffffffffffffffffff163373ffffffffffffffffffffffffffffffffffffffff1614806110a95750600260009054906101000a900473ffffffffffffffffffffffffffffffffffffffff1673ffffffffffffffffffffffffffffffffffffffff163373ffffffffffffffffffffffffffffffffffffffff16145b15611170578073ffffffffffffffffffffffffffffffffffffffff16600260009054906101000a900473ffffffffffffffffffffffffffffffffffffffff1673ffffffffffffffffffffffffffffffffffffffff167ff73aa4459d935dbacd9313fffe485016147551d99ef401461704cd39e6e9028760405160405180910390a380600260006101000a81548173ffffffffffffffffffffffffffffffffffffffff021916908373ffffffffffffffffffffffffffffffffffffffff160217905550611204565b6000809054906101000a900473ffffffffffffffffffffffffffffffffffffffff1673ffffffffffffffffffffffffffffffffffffffff167f9e6965ca244a67ad615b5114db3886405a40a12f1190493f8e9201020885af1d600260009054906101000a900473ffffffffffffffffffffffffffffffffffffffff16336040516111fb929190613a6d565b60405180910390a25b50565b600560009054906101000a900473ffffffffffffffffffffffffffffffffffffffff1681565b60008473ffffffffffffffffffffffffffffffffffffffff166000809054906101000a900473ffffffffffffffffffffffffffffffffffffffff1673ffffffffffffffffffffffffffffffffffffffff16141580156112dd575060011515600360008773ffffffffffffffffffffffffffffffffffffffff1673ffffffffffffffffffffffffffffffffffffffff16815260200190815260200160002060009054906101000a900460ff16151514155b15611326577f0489f2369368f4688acd012107ac5a7d98ca739b913449d852f35d871e433cc3600e6040516113129190613a52565b60405180910390a1600060801b905061163d565b6000868660405160200161133b92919061379f565b604051602081830303815290604052805190602001209050600460009054906101000a900473ffffffffffffffffffffffffffffffffffffffff1673ffffffffffffffffffffffffffffffffffffffff16639b03ced2826040518263ffffffff1660e01b81526004016113ae919061383b565b60206040518083038186803b1580156113c657600080fd5b505afa1580156113da573d6000803e3d6000fd5b505050506040513d601f19601f820116820180604052506113fe9190810190612d9e565b15611448577f0489f2369368f4688acd012107ac5a7d98ca739b913449d852f35d871e433cc3600a6040516114339190613a52565b60405180910390a1600060801b91505061163d565b6000600460009054906101000a900473ffffffffffffffffffffffffffffffffffffffff1673ffffffffffffffffffffffffffffffffffffffff1663b3f95657838a8a8a8a8a6040518763ffffffff1660e01b81526004016114af969594939291906138b6565b602060405180830381600087803b1580156114c957600080fd5b505af11580156114dd573d6000803e3d6000fd5b505050506040513d601f19601f820116820180604052506115019190810190612d9e565b90508061154b577f17fab0a06d8bb899e6cdc2d061dedb2e45be1b2a39a1e3ff50f9c96a0162cceb60405161153590613bc1565b60405180910390a1600060801b9250505061163d565b600660009054906101000a900473ffffffffffffffffffffffffffffffffffffffff1673ffffffffffffffffffffffffffffffffffffffff1663fd4dd1fe83896040518363ffffffff1660e01b81526004016115a8929190613856565b602060405180830381600087803b1580156115c257600080fd5b505af11580156115d6573d6000803e3d6000fd5b505050506040513d601f19601f820116820180604052506115fa9190810190612d9e565b905080611637577f17fab0a06d8bb899e6cdc2d061dedb2e45be1b2a39a1e3ff50f9c96a0162cceb60405161162e90613aa9565b60405180910390a15b81925050505b95945050505050565b61164e612776565b600460009054906101000a900473ffffffffffffffffffffffffffffffffffffffff1673ffffffffffffffffffffffffffffffffffffffff16638d4a3974836040518263ffffffff1660e01b81526004016116a9919061383b565b60006040518083038186803b1580156116c157600080fd5b505afa1580156116d5573d6000803e3d6000fd5b505050506040513d6000823e3d601f19601f820116820180604052506116fe9190810190613064565b9050919050565b6000809054906101000a900473ffffffffffffffffffffffffffffffffffffffff1673ffffffffffffffffffffffffffffffffffffffff163373ffffffffffffffffffffffffffffffffffffffff161415611804576000809054906101000a900473ffffffffffffffffffffffffffffffffffffffff1673ffffffffffffffffffffffffffffffffffffffff167f2dde1bc8b58ef192e7df3e7a354521d958331021e450d544346b936936916ef460405160405180910390a260008060006101000a81548173ffffffffffffffffffffffffffffffffffffffff021916908373ffffffffffffffffffffffffffffffffffffffff16021790555061185f565b7f6b26c3fc447c71078386bc5ad946c760ce605d2bc61b762901400eb9ac003a9a6000809054906101000a900473ffffffffffffffffffffffffffffffffffffffff1633604051611856929190613c01565b60405180910390a15b565b600160009054906101000a900473ffffffffffffffffffffffffffffffffffffffff1673ffffffffffffffffffffffffffffffffffffffff163373ffffffffffffffffffffffffffffffffffffffff1614156119fd57600160009054906101000a900473ffffffffffffffffffffffffffffffffffffffff1673ffffffffffffffffffffffffffffffffffffffff166000809054906101000a900473ffffffffffffffffffffffffffffffffffffffff1673ffffffffffffffffffffffffffffffffffffffff167fdb6d05f3295cede580affa301a1eb5297528f3b3f6a56b075887ce6f61c45f2160405160405180910390a3600160009054906101000a900473ffffffffffffffffffffffffffffffffffffffff166000806101000a81548173ffffffffffffffffffffffffffffffffffffffff021916908373ffffffffffffffffffffffffffffffffffffffff1602179055506000600160006101000a81548173ffffffffffffffffffffffffffffffffffffffff021916908373ffffffffffffffffffffffffffffffffffffffff160217905550611a58565b7f6b26c3fc447c71078386bc5ad946c760ce605d2bc61b762901400eb9ac003a9a6000809054906101000a900473ffffffffffffffffffffffffffffffffffffffff1633604051611a4f929190613c01565b60405180910390a15b565b6000809054906101000a900473ffffffffffffffffffffffffffffffffffffffff1681565b60008573ffffffffffffffffffffffffffffffffffffffff166000809054906101000a900473ffffffffffffffffffffffffffffffffffffffff1673ffffffffffffffffffffffffffffffffffffffff1614158015611b2f575060011515600360008873ffffffffffffffffffffffffffffffffffffffff1673ffffffffffffffffffffffffffffffffffffffff16815260200190815260200160002060009054906101000a900460ff16151514155b15611b75577f0489f2369368f4688acd012107ac5a7d98ca739b913449d852f35d871e433cc3600e604051611b649190613a52565b60405180910390a160009050611c2f565b600460009054906101000a900473ffffffffffffffffffffffffffffffffffffffff1673ffffffffffffffffffffffffffffffffffffffff1663a864022d8887898888886040518763ffffffff1660e01b8152600401611bda969594939291906138b6565b602060405180830381600087803b158015611bf457600080fd5b505af1158015611c08573d6000803e3d6000fd5b505050506040513d601f19601f82011682018060405250611c2c9190810190612d9e565b90505b9695505050505050565b60008060009054906101000a900473ffffffffffffffffffffffffffffffffffffffff1673ffffffffffffffffffffffffffffffffffffffff163373ffffffffffffffffffffffffffffffffffffffff1614158015611ce65750600260009054906101000a900473ffffffffffffffffffffffffffffffffffffffff1673ffffffffffffffffffffffffffffffffffffffff163373ffffffffffffffffffffffffffffffffffffffff1614155b15611d2c577f0489f2369368f4688acd012107ac5a7d98ca739b913449d852f35d871e433cc3600f604051611d1b9190613a52565b60405180910390a160009050611e4c565b600073ffffffffffffffffffffffffffffffffffffffff168373ffffffffffffffffffffffffffffffffffffffff161415611da2577f0489f2369368f4688acd012107ac5a7d98ca739b913449d852f35d871e433cc36002604051611d919190613a52565b60405180910390a160009050611e4c565b81600360008573ffffffffffffffffffffffffffffffffffffffff1673ffffffffffffffffffffffffffffffffffffffff16815260200190815260200160002060006101000a81548160ff0219169083151502179055508273ffffffffffffffffffffffffffffffffffffffff167f9b3b880c67f4fab4215412179771cffd326a045e6016a7e363eb38460f7e917683604051611e3f91906137e2565b60405180910390a2600190505b92915050565b60008273ffffffffffffffffffffffffffffffffffffffff166000809054906101000a900473ffffffffffffffffffffffffffffffffffffffff1673ffffffffffffffffffffffffffffffffffffffff1614158015611f02575060011515600360003373ffffffffffffffffffffffffffffffffffffffff1673ffffffffffffffffffffffffffffffffffffffff16815260200190815260200160002060009054906101000a900460ff16151514155b15611f48577f0489f2369368f4688acd012107ac5a7d98ca739b913449d852f35d871e433cc3600e604051611f379190613a52565b60405180910390a16000905061200c565b600460009054906101000a900473ffffffffffffffffffffffffffffffffffffffff1673ffffffffffffffffffffffffffffffffffffffff1663aa492ec28585856040518463ffffffff1660e01b8152600401611fa79392919061387f565b602060405180830381600087803b158015611fc157600080fd5b505af1158015611fd5573d6000803e3d6000fd5b505050506040513d601f19601f82011682018060405250611ff99190810190612d9e565b15612007576001905061200c565b600090505b9392505050565b60008060009054906101000a900473ffffffffffffffffffffffffffffffffffffffff1673ffffffffffffffffffffffffffffffffffffffff163373ffffffffffffffffffffffffffffffffffffffff1614806120bd5750600260009054906101000a900473ffffffffffffffffffffffffffffffffffffffff1673ffffffffffffffffffffffffffffffffffffffff163373ffffffffffffffffffffffffffffffffffffffff16145b1561242c57600073ffffffffffffffffffffffffffffffffffffffff16600460009054906101000a900473ffffffffffffffffffffffffffffffffffffffff1673ffffffffffffffffffffffffffffffffffffffff1614612153576040517f08c379a000000000000000000000000000000000000000000000000000000000815260040161214a90613ae9565b60405180910390fd5b600073ffffffffffffffffffffffffffffffffffffffff168473ffffffffffffffffffffffffffffffffffffffff16141580156121bd5750600073ffffffffffffffffffffffffffffffffffffffff168373ffffffffffffffffffffffffffffffffffffffff1614155b80156121f65750600073ffffffffffffffffffffffffffffffffffffffff168273ffffffffffffffffffffffffffffffffffffffff1614155b612235576040517f08c379a000000000000000000000000000000000000000000000000000000000815260040161222c90613ac9565b60405180910390fd5b83600460006101000a81548173ffffffffffffffffffffffffffffffffffffffff021916908373ffffffffffffffffffffffffffffffffffffffff16021790555082600560006101000a81548173ffffffffffffffffffffffffffffffffffffffff021916908373ffffffffffffffffffffffffffffffffffffffff16021790555081600660006101000a81548173ffffffffffffffffffffffffffffffffffffffff021916908373ffffffffffffffffffffffffffffffffffffffff160217905550336000806101000a81548173ffffffffffffffffffffffffffffffffffffffff021916908373ffffffffffffffffffffffffffffffffffffffff1602179055506001600360003373ffffffffffffffffffffffffffffffffffffffff1673ffffffffffffffffffffffffffffffffffffffff16815260200190815260200160002060006101000a81548160ff0219169083151502179055506000809054906101000a900473ffffffffffffffffffffffffffffffffffffffff1673ffffffffffffffffffffffffffffffffffffffff167f9e6965ca244a67ad615b5114db3886405a40a12f1190493f8e9201020885af1d600260009054906101000a900473ffffffffffffffffffffffffffffffffffffffff163360405161241b929190613b65565b60405180910390a2600190506124c0565b6000809054906101000a900473ffffffffffffffffffffffffffffffffffffffff1673ffffffffffffffffffffffffffffffffffffffff167f9e6965ca244a67ad615b5114db3886405a40a12f1190493f8e9201020885af1d600260009054906101000a900473ffffffffffffffffffffffffffffffffffffffff16336040516124b7929190613a6d565b60405180910390a25b9392505050565b6000600460009054906101000a900473ffffffffffffffffffffffffffffffffffffffff1673ffffffffffffffffffffffffffffffffffffffff1663ba33cb58836040518263ffffffff1660e01b8152600401612524919061383b565b60206040518083038186803b15801561253c57600080fd5b505afa158015612550573d6000803e3d6000fd5b505050506040513d601f19601f820116820180604052506125749190810190612c46565b9050919050565b600160009054906101000a900473ffffffffffffffffffffffffffffffffffffffff1681565b600460009054906101000a900473ffffffffffffffffffffffffffffffffffffffff1681565b60036020528060005260406000206000915054906101000a900460ff1681565b6000809054906101000a900473ffffffffffffffffffffffffffffffffffffffff1673ffffffffffffffffffffffffffffffffffffffff163373ffffffffffffffffffffffffffffffffffffffff1614156126f257600073ffffffffffffffffffffffffffffffffffffffff168173ffffffffffffffffffffffffffffffffffffffff1614156126ac576040517f08c379a00000000000000000000000000000000000000000000000000000000081526004016126a390613c3d565b60405180910390fd5b80600160006101000a81548173ffffffffffffffffffffffffffffffffffffffff021916908373ffffffffffffffffffffffffffffffffffffffff16021790555061274d565b7f6b26c3fc447c71078386bc5ad946c760ce605d2bc61b762901400eb9ac003a9a6000809054906101000a900473ffffffffffffffffffffffffffffffffffffffff1633604051612744929190613c01565b60405180910390a15b50565b600260009054906101000a900473ffffffffffffffffffffffffffffffffffffffff1681565b60405180610100016040528060008152602001600073ffffffffffffffffffffffffffffffffffffffff16815260200160001515815260200160608152602001600081526020016060815260200160608152602001606081525090565b6000813590506127e281614064565b92915050565b6000815190506127f781614064565b92915050565b600082601f83011261280e57600080fd5b813561282161281c82613cff565b613cd2565b9150818183526020840193506020810190508385602084028201111561284657600080fd5b60005b83811015612876578161285c88826127d3565b845260208401935060208301925050600181019050612849565b5050505092915050565b600082601f83011261289157600080fd5b81516128a461289f82613d27565b613cd2565b9150818183526020840193506020810190508360005b838110156128ea57815186016128d08882612a25565b8452602084019350602083019250506001810190506128ba565b5050505092915050565b600082601f83011261290557600080fd5b813561291861291382613d4f565b613cd2565b9150818183526020840193506020810190508360005b8381101561295e578135860161294488826129d1565b84526020840193506020830192505060018101905061292e565b5050505092915050565b6000813590506129778161407b565b92915050565b60008151905061298c8161407b565b92915050565b6000813590506129a181614092565b92915050565b6000815190506129b681614092565b92915050565b6000813590506129cb816140a9565b92915050565b600082601f8301126129e257600080fd5b81356129f56129f082613d77565b613cd2565b91508082526020830160208301858383011115612a1157600080fd5b612a1c838284613fc9565b50505092915050565b600082601f830112612a3657600080fd5b8151612a49612a4482613d77565b613cd2565b91508082526020830160208301858383011115612a6557600080fd5b612a70838284613fd8565b50505092915050565b600082601f830112612a8a57600080fd5b8135612a9d612a9882613da3565b613cd2565b91508082526020830160208301858383011115612ab957600080fd5b612ac4838284613fc9565b50505092915050565b60006101008284031215612ae057600080fd5b612aeb610100613cd2565b90506000612afb84828501612c08565b6000830152506020612b0f848285016127e8565b6020830152506040612b238482850161297d565b604083015250606082015167ffffffffffffffff811115612b4357600080fd5b612b4f84828501612a25565b6060830152506080612b6384828501612c08565b60808301525060a082015167ffffffffffffffff811115612b8357600080fd5b612b8f84828501612880565b60a08301525060c082015167ffffffffffffffff811115612baf57600080fd5b612bbb84828501612a25565b60c08301525060e082015167ffffffffffffffff811115612bdb57600080fd5b612be784828501612a25565b60e08301525092915050565b600081359050612c02816140c0565b92915050565b600081519050612c17816140c0565b92915050565b600060208284031215612c2f57600080fd5b6000612c3d848285016127d3565b91505092915050565b600060208284031215612c5857600080fd5b6000612c66848285016127e8565b91505092915050565b600080600060608486031215612c8457600080fd5b6000612c92868287016127d3565b9350506020612ca3868287016127d3565b9250506040612cb4868287016127d3565b9150509250925092565b60008060408385031215612cd157600080fd5b6000612cdf858286016127d3565b9250506020612cf085828601612968565b9150509250929050565b60008060008060808587031215612d1057600080fd5b6000612d1e878288016127d3565b9450506020612d2f87828801612992565b9350506040612d4087828801612bf3565b9250506060612d51878288016127d3565b91505092959194509250565b600060208284031215612d6f57600080fd5b600082013567ffffffffffffffff811115612d8957600080fd5b612d95848285016127fd565b91505092915050565b600060208284031215612db057600080fd5b6000612dbe8482850161297d565b91505092915050565b600060208284031215612dd957600080fd5b6000612de784828501612992565b91505092915050565b600080600060608486031215612e0557600080fd5b6000612e1386828701612992565b9350506020612e24868287016127d3565b9250506040612e3586828701612968565b9150509250925092565b60008060008060008060c08789031215612e5857600080fd5b6000612e6689828a01612992565b9650506020612e7789828a016127d3565b955050604087013567ffffffffffffffff811115612e9457600080fd5b612ea089828a01612a79565b945050606087013567ffffffffffffffff811115612ebd57600080fd5b612ec989828a016128f4565b935050608087013567ffffffffffffffff811115612ee657600080fd5b612ef289828a01612a79565b92505060a087013567ffffffffffffffff811115612f0f57600080fd5b612f1b89828a01612a79565b9150509295509295509295565b60008060408385031215612f3b57600080fd5b6000612f4985828601612992565b9250506020612f5a85828601612bf3565b9150509250929050565b600060208284031215612f7657600080fd5b6000612f84848285016129bc565b91505092915050565b600080600080600060a08688031215612fa557600080fd5b600086013567ffffffffffffffff811115612fbf57600080fd5b612fcb88828901612a79565b9550506020612fdc888289016127d3565b945050604086013567ffffffffffffffff811115612ff957600080fd5b613005888289016128f4565b935050606086013567ffffffffffffffff81111561302257600080fd5b61302e88828901612a79565b925050608086013567ffffffffffffffff81111561304b57600080fd5b61305788828901612a79565b9150509295509295909350565b60006020828403121561307657600080fd5b600082015167ffffffffffffffff81111561309057600080fd5b61309c84828501612acd565b91505092915050565b600080600080600060a086880312156130bd57600080fd5b60006130cb88828901612c08565b95505060206130dc88828901612c08565b94505060406130ed888289016127e8565b93505060606130fe888289016127e8565b925050608061310f888289016129a7565b9150509295509295909350565b60006131288383613357565b905092915050565b61313981613f15565b82525050565b61314881613e84565b82525050565b61315781613e84565b82525050565b61316e61316982613e84565b61400b565b82525050565b600061317f82613dfa565b6131898185613e46565b93508360208202850161319b85613ddf565b8060005b858110156131d757848403895281516131b8858261311c565b94506131c383613e28565b925060208a0199505060018101905061319f565b50829750879550505050505092915050565b60006131f482613def565b6131fe8185613e35565b93508360208202850161321085613dcf565b8060005b8581101561324c578484038952815161322d858261311c565b945061323883613e1b565b925060208a01995050600181019050613214565b50829750879550505050505092915050565b61326781613e96565b82525050565b61327681613e96565b82525050565b61328581613ea2565b82525050565b61329c61329782613ea2565b61401d565b82525050565b6132ab81613ece565b82525050565b6132ba81613f27565b82525050565b6132c981613f4b565b82525050565b6132d881613f6f565b82525050565b6132e781613f93565b82525050565b60006132f882613e10565b6133028185613e68565b9350613312818560208601613fd8565b61331b81614039565b840191505092915050565b600061333182613e10565b61333b8185613e79565b935061334b818560208601613fd8565b80840191505092915050565b600061336282613e05565b61336c8185613e57565b935061337c818560208601613fd8565b61338581614039565b840191505092915050565b600061339d600983613e68565b91507f6f6e6c7941646d696e00000000000000000000000000000000000000000000006000830152602082019050919050565b60006133dd601b83613e68565b91507f696e666f64622e696e736572745265736f75726365206572726f7200000000006000830152602082019050919050565b600061341d601d83613e68565b91507f636f6e747261637420616464726573732063616e6e6f7420626520302e0000006000830152602082019050919050565b600061345d601983613e68565b91507f596f752063616e206f6e6c792063616c6c206974206f6e6365000000000000006000830152602082019050919050565b600061349d601583613e68565b91507f43656e746572436f6e74726f6c7365744f776e657200000000000000000000006000830152602082019050919050565b60006134dd601083613e68565b91507f207365744f776e65725f3a2074727565000000000000000000000000000000006000830152602082019050919050565b600061351d600a83613e68565b91507f696e697469616c697a65000000000000000000000000000000000000000000006000830152602082019050919050565b600061355d601d83613e68565b91507f6f7264657220696e7365727420696e746f20696e666f20206572726f720000006000830152602082019050919050565b600061359d601583613e68565b91507f7265736f7572636520637265617465206572726f7200000000000000000000006000830152602082019050919050565b60006135dd600f83613e68565b91507f61646472657373206973206e756c6c00000000000000000000000000000000006000830152602082019050919050565b600061361d600a83613e68565b91507f6f6e6c79206f776e6572000000000000000000000000000000000000000000006000830152602082019050919050565b600061365d601083613e68565b91507f6e65774f776e6572206973206e756c6c000000000000000000000000000000006000830152602082019050919050565b6000610100830160008301516136a96000860182613755565b5060208301516136bc602086018261313f565b5060408301516136cf604086018261325e565b50606083015184820360608601526136e78282613357565b91505060808301516136fc6080860182613755565b5060a083015184820360a086015261371482826131e9565b91505060c083015184820360c086015261372e8282613357565b91505060e083015184820360e08601526137488282613357565b9150508091505092915050565b61375e81613f0b565b82525050565b61376d81613f0b565b82525050565b600061377f828561315d565b60148201915061378f828461328b565b6010820191508190509392505050565b60006137ab8285613326565b91506137b7828461315d565b6014820191508190509392505050565b60006020820190506137dc600083018461314e565b92915050565b60006020820190506137f7600083018461326d565b92915050565b6000606082019050613812600083018661326d565b818103602083015261382481856132ed565b905061383360408301846132a2565b949350505050565b6000602082019050613850600083018461327c565b92915050565b600060408201905061386b600083018561327c565b613878602083018461314e565b9392505050565b6000606082019050613894600083018661327c565b6138a1602083018561314e565b6138ae604083018461326d565b949350505050565b600060c0820190506138cb600083018961327c565b81810360208301526138dd81886132ed565b90506138ec604083018761314e565b81810360608301526138fe8186613174565b9050818103608083015261391281856132ed565b905081810360a083015261392681846132ed565b9050979650505050505050565b6000604082019050613948600083018561327c565b6139556020830184613764565b9392505050565b600060208201905061397160008301846132a2565b92915050565b600060a08201905061398c60008301886132a2565b613999602083018761314e565b6139a6604083018661327c565b6139b3606083018561314e565b6139c06080830184613764565b9695505050505050565b60006060820190506139df60008301866132a2565b6139ec602083018561327c565b6139f9604083018461314e565b949350505050565b6000602082019050613a1660008301846132b1565b92915050565b6000602082019050613a3160008301846132c0565b92915050565b6000602082019050613a4c60008301846132cf565b92915050565b6000602082019050613a6760008301846132de565b92915050565b60006060820190508181036000830152613a8681613390565b9050613a95602083018561314e565b613aa26040830184613130565b9392505050565b60006020820190508181036000830152613ac2816133d0565b9050919050565b60006020820190508181036000830152613ae281613410565b9050919050565b60006020820190508181036000830152613b0281613450565b9050919050565b60006060820190508181036000830152613b2281613490565b9050613b31602083018561314e565b613b3e6040830184613130565b9392505050565b60006020820190508181036000830152613b5e816134d0565b9050919050565b60006060820190508181036000830152613b7e81613510565b9050613b8d602083018561314e565b613b9a6040830184613130565b9392505050565b60006020820190508181036000830152613bba81613550565b9050919050565b60006020820190508181036000830152613bda81613590565b9050919050565b60006020820190508181036000830152613bfa816135d0565b9050919050565b60006060820190508181036000830152613c1a81613610565b9050613c29602083018561314e565b613c366040830184613130565b9392505050565b60006020820190508181036000830152613c5681613650565b9050919050565b60006020820190508181036000830152613c778184613690565b905092915050565b600060a082019050613c946000830188613764565b613ca16020830187613764565b613cae604083018661314e565b613cbb606083018561314e565b613cc8608083018461327c565b9695505050505050565b6000604051905081810181811067ffffffffffffffff82111715613cf557600080fd5b8060405250919050565b600067ffffffffffffffff821115613d1657600080fd5b602082029050602081019050919050565b600067ffffffffffffffff821115613d3e57600080fd5b602082029050602081019050919050565b600067ffffffffffffffff821115613d6657600080fd5b602082029050602081019050919050565b600067ffffffffffffffff821115613d8e57600080fd5b601f19601f8301169050602081019050919050565b600067ffffffffffffffff821115613dba57600080fd5b601f19601f8301169050602081019050919050565b6000819050602082019050919050565b6000819050602082019050919050565b600081519050919050565b600081519050919050565b600081519050919050565b600081519050919050565b6000602082019050919050565b6000602082019050919050565b600082825260208201905092915050565b600082825260208201905092915050565b600082825260208201905092915050565b600082825260208201905092915050565b600081905092915050565b6000613e8f82613eeb565b9050919050565b60008115159050919050565b60007fffffffffffffffffffffffffffffffff0000000000000000000000000000000082169050919050565b6000819050919050565b6000819050613ee682614057565b919050565b600073ffffffffffffffffffffffffffffffffffffffff82169050919050565b6000819050919050565b6000613f2082613fa5565b9050919050565b6000613f3282613f39565b9050919050565b6000613f4482613eeb565b9050919050565b6000613f5682613f5d565b9050919050565b6000613f6882613eeb565b9050919050565b6000613f7a82613f81565b9050919050565b6000613f8c82613eeb565b9050919050565b6000613f9e82613ed8565b9050919050565b6000613fb082613fb7565b9050919050565b6000613fc282613eeb565b9050919050565b82818337600083830152505050565b60005b83811015613ff6578082015181840152602081019050613fdb565b83811115614005576000848401525b50505050565b600061401682614027565b9050919050565b6000819050919050565b60006140328261404a565b9050919050565b6000601f19601f8301169050919050565b60008160601b9050919050565b601e811061406157fe5b50565b61406d81613e84565b811461407857600080fd5b50565b61408481613e96565b811461408f57600080fd5b50565b61409b81613ea2565b81146140a657600080fd5b50565b6140b281613ece565b81146140bd57600080fd5b50565b6140c981613f0b565b81146140d457600080fd5b5056fea2646970667358221220f4f9ed65e12d83f066f4ce10f74e8088d58ed925079742b153997053ee404d0964736f6c63430006030033",
  "source": "pragma solidity >=0.5.12 <0.7.0;\r\npragma experimental ABIEncoderV2;\r\n\r\nimport \"./WhiteMange.sol\";\r\nimport \"./SafeMath.sol\";\r\n\r\nimport \"./ResourceDB.sol\";\r\nimport \"./OrderDB.sol\";\r\nimport \"./InfoDB.sol\";\r\n\r\n//TODO: TO modify ERC20 to GAS;\r\n\r\n/*\r\n    \r\n    1. \r\n    2. 00\r\n    3. \r\n    4. \r\n    5. \r\n*/\r\n\r\n/**\r\n * @title \r\n * @dev \r\n * @notice \r\n */\r\ncontract CenterControl is WhiteMange {\r\n    using SafeMath for uint256;\r\n    //Payment public pay_;\r\n\r\n    ResourceDB public resDb_;\r\n    OrderDB public orderDb_;\r\n    InfoDB public infoDb_;\r\n\r\n    /**\r\n     * @dev constructo\r\n     */\r\n    constructor() public {\r\n    //    owner = msg.sender;\r\n    //    admin = msg.sender;\r\n        emit  LogAddress(\"construcor\",admin, owner,msg.sender);\r\n    }\r\n\r\n    /**\r\n     * @dev Initialization function,related contract of the project\r\n     * @notice Can only be called once by the owner.\r\n     * @param _resource address : ClaimDB's contract address\r\n     * @param _order address : OrderDB's contract address\r\n     * @param _info  address : InfoDB's contract address\r\n     * @return       bool    : The successful call returns true.\r\n     */\r\n    function initialize(address _resource, address _order, address _info)\r\n        public\r\n        onlyAdmin\r\n        returns (bool)\r\n    {\r\n        require(address(resDb_) == address(0), \"You can only call it once\");\r\n        require(\r\n            _resource != address(0) &&\r\n                _order != address(0) &&\r\n                _info != address(0),\r\n            \"contract address cannot be 0.\"\r\n        );\r\n\r\n        resDb_ = ResourceDB(_resource);\r\n        orderDb_ = OrderDB(_order);\r\n        infoDb_ = InfoDB(_info);\r\n        owner = msg.sender;\r\n        whitelist_[msg.sender] = true;\r\n        emit  LogAddress(\"initialize\",admin, owner,msg.sender);\r\n        return true;\r\n    }\r\n\r\n    // TODO\r\n    // \r\n    //function  () public payable  {\r\n    // \r\n    //}\r\n\r\n    /**\r\n     * @dev  \r\n     * @param _ipfs    string  : IPFS Hash\r\n     * @param _author  address : \r\n     * @param _thubanail :\r\n     * @param _cover :\r\n     * @param _title :\r\n     * @return         bool    : true\r\n     */\r\n    function createResource(\r\n        string memory _ipfs,\r\n        address _author,\r\n        string[] memory _thubanail,\r\n        string memory _cover,\r\n        string memory _title\r\n    ) public returns (bytes16) {\r\n        if ( owner != _author && whitelist_[_author] != true) {\r\n            emit LogError(RScorr.Insufficient);\r\n            return 0;\r\n        }\r\n\r\n        bytes16 _resId = bytes16(keccak256(abi.encodePacked(_ipfs, _author)));\r\n        if (resDb_.isExist(_resId)) {\r\n            emit LogError(RScorr.ObjExist);\r\n            return 0;\r\n        } /* Check if the resource exists */\r\n\r\n        bool res = resDb_.insertResource(\r\n                _resId,\r\n                _ipfs,\r\n                _author,\r\n                _thubanail,\r\n                _cover,\r\n                _title\r\n        );\r\n        if (!res) {\r\n            emit info(\"resource create error\");\r\n            return 0;\r\n        }\r\n        res = infoDb_.insertResource(_resId, _author);\r\n        if (!res) {\r\n            emit info(\"infodb.insertResource error\");\r\n        }\r\n        return _resId;\r\n\r\n    }\r\n      \r\n    /**\r\n     * @dev  \r\n     * @param _author address : \r\n     * @param _resId  bytes16 : ID\r\n     * @param _value  uint256  : \r\n     * @param _payer  address : \r\n     */\r\n    function createOrder(\r\n        address _author,\r\n        bytes16 _resId,\r\n        uint256 _value,\r\n        address _payer\r\n    ) public returns (bool succ, string memory info,bytes32 orderID) {\r\n        if ( owner != _author && whitelist_[msg.sender] != true) {\r\n            emit LogError(RScorr.Insufficient);\r\n            return (false, \"not in whitelist\",0);\r\n        } // Check the caller's whitelist permission.\r\n\r\n        if (!resDb_.getResourceWaive(_resId)) {\r\n            emit LogError(RScorr.InvalidObj);\r\n            return (false, \"resource have  shelves\",0);\r\n        } //\r\n\r\n        // id\r\n        bytes32 _orderId = bytes32(keccak256(abi.encodePacked(_payer, _resId)));\r\n        resDb_.addResourceGratuityNum(_resId, _value);\r\n\r\n        // \r\n        if (orderDb_.insert(_orderId, _author, _resId, _payer, _value)) {\r\n            require(\r\n                infoDb_.insertOrder(_orderId, _resId, _payer),\r\n                \"order insert into info  error\"\r\n            );\r\n            return (true, \"\",_orderId);\r\n        } else {\r\n            return (false, \"FAILE\",0);\r\n        }\r\n    }\r\n\r\n    // /*\r\n    //  * @dev  \r\n    //  * @param _author address : \r\n    //  * @param _claimId  bytes16 : ID\r\n    //  * @param _payer    address : \r\n    //  * @return          bool    : true\r\n    // */\r\n    // function isPayed(address _author, bytes16 _resId, address _payer)\r\n    //     public\r\n    //     view\r\n    //     returns (bool)\r\n    // {\r\n    //     bytes32 _orderId = bytes32(keccak256(abi.encodePacked(_payer, _resId)));\r\n    //     return orderDb_.isExist(_orderId);\r\n    // }\r\n\r\n    ///@dev \r\n    function updateResource(\r\n        bytes16 _sid,\r\n        address _author,\r\n        string memory _newipfs,\r\n        string[] memory _thubanail,\r\n        string memory _cover,\r\n        string memory _title\r\n    ) public returns (bool) {\r\n        if ( owner != _author && whitelist_[_author] != true) {\r\n            emit LogError(RScorr.Insufficient);\r\n            return false;\r\n        } // \r\n\r\n        return\r\n            resDb_.updateResource(\r\n                _sid,\r\n                _newipfs,\r\n                _author,\r\n                _thubanail,\r\n                _cover,\r\n                _title\r\n            );\r\n    }\r\n\r\n    ///@dev \r\n    function updateResourceWaive(bytes16 _cid, address _author, bool _waive)\r\n        public\r\n        returns (bool)\r\n    {\r\n        if ( owner != _author && whitelist_[msg.sender] != true) {\r\n            emit LogError(RScorr.Insufficient);\r\n            return false;\r\n        } // \r\n\r\n        if (resDb_.updateResourceWaive(_cid, _author, _waive)) {\r\n            return true;\r\n        }\r\n        return false;\r\n    }\r\n\r\n    /////////////////////////\r\n    /// Internal\r\n    /////////////////////////\r\n\r\n    ///@dev ResId\r\n    function getResourceDetails(bytes16 _resid)\r\n        public\r\n        view\r\n        returns (ResourceDB.Resource memory)\r\n    // address author,\r\n    // string memory ipfs,\r\n    // uint256 initDate,\r\n    // bool waive,\r\n    // uint256 gratuityNum,\r\n    // string memory _cover,\r\n    // string memory _title,\r\n    // string[] memory _thubanail\r\n    {\r\n        return resDb_.getResourceInfoByID(_resid);\r\n    }\r\n\r\n    ///@dev OrderId\r\n    function getOrderDetails(bytes32 _oid)\r\n        public\r\n        view\r\n        returns (\r\n            uint256 time,\r\n            uint256 value,\r\n            address author,\r\n            address payer,\r\n            bytes16 resId\r\n        )\r\n    {\r\n        return orderDb_.getOrderInfoByID(_oid);\r\n    }\r\n\r\n    function getResourceAutherInfo(bytes16 _sid) public view returns (address) {\r\n        return resDb_.getAuthor(_sid);\r\n    }\r\n\r\n    bool private setOwner_ = false;\r\n    function setOwner(address admin_) public  {\r\n        require(!setOwner_,\" setOwner_: true\");\r\n        setOwner_ = true;\r\n        owner = msg.sender;\r\n        admin = admin_;\r\n        whitelist_[admin_] = true;\r\n        whitelist_[msg.sender] = true;\r\n        emit  LogAddress(\"CenterControlsetOwner\",admin, owner,msg.sender);\r\n    }\r\n\r\n    function addResourceGratuityNum(bytes16 _resId,uint value) public  {\r\n       resDb_.addResourceGratuityNum(_resId,value);\r\n    }\r\n\r\n}\r\n",
  "sourcePath": "E:\\contracts\\contracts\\CenterControl.sol",
  "compiler": {
    "name": "solc",
    "version": "0.6.3+commit.8dda9521.Emscripten.clang"
  },
  "schemaVersion": "3.0.23",
  "updatedAt": "2020-04-07T04:37:03.446Z",
  "networkType": "ethereum",
  "devdoc": {
    "details": "",
    "methods": {
      "acceptOwnership()": {
        "details": "Allows the newOwner address to finalize the transfer."
      },
      "constructor": {
        "details": "constructo"
      },
      "createOrder(address,bytes16,uint256,address)": {
        "details": "",
        "params": {
          "_author": "address : ",
          "_payer": "address : ",
          "_resId": "bytes16 : ID",
          "_value": "uint256  : "
        }
      },
      "createResource(string,address,string[],string,string)": {
        "details": "",
        "params": {
          "_author": "address : ",
          "_cover": ":",
          "_ipfs": "string  : IPFS Hash",
          "_thubanail": ":",
          "_title": ":"
        },
        "returns": {
          "_0": "bool    : true"
        }
      },
      "getOrderDetails(bytes32)": {
        "details": "OrderId"
      },
      "getResourceDetails(bytes16)": {
        "details": "ResId"
      },
      "initialize(address,address,address)": {
        "details": "Initialization function,related contract of the project",
        "params": {
          "_info": "address : InfoDB's contract address",
          "_order": "address : OrderDB's contract address",
          "_resource": "address : ClaimDB's contract address"
        },
        "returns": {
          "_0": "bool    : The successful call returns true."
        }
      },
      "mangeWhiteList(address,bool)": {
        "details": "",
        "params": {
          "_allow": "bool     : truefalse",
          "_target": "address  : "
        },
        "returns": {
          "_0": "bool     : true"
        }
      },
      "mulInsertWhite(address[])": {
        "details": "",
        "params": {
          "_addresses": "address[] : "
        },
        "returns": {
          "_0": "bool      : true"
        }
      },
      "renounceOwnership()": {
        "details": "Allows the current owner to relinquish control of the contract."
      },
      "transferAdminship(address)": {
        "details": "Allows the current admin to transfer control of the contract to a newadmin.",
        "params": {
          "_newAdmin": "address : new admin address"
        }
      },
      "transferOwnership(address)": {
        "details": "Allows the current owner to transfer control of the contract to a newOwner.",
        "params": {
          "_newOwner": "The address to transfer ownership to."
        }
      },
      "updateResource(bytes16,address,string,string[],string,string)": {
        "details": ""
      },
      "updateResourceWaive(bytes16,address,bool)": {
        "details": ""
      }
    },
    "title": ""
  },
  "userdoc": {
    "methods": {
      "getResourceDetails(bytes16)": {
        "notice": "////////////////////// Internal //////////////////////"
      },
      "initialize(address,address,address)": {
        "notice": "Can only be called once by the owner."
      },
      "mangeWhiteList(address,bool)": {
        "notice": ""
      },
      "mulInsertWhite(address[])": {
        "notice": ""
      },
      "renounceOwnership()": {
        "notice": "Renouncing to ownership will leave the contract without an owner. It will not be possible to call the functions with the `onlyOwner` modifier anymore."
      }
    },
    "notice": ""
  }
}