{
  "contractName": "CenterControl",
  "abi": [
    {
      "inputs": [],
      "stateMutability": "nonpayable",
      "type": "constructor"
    },
    {
      "anonymous": false,
      "inputs": [
        {
          "indexed": false,
          "internalType": "string",
          "name": "info",
          "type": "string"
        },
        {
          "indexed": false,
          "internalType": "address",
          "name": "_resId",
          "type": "address"
        },
        {
          "indexed": true,
          "internalType": "address",
          "name": "_author",
          "type": "address"
        },
        {
          "indexed": false,
          "internalType": "address",
          "name": "who",
          "type": "address"
        }
      ],
      "name": "LogAddress",
      "type": "event"
    },
    {
      "anonymous": false,
      "inputs": [
        {
          "indexed": false,
          "internalType": "string",
          "name": "",
          "type": "string"
        },
        {
          "indexed": false,
          "internalType": "address",
          "name": "",
          "type": "address"
        },
        {
          "indexed": false,
          "internalType": "address",
          "name": "",
          "type": "address"
        }
      ],
      "name": "LogAddress",
      "type": "event"
    },
    {
      "anonymous": false,
      "inputs": [
        {
          "indexed": true,
          "internalType": "address",
          "name": "_old",
          "type": "address"
        },
        {
          "indexed": true,
          "internalType": "address",
          "name": "_new",
          "type": "address"
        }
      ],
      "name": "LogAdminshipTransferred",
      "type": "event"
    },
    {
      "anonymous": false,
      "inputs": [
        {
          "indexed": false,
          "internalType": "enum ErrorModule.RScorr",
          "name": "_errorNumber",
          "type": "uint8"
        }
      ],
      "name": "LogError",
      "type": "event"
    },
    {
      "anonymous": false,
      "inputs": [
        {
          "indexed": true,
          "internalType": "address",
          "name": "previousOwner",
          "type": "address"
        }
      ],
      "name": "LogOwnershipRenounced",
      "type": "event"
    },
    {
      "anonymous": false,
      "inputs": [
        {
          "indexed": true,
          "internalType": "address",
          "name": "previousOwner",
          "type": "address"
        },
        {
          "indexed": true,
          "internalType": "address",
          "name": "newOwner",
          "type": "address"
        }
      ],
      "name": "LogOwnershipTransferred",
      "type": "event"
    },
    {
      "anonymous": false,
      "inputs": [
        {
          "indexed": true,
          "internalType": "address",
          "name": "_target",
          "type": "address"
        },
        {
          "indexed": false,
          "internalType": "bool",
          "name": "_allow",
          "type": "bool"
        }
      ],
      "name": "LogWhileChanged",
      "type": "event"
    },
    {
      "anonymous": false,
      "inputs": [
        {
          "indexed": false,
          "internalType": "string",
          "name": "info",
          "type": "string"
        }
      ],
      "name": "info",
      "type": "event"
    },
    {
      "inputs": [],
      "name": "acceptOwnership",
      "outputs": [],
      "stateMutability": "nonpayable",
      "type": "function"
    },
    {
      "inputs": [],
      "name": "admin",
      "outputs": [
        {
          "internalType": "address",
          "name": "",
          "type": "address"
        }
      ],
      "stateMutability": "view",
      "type": "function",
      "constant": true
    },
    {
      "inputs": [],
      "name": "infoDb_",
      "outputs": [
        {
          "internalType": "contract InfoDB",
          "name": "",
          "type": "address"
        }
      ],
      "stateMutability": "view",
      "type": "function",
      "constant": true
    },
    {
      "inputs": [
        {
          "internalType": "address",
          "name": "_target",
          "type": "address"
        },
        {
          "internalType": "bool",
          "name": "_allow",
          "type": "bool"
        }
      ],
      "name": "mangeWhiteList",
      "outputs": [
        {
          "internalType": "bool",
          "name": "",
          "type": "bool"
        }
      ],
      "stateMutability": "nonpayable",
      "type": "function"
    },
    {
      "inputs": [
        {
          "internalType": "address[]",
          "name": "_addresses",
          "type": "address[]"
        }
      ],
      "name": "mulInsertWhite",
      "outputs": [
        {
          "internalType": "bool",
          "name": "",
          "type": "bool"
        }
      ],
      "stateMutability": "nonpayable",
      "type": "function"
    },
    {
      "inputs": [],
      "name": "newOwner",
      "outputs": [
        {
          "internalType": "address",
          "name": "",
          "type": "address"
        }
      ],
      "stateMutability": "view",
      "type": "function",
      "constant": true
    },
    {
      "inputs": [],
      "name": "orderDb_",
      "outputs": [
        {
          "internalType": "contract OrderDB",
          "name": "",
          "type": "address"
        }
      ],
      "stateMutability": "view",
      "type": "function",
      "constant": true
    },
    {
      "inputs": [],
      "name": "owner",
      "outputs": [
        {
          "internalType": "address",
          "name": "",
          "type": "address"
        }
      ],
      "stateMutability": "view",
      "type": "function",
      "constant": true
    },
    {
      "inputs": [],
      "name": "renounceOwnership",
      "outputs": [],
      "stateMutability": "nonpayable",
      "type": "function"
    },
    {
      "inputs": [],
      "name": "resDb_",
      "outputs": [
        {
          "internalType": "contract ResourceDB",
          "name": "",
          "type": "address"
        }
      ],
      "stateMutability": "view",
      "type": "function",
      "constant": true
    },
    {
      "inputs": [
        {
          "internalType": "address",
          "name": "_newAdmin",
          "type": "address"
        }
      ],
      "name": "transferAdminship",
      "outputs": [],
      "stateMutability": "nonpayable",
      "type": "function"
    },
    {
      "inputs": [
        {
          "internalType": "address",
          "name": "_newOwner",
          "type": "address"
        }
      ],
      "name": "transferOwnership",
      "outputs": [],
      "stateMutability": "nonpayable",
      "type": "function"
    },
    {
      "inputs": [
        {
          "internalType": "address",
          "name": "",
          "type": "address"
        }
      ],
      "name": "whitelist_",
      "outputs": [
        {
          "internalType": "bool",
          "name": "",
          "type": "bool"
        }
      ],
      "stateMutability": "view",
      "type": "function",
      "constant": true
    },
    {
      "inputs": [
        {
          "internalType": "address",
          "name": "_resource",
          "type": "address"
        },
        {
          "internalType": "address",
          "name": "_order",
          "type": "address"
        },
        {
          "internalType": "address",
          "name": "_info",
          "type": "address"
        }
      ],
      "name": "initialize",
      "outputs": [
        {
          "internalType": "bool",
          "name": "",
          "type": "bool"
        }
      ],
      "stateMutability": "nonpayable",
      "type": "function"
    },
    {
      "inputs": [
        {
          "internalType": "string",
          "name": "_ipfs",
          "type": "string"
        },
        {
          "internalType": "address",
          "name": "_author",
          "type": "address"
        },
        {
          "internalType": "string[]",
          "name": "_thubanail",
          "type": "string[]"
        },
        {
          "internalType": "string",
          "name": "_cover",
          "type": "string"
        },
        {
          "internalType": "string",
          "name": "_title",
          "type": "string"
        }
      ],
      "name": "createResource",
      "outputs": [
        {
          "internalType": "bytes16",
          "name": "",
          "type": "bytes16"
        }
      ],
      "stateMutability": "nonpayable",
      "type": "function"
    },
    {
      "inputs": [
        {
          "internalType": "address",
          "name": "_author",
          "type": "address"
        },
        {
          "internalType": "bytes16",
          "name": "_resId",
          "type": "bytes16"
        },
        {
          "internalType": "uint256",
          "name": "_value",
          "type": "uint256"
        },
        {
          "internalType": "address",
          "name": "_payer",
          "type": "address"
        }
      ],
      "name": "createOrder",
      "outputs": [
        {
          "internalType": "bool",
          "name": "succ",
          "type": "bool"
        },
        {
          "internalType": "string",
          "name": "info",
          "type": "string"
        },
        {
          "internalType": "bytes32",
          "name": "orderID",
          "type": "bytes32"
        }
      ],
      "stateMutability": "nonpayable",
      "type": "function"
    },
    {
      "inputs": [
        {
          "internalType": "bytes16",
          "name": "_sid",
          "type": "bytes16"
        },
        {
          "internalType": "address",
          "name": "_author",
          "type": "address"
        },
        {
          "internalType": "string",
          "name": "_newipfs",
          "type": "string"
        },
        {
          "internalType": "string[]",
          "name": "_thubanail",
          "type": "string[]"
        },
        {
          "internalType": "string",
          "name": "_cover",
          "type": "string"
        },
        {
          "internalType": "string",
          "name": "_title",
          "type": "string"
        }
      ],
      "name": "updateResource",
      "outputs": [
        {
          "internalType": "bool",
          "name": "",
          "type": "bool"
        }
      ],
      "stateMutability": "nonpayable",
      "type": "function"
    },
    {
      "inputs": [
        {
          "internalType": "bytes16",
          "name": "_cid",
          "type": "bytes16"
        },
        {
          "internalType": "address",
          "name": "_author",
          "type": "address"
        },
        {
          "internalType": "bool",
          "name": "_waive",
          "type": "bool"
        }
      ],
      "name": "updateResourceWaive",
      "outputs": [
        {
          "internalType": "bool",
          "name": "",
          "type": "bool"
        }
      ],
      "stateMutability": "nonpayable",
      "type": "function"
    },
    {
      "inputs": [
        {
          "internalType": "bytes16",
          "name": "_resid",
          "type": "bytes16"
        }
      ],
      "name": "getResourceDetails",
      "outputs": [
        {
          "components": [
            {
              "internalType": "uint256",
              "name": "initDate",
              "type": "uint256"
            },
            {
              "internalType": "address",
              "name": "author",
              "type": "address"
            },
            {
              "internalType": "bool",
              "name": "waive",
              "type": "bool"
            },
            {
              "internalType": "string",
              "name": "ipfs",
              "type": "string"
            },
            {
              "internalType": "uint256",
              "name": "gratuityNum",
              "type": "uint256"
            },
            {
              "internalType": "string[]",
              "name": "thubanail",
              "type": "string[]"
            },
            {
              "internalType": "string",
              "name": "cover",
              "type": "string"
            },
            {
              "internalType": "string",
              "name": "title",
              "type": "string"
            }
          ],
          "internalType": "struct ResourceDB.Resource",
          "name": "",
          "type": "tuple"
        }
      ],
      "stateMutability": "view",
      "type": "function",
      "constant": true
    },
    {
      "inputs": [
        {
          "internalType": "bytes32",
          "name": "_oid",
          "type": "bytes32"
        }
      ],
      "name": "getOrderDetails",
      "outputs": [
        {
          "internalType": "uint256",
          "name": "time",
          "type": "uint256"
        },
        {
          "internalType": "uint256",
          "name": "value",
          "type": "uint256"
        },
        {
          "internalType": "address",
          "name": "author",
          "type": "address"
        },
        {
          "internalType": "address",
          "name": "payer",
          "type": "address"
        },
        {
          "internalType": "bytes16",
          "name": "resId",
          "type": "bytes16"
        }
      ],
      "stateMutability": "view",
      "type": "function",
      "constant": true
    },
    {
      "inputs": [
        {
          "internalType": "bytes16",
          "name": "_sid",
          "type": "bytes16"
        }
      ],
      "name": "getResourceAutherInfo",
      "outputs": [
        {
          "internalType": "address",
          "name": "",
          "type": "address"
        }
      ],
      "stateMutability": "view",
      "type": "function",
      "constant": true
    },
    {
      "inputs": [
        {
          "internalType": "address",
          "name": "admin_",
          "type": "address"
        }
      ],
      "name": "setOwner",
      "outputs": [],
      "stateMutability": "nonpayable",
      "type": "function"
    },
    {
      "inputs": [
        {
          "internalType": "bytes16",
          "name": "_resId",
          "type": "bytes16"
        },
        {
          "internalType": "uint256",
          "name": "value",
          "type": "uint256"
        }
      ],
      "name": "addResourceGratuityNum",
      "outputs": [],
      "stateMutability": "nonpayable",
      "type": "function"
    }
  ],
  "bytecode": "0x60806040526000600660146101000a81548160ff0219169083151502179055503480156200002c57600080fd5b50336000806101000a81548173ffffffffffffffffffffffffffffffffffffffff021916908373ffffffffffffffffffffffffffffffffffffffff16021790555033600260006101000a81548173ffffffffffffffffffffffffffffffffffffffff021916908373ffffffffffffffffffffffffffffffffffffffff1602179055506000809054906101000a900473ffffffffffffffffffffffffffffffffffffffff1673ffffffffffffffffffffffffffffffffffffffff167f9e6965ca244a67ad615b5114db3886405a40a12f1190493f8e9201020885af1d600260009054906101000a900473ffffffffffffffffffffffffffffffffffffffff16336040516200013b92919062000242565b60405180910390a26000809054906101000a900473ffffffffffffffffffffffffffffffffffffffff1673ffffffffffffffffffffffffffffffffffffffff167f9e6965ca244a67ad615b5114db3886405a40a12f1190493f8e9201020885af1d600260009054906101000a900473ffffffffffffffffffffffffffffffffffffffff1633604051620001d092919062000242565b60405180910390a262000305565b620001e981620002c9565b82525050565b620001fa8162000295565b82525050565b60006200020f600a8362000284565b91507f636f6e73747275636f72000000000000000000000000000000000000000000006000830152602082019050919050565b600060608201905081810360008301526200025d8162000200565b90506200026e6020830185620001ef565b6200027d6040830184620001de565b9392505050565b600082825260208201905092915050565b6000620002a282620002a9565b9050919050565b600073ffffffffffffffffffffffffffffffffffffffff82169050919050565b6000620002d682620002dd565b9050919050565b6000620002ea82620002f1565b9050919050565b6000620002fe82620002a9565b9050919050565b61416580620003156000396000f3fe608060405234801561001057600080fd5b506004361061014d5760003560e01c806379ba5097116100c3578063d035360b1161007c578063d035360b146103ca578063d4ee1d90146103fa578063ddbf54d514610418578063e56a7c5d14610436578063f2fde38b14610466578063f851a440146104825761014d565b806379ba5097146102e25780638da5cb5b146102ec5780639af2a7a61461030a578063a8e1fba31461033a578063aa492ec21461036a578063c0c53b8b1461039a5761014d565b806335e60e891161011557806335e60e891461020e5780635be7cc161461023e5780636df566081461025a578063703ddbca1461027857806370ce4e08146102a8578063715018a6146102d85761014d565b8063024663f71461015257806305cc9a611461018657806313af4035146101b8578063157ffbe9146101d457806316be9cfe146101f0575b600080fd5b61016c60048036036101679190810190612fbc565b6104a0565b60405161017d959493929190613cd7565b60405180910390f35b6101a0600480360361019b9190810190612d52565b610566565b6040516101af93929190613855565b60405180910390f35b6101d260048036036101cd9190810190612c75565b610aac565b005b6101ee60048036036101e99190810190612f80565b610cde565b005b6101f8610d71565b6040516102059190613a59565b60405180910390f35b61022860048036036102239190810190612db5565b610d97565b604051610235919061383a565b60405180910390f35b61025860048036036102539190810190612c75565b611001565b005b610262611207565b60405161026f9190613a74565b60405180910390f35b610292600480360361028d9190810190612fe5565b61122d565b60405161029f9190613893565b60405180910390f35b6102c260048036036102bd9190810190612e1f565b611646565b6040516102cf9190613cb5565b60405180910390f35b6102e0611705565b005b6102ea611861565b005b6102f4611a5a565b604051610301919061381f565b60405180910390f35b610324600480360361031f9190810190612e97565b611a7f565b604051610331919061383a565b60405180910390f35b610354600480360361034f9190810190612d16565b611c39565b604051610361919061383a565b60405180910390f35b610384600480360361037f9190810190612e48565b611eaa565b604051610391919061383a565b60405180910390f35b6103b460048036036103af9190810190612cc7565b61206b565b6040516103c1919061383a565b60405180910390f35b6103e460048036036103df9190810190612e1f565b61251f565b6040516103f1919061381f565b60405180910390f35b6104026125d3565b60405161040f919061381f565b60405180910390f35b6104206125f9565b60405161042d9190613a8f565b60405180910390f35b610450600480360361044b9190810190612c75565b61261f565b60405161045d919061383a565b60405180910390f35b610480600480360361047b9190810190612c75565b61263f565b005b61048a6127a8565b604051610497919061381f565b60405180910390f35b6000806000806000600560009054906101000a900473ffffffffffffffffffffffffffffffffffffffff1673ffffffffffffffffffffffffffffffffffffffff16635d1d1e67876040518263ffffffff1660e01b815260040161050391906139b4565b60a06040518083038186803b15801561051b57600080fd5b505afa15801561052f573d6000803e3d6000fd5b505050506040513d601f19601f8201168201806040525061055391908101906130fd565b9450945094509450945091939590929450565b6000606060008673ffffffffffffffffffffffffffffffffffffffff166000809054906101000a900473ffffffffffffffffffffffffffffffffffffffff1673ffffffffffffffffffffffffffffffffffffffff161415801561061a575060011515600360008673ffffffffffffffffffffffffffffffffffffffff1673ffffffffffffffffffffffffffffffffffffffff16815260200190815260200160002060009054906101000a900460ff16151514155b156106a2577f0489f2369368f4688acd012107ac5a7d98ca739b913449d852f35d871e433cc3600e60405161064f9190613aaa565b60405180910390a16000806040518060400160405280601081526020017f6e6f7420696e2077686974656c69737400000000000000000000000000000000815250908060001b9050925092509250610aa2565b600460009054906101000a900473ffffffffffffffffffffffffffffffffffffffff1673ffffffffffffffffffffffffffffffffffffffff1663f207a088876040518263ffffffff1660e01b81526004016106fd9190613893565b60206040518083038186803b15801561071557600080fd5b505afa158015610729573d6000803e3d6000fd5b505050506040513d601f19601f8201168201806040525061074d9190810190612df6565b6107d4577f0489f2369368f4688acd012107ac5a7d98ca739b913449d852f35d871e433cc360066040516107819190613aaa565b60405180910390a16000806040518060400160405280601681526020017f7265736f75726365206861766520207368656c76657300000000000000000000815250908060001b9050925092509250610aa2565b600084876040516020016107e99291906137cb565b604051602081830303815290604052805190602001209050600460009054906101000a900473ffffffffffffffffffffffffffffffffffffffff1673ffffffffffffffffffffffffffffffffffffffff1663157ffbe988886040518363ffffffff1660e01b815260040161085e92919061398b565b600060405180830381600087803b15801561087857600080fd5b505af115801561088c573d6000803e3d6000fd5b50505050600560009054906101000a900473ffffffffffffffffffffffffffffffffffffffff1673ffffffffffffffffffffffffffffffffffffffff166363e319f4828a8a898b6040518663ffffffff1660e01b81526004016108f39594939291906139cf565b602060405180830381600087803b15801561090d57600080fd5b505af1158015610921573d6000803e3d6000fd5b505050506040513d601f19601f820116820180604052506109459190810190612df6565b15610a5a57600660009054906101000a900473ffffffffffffffffffffffffffffffffffffffff1673ffffffffffffffffffffffffffffffffffffffff1663ee9a45508289886040518463ffffffff1660e01b81526004016109a993929190613a22565b602060405180830381600087803b1580156109c357600080fd5b505af11580156109d7573d6000803e3d6000fd5b505050506040513d601f19601f820116820180604052506109fb9190810190612df6565b610a3a576040517f08c379a0000000000000000000000000000000000000000000000000000000008152600401610a3190613bf9565b60405180910390fd5b600181604051806020016040528060008152509093509350935050610aa2565b6000806040518060400160405280600581526020017f4641494c45000000000000000000000000000000000000000000000000000000815250908060001b9050935093509350505b9450945094915050565b600660149054906101000a900460ff1615610afc576040517f08c379a0000000000000000000000000000000000000000000000000000000008152600401610af390613b9d565b60405180910390fd5b6001600660146101000a81548160ff021916908315150217905550336000806101000a81548173ffffffffffffffffffffffffffffffffffffffff021916908373ffffffffffffffffffffffffffffffffffffffff16021790555080600260006101000a81548173ffffffffffffffffffffffffffffffffffffffff021916908373ffffffffffffffffffffffffffffffffffffffff1602179055506001600360008373ffffffffffffffffffffffffffffffffffffffff1673ffffffffffffffffffffffffffffffffffffffff16815260200190815260200160002060006101000a81548160ff0219169083151502179055506001600360003373ffffffffffffffffffffffffffffffffffffffff1673ffffffffffffffffffffffffffffffffffffffff16815260200190815260200160002060006101000a81548160ff0219169083151502179055506000809054906101000a900473ffffffffffffffffffffffffffffffffffffffff1673ffffffffffffffffffffffffffffffffffffffff167f9e6965ca244a67ad615b5114db3886405a40a12f1190493f8e9201020885af1d600260009054906101000a900473ffffffffffffffffffffffffffffffffffffffff1633604051610cd3929190613b61565b60405180910390a250565b600460009054906101000a900473ffffffffffffffffffffffffffffffffffffffff1673ffffffffffffffffffffffffffffffffffffffff1663157ffbe983836040518363ffffffff1660e01b8152600401610d3b92919061398b565b600060405180830381600087803b158015610d5557600080fd5b505af1158015610d69573d6000803e3d6000fd5b505050505050565b600660009054906101000a900473ffffffffffffffffffffffffffffffffffffffff1681565b60008060009054906101000a900473ffffffffffffffffffffffffffffffffffffffff1673ffffffffffffffffffffffffffffffffffffffff163373ffffffffffffffffffffffffffffffffffffffff1614158015610e445750600260009054906101000a900473ffffffffffffffffffffffffffffffffffffffff1673ffffffffffffffffffffffffffffffffffffffff163373ffffffffffffffffffffffffffffffffffffffff1614155b15610e8a577f0489f2369368f4688acd012107ac5a7d98ca739b913449d852f35d871e433cc3600f604051610e799190613aaa565b60405180910390a160009050610ffc565b60008090505b8251811015610ff657600073ffffffffffffffffffffffffffffffffffffffff16838281518110610ebd57fe5b602002602001015173ffffffffffffffffffffffffffffffffffffffff161415610f1c576040517f08c379a0000000000000000000000000000000000000000000000000000000008152600401610f1390613c39565b60405180910390fd5b600160036000858481518110610f2e57fe5b602002602001015173ffffffffffffffffffffffffffffffffffffffff1673ffffffffffffffffffffffffffffffffffffffff16815260200190815260200160002060006101000a81548160ff021916908315150217905550828181518110610f9357fe5b602002602001015173ffffffffffffffffffffffffffffffffffffffff167f9b3b880c67f4fab4215412179771cffd326a045e6016a7e363eb38460f7e91766001604051610fe1919061383a565b60405180910390a28080600101915050610e90565b50600190505b919050565b6000809054906101000a900473ffffffffffffffffffffffffffffffffffffffff1673ffffffffffffffffffffffffffffffffffffffff163373ffffffffffffffffffffffffffffffffffffffff1614806110a95750600260009054906101000a900473ffffffffffffffffffffffffffffffffffffffff1673ffffffffffffffffffffffffffffffffffffffff163373ffffffffffffffffffffffffffffffffffffffff16145b15611170578073ffffffffffffffffffffffffffffffffffffffff16600260009054906101000a900473ffffffffffffffffffffffffffffffffffffffff1673ffffffffffffffffffffffffffffffffffffffff167ff73aa4459d935dbacd9313fffe485016147551d99ef401461704cd39e6e9028760405160405180910390a380600260006101000a81548173ffffffffffffffffffffffffffffffffffffffff021916908373ffffffffffffffffffffffffffffffffffffffff160217905550611204565b6000809054906101000a900473ffffffffffffffffffffffffffffffffffffffff1673ffffffffffffffffffffffffffffffffffffffff167f9e6965ca244a67ad615b5114db3886405a40a12f1190493f8e9201020885af1d600260009054906101000a900473ffffffffffffffffffffffffffffffffffffffff16336040516111fb929190613ac5565b60405180910390a25b50565b600560009054906101000a900473ffffffffffffffffffffffffffffffffffffffff1681565b60008473ffffffffffffffffffffffffffffffffffffffff166000809054906101000a900473ffffffffffffffffffffffffffffffffffffffff1673ffffffffffffffffffffffffffffffffffffffff16141580156112dd575060011515600360008773ffffffffffffffffffffffffffffffffffffffff1673ffffffffffffffffffffffffffffffffffffffff16815260200190815260200160002060009054906101000a900460ff16151514155b15611326577f0489f2369368f4688acd012107ac5a7d98ca739b913449d852f35d871e433cc3600e6040516113129190613aaa565b60405180910390a1600060801b905061163d565b6000868660405160200161133b9291906137f7565b604051602081830303815290604052805190602001209050600460009054906101000a900473ffffffffffffffffffffffffffffffffffffffff1673ffffffffffffffffffffffffffffffffffffffff16639b03ced2826040518263ffffffff1660e01b81526004016113ae9190613893565b60206040518083038186803b1580156113c657600080fd5b505afa1580156113da573d6000803e3d6000fd5b505050506040513d601f19601f820116820180604052506113fe9190810190612df6565b15611448577f0489f2369368f4688acd012107ac5a7d98ca739b913449d852f35d871e433cc3600a6040516114339190613aaa565b60405180910390a1600060801b91505061163d565b6000600460009054906101000a900473ffffffffffffffffffffffffffffffffffffffff1673ffffffffffffffffffffffffffffffffffffffff1663b3f95657838a8a8a8a8a6040518763ffffffff1660e01b81526004016114af9695949392919061390e565b602060405180830381600087803b1580156114c957600080fd5b505af11580156114dd573d6000803e3d6000fd5b505050506040513d601f19601f820116820180604052506115019190810190612df6565b90508061154b577f17fab0a06d8bb899e6cdc2d061dedb2e45be1b2a39a1e3ff50f9c96a0162cceb60405161153590613c19565b60405180910390a1600060801b9250505061163d565b600660009054906101000a900473ffffffffffffffffffffffffffffffffffffffff1673ffffffffffffffffffffffffffffffffffffffff1663fd4dd1fe83896040518363ffffffff1660e01b81526004016115a89291906138ae565b602060405180830381600087803b1580156115c257600080fd5b505af11580156115d6573d6000803e3d6000fd5b505050506040513d601f19601f820116820180604052506115fa9190810190612df6565b905080611637577f17fab0a06d8bb899e6cdc2d061dedb2e45be1b2a39a1e3ff50f9c96a0162cceb60405161162e90613b01565b60405180910390a15b81925050505b95945050505050565b61164e6127ce565b600460009054906101000a900473ffffffffffffffffffffffffffffffffffffffff1673ffffffffffffffffffffffffffffffffffffffff16638d4a3974836040518263ffffffff1660e01b81526004016116a99190613893565b60006040518083038186803b1580156116c157600080fd5b505afa1580156116d5573d6000803e3d6000fd5b505050506040513d6000823e3d601f19601f820116820180604052506116fe91908101906130bc565b9050919050565b6000809054906101000a900473ffffffffffffffffffffffffffffffffffffffff1673ffffffffffffffffffffffffffffffffffffffff163373ffffffffffffffffffffffffffffffffffffffff161415611804576000809054906101000a900473ffffffffffffffffffffffffffffffffffffffff1673ffffffffffffffffffffffffffffffffffffffff167f2dde1bc8b58ef192e7df3e7a354521d958331021e450d544346b936936916ef460405160405180910390a260008060006101000a81548173ffffffffffffffffffffffffffffffffffffffff021916908373ffffffffffffffffffffffffffffffffffffffff16021790555061185f565b7f6b26c3fc447c71078386bc5ad946c760ce605d2bc61b762901400eb9ac003a9a6000809054906101000a900473ffffffffffffffffffffffffffffffffffffffff1633604051611856929190613c59565b60405180910390a15b565b600160009054906101000a900473ffffffffffffffffffffffffffffffffffffffff1673ffffffffffffffffffffffffffffffffffffffff163373ffffffffffffffffffffffffffffffffffffffff1614156119fd57600160009054906101000a900473ffffffffffffffffffffffffffffffffffffffff1673ffffffffffffffffffffffffffffffffffffffff166000809054906101000a900473ffffffffffffffffffffffffffffffffffffffff1673ffffffffffffffffffffffffffffffffffffffff167fdb6d05f3295cede580affa301a1eb5297528f3b3f6a56b075887ce6f61c45f2160405160405180910390a3600160009054906101000a900473ffffffffffffffffffffffffffffffffffffffff166000806101000a81548173ffffffffffffffffffffffffffffffffffffffff021916908373ffffffffffffffffffffffffffffffffffffffff1602179055506000600160006101000a81548173ffffffffffffffffffffffffffffffffffffffff021916908373ffffffffffffffffffffffffffffffffffffffff160217905550611a58565b7f6b26c3fc447c71078386bc5ad946c760ce605d2bc61b762901400eb9ac003a9a6000809054906101000a900473ffffffffffffffffffffffffffffffffffffffff1633604051611a4f929190613c59565b60405180910390a15b565b6000809054906101000a900473ffffffffffffffffffffffffffffffffffffffff1681565b60008573ffffffffffffffffffffffffffffffffffffffff166000809054906101000a900473ffffffffffffffffffffffffffffffffffffffff1673ffffffffffffffffffffffffffffffffffffffff1614158015611b2f575060011515600360008873ffffffffffffffffffffffffffffffffffffffff1673ffffffffffffffffffffffffffffffffffffffff16815260200190815260200160002060009054906101000a900460ff16151514155b15611b75577f0489f2369368f4688acd012107ac5a7d98ca739b913449d852f35d871e433cc3600e604051611b649190613aaa565b60405180910390a160009050611c2f565b600460009054906101000a900473ffffffffffffffffffffffffffffffffffffffff1673ffffffffffffffffffffffffffffffffffffffff1663a864022d8887898888886040518763ffffffff1660e01b8152600401611bda9695949392919061390e565b602060405180830381600087803b158015611bf457600080fd5b505af1158015611c08573d6000803e3d6000fd5b505050506040513d601f19601f82011682018060405250611c2c9190810190612df6565b90505b9695505050505050565b60008060009054906101000a900473ffffffffffffffffffffffffffffffffffffffff1673ffffffffffffffffffffffffffffffffffffffff163373ffffffffffffffffffffffffffffffffffffffff1614158015611ce65750600260009054906101000a900473ffffffffffffffffffffffffffffffffffffffff1673ffffffffffffffffffffffffffffffffffffffff163373ffffffffffffffffffffffffffffffffffffffff1614155b15611d2c577f0489f2369368f4688acd012107ac5a7d98ca739b913449d852f35d871e433cc3600f604051611d1b9190613aaa565b60405180910390a160009050611ea4565b600073ffffffffffffffffffffffffffffffffffffffff168373ffffffffffffffffffffffffffffffffffffffff161415611da2577f0489f2369368f4688acd012107ac5a7d98ca739b913449d852f35d871e433cc36002604051611d919190613aaa565b60405180910390a160009050611ea4565b811515600360008573ffffffffffffffffffffffffffffffffffffffff1673ffffffffffffffffffffffffffffffffffffffff16815260200190815260200160002060009054906101000a900460ff16151514611e515781600360008573ffffffffffffffffffffffffffffffffffffffff1673ffffffffffffffffffffffffffffffffffffffff16815260200190815260200160002060006101000a81548160ff0219169083151502179055505b8273ffffffffffffffffffffffffffffffffffffffff167f9b3b880c67f4fab4215412179771cffd326a045e6016a7e363eb38460f7e917683604051611e97919061383a565b60405180910390a2600190505b92915050565b60008273ffffffffffffffffffffffffffffffffffffffff166000809054906101000a900473ffffffffffffffffffffffffffffffffffffffff1673ffffffffffffffffffffffffffffffffffffffff1614158015611f5a575060011515600360003373ffffffffffffffffffffffffffffffffffffffff1673ffffffffffffffffffffffffffffffffffffffff16815260200190815260200160002060009054906101000a900460ff16151514155b15611fa0577f0489f2369368f4688acd012107ac5a7d98ca739b913449d852f35d871e433cc3600e604051611f8f9190613aaa565b60405180910390a160009050612064565b600460009054906101000a900473ffffffffffffffffffffffffffffffffffffffff1673ffffffffffffffffffffffffffffffffffffffff1663aa492ec28585856040518463ffffffff1660e01b8152600401611fff939291906138d7565b602060405180830381600087803b15801561201957600080fd5b505af115801561202d573d6000803e3d6000fd5b505050506040513d601f19601f820116820180604052506120519190810190612df6565b1561205f5760019050612064565b600090505b9392505050565b60008060009054906101000a900473ffffffffffffffffffffffffffffffffffffffff1673ffffffffffffffffffffffffffffffffffffffff163373ffffffffffffffffffffffffffffffffffffffff1614806121155750600260009054906101000a900473ffffffffffffffffffffffffffffffffffffffff1673ffffffffffffffffffffffffffffffffffffffff163373ffffffffffffffffffffffffffffffffffffffff16145b1561248457600073ffffffffffffffffffffffffffffffffffffffff16600460009054906101000a900473ffffffffffffffffffffffffffffffffffffffff1673ffffffffffffffffffffffffffffffffffffffff16146121ab576040517f08c379a00000000000000000000000000000000000000000000000000000000081526004016121a290613b41565b60405180910390fd5b600073ffffffffffffffffffffffffffffffffffffffff168473ffffffffffffffffffffffffffffffffffffffff16141580156122155750600073ffffffffffffffffffffffffffffffffffffffff168373ffffffffffffffffffffffffffffffffffffffff1614155b801561224e5750600073ffffffffffffffffffffffffffffffffffffffff168273ffffffffffffffffffffffffffffffffffffffff1614155b61228d576040517f08c379a000000000000000000000000000000000000000000000000000000000815260040161228490613b21565b60405180910390fd5b83600460006101000a81548173ffffffffffffffffffffffffffffffffffffffff021916908373ffffffffffffffffffffffffffffffffffffffff16021790555082600560006101000a81548173ffffffffffffffffffffffffffffffffffffffff021916908373ffffffffffffffffffffffffffffffffffffffff16021790555081600660006101000a81548173ffffffffffffffffffffffffffffffffffffffff021916908373ffffffffffffffffffffffffffffffffffffffff160217905550336000806101000a81548173ffffffffffffffffffffffffffffffffffffffff021916908373ffffffffffffffffffffffffffffffffffffffff1602179055506001600360003373ffffffffffffffffffffffffffffffffffffffff1673ffffffffffffffffffffffffffffffffffffffff16815260200190815260200160002060006101000a81548160ff0219169083151502179055506000809054906101000a900473ffffffffffffffffffffffffffffffffffffffff1673ffffffffffffffffffffffffffffffffffffffff167f9e6965ca244a67ad615b5114db3886405a40a12f1190493f8e9201020885af1d600260009054906101000a900473ffffffffffffffffffffffffffffffffffffffff1633604051612473929190613bbd565b60405180910390a260019050612518565b6000809054906101000a900473ffffffffffffffffffffffffffffffffffffffff1673ffffffffffffffffffffffffffffffffffffffff167f9e6965ca244a67ad615b5114db3886405a40a12f1190493f8e9201020885af1d600260009054906101000a900473ffffffffffffffffffffffffffffffffffffffff163360405161250f929190613ac5565b60405180910390a25b9392505050565b6000600460009054906101000a900473ffffffffffffffffffffffffffffffffffffffff1673ffffffffffffffffffffffffffffffffffffffff1663ba33cb58836040518263ffffffff1660e01b815260040161257c9190613893565b60206040518083038186803b15801561259457600080fd5b505afa1580156125a8573d6000803e3d6000fd5b505050506040513d601f19601f820116820180604052506125cc9190810190612c9e565b9050919050565b600160009054906101000a900473ffffffffffffffffffffffffffffffffffffffff1681565b600460009054906101000a900473ffffffffffffffffffffffffffffffffffffffff1681565b60036020528060005260406000206000915054906101000a900460ff1681565b6000809054906101000a900473ffffffffffffffffffffffffffffffffffffffff1673ffffffffffffffffffffffffffffffffffffffff163373ffffffffffffffffffffffffffffffffffffffff16141561274a57600073ffffffffffffffffffffffffffffffffffffffff168173ffffffffffffffffffffffffffffffffffffffff161415612704576040517f08c379a00000000000000000000000000000000000000000000000000000000081526004016126fb90613c95565b60405180910390fd5b80600160006101000a81548173ffffffffffffffffffffffffffffffffffffffff021916908373ffffffffffffffffffffffffffffffffffffffff1602179055506127a5565b7f6b26c3fc447c71078386bc5ad946c760ce605d2bc61b762901400eb9ac003a9a6000809054906101000a900473ffffffffffffffffffffffffffffffffffffffff163360405161279c929190613c59565b60405180910390a15b50565b600260009054906101000a900473ffffffffffffffffffffffffffffffffffffffff1681565b60405180610100016040528060008152602001600073ffffffffffffffffffffffffffffffffffffffff16815260200160001515815260200160608152602001600081526020016060815260200160608152602001606081525090565b60008135905061283a816140bc565b92915050565b60008151905061284f816140bc565b92915050565b600082601f83011261286657600080fd5b813561287961287482613d57565b613d2a565b9150818183526020840193506020810190508385602084028201111561289e57600080fd5b60005b838110156128ce57816128b4888261282b565b8452602084019350602083019250506001810190506128a1565b5050505092915050565b600082601f8301126128e957600080fd5b81516128fc6128f782613d7f565b613d2a565b9150818183526020840193506020810190508360005b8381101561294257815186016129288882612a7d565b845260208401935060208301925050600181019050612912565b5050505092915050565b600082601f83011261295d57600080fd5b813561297061296b82613da7565b613d2a565b9150818183526020840193506020810190508360005b838110156129b6578135860161299c8882612a29565b845260208401935060208301925050600181019050612986565b5050505092915050565b6000813590506129cf816140d3565b92915050565b6000815190506129e4816140d3565b92915050565b6000813590506129f9816140ea565b92915050565b600081519050612a0e816140ea565b92915050565b600081359050612a2381614101565b92915050565b600082601f830112612a3a57600080fd5b8135612a4d612a4882613dcf565b613d2a565b91508082526020830160208301858383011115612a6957600080fd5b612a74838284614021565b50505092915050565b600082601f830112612a8e57600080fd5b8151612aa1612a9c82613dcf565b613d2a565b91508082526020830160208301858383011115612abd57600080fd5b612ac8838284614030565b50505092915050565b600082601f830112612ae257600080fd5b8135612af5612af082613dfb565b613d2a565b91508082526020830160208301858383011115612b1157600080fd5b612b1c838284614021565b50505092915050565b60006101008284031215612b3857600080fd5b612b43610100613d2a565b90506000612b5384828501612c60565b6000830152506020612b6784828501612840565b6020830152506040612b7b848285016129d5565b604083015250606082015167ffffffffffffffff811115612b9b57600080fd5b612ba784828501612a7d565b6060830152506080612bbb84828501612c60565b60808301525060a082015167ffffffffffffffff811115612bdb57600080fd5b612be7848285016128d8565b60a08301525060c082015167ffffffffffffffff811115612c0757600080fd5b612c1384828501612a7d565b60c08301525060e082015167ffffffffffffffff811115612c3357600080fd5b612c3f84828501612a7d565b60e08301525092915050565b600081359050612c5a81614118565b92915050565b600081519050612c6f81614118565b92915050565b600060208284031215612c8757600080fd5b6000612c958482850161282b565b91505092915050565b600060208284031215612cb057600080fd5b6000612cbe84828501612840565b91505092915050565b600080600060608486031215612cdc57600080fd5b6000612cea8682870161282b565b9350506020612cfb8682870161282b565b9250506040612d0c8682870161282b565b9150509250925092565b60008060408385031215612d2957600080fd5b6000612d378582860161282b565b9250506020612d48858286016129c0565b9150509250929050565b60008060008060808587031215612d6857600080fd5b6000612d768782880161282b565b9450506020612d87878288016129ea565b9350506040612d9887828801612c4b565b9250506060612da98782880161282b565b91505092959194509250565b600060208284031215612dc757600080fd5b600082013567ffffffffffffffff811115612de157600080fd5b612ded84828501612855565b91505092915050565b600060208284031215612e0857600080fd5b6000612e16848285016129d5565b91505092915050565b600060208284031215612e3157600080fd5b6000612e3f848285016129ea565b91505092915050565b600080600060608486031215612e5d57600080fd5b6000612e6b868287016129ea565b9350506020612e7c8682870161282b565b9250506040612e8d868287016129c0565b9150509250925092565b60008060008060008060c08789031215612eb057600080fd5b6000612ebe89828a016129ea565b9650506020612ecf89828a0161282b565b955050604087013567ffffffffffffffff811115612eec57600080fd5b612ef889828a01612ad1565b945050606087013567ffffffffffffffff811115612f1557600080fd5b612f2189828a0161294c565b935050608087013567ffffffffffffffff811115612f3e57600080fd5b612f4a89828a01612ad1565b92505060a087013567ffffffffffffffff811115612f6757600080fd5b612f7389828a01612ad1565b9150509295509295509295565b60008060408385031215612f9357600080fd5b6000612fa1858286016129ea565b9250506020612fb285828601612c4b565b9150509250929050565b600060208284031215612fce57600080fd5b6000612fdc84828501612a14565b91505092915050565b600080600080600060a08688031215612ffd57600080fd5b600086013567ffffffffffffffff81111561301757600080fd5b61302388828901612ad1565b95505060206130348882890161282b565b945050604086013567ffffffffffffffff81111561305157600080fd5b61305d8882890161294c565b935050606086013567ffffffffffffffff81111561307a57600080fd5b61308688828901612ad1565b925050608086013567ffffffffffffffff8111156130a357600080fd5b6130af88828901612ad1565b9150509295509295909350565b6000602082840312156130ce57600080fd5b600082015167ffffffffffffffff8111156130e857600080fd5b6130f484828501612b25565b91505092915050565b600080600080600060a0868803121561311557600080fd5b600061312388828901612c60565b955050602061313488828901612c60565b945050604061314588828901612840565b935050606061315688828901612840565b9250506080613167888289016129ff565b9150509295509295909350565b600061318083836133af565b905092915050565b61319181613f6d565b82525050565b6131a081613edc565b82525050565b6131af81613edc565b82525050565b6131c66131c182613edc565b614063565b82525050565b60006131d782613e52565b6131e18185613e9e565b9350836020820285016131f385613e37565b8060005b8581101561322f57848403895281516132108582613174565b945061321b83613e80565b925060208a019950506001810190506131f7565b50829750879550505050505092915050565b600061324c82613e47565b6132568185613e8d565b93508360208202850161326885613e27565b8060005b858110156132a457848403895281516132858582613174565b945061329083613e73565b925060208a0199505060018101905061326c565b50829750879550505050505092915050565b6132bf81613eee565b82525050565b6132ce81613eee565b82525050565b6132dd81613efa565b82525050565b6132f46132ef82613efa565b614075565b82525050565b61330381613f26565b82525050565b61331281613f7f565b82525050565b61332181613fa3565b82525050565b61333081613fc7565b82525050565b61333f81613feb565b82525050565b600061335082613e68565b61335a8185613ec0565b935061336a818560208601614030565b61337381614091565b840191505092915050565b600061338982613e68565b6133938185613ed1565b93506133a3818560208601614030565b80840191505092915050565b60006133ba82613e5d565b6133c48185613eaf565b93506133d4818560208601614030565b6133dd81614091565b840191505092915050565b60006133f5600983613ec0565b91507f6f6e6c7941646d696e00000000000000000000000000000000000000000000006000830152602082019050919050565b6000613435601b83613ec0565b91507f696e666f64622e696e736572745265736f75726365206572726f7200000000006000830152602082019050919050565b6000613475601d83613ec0565b91507f636f6e747261637420616464726573732063616e6e6f7420626520302e0000006000830152602082019050919050565b60006134b5601983613ec0565b91507f596f752063616e206f6e6c792063616c6c206974206f6e6365000000000000006000830152602082019050919050565b60006134f5601583613ec0565b91507f43656e746572436f6e74726f6c7365744f776e657200000000000000000000006000830152602082019050919050565b6000613535601083613ec0565b91507f207365744f776e65725f3a2074727565000000000000000000000000000000006000830152602082019050919050565b6000613575600a83613ec0565b91507f696e697469616c697a65000000000000000000000000000000000000000000006000830152602082019050919050565b60006135b5601d83613ec0565b91507f6f7264657220696e7365727420696e746f20696e666f20206572726f720000006000830152602082019050919050565b60006135f5601583613ec0565b91507f7265736f7572636520637265617465206572726f7200000000000000000000006000830152602082019050919050565b6000613635600f83613ec0565b91507f61646472657373206973206e756c6c00000000000000000000000000000000006000830152602082019050919050565b6000613675600a83613ec0565b91507f6f6e6c79206f776e6572000000000000000000000000000000000000000000006000830152602082019050919050565b60006136b5601083613ec0565b91507f6e65774f776e6572206973206e756c6c000000000000000000000000000000006000830152602082019050919050565b60006101008301600083015161370160008601826137ad565b5060208301516137146020860182613197565b50604083015161372760408601826132b6565b506060830151848203606086015261373f82826133af565b915050608083015161375460808601826137ad565b5060a083015184820360a086015261376c8282613241565b91505060c083015184820360c086015261378682826133af565b91505060e083015184820360e08601526137a082826133af565b9150508091505092915050565b6137b681613f63565b82525050565b6137c581613f63565b82525050565b60006137d782856131b5565b6014820191506137e782846132e3565b6010820191508190509392505050565b6000613803828561337e565b915061380f82846131b5565b6014820191508190509392505050565b600060208201905061383460008301846131a6565b92915050565b600060208201905061384f60008301846132c5565b92915050565b600060608201905061386a60008301866132c5565b818103602083015261387c8185613345565b905061388b60408301846132fa565b949350505050565b60006020820190506138a860008301846132d4565b92915050565b60006040820190506138c360008301856132d4565b6138d060208301846131a6565b9392505050565b60006060820190506138ec60008301866132d4565b6138f960208301856131a6565b61390660408301846132c5565b949350505050565b600060c08201905061392360008301896132d4565b81810360208301526139358188613345565b905061394460408301876131a6565b818103606083015261395681866131cc565b9050818103608083015261396a8185613345565b905081810360a083015261397e8184613345565b9050979650505050505050565b60006040820190506139a060008301856132d4565b6139ad60208301846137bc565b9392505050565b60006020820190506139c960008301846132fa565b92915050565b600060a0820190506139e460008301886132fa565b6139f160208301876131a6565b6139fe60408301866132d4565b613a0b60608301856131a6565b613a1860808301846137bc565b9695505050505050565b6000606082019050613a3760008301866132fa565b613a4460208301856132d4565b613a5160408301846131a6565b949350505050565b6000602082019050613a6e6000830184613309565b92915050565b6000602082019050613a896000830184613318565b92915050565b6000602082019050613aa46000830184613327565b92915050565b6000602082019050613abf6000830184613336565b92915050565b60006060820190508181036000830152613ade816133e8565b9050613aed60208301856131a6565b613afa6040830184613188565b9392505050565b60006020820190508181036000830152613b1a81613428565b9050919050565b60006020820190508181036000830152613b3a81613468565b9050919050565b60006020820190508181036000830152613b5a816134a8565b9050919050565b60006060820190508181036000830152613b7a816134e8565b9050613b8960208301856131a6565b613b966040830184613188565b9392505050565b60006020820190508181036000830152613bb681613528565b9050919050565b60006060820190508181036000830152613bd681613568565b9050613be560208301856131a6565b613bf26040830184613188565b9392505050565b60006020820190508181036000830152613c12816135a8565b9050919050565b60006020820190508181036000830152613c32816135e8565b9050919050565b60006020820190508181036000830152613c5281613628565b9050919050565b60006060820190508181036000830152613c7281613668565b9050613c8160208301856131a6565b613c8e6040830184613188565b9392505050565b60006020820190508181036000830152613cae816136a8565b9050919050565b60006020820190508181036000830152613ccf81846136e8565b905092915050565b600060a082019050613cec60008301886137bc565b613cf960208301876137bc565b613d0660408301866131a6565b613d1360608301856131a6565b613d2060808301846132d4565b9695505050505050565b6000604051905081810181811067ffffffffffffffff82111715613d4d57600080fd5b8060405250919050565b600067ffffffffffffffff821115613d6e57600080fd5b602082029050602081019050919050565b600067ffffffffffffffff821115613d9657600080fd5b602082029050602081019050919050565b600067ffffffffffffffff821115613dbe57600080fd5b602082029050602081019050919050565b600067ffffffffffffffff821115613de657600080fd5b601f19601f8301169050602081019050919050565b600067ffffffffffffffff821115613e1257600080fd5b601f19601f8301169050602081019050919050565b6000819050602082019050919050565b6000819050602082019050919050565b600081519050919050565b600081519050919050565b600081519050919050565b600081519050919050565b6000602082019050919050565b6000602082019050919050565b600082825260208201905092915050565b600082825260208201905092915050565b600082825260208201905092915050565b600082825260208201905092915050565b600081905092915050565b6000613ee782613f43565b9050919050565b60008115159050919050565b60007fffffffffffffffffffffffffffffffff0000000000000000000000000000000082169050919050565b6000819050919050565b6000819050613f3e826140af565b919050565b600073ffffffffffffffffffffffffffffffffffffffff82169050919050565b6000819050919050565b6000613f7882613ffd565b9050919050565b6000613f8a82613f91565b9050919050565b6000613f9c82613f43565b9050919050565b6000613fae82613fb5565b9050919050565b6000613fc082613f43565b9050919050565b6000613fd282613fd9565b9050919050565b6000613fe482613f43565b9050919050565b6000613ff682613f30565b9050919050565b60006140088261400f565b9050919050565b600061401a82613f43565b9050919050565b82818337600083830152505050565b60005b8381101561404e578082015181840152602081019050614033565b8381111561405d576000848401525b50505050565b600061406e8261407f565b9050919050565b6000819050919050565b600061408a826140a2565b9050919050565b6000601f19601f8301169050919050565b60008160601b9050919050565b601e81106140b957fe5b50565b6140c581613edc565b81146140d057600080fd5b50565b6140dc81613eee565b81146140e757600080fd5b50565b6140f381613efa565b81146140fe57600080fd5b50565b61410a81613f26565b811461411557600080fd5b50565b61412181613f63565b811461412c57600080fd5b5056fea2646970667358221220e316e24527c819706ddb1ab078e3b8a5bd40adad25df9d94608ad7a5f9276ff764736f6c63430006030033",
  "source": "pragma solidity >=0.5.12 <0.7.0;\r\npragma experimental ABIEncoderV2;\r\n\r\nimport \"./WhiteMange.sol\";\r\nimport \"./SafeMath.sol\";\r\n\r\nimport \"./ResourceDB.sol\";\r\nimport \"./OrderDB.sol\";\r\nimport \"./InfoDB.sol\";\r\n\r\n//TODO: TO modify ERC20 to GAS;\r\n\r\n/*\r\n    \r\n    1. \r\n    2. 00\r\n    3. \r\n    4. \r\n    5. \r\n*/\r\n\r\n/**\r\n * @title \r\n * @dev \r\n * @notice \r\n */\r\ncontract CenterControl is WhiteMange {\r\n    using SafeMath for uint256;\r\n    //Payment public pay_;\r\n\r\n    ResourceDB public resDb_;\r\n    OrderDB public orderDb_;\r\n    InfoDB public infoDb_;\r\n\r\n    /**\r\n     * @dev constructo\r\n     */\r\n    constructor() public {\r\n    //    owner = msg.sender;\r\n    //    admin = msg.sender;\r\n        emit  LogAddress(\"construcor\",admin, owner,msg.sender);\r\n    }\r\n\r\n    /**\r\n     * @dev Initialization function,related contract of the project\r\n     * @notice Can only be called once by the owner.\r\n     * @param _resource address : ClaimDB's contract address\r\n     * @param _order address : OrderDB's contract address\r\n     * @param _info  address : InfoDB's contract address\r\n     * @return       bool    : The successful call returns true.\r\n     */\r\n    function initialize(address _resource, address _order, address _info)\r\n        public\r\n        onlyAdmin\r\n        returns (bool)\r\n    {\r\n        require(address(resDb_) == address(0), \"You can only call it once\");\r\n        require(\r\n            _resource != address(0) &&\r\n                _order != address(0) &&\r\n                _info != address(0),\r\n            \"contract address cannot be 0.\"\r\n        );\r\n\r\n        resDb_ = ResourceDB(_resource);\r\n        orderDb_ = OrderDB(_order);\r\n        infoDb_ = InfoDB(_info);\r\n        owner = msg.sender;\r\n        whitelist_[msg.sender] = true;\r\n        emit  LogAddress(\"initialize\",admin, owner,msg.sender);\r\n        return true;\r\n    }\r\n\r\n    // TODO\r\n    // \r\n    //function  () public payable  {\r\n    // \r\n    //}\r\n\r\n    /**\r\n     * @dev  \r\n     * @param _ipfs    string  : IPFS Hash\r\n     * @param _author  address : \r\n     * @param _thubanail :\r\n     * @param _cover :\r\n     * @param _title :\r\n     * @return         bool    : true\r\n     */\r\n    function createResource(\r\n        string memory _ipfs,\r\n        address _author,\r\n        string[] memory _thubanail,\r\n        string memory _cover,\r\n        string memory _title\r\n    ) public returns (bytes16) {\r\n        if ( owner != _author && whitelist_[_author] != true) {\r\n            emit LogError(RScorr.Insufficient);\r\n            return 0;\r\n        }\r\n\r\n        bytes16 _resId = bytes16(keccak256(abi.encodePacked(_ipfs, _author)));\r\n        if (resDb_.isExist(_resId)) {\r\n            emit LogError(RScorr.ObjExist);\r\n            return 0;\r\n        } /* Check if the resource exists */\r\n\r\n        bool res = resDb_.insertResource(\r\n                _resId,\r\n                _ipfs,\r\n                _author,\r\n                _thubanail,\r\n                _cover,\r\n                _title\r\n        );\r\n        if (!res) {\r\n            emit info(\"resource create error\");\r\n            return 0;\r\n        }\r\n        res = infoDb_.insertResource(_resId, _author);\r\n        if (!res) {\r\n            emit info(\"infodb.insertResource error\");\r\n        }\r\n        return _resId;\r\n\r\n    }\r\n      \r\n    /**\r\n     * @dev  \r\n     * @param _author address : \r\n     * @param _resId  bytes16 : ID\r\n     * @param _value  uint256  : \r\n     * @param _payer  address : \r\n     */\r\n    function createOrder(\r\n        address _author,\r\n        bytes16 _resId,\r\n        uint256 _value,\r\n        address _payer\r\n    ) public returns (bool succ, string memory info,bytes32 orderID) {\r\n        if ( owner != _author && whitelist_[_payer] != true) {\r\n            emit LogError(RScorr.Insufficient);\r\n            return (false, \"not in whitelist\",0);\r\n        } // Check the caller's whitelist permission.\r\n\r\n        if (!resDb_.getResourceWaive(_resId)) {\r\n            emit LogError(RScorr.InvalidObj);\r\n            return (false, \"resource have  shelves\",0);\r\n        } //\r\n\r\n        // id\r\n        bytes32 _orderId = bytes32(keccak256(abi.encodePacked(_payer, _resId)));\r\n        resDb_.addResourceGratuityNum(_resId, _value);\r\n\r\n        // \r\n        if (orderDb_.insert(_orderId, _author, _resId, _payer, _value)) {\r\n            require(\r\n                infoDb_.insertOrder(_orderId, _resId, _payer),\r\n                \"order insert into info  error\"\r\n            );\r\n            return (true, \"\",_orderId);\r\n        } else {\r\n            return (false, \"FAILE\",0);\r\n        }\r\n    }\r\n\r\n    // /*\r\n    //  * @dev  \r\n    //  * @param _author address : \r\n    //  * @param _claimId  bytes16 : ID\r\n    //  * @param _payer    address : \r\n    //  * @return          bool    : true\r\n    // */\r\n    // function isPayed(address _author, bytes16 _resId, address _payer)\r\n    //     public\r\n    //     view\r\n    //     returns (bool)\r\n    // {\r\n    //     bytes32 _orderId = bytes32(keccak256(abi.encodePacked(_payer, _resId)));\r\n    //     return orderDb_.isExist(_orderId);\r\n    // }\r\n\r\n    ///@dev \r\n    function updateResource(\r\n        bytes16 _sid,\r\n        address _author,\r\n        string memory _newipfs,\r\n        string[] memory _thubanail,\r\n        string memory _cover,\r\n        string memory _title\r\n    ) public returns (bool) {\r\n        if ( owner != _author && whitelist_[_author] != true) {\r\n            emit LogError(RScorr.Insufficient);\r\n            return false;\r\n        } // \r\n\r\n        return\r\n            resDb_.updateResource(\r\n                _sid,\r\n                _newipfs,\r\n                _author,\r\n                _thubanail,\r\n                _cover,\r\n                _title\r\n            );\r\n    }\r\n\r\n    ///@dev \r\n    function updateResourceWaive(bytes16 _cid, address _author, bool _waive)\r\n        public\r\n        returns (bool)\r\n    {\r\n        if ( owner != _author && whitelist_[msg.sender] != true) {\r\n            emit LogError(RScorr.Insufficient);\r\n            return false;\r\n        } // \r\n\r\n        if (resDb_.updateResourceWaive(_cid, _author, _waive)) {\r\n            return true;\r\n        }\r\n        return false;\r\n    }\r\n\r\n    /////////////////////////\r\n    /// Internal\r\n    /////////////////////////\r\n\r\n    ///@dev ResId\r\n    function getResourceDetails(bytes16 _resid)\r\n        public\r\n        view\r\n        returns (ResourceDB.Resource memory)\r\n    // address author,\r\n    // string memory ipfs,\r\n    // uint256 initDate,\r\n    // bool waive,\r\n    // uint256 gratuityNum,\r\n    // string memory _cover,\r\n    // string memory _title,\r\n    // string[] memory _thubanail\r\n    {\r\n        return resDb_.getResourceInfoByID(_resid);\r\n    }\r\n\r\n    ///@dev OrderId\r\n    function getOrderDetails(bytes32 _oid)\r\n        public\r\n        view\r\n        returns (\r\n            uint256 time,\r\n            uint256 value,\r\n            address author,\r\n            address payer,\r\n            bytes16 resId\r\n        )\r\n    {\r\n        return orderDb_.getOrderInfoByID(_oid);\r\n    }\r\n\r\n    function getResourceAutherInfo(bytes16 _sid) public view returns (address) {\r\n        return resDb_.getAuthor(_sid);\r\n    }\r\n\r\n    bool private setOwner_ = false;\r\n    function setOwner(address admin_) public  {\r\n        require(!setOwner_,\" setOwner_: true\");\r\n        setOwner_ = true;\r\n        owner = msg.sender;\r\n        admin = admin_;\r\n        whitelist_[admin_] = true;\r\n        whitelist_[msg.sender] = true;\r\n        emit  LogAddress(\"CenterControlsetOwner\",admin, owner,msg.sender);\r\n    }\r\n\r\n    function addResourceGratuityNum(bytes16 _resId,uint value) public  {\r\n       resDb_.addResourceGratuityNum(_resId,value);\r\n    }\r\n\r\n}\r\n",
  "sourcePath": "E:\\contracts\\contracts\\CenterControl.sol",
  "compiler": {
    "name": "solc",
    "version": "0.6.3+commit.8dda9521.Emscripten.clang"
  },
  "schemaVersion": "3.0.23",
  "updatedAt": "2020-04-21T09:45:18.917Z",
  "networkType": "ethereum",
  "devdoc": {
    "details": "",
    "methods": {
      "acceptOwnership()": {
        "details": "Allows the newOwner address to finalize the transfer."
      },
      "constructor": {
        "details": "constructo"
      },
      "createOrder(address,bytes16,uint256,address)": {
        "details": "",
        "params": {
          "_author": "address : ",
          "_payer": "address : ",
          "_resId": "bytes16 : ID",
          "_value": "uint256  : "
        }
      },
      "createResource(string,address,string[],string,string)": {
        "details": "",
        "params": {
          "_author": "address : ",
          "_cover": ":",
          "_ipfs": "string  : IPFS Hash",
          "_thubanail": ":",
          "_title": ":"
        },
        "returns": {
          "_0": "bool    : true"
        }
      },
      "getOrderDetails(bytes32)": {
        "details": "OrderId"
      },
      "getResourceDetails(bytes16)": {
        "details": "ResId"
      },
      "initialize(address,address,address)": {
        "details": "Initialization function,related contract of the project",
        "params": {
          "_info": "address : InfoDB's contract address",
          "_order": "address : OrderDB's contract address",
          "_resource": "address : ClaimDB's contract address"
        },
        "returns": {
          "_0": "bool    : The successful call returns true."
        }
      },
      "mangeWhiteList(address,bool)": {
        "details": "",
        "params": {
          "_allow": "bool     : truefalse",
          "_target": "address  : "
        },
        "returns": {
          "_0": "bool     : true"
        }
      },
      "mulInsertWhite(address[])": {
        "details": "",
        "params": {
          "_addresses": "address[] : "
        },
        "returns": {
          "_0": "bool      : true"
        }
      },
      "renounceOwnership()": {
        "details": "Allows the current owner to relinquish control of the contract."
      },
      "transferAdminship(address)": {
        "details": "Allows the current admin to transfer control of the contract to a newadmin.",
        "params": {
          "_newAdmin": "address : new admin address"
        }
      },
      "transferOwnership(address)": {
        "details": "Allows the current owner to transfer control of the contract to a newOwner.",
        "params": {
          "_newOwner": "The address to transfer ownership to."
        }
      },
      "updateResource(bytes16,address,string,string[],string,string)": {
        "details": ""
      },
      "updateResourceWaive(bytes16,address,bool)": {
        "details": ""
      }
    },
    "title": ""
  },
  "userdoc": {
    "methods": {
      "getResourceDetails(bytes16)": {
        "notice": "////////////////////// Internal //////////////////////"
      },
      "initialize(address,address,address)": {
        "notice": "Can only be called once by the owner."
      },
      "mangeWhiteList(address,bool)": {
        "notice": ""
      },
      "mulInsertWhite(address[])": {
        "notice": ""
      },
      "renounceOwnership()": {
        "notice": "Renouncing to ownership will leave the contract without an owner. It will not be possible to call the functions with the `onlyOwner` modifier anymore."
      }
    },
    "notice": ""
  }
}