{
  "contractName": "CenterControl",
  "abi": [
    {
      "inputs": [],
      "stateMutability": "nonpayable",
      "type": "constructor"
    },
    {
      "anonymous": false,
      "inputs": [
        {
          "indexed": false,
          "internalType": "string",
          "name": "info",
          "type": "string"
        },
        {
          "indexed": false,
          "internalType": "address",
          "name": "_resId",
          "type": "address"
        },
        {
          "indexed": true,
          "internalType": "address",
          "name": "_author",
          "type": "address"
        },
        {
          "indexed": false,
          "internalType": "address",
          "name": "who",
          "type": "address"
        }
      ],
      "name": "LogAddress",
      "type": "event"
    },
    {
      "anonymous": false,
      "inputs": [
        {
          "indexed": false,
          "internalType": "string",
          "name": "",
          "type": "string"
        },
        {
          "indexed": false,
          "internalType": "address",
          "name": "",
          "type": "address"
        },
        {
          "indexed": false,
          "internalType": "address",
          "name": "",
          "type": "address"
        }
      ],
      "name": "LogAddress",
      "type": "event"
    },
    {
      "anonymous": false,
      "inputs": [
        {
          "indexed": true,
          "internalType": "address",
          "name": "_old",
          "type": "address"
        },
        {
          "indexed": true,
          "internalType": "address",
          "name": "_new",
          "type": "address"
        }
      ],
      "name": "LogAdminshipTransferred",
      "type": "event"
    },
    {
      "anonymous": false,
      "inputs": [
        {
          "indexed": false,
          "internalType": "enum ErrorModule.RScorr",
          "name": "_errorNumber",
          "type": "uint8"
        }
      ],
      "name": "LogError",
      "type": "event"
    },
    {
      "anonymous": false,
      "inputs": [
        {
          "indexed": true,
          "internalType": "address",
          "name": "previousOwner",
          "type": "address"
        }
      ],
      "name": "LogOwnershipRenounced",
      "type": "event"
    },
    {
      "anonymous": false,
      "inputs": [
        {
          "indexed": true,
          "internalType": "address",
          "name": "previousOwner",
          "type": "address"
        },
        {
          "indexed": true,
          "internalType": "address",
          "name": "newOwner",
          "type": "address"
        }
      ],
      "name": "LogOwnershipTransferred",
      "type": "event"
    },
    {
      "anonymous": false,
      "inputs": [
        {
          "indexed": true,
          "internalType": "address",
          "name": "_target",
          "type": "address"
        },
        {
          "indexed": false,
          "internalType": "bool",
          "name": "_allow",
          "type": "bool"
        }
      ],
      "name": "LogWhileChanged",
      "type": "event"
    },
    {
      "inputs": [],
      "name": "acceptOwnership",
      "outputs": [],
      "stateMutability": "nonpayable",
      "type": "function"
    },
    {
      "inputs": [],
      "name": "admin",
      "outputs": [
        {
          "internalType": "address",
          "name": "",
          "type": "address"
        }
      ],
      "stateMutability": "view",
      "type": "function",
      "constant": true
    },
    {
      "inputs": [],
      "name": "infoDb_",
      "outputs": [
        {
          "internalType": "contract InfoDB",
          "name": "",
          "type": "address"
        }
      ],
      "stateMutability": "view",
      "type": "function",
      "constant": true
    },
    {
      "inputs": [
        {
          "internalType": "address",
          "name": "_target",
          "type": "address"
        },
        {
          "internalType": "bool",
          "name": "_allow",
          "type": "bool"
        }
      ],
      "name": "mangeWhiteList",
      "outputs": [
        {
          "internalType": "bool",
          "name": "",
          "type": "bool"
        }
      ],
      "stateMutability": "nonpayable",
      "type": "function"
    },
    {
      "inputs": [
        {
          "internalType": "address[]",
          "name": "_addresses",
          "type": "address[]"
        }
      ],
      "name": "mulInsertWhite",
      "outputs": [
        {
          "internalType": "bool",
          "name": "",
          "type": "bool"
        }
      ],
      "stateMutability": "nonpayable",
      "type": "function"
    },
    {
      "inputs": [],
      "name": "newOwner",
      "outputs": [
        {
          "internalType": "address",
          "name": "",
          "type": "address"
        }
      ],
      "stateMutability": "view",
      "type": "function",
      "constant": true
    },
    {
      "inputs": [],
      "name": "orderDb_",
      "outputs": [
        {
          "internalType": "contract OrderDB",
          "name": "",
          "type": "address"
        }
      ],
      "stateMutability": "view",
      "type": "function",
      "constant": true
    },
    {
      "inputs": [],
      "name": "owner",
      "outputs": [
        {
          "internalType": "address",
          "name": "",
          "type": "address"
        }
      ],
      "stateMutability": "view",
      "type": "function",
      "constant": true
    },
    {
      "inputs": [],
      "name": "renounceOwnership",
      "outputs": [],
      "stateMutability": "nonpayable",
      "type": "function"
    },
    {
      "inputs": [],
      "name": "resDb_",
      "outputs": [
        {
          "internalType": "contract ResourceDB",
          "name": "",
          "type": "address"
        }
      ],
      "stateMutability": "view",
      "type": "function",
      "constant": true
    },
    {
      "inputs": [
        {
          "internalType": "address",
          "name": "_newAdmin",
          "type": "address"
        }
      ],
      "name": "transferAdminship",
      "outputs": [],
      "stateMutability": "nonpayable",
      "type": "function"
    },
    {
      "inputs": [
        {
          "internalType": "address",
          "name": "_newOwner",
          "type": "address"
        }
      ],
      "name": "transferOwnership",
      "outputs": [],
      "stateMutability": "nonpayable",
      "type": "function"
    },
    {
      "inputs": [
        {
          "internalType": "address",
          "name": "",
          "type": "address"
        }
      ],
      "name": "whitelist_",
      "outputs": [
        {
          "internalType": "bool",
          "name": "",
          "type": "bool"
        }
      ],
      "stateMutability": "view",
      "type": "function",
      "constant": true
    },
    {
      "inputs": [
        {
          "internalType": "address",
          "name": "_resource",
          "type": "address"
        },
        {
          "internalType": "address",
          "name": "_order",
          "type": "address"
        },
        {
          "internalType": "address",
          "name": "_info",
          "type": "address"
        }
      ],
      "name": "initialize",
      "outputs": [
        {
          "internalType": "bool",
          "name": "",
          "type": "bool"
        }
      ],
      "stateMutability": "nonpayable",
      "type": "function"
    },
    {
      "inputs": [
        {
          "internalType": "string",
          "name": "_ipfs",
          "type": "string"
        },
        {
          "internalType": "address",
          "name": "_author",
          "type": "address"
        },
        {
          "internalType": "string[]",
          "name": "_thubanail",
          "type": "string[]"
        },
        {
          "internalType": "string",
          "name": "_cover",
          "type": "string"
        },
        {
          "internalType": "string",
          "name": "_title",
          "type": "string"
        }
      ],
      "name": "createResource",
      "outputs": [
        {
          "internalType": "bool",
          "name": "",
          "type": "bool"
        }
      ],
      "stateMutability": "nonpayable",
      "type": "function"
    },
    {
      "inputs": [
        {
          "internalType": "address",
          "name": "_author",
          "type": "address"
        },
        {
          "internalType": "bytes16",
          "name": "_resId",
          "type": "bytes16"
        },
        {
          "internalType": "uint256",
          "name": "_value",
          "type": "uint256"
        },
        {
          "internalType": "address",
          "name": "_payer",
          "type": "address"
        }
      ],
      "name": "createOrder",
      "outputs": [
        {
          "internalType": "bool",
          "name": "succ",
          "type": "bool"
        },
        {
          "internalType": "string",
          "name": "info",
          "type": "string"
        }
      ],
      "stateMutability": "nonpayable",
      "type": "function"
    },
    {
      "inputs": [
        {
          "internalType": "bytes16",
          "name": "_sid",
          "type": "bytes16"
        },
        {
          "internalType": "address",
          "name": "_author",
          "type": "address"
        },
        {
          "internalType": "string",
          "name": "_newipfs",
          "type": "string"
        },
        {
          "internalType": "string[]",
          "name": "_thubanail",
          "type": "string[]"
        },
        {
          "internalType": "string",
          "name": "_cover",
          "type": "string"
        },
        {
          "internalType": "string",
          "name": "_title",
          "type": "string"
        }
      ],
      "name": "updateResource",
      "outputs": [
        {
          "internalType": "bool",
          "name": "",
          "type": "bool"
        }
      ],
      "stateMutability": "nonpayable",
      "type": "function"
    },
    {
      "inputs": [
        {
          "internalType": "bytes16",
          "name": "_cid",
          "type": "bytes16"
        },
        {
          "internalType": "address",
          "name": "_author",
          "type": "address"
        },
        {
          "internalType": "bool",
          "name": "_waive",
          "type": "bool"
        }
      ],
      "name": "updateResourceWaive",
      "outputs": [
        {
          "internalType": "bool",
          "name": "",
          "type": "bool"
        }
      ],
      "stateMutability": "nonpayable",
      "type": "function"
    },
    {
      "inputs": [
        {
          "internalType": "bytes16",
          "name": "_resid",
          "type": "bytes16"
        }
      ],
      "name": "getResourceDetails",
      "outputs": [
        {
          "components": [
            {
              "internalType": "uint256",
              "name": "initDate",
              "type": "uint256"
            },
            {
              "internalType": "address",
              "name": "author",
              "type": "address"
            },
            {
              "internalType": "bool",
              "name": "waive",
              "type": "bool"
            },
            {
              "internalType": "string",
              "name": "ipfs",
              "type": "string"
            },
            {
              "internalType": "uint256",
              "name": "gratuityNum",
              "type": "uint256"
            },
            {
              "internalType": "string[]",
              "name": "thubanail",
              "type": "string[]"
            },
            {
              "internalType": "string",
              "name": "cover",
              "type": "string"
            },
            {
              "internalType": "string",
              "name": "title",
              "type": "string"
            }
          ],
          "internalType": "struct ResourceDB.Resource",
          "name": "",
          "type": "tuple"
        }
      ],
      "stateMutability": "view",
      "type": "function",
      "constant": true
    },
    {
      "inputs": [
        {
          "internalType": "bytes32",
          "name": "_oid",
          "type": "bytes32"
        }
      ],
      "name": "getOrderDetails",
      "outputs": [
        {
          "internalType": "uint256",
          "name": "time",
          "type": "uint256"
        },
        {
          "internalType": "uint256",
          "name": "value",
          "type": "uint256"
        },
        {
          "internalType": "address",
          "name": "author",
          "type": "address"
        },
        {
          "internalType": "address",
          "name": "payer",
          "type": "address"
        },
        {
          "internalType": "bytes16",
          "name": "resId",
          "type": "bytes16"
        }
      ],
      "stateMutability": "view",
      "type": "function",
      "constant": true
    },
    {
      "inputs": [
        {
          "internalType": "bytes16",
          "name": "_sid",
          "type": "bytes16"
        }
      ],
      "name": "getResourceAutherInfo",
      "outputs": [
        {
          "internalType": "address",
          "name": "",
          "type": "address"
        }
      ],
      "stateMutability": "view",
      "type": "function",
      "constant": true
    }
  ],
  "bytecode": "0x60806040523480156200001157600080fd5b50336000806101000a81548173ffffffffffffffffffffffffffffffffffffffff021916908373ffffffffffffffffffffffffffffffffffffffff16021790555033600260006101000a81548173ffffffffffffffffffffffffffffffffffffffff021916908373ffffffffffffffffffffffffffffffffffffffff1602179055506000809054906101000a900473ffffffffffffffffffffffffffffffffffffffff1673ffffffffffffffffffffffffffffffffffffffff167f9e6965ca244a67ad615b5114db3886405a40a12f1190493f8e9201020885af1d600260009054906101000a900473ffffffffffffffffffffffffffffffffffffffff16336040516200012092919062000227565b60405180910390a26000809054906101000a900473ffffffffffffffffffffffffffffffffffffffff1673ffffffffffffffffffffffffffffffffffffffff167f9e6965ca244a67ad615b5114db3886405a40a12f1190493f8e9201020885af1d600260009054906101000a900473ffffffffffffffffffffffffffffffffffffffff1633604051620001b592919062000227565b60405180910390a2620002ea565b620001ce81620002ae565b82525050565b620001df816200027a565b82525050565b6000620001f4600a8362000269565b91507f636f6e73747275636f72000000000000000000000000000000000000000000006000830152602082019050919050565b600060608201905081810360008301526200024281620001e5565b9050620002536020830185620001d4565b620002626040830184620001c3565b9392505050565b600082825260208201905092915050565b600062000287826200028e565b9050919050565b600073ffffffffffffffffffffffffffffffffffffffff82169050919050565b6000620002bb82620002c2565b9050919050565b6000620002cf82620002d6565b9050919050565b6000620002e3826200028e565b9050919050565b61396480620002fa6000396000f3fe608060405234801561001057600080fd5b50600436106101375760003560e01c80638da5cb5b116100b8578063d035360b1161007c578063d035360b1461037b578063d4ee1d90146103ab578063ddbf54d5146103c9578063e56a7c5d146103e7578063f2fde38b14610417578063f851a4401461043357610137565b80638da5cb5b1461029d5780639af2a7a6146102bb578063a8e1fba3146102eb578063aa492ec21461031b578063c0c53b8b1461034b57610137565b80636df56608116100ff5780636df566081461020b578063703ddbca1461022957806370ce4e0814610259578063715018a61461028957806379ba50971461029357610137565b8063024663f71461013c57806305cc9a611461017057806316be9cfe146101a157806335e60e89146101bf5780635be7cc16146101ef575b600080fd5b61015660048036036101519190810190612947565b610451565b6040516101679594939291906134d6565b60405180910390f35b61018a60048036036101859190810190612719565b610517565b6040516101989291906130fa565b60405180910390f35b6101a96109dd565b6040516101b691906132f0565b60405180910390f35b6101d960048036036101d4919081019061277c565b610a03565b6040516101e691906130df565b60405180910390f35b6102096004803603610204919081019061263c565b610c6d565b005b610213610e73565b604051610220919061330b565b60405180910390f35b610243600480360361023e9190810190612970565b610e99565b60405161025091906130df565b60405180910390f35b610273600480360361026e91908101906127e6565b611246565b60405161028091906134b4565b60405180910390f35b610291611305565b005b61029b611461565b005b6102a561165a565b6040516102b291906130c4565b60405180910390f35b6102d560048036036102d0919081019061285e565b61167f565b6040516102e291906130df565b60405180910390f35b610305600480360361030091908101906126dd565b6117de565b60405161031291906130df565b60405180910390f35b6103356004803603610330919081019061280f565b6119f7565b60405161034291906130df565b60405180910390f35b6103656004803603610360919081019061268e565b611b5d565b60405161037291906130df565b60405180910390f35b610395600480360361039091908101906127e6565b611ee6565b6040516103a291906130c4565b60405180910390f35b6103b3611f9a565b6040516103c091906130c4565b60405180910390f35b6103d1611fc0565b6040516103de9190613326565b60405180910390f35b61040160048036036103fc919081019061263c565b611fe6565b60405161040e91906130df565b60405180910390f35b610431600480360361042c919081019061263c565b612006565b005b61043b61216f565b60405161044891906130c4565b60405180910390f35b6000806000806000600560009054906101000a900473ffffffffffffffffffffffffffffffffffffffff1673ffffffffffffffffffffffffffffffffffffffff16635d1d1e67876040518263ffffffff1660e01b81526004016104b4919061324b565b60a06040518083038186803b1580156104cc57600080fd5b505afa1580156104e0573d6000803e3d6000fd5b505050506040513d601f19601f820116820180604052506105049190810190612a88565b9450945094509450945091939590929450565b6000606060011515600360003373ffffffffffffffffffffffffffffffffffffffff1673ffffffffffffffffffffffffffffffffffffffff16815260200190815260200160002060009054906101000a900460ff161515146105ec577f0489f2369368f4688acd012107ac5a7d98ca739b913449d852f35d871e433cc3600e6040516105a39190613341565b60405180910390a160006040518060400160405280601081526020017f6e6f7420696e2077686974656c69737400000000000000000000000000000000815250915091506109d4565b600460009054906101000a900473ffffffffffffffffffffffffffffffffffffffff1673ffffffffffffffffffffffffffffffffffffffff1663f207a088866040518263ffffffff1660e01b8152600401610647919061312a565b60206040518083038186803b15801561065f57600080fd5b505afa158015610673573d6000803e3d6000fd5b505050506040513d601f19601f8201168201806040525061069791908101906127bd565b610714577f0489f2369368f4688acd012107ac5a7d98ca739b913449d852f35d871e433cc360066040516106cb9190613341565b60405180910390a160006040518060400160405280601681526020017f7265736f75726365206861766520207368656c76657300000000000000000000815250915091506109d4565b60008386604051602001610729929190613070565b604051602081830303815290604052805190602001209050600460009054906101000a900473ffffffffffffffffffffffffffffffffffffffff1673ffffffffffffffffffffffffffffffffffffffff1663157ffbe987876040518363ffffffff1660e01b815260040161079e929190613222565b600060405180830381600087803b1580156107b857600080fd5b505af11580156107cc573d6000803e3d6000fd5b50505050600560009054906101000a900473ffffffffffffffffffffffffffffffffffffffff1673ffffffffffffffffffffffffffffffffffffffff166363e319f4828989888a6040518663ffffffff1660e01b8152600401610833959493929190613266565b602060405180830381600087803b15801561084d57600080fd5b505af1158015610861573d6000803e3d6000fd5b505050506040513d601f19601f8201168201806040525061088591908101906127bd565b1561099657600660009054906101000a900473ffffffffffffffffffffffffffffffffffffffff1673ffffffffffffffffffffffffffffffffffffffff1663ee9a45508288876040518463ffffffff1660e01b81526004016108e9939291906132b9565b602060405180830381600087803b15801561090357600080fd5b505af1158015610917573d6000803e3d6000fd5b505050506040513d601f19601f8201168201806040525061093b91908101906127bd565b61097a576040517f08c379a0000000000000000000000000000000000000000000000000000000008152600401610971906133f8565b60405180910390fd5b60016040518060200160405280600081525092509250506109d4565b60006040518060400160405280600581526020017f4641494c4500000000000000000000000000000000000000000000000000000081525092509250505b94509492505050565b600660009054906101000a900473ffffffffffffffffffffffffffffffffffffffff1681565b60008060009054906101000a900473ffffffffffffffffffffffffffffffffffffffff1673ffffffffffffffffffffffffffffffffffffffff163373ffffffffffffffffffffffffffffffffffffffff1614158015610ab05750600260009054906101000a900473ffffffffffffffffffffffffffffffffffffffff1673ffffffffffffffffffffffffffffffffffffffff163373ffffffffffffffffffffffffffffffffffffffff1614155b15610af6577f0489f2369368f4688acd012107ac5a7d98ca739b913449d852f35d871e433cc3600f604051610ae59190613341565b60405180910390a160009050610c68565b60008090505b8251811015610c6257600073ffffffffffffffffffffffffffffffffffffffff16838281518110610b2957fe5b602002602001015173ffffffffffffffffffffffffffffffffffffffff161415610b88576040517f08c379a0000000000000000000000000000000000000000000000000000000008152600401610b7f90613418565b60405180910390fd5b600160036000858481518110610b9a57fe5b602002602001015173ffffffffffffffffffffffffffffffffffffffff1673ffffffffffffffffffffffffffffffffffffffff16815260200190815260200160002060006101000a81548160ff021916908315150217905550828181518110610bff57fe5b602002602001015173ffffffffffffffffffffffffffffffffffffffff167f9b3b880c67f4fab4215412179771cffd326a045e6016a7e363eb38460f7e91766001604051610c4d91906130df565b60405180910390a28080600101915050610afc565b50600190505b919050565b6000809054906101000a900473ffffffffffffffffffffffffffffffffffffffff1673ffffffffffffffffffffffffffffffffffffffff163373ffffffffffffffffffffffffffffffffffffffff161480610d155750600260009054906101000a900473ffffffffffffffffffffffffffffffffffffffff1673ffffffffffffffffffffffffffffffffffffffff163373ffffffffffffffffffffffffffffffffffffffff16145b15610ddc578073ffffffffffffffffffffffffffffffffffffffff16600260009054906101000a900473ffffffffffffffffffffffffffffffffffffffff1673ffffffffffffffffffffffffffffffffffffffff167ff73aa4459d935dbacd9313fffe485016147551d99ef401461704cd39e6e9028760405160405180910390a380600260006101000a81548173ffffffffffffffffffffffffffffffffffffffff021916908373ffffffffffffffffffffffffffffffffffffffff160217905550610e70565b6000809054906101000a900473ffffffffffffffffffffffffffffffffffffffff1673ffffffffffffffffffffffffffffffffffffffff167f9e6965ca244a67ad615b5114db3886405a40a12f1190493f8e9201020885af1d600260009054906101000a900473ffffffffffffffffffffffffffffffffffffffff1633604051610e6792919061335c565b60405180910390a25b50565b600560009054906101000a900473ffffffffffffffffffffffffffffffffffffffff1681565b600060011515600360003373ffffffffffffffffffffffffffffffffffffffff1673ffffffffffffffffffffffffffffffffffffffff16815260200190815260200160002060009054906101000a900460ff16151514610f34577f0489f2369368f4688acd012107ac5a7d98ca739b913449d852f35d871e433cc3600e604051610f239190613341565b60405180910390a16000905061123d565b60008686604051602001610f4992919061309c565b604051602081830303815290604052805190602001209050600460009054906101000a900473ffffffffffffffffffffffffffffffffffffffff1673ffffffffffffffffffffffffffffffffffffffff16639b03ced2826040518263ffffffff1660e01b8152600401610fbc919061312a565b60206040518083038186803b158015610fd457600080fd5b505afa158015610fe8573d6000803e3d6000fd5b505050506040513d601f19601f8201168201806040525061100c91908101906127bd565b15611053577f0489f2369368f4688acd012107ac5a7d98ca739b913449d852f35d871e433cc3600a6040516110419190613341565b60405180910390a1600091505061123d565b600460009054906101000a900473ffffffffffffffffffffffffffffffffffffffff1673ffffffffffffffffffffffffffffffffffffffff1663b3f956578289898989896040518763ffffffff1660e01b81526004016110b8969594939291906131a5565b602060405180830381600087803b1580156110d257600080fd5b505af11580156110e6573d6000803e3d6000fd5b505050506040513d601f19601f8201168201806040525061110a91908101906127bd565b611149576040517f08c379a0000000000000000000000000000000000000000000000000000000008152600401611140906133d8565b60405180910390fd5b600660009054906101000a900473ffffffffffffffffffffffffffffffffffffffff1673ffffffffffffffffffffffffffffffffffffffff1663fd4dd1fe82886040518363ffffffff1660e01b81526004016111a6929190613145565b602060405180830381600087803b1580156111c057600080fd5b505af11580156111d4573d6000803e3d6000fd5b505050506040513d601f19601f820116820180604052506111f891908101906127bd565b611237576040517f08c379a000000000000000000000000000000000000000000000000000000000815260040161122e90613474565b60405180910390fd5b60019150505b95945050505050565b61124e612195565b600460009054906101000a900473ffffffffffffffffffffffffffffffffffffffff1673ffffffffffffffffffffffffffffffffffffffff16638d4a3974836040518263ffffffff1660e01b81526004016112a9919061312a565b60006040518083038186803b1580156112c157600080fd5b505afa1580156112d5573d6000803e3d6000fd5b505050506040513d6000823e3d601f19601f820116820180604052506112fe9190810190612a47565b9050919050565b6000809054906101000a900473ffffffffffffffffffffffffffffffffffffffff1673ffffffffffffffffffffffffffffffffffffffff163373ffffffffffffffffffffffffffffffffffffffff161415611404576000809054906101000a900473ffffffffffffffffffffffffffffffffffffffff1673ffffffffffffffffffffffffffffffffffffffff167f2dde1bc8b58ef192e7df3e7a354521d958331021e450d544346b936936916ef460405160405180910390a260008060006101000a81548173ffffffffffffffffffffffffffffffffffffffff021916908373ffffffffffffffffffffffffffffffffffffffff16021790555061145f565b7f6b26c3fc447c71078386bc5ad946c760ce605d2bc61b762901400eb9ac003a9a6000809054906101000a900473ffffffffffffffffffffffffffffffffffffffff1633604051611456929190613438565b60405180910390a15b565b600160009054906101000a900473ffffffffffffffffffffffffffffffffffffffff1673ffffffffffffffffffffffffffffffffffffffff163373ffffffffffffffffffffffffffffffffffffffff1614156115fd57600160009054906101000a900473ffffffffffffffffffffffffffffffffffffffff1673ffffffffffffffffffffffffffffffffffffffff166000809054906101000a900473ffffffffffffffffffffffffffffffffffffffff1673ffffffffffffffffffffffffffffffffffffffff167fdb6d05f3295cede580affa301a1eb5297528f3b3f6a56b075887ce6f61c45f2160405160405180910390a3600160009054906101000a900473ffffffffffffffffffffffffffffffffffffffff166000806101000a81548173ffffffffffffffffffffffffffffffffffffffff021916908373ffffffffffffffffffffffffffffffffffffffff1602179055506000600160006101000a81548173ffffffffffffffffffffffffffffffffffffffff021916908373ffffffffffffffffffffffffffffffffffffffff160217905550611658565b7f6b26c3fc447c71078386bc5ad946c760ce605d2bc61b762901400eb9ac003a9a6000809054906101000a900473ffffffffffffffffffffffffffffffffffffffff163360405161164f929190613438565b60405180910390a15b565b6000809054906101000a900473ffffffffffffffffffffffffffffffffffffffff1681565b600060011515600360003373ffffffffffffffffffffffffffffffffffffffff1673ffffffffffffffffffffffffffffffffffffffff16815260200190815260200160002060009054906101000a900460ff1615151461171a577f0489f2369368f4688acd012107ac5a7d98ca739b913449d852f35d871e433cc3600e6040516117099190613341565b60405180910390a1600090506117d4565b600460009054906101000a900473ffffffffffffffffffffffffffffffffffffffff1673ffffffffffffffffffffffffffffffffffffffff1663a864022d8887898888886040518763ffffffff1660e01b815260040161177f969594939291906131a5565b602060405180830381600087803b15801561179957600080fd5b505af11580156117ad573d6000803e3d6000fd5b505050506040513d601f19601f820116820180604052506117d191908101906127bd565b90505b9695505050505050565b60008060009054906101000a900473ffffffffffffffffffffffffffffffffffffffff1673ffffffffffffffffffffffffffffffffffffffff163373ffffffffffffffffffffffffffffffffffffffff161415801561188b5750600260009054906101000a900473ffffffffffffffffffffffffffffffffffffffff1673ffffffffffffffffffffffffffffffffffffffff163373ffffffffffffffffffffffffffffffffffffffff1614155b156118d1577f0489f2369368f4688acd012107ac5a7d98ca739b913449d852f35d871e433cc3600f6040516118c09190613341565b60405180910390a1600090506119f1565b600073ffffffffffffffffffffffffffffffffffffffff168373ffffffffffffffffffffffffffffffffffffffff161415611947577f0489f2369368f4688acd012107ac5a7d98ca739b913449d852f35d871e433cc360026040516119369190613341565b60405180910390a1600090506119f1565b81600360008573ffffffffffffffffffffffffffffffffffffffff1673ffffffffffffffffffffffffffffffffffffffff16815260200190815260200160002060006101000a81548160ff0219169083151502179055508273ffffffffffffffffffffffffffffffffffffffff167f9b3b880c67f4fab4215412179771cffd326a045e6016a7e363eb38460f7e9176836040516119e491906130df565b60405180910390a2600190505b92915050565b600060011515600360003373ffffffffffffffffffffffffffffffffffffffff1673ffffffffffffffffffffffffffffffffffffffff16815260200190815260200160002060009054906101000a900460ff16151514611a92577f0489f2369368f4688acd012107ac5a7d98ca739b913449d852f35d871e433cc3600e604051611a819190613341565b60405180910390a160009050611b56565b600460009054906101000a900473ffffffffffffffffffffffffffffffffffffffff1673ffffffffffffffffffffffffffffffffffffffff1663aa492ec28585856040518463ffffffff1660e01b8152600401611af19392919061316e565b602060405180830381600087803b158015611b0b57600080fd5b505af1158015611b1f573d6000803e3d6000fd5b505050506040513d601f19601f82011682018060405250611b4391908101906127bd565b15611b515760019050611b56565b600090505b9392505050565b60008060009054906101000a900473ffffffffffffffffffffffffffffffffffffffff1673ffffffffffffffffffffffffffffffffffffffff163373ffffffffffffffffffffffffffffffffffffffff161480611c075750600260009054906101000a900473ffffffffffffffffffffffffffffffffffffffff1673ffffffffffffffffffffffffffffffffffffffff163373ffffffffffffffffffffffffffffffffffffffff16145b15611e4b57600073ffffffffffffffffffffffffffffffffffffffff16600460009054906101000a900473ffffffffffffffffffffffffffffffffffffffff1673ffffffffffffffffffffffffffffffffffffffff1614611c9d576040517f08c379a0000000000000000000000000000000000000000000000000000000008152600401611c94906133b8565b60405180910390fd5b600073ffffffffffffffffffffffffffffffffffffffff168473ffffffffffffffffffffffffffffffffffffffff1614158015611d075750600073ffffffffffffffffffffffffffffffffffffffff168373ffffffffffffffffffffffffffffffffffffffff1614155b8015611d405750600073ffffffffffffffffffffffffffffffffffffffff168273ffffffffffffffffffffffffffffffffffffffff1614155b611d7f576040517f08c379a0000000000000000000000000000000000000000000000000000000008152600401611d7690613398565b60405180910390fd5b83600460006101000a81548173ffffffffffffffffffffffffffffffffffffffff021916908373ffffffffffffffffffffffffffffffffffffffff16021790555082600560006101000a81548173ffffffffffffffffffffffffffffffffffffffff021916908373ffffffffffffffffffffffffffffffffffffffff16021790555081600660006101000a81548173ffffffffffffffffffffffffffffffffffffffff021916908373ffffffffffffffffffffffffffffffffffffffff16021790555060019050611edf565b6000809054906101000a900473ffffffffffffffffffffffffffffffffffffffff1673ffffffffffffffffffffffffffffffffffffffff167f9e6965ca244a67ad615b5114db3886405a40a12f1190493f8e9201020885af1d600260009054906101000a900473ffffffffffffffffffffffffffffffffffffffff1633604051611ed692919061335c565b60405180910390a25b9392505050565b6000600460009054906101000a900473ffffffffffffffffffffffffffffffffffffffff1673ffffffffffffffffffffffffffffffffffffffff1663ba33cb58836040518263ffffffff1660e01b8152600401611f43919061312a565b60206040518083038186803b158015611f5b57600080fd5b505afa158015611f6f573d6000803e3d6000fd5b505050506040513d601f19601f82011682018060405250611f939190810190612665565b9050919050565b600160009054906101000a900473ffffffffffffffffffffffffffffffffffffffff1681565b600460009054906101000a900473ffffffffffffffffffffffffffffffffffffffff1681565b60036020528060005260406000206000915054906101000a900460ff1681565b6000809054906101000a900473ffffffffffffffffffffffffffffffffffffffff1673ffffffffffffffffffffffffffffffffffffffff163373ffffffffffffffffffffffffffffffffffffffff16141561211157600073ffffffffffffffffffffffffffffffffffffffff168173ffffffffffffffffffffffffffffffffffffffff1614156120cb576040517f08c379a00000000000000000000000000000000000000000000000000000000081526004016120c290613494565b60405180910390fd5b80600160006101000a81548173ffffffffffffffffffffffffffffffffffffffff021916908373ffffffffffffffffffffffffffffffffffffffff16021790555061216c565b7f6b26c3fc447c71078386bc5ad946c760ce605d2bc61b762901400eb9ac003a9a6000809054906101000a900473ffffffffffffffffffffffffffffffffffffffff1633604051612163929190613438565b60405180910390a15b50565b600260009054906101000a900473ffffffffffffffffffffffffffffffffffffffff1681565b60405180610100016040528060008152602001600073ffffffffffffffffffffffffffffffffffffffff16815260200160001515815260200160608152602001600081526020016060815260200160608152602001606081525090565b600081359050612201816138bb565b92915050565b600081519050612216816138bb565b92915050565b600082601f83011261222d57600080fd5b813561224061223b82613556565b613529565b9150818183526020840193506020810190508385602084028201111561226557600080fd5b60005b83811015612295578161227b88826121f2565b845260208401935060208301925050600181019050612268565b5050505092915050565b600082601f8301126122b057600080fd5b81516122c36122be8261357e565b613529565b9150818183526020840193506020810190508360005b8381101561230957815186016122ef8882612444565b8452602084019350602083019250506001810190506122d9565b5050505092915050565b600082601f83011261232457600080fd5b8135612337612332826135a6565b613529565b9150818183526020840193506020810190508360005b8381101561237d578135860161236388826123f0565b84526020840193506020830192505060018101905061234d565b5050505092915050565b600081359050612396816138d2565b92915050565b6000815190506123ab816138d2565b92915050565b6000813590506123c0816138e9565b92915050565b6000815190506123d5816138e9565b92915050565b6000813590506123ea81613900565b92915050565b600082601f83011261240157600080fd5b813561241461240f826135ce565b613529565b9150808252602083016020830185838301111561243057600080fd5b61243b838284613820565b50505092915050565b600082601f83011261245557600080fd5b8151612468612463826135ce565b613529565b9150808252602083016020830185838301111561248457600080fd5b61248f83828461382f565b50505092915050565b600082601f8301126124a957600080fd5b81356124bc6124b7826135fa565b613529565b915080825260208301602083018583830111156124d857600080fd5b6124e3838284613820565b50505092915050565b600061010082840312156124ff57600080fd5b61250a610100613529565b9050600061251a84828501612627565b600083015250602061252e84828501612207565b60208301525060406125428482850161239c565b604083015250606082015167ffffffffffffffff81111561256257600080fd5b61256e84828501612444565b606083015250608061258284828501612627565b60808301525060a082015167ffffffffffffffff8111156125a257600080fd5b6125ae8482850161229f565b60a08301525060c082015167ffffffffffffffff8111156125ce57600080fd5b6125da84828501612444565b60c08301525060e082015167ffffffffffffffff8111156125fa57600080fd5b61260684828501612444565b60e08301525092915050565b60008135905061262181613917565b92915050565b60008151905061263681613917565b92915050565b60006020828403121561264e57600080fd5b600061265c848285016121f2565b91505092915050565b60006020828403121561267757600080fd5b600061268584828501612207565b91505092915050565b6000806000606084860312156126a357600080fd5b60006126b1868287016121f2565b93505060206126c2868287016121f2565b92505060406126d3868287016121f2565b9150509250925092565b600080604083850312156126f057600080fd5b60006126fe858286016121f2565b925050602061270f85828601612387565b9150509250929050565b6000806000806080858703121561272f57600080fd5b600061273d878288016121f2565b945050602061274e878288016123b1565b935050604061275f87828801612612565b9250506060612770878288016121f2565b91505092959194509250565b60006020828403121561278e57600080fd5b600082013567ffffffffffffffff8111156127a857600080fd5b6127b48482850161221c565b91505092915050565b6000602082840312156127cf57600080fd5b60006127dd8482850161239c565b91505092915050565b6000602082840312156127f857600080fd5b6000612806848285016123b1565b91505092915050565b60008060006060848603121561282457600080fd5b6000612832868287016123b1565b9350506020612843868287016121f2565b925050604061285486828701612387565b9150509250925092565b60008060008060008060c0878903121561287757600080fd5b600061288589828a016123b1565b965050602061289689828a016121f2565b955050604087013567ffffffffffffffff8111156128b357600080fd5b6128bf89828a01612498565b945050606087013567ffffffffffffffff8111156128dc57600080fd5b6128e889828a01612313565b935050608087013567ffffffffffffffff81111561290557600080fd5b61291189828a01612498565b92505060a087013567ffffffffffffffff81111561292e57600080fd5b61293a89828a01612498565b9150509295509295509295565b60006020828403121561295957600080fd5b6000612967848285016123db565b91505092915050565b600080600080600060a0868803121561298857600080fd5b600086013567ffffffffffffffff8111156129a257600080fd5b6129ae88828901612498565b95505060206129bf888289016121f2565b945050604086013567ffffffffffffffff8111156129dc57600080fd5b6129e888828901612313565b935050606086013567ffffffffffffffff811115612a0557600080fd5b612a1188828901612498565b925050608086013567ffffffffffffffff811115612a2e57600080fd5b612a3a88828901612498565b9150509295509295909350565b600060208284031215612a5957600080fd5b600082015167ffffffffffffffff811115612a7357600080fd5b612a7f848285016124ec565b91505092915050565b600080600080600060a08688031215612aa057600080fd5b6000612aae88828901612627565b9550506020612abf88828901612627565b9450506040612ad088828901612207565b9350506060612ae188828901612207565b9250506080612af2888289016123c6565b9150509295509295909350565b6000612b0b8383612d3a565b905092915050565b612b1c8161376c565b82525050565b612b2b816136db565b82525050565b612b3a816136db565b82525050565b612b51612b4c826136db565b613862565b82525050565b6000612b6282613651565b612b6c818561369d565b935083602082028501612b7e85613636565b8060005b85811015612bba5784840389528151612b9b8582612aff565b9450612ba68361367f565b925060208a01995050600181019050612b82565b50829750879550505050505092915050565b6000612bd782613646565b612be1818561368c565b935083602082028501612bf385613626565b8060005b85811015612c2f5784840389528151612c108582612aff565b9450612c1b83613672565b925060208a01995050600181019050612bf7565b50829750879550505050505092915050565b612c4a816136ed565b82525050565b612c59816136ed565b82525050565b612c68816136f9565b82525050565b612c7f612c7a826136f9565b613874565b82525050565b612c8e81613725565b82525050565b612c9d8161377e565b82525050565b612cac816137a2565b82525050565b612cbb816137c6565b82525050565b612cca816137ea565b82525050565b6000612cdb82613667565b612ce581856136bf565b9350612cf581856020860161382f565b612cfe81613890565b840191505092915050565b6000612d1482613667565b612d1e81856136d0565b9350612d2e81856020860161382f565b80840191505092915050565b6000612d458261365c565b612d4f81856136ae565b9350612d5f81856020860161382f565b612d6881613890565b840191505092915050565b6000612d806009836136bf565b91507f6f6e6c7941646d696e00000000000000000000000000000000000000000000006000830152602082019050919050565b6000612dc0601d836136bf565b91507f636f6e747261637420616464726573732063616e6e6f7420626520302e0000006000830152602082019050919050565b6000612e006019836136bf565b91507f596f752063616e206f6e6c792063616c6c206974206f6e6365000000000000006000830152602082019050919050565b6000612e406016836136bf565b91507f7265736f7572636520637265617465206661696c6564000000000000000000006000830152602082019050919050565b6000612e80601d836136bf565b91507f6f7264657220696e7365727420696e746f20696e666f20206572726f720000006000830152602082019050919050565b6000612ec0600f836136bf565b91507f61646472657373206973206e756c6c00000000000000000000000000000000006000830152602082019050919050565b6000612f00600a836136bf565b91507f6f6e6c79206f776e6572000000000000000000000000000000000000000000006000830152602082019050919050565b6000612f406000836136bf565b9150600082019050919050565b6000612f5a6010836136bf565b91507f6e65774f776e6572206973206e756c6c000000000000000000000000000000006000830152602082019050919050565b600061010083016000830151612fa66000860182613052565b506020830151612fb96020860182612b22565b506040830151612fcc6040860182612c41565b5060608301518482036060860152612fe48282612d3a565b9150506080830151612ff96080860182613052565b5060a083015184820360a08601526130118282612bcc565b91505060c083015184820360c086015261302b8282612d3a565b91505060e083015184820360e08601526130458282612d3a565b9150508091505092915050565b61305b81613762565b82525050565b61306a81613762565b82525050565b600061307c8285612b40565b60148201915061308c8284612c6e565b6010820191508190509392505050565b60006130a88285612d09565b91506130b48284612b40565b6014820191508190509392505050565b60006020820190506130d96000830184612b31565b92915050565b60006020820190506130f46000830184612c50565b92915050565b600060408201905061310f6000830185612c50565b81810360208301526131218184612cd0565b90509392505050565b600060208201905061313f6000830184612c5f565b92915050565b600060408201905061315a6000830185612c5f565b6131676020830184612b31565b9392505050565b60006060820190506131836000830186612c5f565b6131906020830185612b31565b61319d6040830184612c50565b949350505050565b600060c0820190506131ba6000830189612c5f565b81810360208301526131cc8188612cd0565b90506131db6040830187612b31565b81810360608301526131ed8186612b57565b905081810360808301526132018185612cd0565b905081810360a08301526132158184612cd0565b9050979650505050505050565b60006040820190506132376000830185612c5f565b6132446020830184613061565b9392505050565b60006020820190506132606000830184612c85565b92915050565b600060a08201905061327b6000830188612c85565b6132886020830187612b31565b6132956040830186612c5f565b6132a26060830185612b31565b6132af6080830184613061565b9695505050505050565b60006060820190506132ce6000830186612c85565b6132db6020830185612c5f565b6132e86040830184612b31565b949350505050565b60006020820190506133056000830184612c94565b92915050565b60006020820190506133206000830184612ca3565b92915050565b600060208201905061333b6000830184612cb2565b92915050565b60006020820190506133566000830184612cc1565b92915050565b6000606082019050818103600083015261337581612d73565b90506133846020830185612b31565b6133916040830184612b13565b9392505050565b600060208201905081810360008301526133b181612db3565b9050919050565b600060208201905081810360008301526133d181612df3565b9050919050565b600060208201905081810360008301526133f181612e33565b9050919050565b6000602082019050818103600083015261341181612e73565b9050919050565b6000602082019050818103600083015261343181612eb3565b9050919050565b6000606082019050818103600083015261345181612ef3565b90506134606020830185612b31565b61346d6040830184612b13565b9392505050565b6000602082019050818103600083015261348d81612f33565b9050919050565b600060208201905081810360008301526134ad81612f4d565b9050919050565b600060208201905081810360008301526134ce8184612f8d565b905092915050565b600060a0820190506134eb6000830188613061565b6134f86020830187613061565b6135056040830186612b31565b6135126060830185612b31565b61351f6080830184612c5f565b9695505050505050565b6000604051905081810181811067ffffffffffffffff8211171561354c57600080fd5b8060405250919050565b600067ffffffffffffffff82111561356d57600080fd5b602082029050602081019050919050565b600067ffffffffffffffff82111561359557600080fd5b602082029050602081019050919050565b600067ffffffffffffffff8211156135bd57600080fd5b602082029050602081019050919050565b600067ffffffffffffffff8211156135e557600080fd5b601f19601f8301169050602081019050919050565b600067ffffffffffffffff82111561361157600080fd5b601f19601f8301169050602081019050919050565b6000819050602082019050919050565b6000819050602082019050919050565b600081519050919050565b600081519050919050565b600081519050919050565b600081519050919050565b6000602082019050919050565b6000602082019050919050565b600082825260208201905092915050565b600082825260208201905092915050565b600082825260208201905092915050565b600082825260208201905092915050565b600081905092915050565b60006136e682613742565b9050919050565b60008115159050919050565b60007fffffffffffffffffffffffffffffffff0000000000000000000000000000000082169050919050565b6000819050919050565b600081905061373d826138ae565b919050565b600073ffffffffffffffffffffffffffffffffffffffff82169050919050565b6000819050919050565b6000613777826137fc565b9050919050565b600061378982613790565b9050919050565b600061379b82613742565b9050919050565b60006137ad826137b4565b9050919050565b60006137bf82613742565b9050919050565b60006137d1826137d8565b9050919050565b60006137e382613742565b9050919050565b60006137f58261372f565b9050919050565b60006138078261380e565b9050919050565b600061381982613742565b9050919050565b82818337600083830152505050565b60005b8381101561384d578082015181840152602081019050613832565b8381111561385c576000848401525b50505050565b600061386d8261387e565b9050919050565b6000819050919050565b6000613889826138a1565b9050919050565b6000601f19601f8301169050919050565b60008160601b9050919050565b601e81106138b857fe5b50565b6138c4816136db565b81146138cf57600080fd5b50565b6138db816136ed565b81146138e657600080fd5b50565b6138f2816136f9565b81146138fd57600080fd5b50565b61390981613725565b811461391457600080fd5b50565b61392081613762565b811461392b57600080fd5b5056fea2646970667358221220c65f3c7a5ae6caf95202624630a5906ac04a08546a713f7e56cbcac98b7ca06464736f6c63430006030033",
  "source": "pragma solidity >=0.5.12 <0.7.0;\r\npragma experimental ABIEncoderV2;\r\n\r\nimport \"./WhiteMange.sol\";\r\nimport \"./SafeMath.sol\";\r\n\r\nimport \"./ResourceDB.sol\";\r\nimport \"./OrderDB.sol\";\r\nimport \"./InfoDB.sol\";\r\n\r\n//TODO: TO modify ERC20 to GAS;\r\n\r\n/*\r\n    \r\n    1. \r\n    2. 00\r\n    3. \r\n    4. \r\n    5. \r\n*/\r\n\r\n/**\r\n * @title \r\n * @dev \r\n * @notice \r\n */\r\ncontract CenterControl is WhiteMange {\r\n    using SafeMath for uint256;\r\n    //Payment public pay_;\r\n\r\n    ResourceDB public resDb_;\r\n    OrderDB public orderDb_;\r\n    InfoDB public infoDb_;\r\n\r\n    /**\r\n     * @dev constructo\r\n     */\r\n    constructor() public {\r\n    //    owner = msg.sender;\r\n    //    admin = msg.sender;\r\n        emit  LogAddress(\"construcor\",admin, owner,msg.sender);\r\n    }\r\n\r\n    /**\r\n     * @dev Initialization function,related contract of the project\r\n     * @notice Can only be called once by the owner.\r\n     * @param _resource address : ClaimDB's contract address\r\n     * @param _order address : OrderDB's contract address\r\n     * @param _info  address : InfoDB's contract address\r\n     * @return       bool    : The successful call returns true.\r\n     */\r\n    function initialize(address _resource, address _order, address _info)\r\n        public\r\n        onlyAdmin\r\n        returns (bool)\r\n    {\r\n        require(address(resDb_) == address(0), \"You can only call it once\");\r\n        require(\r\n            _resource != address(0) &&\r\n                _order != address(0) &&\r\n                _info != address(0),\r\n            \"contract address cannot be 0.\"\r\n        );\r\n\r\n        resDb_ = ResourceDB(_resource);\r\n        orderDb_ = OrderDB(_order);\r\n        infoDb_ = InfoDB(_info);\r\n\r\n        return true;\r\n    }\r\n\r\n    // TODO\r\n    // \r\n    //function  () public payable  {\r\n    // \r\n    //}\r\n\r\n    /**\r\n     * @dev  \r\n     * @param _ipfs    string  : IPFS Hash\r\n     * @param _author  address : \r\n     * @param _thubanail :\r\n     * @param _cover :\r\n     * @param _title :\r\n     * @return         bool    : true\r\n     */\r\n    function createResource(\r\n        string memory _ipfs,\r\n        address _author,\r\n        string[] memory _thubanail,\r\n        string memory _cover,\r\n        string memory _title\r\n    ) public returns (bool) {\r\n        if (whitelist_[msg.sender] != true) {\r\n            emit LogError(RScorr.Insufficient);\r\n            return false;\r\n        }\r\n\r\n        // if (_storage == false) {\r\n        //     emit LogSimpleClaim(_author, _fs);\r\n        //     return false;\r\n        // }\r\n\r\n        bytes16 _resId = bytes16(keccak256(abi.encodePacked(_ipfs, _author)));\r\n        if (resDb_.isExist(_resId)) {\r\n            emit LogError(RScorr.ObjExist);\r\n            return false;\r\n        } /* Check if the resource exists */\r\n\r\n        require(\r\n            resDb_.insertResource(\r\n                _resId,\r\n                _ipfs,\r\n                _author,\r\n                _thubanail,\r\n                _cover,\r\n                _title\r\n            ),\r\n            \"resource create failed\"\r\n        );\r\n\r\n        require(infoDb_.insertResource(_resId, _author), \"\");\r\n\r\n        return true;\r\n\r\n    }\r\n\r\n    /**\r\n     * @dev  \r\n     * @param _author address : \r\n     * @param _resId  bytes16 : ID\r\n     * @param _value  uint256  : \r\n     * @param _payer  address : \r\n     */\r\n    function createOrder(\r\n        address _author,\r\n        bytes16 _resId,\r\n        uint256 _value,\r\n        address _payer\r\n    ) public returns (bool succ, string memory info) {\r\n        if (whitelist_[msg.sender] != true) {\r\n            emit LogError(RScorr.Insufficient);\r\n            return (false, \"not in whitelist\");\r\n        } // Check the caller's whitelist permission.\r\n\r\n        if (!resDb_.getResourceWaive(_resId)) {\r\n            emit LogError(RScorr.InvalidObj);\r\n            return (false, \"resource have  shelves\");\r\n        } //\r\n\r\n        // id\r\n        bytes32 _orderId = bytes32(keccak256(abi.encodePacked(_payer, _resId)));\r\n        resDb_.addResourceGratuityNum(_resId, _value);\r\n\r\n        // \r\n        if (orderDb_.insert(_orderId, _author, _resId, _payer, _value)) {\r\n            require(\r\n                infoDb_.insertOrder(_orderId, _resId, _payer),\r\n                \"order insert into info  error\"\r\n            );\r\n            return (true, \"\");\r\n        } else {\r\n            return (false, \"FAILE\");\r\n        }\r\n    }\r\n\r\n    // /*\r\n    //  * @dev  \r\n    //  * @param _author address : \r\n    //  * @param _claimId  bytes16 : ID\r\n    //  * @param _payer    address : \r\n    //  * @return          bool    : true\r\n    // */\r\n    // function isPayed(address _author, bytes16 _resId, address _payer)\r\n    //     public\r\n    //     view\r\n    //     returns (bool)\r\n    // {\r\n    //     bytes32 _orderId = bytes32(keccak256(abi.encodePacked(_payer, _resId)));\r\n    //     return orderDb_.isExist(_orderId);\r\n    // }\r\n\r\n    ///@dev \r\n    function updateResource(\r\n        bytes16 _sid,\r\n        address _author,\r\n        string memory _newipfs,\r\n        string[] memory _thubanail,\r\n        string memory _cover,\r\n        string memory _title\r\n    ) public returns (bool) {\r\n        if (whitelist_[msg.sender] != true) {\r\n            emit LogError(RScorr.Insufficient);\r\n            return false;\r\n        } // \r\n\r\n        return\r\n            resDb_.updateResource(\r\n                _sid,\r\n                _newipfs,\r\n                _author,\r\n                _thubanail,\r\n                _cover,\r\n                _title\r\n            );\r\n    }\r\n\r\n    ///@dev \r\n    function updateResourceWaive(bytes16 _cid, address _author, bool _waive)\r\n        public\r\n        returns (bool)\r\n    {\r\n        if (whitelist_[msg.sender] != true) {\r\n            emit LogError(RScorr.Insufficient);\r\n            return false;\r\n        } // \r\n\r\n        if (resDb_.updateResourceWaive(_cid, _author, _waive)) {\r\n            return true;\r\n        }\r\n        return false;\r\n    }\r\n\r\n    /////////////////////////\r\n    /// Internal\r\n    /////////////////////////\r\n\r\n    ///@dev ResId\r\n    function getResourceDetails(bytes16 _resid)\r\n        public\r\n        view\r\n        returns (ResourceDB.Resource memory)\r\n    // address author,\r\n    // string memory ipfs,\r\n    // uint256 initDate,\r\n    // bool waive,\r\n    // uint256 gratuityNum,\r\n    // string memory _cover,\r\n    // string memory _title,\r\n    // string[] memory _thubanail\r\n    {\r\n        return resDb_.getResourceInfoByID(_resid);\r\n    }\r\n\r\n    ///@dev OrderId\r\n    function getOrderDetails(bytes32 _oid)\r\n        public\r\n        view\r\n        returns (\r\n            uint256 time,\r\n            uint256 value,\r\n            address author,\r\n            address payer,\r\n            bytes16 resId\r\n        )\r\n    {\r\n        return orderDb_.getOrderInfoByID(_oid);\r\n    }\r\n\r\n    function getResourceAutherInfo(bytes16 _sid) public view returns (address) {\r\n        return resDb_.getAuthor(_sid);\r\n    }\r\n\r\n}\r\n",
  "sourcePath": "E:\\contracts\\contracts\\CenterControl.sol",
  "compiler": {
    "name": "solc",
    "version": "0.6.3+commit.8dda9521.Emscripten.clang"
  },
  "schemaVersion": "3.0.23",
  "updatedAt": "2020-03-09T03:33:22.377Z",
  "networkType": "ethereum",
  "devdoc": {
    "details": "",
    "methods": {
      "acceptOwnership()": {
        "details": "Allows the newOwner address to finalize the transfer."
      },
      "constructor": {
        "details": "constructo"
      },
      "createOrder(address,bytes16,uint256,address)": {
        "details": "",
        "params": {
          "_author": "address : ",
          "_payer": "address : ",
          "_resId": "bytes16 : ID",
          "_value": "uint256  : "
        }
      },
      "createResource(string,address,string[],string,string)": {
        "details": "",
        "params": {
          "_author": "address : ",
          "_cover": ":",
          "_ipfs": "string  : IPFS Hash",
          "_thubanail": ":",
          "_title": ":"
        },
        "returns": {
          "_0": "bool    : true"
        }
      },
      "getOrderDetails(bytes32)": {
        "details": "OrderId"
      },
      "getResourceDetails(bytes16)": {
        "details": "ResId"
      },
      "initialize(address,address,address)": {
        "details": "Initialization function,related contract of the project",
        "params": {
          "_info": "address : InfoDB's contract address",
          "_order": "address : OrderDB's contract address",
          "_resource": "address : ClaimDB's contract address"
        },
        "returns": {
          "_0": "bool    : The successful call returns true."
        }
      },
      "mangeWhiteList(address,bool)": {
        "details": "",
        "params": {
          "_allow": "bool     : truefalse",
          "_target": "address  : "
        },
        "returns": {
          "_0": "bool     : true"
        }
      },
      "mulInsertWhite(address[])": {
        "details": "",
        "params": {
          "_addresses": "address[] : "
        },
        "returns": {
          "_0": "bool      : true"
        }
      },
      "renounceOwnership()": {
        "details": "Allows the current owner to relinquish control of the contract."
      },
      "transferAdminship(address)": {
        "details": "Allows the current admin to transfer control of the contract to a newadmin.",
        "params": {
          "_newAdmin": "address : new admin address"
        }
      },
      "transferOwnership(address)": {
        "details": "Allows the current owner to transfer control of the contract to a newOwner.",
        "params": {
          "_newOwner": "The address to transfer ownership to."
        }
      },
      "updateResource(bytes16,address,string,string[],string,string)": {
        "details": ""
      },
      "updateResourceWaive(bytes16,address,bool)": {
        "details": ""
      }
    },
    "title": ""
  },
  "userdoc": {
    "methods": {
      "getResourceDetails(bytes16)": {
        "notice": "////////////////////// Internal //////////////////////"
      },
      "initialize(address,address,address)": {
        "notice": "Can only be called once by the owner."
      },
      "mangeWhiteList(address,bool)": {
        "notice": ""
      },
      "mulInsertWhite(address[])": {
        "notice": ""
      },
      "renounceOwnership()": {
        "notice": "Renouncing to ownership will leave the contract without an owner. It will not be possible to call the functions with the `onlyOwner` modifier anymore."
      }
    },
    "notice": ""
  }
}