{
  "contractName": "DeployUser",
  "abi": [
    {
      "inputs": [
        {
          "internalType": "address",
          "name": "_deploydb",
          "type": "address"
        },
        {
          "internalType": "address",
          "name": "_DeployCenter",
          "type": "address"
        }
      ],
      "stateMutability": "nonpayable",
      "type": "constructor"
    },
    {
      "anonymous": false,
      "inputs": [
        {
          "indexed": false,
          "internalType": "string",
          "name": "info",
          "type": "string"
        },
        {
          "indexed": false,
          "internalType": "address",
          "name": "_resId",
          "type": "address"
        },
        {
          "indexed": true,
          "internalType": "address",
          "name": "_author",
          "type": "address"
        },
        {
          "indexed": false,
          "internalType": "address",
          "name": "who",
          "type": "address"
        }
      ],
      "name": "LogAddress",
      "type": "event"
    },
    {
      "anonymous": false,
      "inputs": [
        {
          "indexed": true,
          "internalType": "address",
          "name": "_old",
          "type": "address"
        },
        {
          "indexed": true,
          "internalType": "address",
          "name": "_new",
          "type": "address"
        }
      ],
      "name": "LogAdminshipTransferred",
      "type": "event"
    },
    {
      "anonymous": false,
      "inputs": [
        {
          "indexed": true,
          "internalType": "address",
          "name": "previousOwner",
          "type": "address"
        }
      ],
      "name": "LogOwnershipRenounced",
      "type": "event"
    },
    {
      "anonymous": false,
      "inputs": [
        {
          "indexed": true,
          "internalType": "address",
          "name": "previousOwner",
          "type": "address"
        },
        {
          "indexed": true,
          "internalType": "address",
          "name": "newOwner",
          "type": "address"
        }
      ],
      "name": "LogOwnershipTransferred",
      "type": "event"
    },
    {
      "inputs": [],
      "name": "DeployCenter_",
      "outputs": [
        {
          "internalType": "contract DeployCenter",
          "name": "",
          "type": "address"
        }
      ],
      "stateMutability": "view",
      "type": "function",
      "constant": true
    },
    {
      "inputs": [],
      "name": "DeployDB_",
      "outputs": [
        {
          "internalType": "contract DeployDB",
          "name": "",
          "type": "address"
        }
      ],
      "stateMutability": "view",
      "type": "function",
      "constant": true
    },
    {
      "inputs": [],
      "name": "OwnerAddr_",
      "outputs": [
        {
          "internalType": "address",
          "name": "",
          "type": "address"
        }
      ],
      "stateMutability": "view",
      "type": "function",
      "constant": true
    },
    {
      "inputs": [],
      "name": "_AdminModule",
      "outputs": [
        {
          "internalType": "address",
          "name": "",
          "type": "address"
        }
      ],
      "stateMutability": "view",
      "type": "function",
      "constant": true
    },
    {
      "inputs": [],
      "name": "acceptOwnership",
      "outputs": [],
      "stateMutability": "nonpayable",
      "type": "function"
    },
    {
      "inputs": [],
      "name": "admin",
      "outputs": [
        {
          "internalType": "address",
          "name": "",
          "type": "address"
        }
      ],
      "stateMutability": "view",
      "type": "function",
      "constant": true
    },
    {
      "inputs": [],
      "name": "initFlag_",
      "outputs": [
        {
          "internalType": "bool",
          "name": "",
          "type": "bool"
        }
      ],
      "stateMutability": "view",
      "type": "function",
      "constant": true
    },
    {
      "inputs": [],
      "name": "newOwner",
      "outputs": [
        {
          "internalType": "address",
          "name": "",
          "type": "address"
        }
      ],
      "stateMutability": "view",
      "type": "function",
      "constant": true
    },
    {
      "inputs": [],
      "name": "owner",
      "outputs": [
        {
          "internalType": "address",
          "name": "",
          "type": "address"
        }
      ],
      "stateMutability": "view",
      "type": "function",
      "constant": true
    },
    {
      "inputs": [],
      "name": "renounceOwnership",
      "outputs": [],
      "stateMutability": "nonpayable",
      "type": "function"
    },
    {
      "inputs": [
        {
          "internalType": "address",
          "name": "_newAdmin",
          "type": "address"
        }
      ],
      "name": "transferAdminship",
      "outputs": [],
      "stateMutability": "nonpayable",
      "type": "function"
    },
    {
      "inputs": [
        {
          "internalType": "address",
          "name": "_newOwner",
          "type": "address"
        }
      ],
      "name": "transferOwnership",
      "outputs": [],
      "stateMutability": "nonpayable",
      "type": "function"
    },
    {
      "inputs": [
        {
          "internalType": "address",
          "name": "resDB_",
          "type": "address"
        },
        {
          "internalType": "address",
          "name": "orderDB_",
          "type": "address"
        },
        {
          "internalType": "address",
          "name": "infoDB_",
          "type": "address"
        },
        {
          "internalType": "address",
          "name": "center",
          "type": "address"
        },
        {
          "internalType": "address",
          "name": "AdminModule_",
          "type": "address"
        },
        {
          "internalType": "address",
          "name": "AuthorModule_",
          "type": "address"
        },
        {
          "internalType": "address",
          "name": "UserModule_",
          "type": "address"
        }
      ],
      "name": "init",
      "outputs": [],
      "stateMutability": "nonpayable",
      "type": "function"
    },
    {
      "inputs": [
        {
          "internalType": "address",
          "name": "_newAdmin",
          "type": "address"
        }
      ],
      "name": "end",
      "outputs": [
        {
          "internalType": "bool",
          "name": "",
          "type": "bool"
        }
      ],
      "stateMutability": "nonpayable",
      "type": "function"
    }
  ],
  "bytecode": "0x60806040526000600660146101000a81548160ff02191690831515021790555034801561002b57600080fd5b50604051611acd380380611acd8339818101604052604081101561004e57600080fd5b81019080805190602001909291908051906020019092919050505073482ba190ce6f932808a745173e733ccb19ae9b5e6000806101000a81548173ffffffffffffffffffffffffffffffffffffffff021916908373ffffffffffffffffffffffffffffffffffffffff16021790555033600260006101000a81548173ffffffffffffffffffffffffffffffffffffffff021916908373ffffffffffffffffffffffffffffffffffffffff160217905550336000806101000a81548173ffffffffffffffffffffffffffffffffffffffff021916908373ffffffffffffffffffffffffffffffffffffffff16021790555033600660006101000a81548173ffffffffffffffffffffffffffffffffffffffff021916908373ffffffffffffffffffffffffffffffffffffffff16021790555081600360006101000a81548173ffffffffffffffffffffffffffffffffffffffff021916908373ffffffffffffffffffffffffffffffffffffffff16021790555080600460006101000a81548173ffffffffffffffffffffffffffffffffffffffff021916908373ffffffffffffffffffffffffffffffffffffffff16021790555050506118bb806102126000396000f3fe608060405234801561001057600080fd5b50600436106100ea5760003560e01c8063b862bd611161008c578063d4ee1d9011610066578063d4ee1d9014610337578063f0d4d59214610381578063f2fde38b14610485578063f851a440146104c9576100ea565b8063b862bd6114610281578063c7d62257146102cb578063d44a23d8146102ed576100ea565b8063715018a6116100c8578063715018a6146101c757806379ba5097146101d15780638c4dd39d146101db5780638da5cb5b14610237576100ea565b806323ba6313146100ef5780635be7cc16146101395780636199c91d1461017d575b600080fd5b6100f7610513565b604051808273ffffffffffffffffffffffffffffffffffffffff1673ffffffffffffffffffffffffffffffffffffffff16815260200191505060405180910390f35b61017b6004803603602081101561014f57600080fd5b81019080803573ffffffffffffffffffffffffffffffffffffffff169060200190929190505050610539565b005b610185610713565b604051808273ffffffffffffffffffffffffffffffffffffffff1673ffffffffffffffffffffffffffffffffffffffff16815260200191505060405180910390f35b6101cf610739565b005b6101d96108a2565b005b61021d600480360360208110156101f157600080fd5b81019080803573ffffffffffffffffffffffffffffffffffffffff169060200190929190505050610aa7565b604051808215151515815260200191505060405180910390f35b61023f610d8f565b604051808273ffffffffffffffffffffffffffffffffffffffff1673ffffffffffffffffffffffffffffffffffffffff16815260200191505060405180910390f35b610289610db4565b604051808273ffffffffffffffffffffffffffffffffffffffff1673ffffffffffffffffffffffffffffffffffffffff16815260200191505060405180910390f35b6102d3610dda565b604051808215151515815260200191505060405180910390f35b6102f5610ded565b604051808273ffffffffffffffffffffffffffffffffffffffff1673ffffffffffffffffffffffffffffffffffffffff16815260200191505060405180910390f35b61033f610e13565b604051808273ffffffffffffffffffffffffffffffffffffffff1673ffffffffffffffffffffffffffffffffffffffff16815260200191505060405180910390f35b610483600480360360e081101561039757600080fd5b81019080803573ffffffffffffffffffffffffffffffffffffffff169060200190929190803573ffffffffffffffffffffffffffffffffffffffff169060200190929190803573ffffffffffffffffffffffffffffffffffffffff169060200190929190803573ffffffffffffffffffffffffffffffffffffffff169060200190929190803573ffffffffffffffffffffffffffffffffffffffff169060200190929190803573ffffffffffffffffffffffffffffffffffffffff169060200190929190803573ffffffffffffffffffffffffffffffffffffffff169060200190929190505050610e39565b005b6104c76004803603602081101561049b57600080fd5b81019080803573ffffffffffffffffffffffffffffffffffffffff169060200190929190505050610f30565b005b6104d16110d9565b604051808273ffffffffffffffffffffffffffffffffffffffff1673ffffffffffffffffffffffffffffffffffffffff16815260200191505060405180910390f35b600560009054906101000a900473ffffffffffffffffffffffffffffffffffffffff1681565b6000809054906101000a900473ffffffffffffffffffffffffffffffffffffffff1673ffffffffffffffffffffffffffffffffffffffff163373ffffffffffffffffffffffffffffffffffffffff1614806105e15750600260009054906101000a900473ffffffffffffffffffffffffffffffffffffffff1673ffffffffffffffffffffffffffffffffffffffff163373ffffffffffffffffffffffffffffffffffffffff16145b610653576040517f08c379a000000000000000000000000000000000000000000000000000000000815260040180806020018281038252600b8152602001807f6e6f2069732061646d696e00000000000000000000000000000000000000000081525060200191505060405180910390fd5b8073ffffffffffffffffffffffffffffffffffffffff16600260009054906101000a900473ffffffffffffffffffffffffffffffffffffffff1673ffffffffffffffffffffffffffffffffffffffff167ff73aa4459d935dbacd9313fffe485016147551d99ef401461704cd39e6e9028760405160405180910390a380600260006101000a81548173ffffffffffffffffffffffffffffffffffffffff021916908373ffffffffffffffffffffffffffffffffffffffff16021790555050565b600660009054906101000a900473ffffffffffffffffffffffffffffffffffffffff1681565b6000809054906101000a900473ffffffffffffffffffffffffffffffffffffffff1673ffffffffffffffffffffffffffffffffffffffff163373ffffffffffffffffffffffffffffffffffffffff16146107fb576040517f08c379a000000000000000000000000000000000000000000000000000000000815260040180806020018281038252600b8152602001807f6e6f206973204f776e657200000000000000000000000000000000000000000081525060200191505060405180910390fd5b6000809054906101000a900473ffffffffffffffffffffffffffffffffffffffff1673ffffffffffffffffffffffffffffffffffffffff167f2dde1bc8b58ef192e7df3e7a354521d958331021e450d544346b936936916ef460405160405180910390a260008060006101000a81548173ffffffffffffffffffffffffffffffffffffffff021916908373ffffffffffffffffffffffffffffffffffffffff160217905550565b6000809054906101000a900473ffffffffffffffffffffffffffffffffffffffff1673ffffffffffffffffffffffffffffffffffffffff163373ffffffffffffffffffffffffffffffffffffffff1614610964576040517f08c379a000000000000000000000000000000000000000000000000000000000815260040180806020018281038252600d8152602001807f6e6f7420746865206f776e65720000000000000000000000000000000000000081525060200191505060405180910390fd5b600160009054906101000a900473ffffffffffffffffffffffffffffffffffffffff1673ffffffffffffffffffffffffffffffffffffffff166000809054906101000a900473ffffffffffffffffffffffffffffffffffffffff1673ffffffffffffffffffffffffffffffffffffffff167fdb6d05f3295cede580affa301a1eb5297528f3b3f6a56b075887ce6f61c45f2160405160405180910390a3600160009054906101000a900473ffffffffffffffffffffffffffffffffffffffff166000806101000a81548173ffffffffffffffffffffffffffffffffffffffff021916908373ffffffffffffffffffffffffffffffffffffffff1602179055506000600160006101000a81548173ffffffffffffffffffffffffffffffffffffffff021916908373ffffffffffffffffffffffffffffffffffffffff160217905550565b60008060009054906101000a900473ffffffffffffffffffffffffffffffffffffffff1673ffffffffffffffffffffffffffffffffffffffff163373ffffffffffffffffffffffffffffffffffffffff161480610b515750600260009054906101000a900473ffffffffffffffffffffffffffffffffffffffff1673ffffffffffffffffffffffffffffffffffffffff163373ffffffffffffffffffffffffffffffffffffffff16145b610bc3576040517f08c379a000000000000000000000000000000000000000000000000000000000815260040180806020018281038252600b8152602001807f6e6f2069732061646d696e00000000000000000000000000000000000000000081525060200191505060405180910390fd5b600360009054906101000a900473ffffffffffffffffffffffffffffffffffffffff1673ffffffffffffffffffffffffffffffffffffffff16638c4dd39d836040518263ffffffff1660e01b8152600401808273ffffffffffffffffffffffffffffffffffffffff1673ffffffffffffffffffffffffffffffffffffffff168152602001915050602060405180830381600087803b158015610c6457600080fd5b505af1158015610c78573d6000803e3d6000fd5b505050506040513d6020811015610c8e57600080fd5b810190808051906020019092919050505050600460009054906101000a900473ffffffffffffffffffffffffffffffffffffffff1673ffffffffffffffffffffffffffffffffffffffff16638c4dd39d836040518263ffffffff1660e01b8152600401808273ffffffffffffffffffffffffffffffffffffffff1673ffffffffffffffffffffffffffffffffffffffff168152602001915050602060405180830381600087803b158015610d4157600080fd5b505af1158015610d55573d6000803e3d6000fd5b505050506040513d6020811015610d6b57600080fd5b810190808051906020019092919050505050610d86826110ff565b60019050919050565b6000809054906101000a900473ffffffffffffffffffffffffffffffffffffffff1681565b600360009054906101000a900473ffffffffffffffffffffffffffffffffffffffff1681565b600660149054906101000a900460ff1681565b600460009054906101000a900473ffffffffffffffffffffffffffffffffffffffff1681565b600160009054906101000a900473ffffffffffffffffffffffffffffffffffffffff1681565b600660149054906101000a900460ff1615610ebc576040517f08c379a000000000000000000000000000000000000000000000000000000000815260040180806020018281038252600d8152602001807f696e6974466c6167206e756c6c0000000000000000000000000000000000000081525060200191505060405180910390fd5b6001600660146101000a81548160ff02191690831515021790555082600560006101000a81548173ffffffffffffffffffffffffffffffffffffffff021916908373ffffffffffffffffffffffffffffffffffffffff160217905550610f27878787878787876111bb565b50505050505050565b6000809054906101000a900473ffffffffffffffffffffffffffffffffffffffff1673ffffffffffffffffffffffffffffffffffffffff163373ffffffffffffffffffffffffffffffffffffffff1614610ff2576040517f08c379a000000000000000000000000000000000000000000000000000000000815260040180806020018281038252600b8152602001807f6e6f206973204f776e657200000000000000000000000000000000000000000081525060200191505060405180910390fd5b600073ffffffffffffffffffffffffffffffffffffffff168173ffffffffffffffffffffffffffffffffffffffff161415611095576040517f08c379a00000000000000000000000000000000000000000000000000000000081526004018080602001828103825260108152602001807f6e65774f776e6572206973206e756c6c0000000000000000000000000000000081525060200191505060405180910390fd5b80600160006101000a81548173ffffffffffffffffffffffffffffffffffffffff021916908373ffffffffffffffffffffffffffffffffffffffff16021790555050565b600260009054906101000a900473ffffffffffffffffffffffffffffffffffffffff1681565b600560009054906101000a900473ffffffffffffffffffffffffffffffffffffffff1673ffffffffffffffffffffffffffffffffffffffff16635be7cc16826040518263ffffffff1660e01b8152600401808273ffffffffffffffffffffffffffffffffffffffff1673ffffffffffffffffffffffffffffffffffffffff168152602001915050600060405180830381600087803b1580156111a057600080fd5b505af11580156111b4573d6000803e3d6000fd5b5050505050565b600460009054906101000a900473ffffffffffffffffffffffffffffffffffffffff1673ffffffffffffffffffffffffffffffffffffffff166347f3b0328888886040518463ffffffff1660e01b8152600401808473ffffffffffffffffffffffffffffffffffffffff1673ffffffffffffffffffffffffffffffffffffffff1681526020018373ffffffffffffffffffffffffffffffffffffffff1673ffffffffffffffffffffffffffffffffffffffff1681526020018273ffffffffffffffffffffffffffffffffffffffff1673ffffffffffffffffffffffffffffffffffffffff1681526020019350505050602060405180830381600087803b1580156112c457600080fd5b505af11580156112d8573d6000803e3d6000fd5b505050506040513d60208110156112ee57600080fd5b810190808051906020019092919050505050600360009054906101000a900473ffffffffffffffffffffffffffffffffffffffff1673ffffffffffffffffffffffffffffffffffffffff1663ff17713e8560016040518363ffffffff1660e01b8152600401808373ffffffffffffffffffffffffffffffffffffffff1673ffffffffffffffffffffffffffffffffffffffff1681526020018215151515815260200192505050602060405180830381600087803b1580156113ae57600080fd5b505af11580156113c2573d6000803e3d6000fd5b505050506040513d60208110156113d857600080fd5b810190808051906020019092919050505050600360009054906101000a900473ffffffffffffffffffffffffffffffffffffffff1673ffffffffffffffffffffffffffffffffffffffff1663ff17713e8460016040518363ffffffff1660e01b8152600401808373ffffffffffffffffffffffffffffffffffffffff1673ffffffffffffffffffffffffffffffffffffffff1681526020018215151515815260200192505050602060405180830381600087803b15801561149857600080fd5b505af11580156114ac573d6000803e3d6000fd5b505050506040513d60208110156114c257600080fd5b810190808051906020019092919050505050600360009054906101000a900473ffffffffffffffffffffffffffffffffffffffff1673ffffffffffffffffffffffffffffffffffffffff1663e45970858560016040518363ffffffff1660e01b8152600401808373ffffffffffffffffffffffffffffffffffffffff1673ffffffffffffffffffffffffffffffffffffffff1681526020018215151515815260200192505050602060405180830381600087803b15801561158257600080fd5b505af1158015611596573d6000803e3d6000fd5b505050506040513d60208110156115ac57600080fd5b810190808051906020019092919050505050600360009054906101000a900473ffffffffffffffffffffffffffffffffffffffff1673ffffffffffffffffffffffffffffffffffffffff1663b42910e58560016040518363ffffffff1660e01b8152600401808373ffffffffffffffffffffffffffffffffffffffff1673ffffffffffffffffffffffffffffffffffffffff1681526020018215151515815260200192505050602060405180830381600087803b15801561166c57600080fd5b505af1158015611680573d6000803e3d6000fd5b505050506040513d602081101561169657600080fd5b810190808051906020019092919050505050600460009054906101000a900473ffffffffffffffffffffffffffffffffffffffff1673ffffffffffffffffffffffffffffffffffffffff16631d021f0b8360016040518363ffffffff1660e01b8152600401808373ffffffffffffffffffffffffffffffffffffffff1673ffffffffffffffffffffffffffffffffffffffff1681526020018215151515815260200192505050602060405180830381600087803b15801561175657600080fd5b505af115801561176a573d6000803e3d6000fd5b505050506040513d602081101561178057600080fd5b810190808051906020019092919050505050600460009054906101000a900473ffffffffffffffffffffffffffffffffffffffff1673ffffffffffffffffffffffffffffffffffffffff16631d021f0b8260016040518363ffffffff1660e01b8152600401808373ffffffffffffffffffffffffffffffffffffffff1673ffffffffffffffffffffffffffffffffffffffff1681526020018215151515815260200192505050602060405180830381600087803b15801561184057600080fd5b505af1158015611854573d6000803e3d6000fd5b505050506040513d602081101561186a57600080fd5b8101908080519060200190929190505050505050505050505056fea264697066735822122095890eb32013986accc22817b2e4b6a7dd67abbb0645eeff81bd9dee87ba1f7964736f6c63430006030033",
  "source": "pragma solidity >=0.5.12 <0.7.0;\r\n\r\nimport \"./ResourceDB.sol\";\r\nimport \"./OrderDB.sol\";\r\nimport \"./InfoDB.sol\";\r\n\r\nimport \"./CenterControl.sol\";\r\nimport \"./AuthorModule.sol\";\r\nimport \"./UserModule.sol\";\r\nimport \"./AdminModule.sol\";\r\n\r\n// import \"./MulTransfer.sol\";\r\n\r\ncontract DeployDB is OwnPlus {\r\n    address public ResDB_;\r\n    address public OrderDB_;\r\n    address public InfoDB_;\r\n\r\n    address public OwnerAddr_;\r\n\r\n    constructor(address _resDB, address _OrderDB, address _InfoDB) public {\r\n        OwnerAddr_ = msg.sender;\r\n        ResDB_ = _resDB;\r\n        OrderDB_ = _OrderDB;\r\n        InfoDB_ = _InfoDB;\r\n        admin = msg.sender;\r\n        owner = msg.sender;\r\n         emit  LogAddress(\"construcor\",admin, owner,msg.sender);\r\n        // _deployDB();\r\n    }\r\n\r\n    // function _deployDB() internal {\r\n    //     ResDB_ = address(new ResourceDB(OwnerAddr_));\r\n    //     OrderDB_ = address(new OrderDB(OwnerAddr_));\r\n    //     InfoDB_ = address(new InfoDB(OwnerAddr_));\r\n    // }\r\n\r\n    // bool public initFlag_ = false;\r\n    // function init() public {\r\n    //     require(!initFlag_,  initFlag_ ? \"true\" : \"false\");\r\n    //     initFlag_ = true;\r\n    // }\r\n\r\n    function resourceWhite(address _target, bool _allow)\r\n        public\r\n        onlyAdmin\r\n        returns (bool)\r\n    {\r\n        require(\r\n            ResourceDB(ResDB_).mangeWhiteList(_target, _allow),\r\n            \"resourceWhite\"\r\n        );\r\n        return true;\r\n    }\r\n\r\n    function orderWhite(address _target, bool _allow)\r\n        public\r\n        onlyAdmin\r\n        returns (bool)\r\n    {\r\n        require(\r\n            OrderDB(OrderDB_).mangeWhiteList(_target, _allow),\r\n            \"orderWhite\"\r\n        );\r\n        return true;\r\n    }\r\n\r\n    function infoWhite(address _target, bool _allow)\r\n        public\r\n        onlyAdmin\r\n        returns (bool)\r\n    {\r\n        require(InfoDB(InfoDB_).mangeWhiteList(_target, _allow), \"infoWhite\");\r\n        return true;\r\n    }\r\n\r\n    function resWhite(address _target, bool _allow)\r\n        public\r\n        onlyAdmin\r\n        returns (bool)\r\n    {\r\n        require(ResourceDB(ResDB_).mangeWhiteList(_target, _allow), \"resWhite\");\r\n        return true;\r\n    }\r\n\r\n    function end(address _newAdmin) public onlyAdmin returns (bool) {\r\n        ResourceDB(ResDB_).transferAdminship(_newAdmin);\r\n        OrderDB(OrderDB_).transferAdminship(_newAdmin);\r\n        InfoDB(InfoDB_).transferAdminship(_newAdmin);\r\n        return true;\r\n    }\r\n}\r\n\r\ncontract DeployCenter is OwnPlus {\r\n    address public CenterControl_;\r\n    address public OwnerAddr_;\r\n\r\n    constructor(address _center) public {\r\n        OwnerAddr_ = msg.sender;\r\n        CenterControl_ = _center;\r\n    }\r\n\r\n    // bool public initFlag_ = false;\r\n    // function init() public {\r\n    //     require(!initFlag_, initFlag_ ? \"true\" : \"false\");\r\n    //     admin = msg.sender;\r\n    //     owner = msg.sender;\r\n    //     initFlag_ = true;\r\n    // }\r\n\r\n    function centerWhite(address _target, bool _allow)\r\n        public\r\n        onlyAdmin\r\n        returns (bool)\r\n    {\r\n        require(\r\n            CenterControl(CenterControl_).mangeWhiteList(_target, _allow),\r\n            \"aaa\"\r\n        );\r\n        return true;\r\n    }\r\n\r\n    function centerInit(address _resource, address _order, address _info)\r\n        public\r\n        // onlyAdmin\r\n        returns (bool)\r\n    {\r\n        CenterControl(CenterControl_).initialize(_resource, _order, _info);\r\n        return true;\r\n    }\r\n\r\n    function end(address _newAdmin) public onlyAdmin returns (bool) {\r\n        CenterControl(CenterControl_).transferAdminship(_newAdmin);\r\n        return true;\r\n    }\r\n}\r\n\r\ncontract DeployUser is OwnPlus {\r\n    DeployDB public DeployDB_;\r\n    DeployCenter public DeployCenter_;\r\n\r\n    // address public resDB_;\r\n    // address public orderDB_;\r\n    // address public infoDB_;\r\n\r\n    // address public centerControl_;\r\n\r\n    // address public AuthorModule_;\r\n    address public _AdminModule;\r\n    // address public UserModule_;\r\n\r\n    address public OwnerAddr_;\r\n\r\n    // constructor(address _deploydb ) public {\r\n    //     OwnerAddr_ = msg.sender;\r\n    //     DeployDB_ = new DeployDB();\r\n    //     DeployCenter_ = new DeployCenter();\r\n    //     _getContractAddress();\r\n    //     _deploy();\r\n    // }\r\n\r\n    constructor(address _deploydb, address _DeployCenter) public {\r\n        OwnerAddr_ = msg.sender;\r\n        DeployDB_ = DeployDB(_deploydb);\r\n        DeployCenter_ = DeployCenter(_DeployCenter);\r\n        //    _getContractAddress();\r\n        //    _deploy();\r\n    }\r\n\r\n    bool public initFlag_ = false;\r\n    function init(\r\n        address resDB_,\r\n        address orderDB_,\r\n        address infoDB_,\r\n        address center,\r\n        address AdminModule_,\r\n        address AuthorModule_,\r\n        address UserModule_\r\n    ) public {\r\n        require(!initFlag_, \"initFlag null\");\r\n     //   admin = msg.sender;\r\n      //  owner = msg.sender;\r\n        initFlag_ = true;\r\n        _AdminModule = AdminModule_;\r\n       // DeployDB_.init();\r\n       // DeployCenter_.init();\r\n        _init(\r\n            resDB_,\r\n            orderDB_,\r\n            infoDB_,\r\n            center,\r\n            AdminModule_,\r\n            AuthorModule_,\r\n            UserModule_\r\n        );\r\n    }\r\n\r\n    // function _getContractAddress() internal {\r\n    //     resDB_ = DeployDB_.ResDB_();\r\n    //     orderDB_ = DeployDB_.OrderDB_();\r\n    //     infoDB_ = DeployDB_.InfoDB_();\r\n    //     centerControl_ = DeployCenter_.CenterControl_();\r\n    // }\r\n\r\n    // function _deploy() internal {\r\n    //     AuthorModule_ = address(new AuthorModule(centerControl_, infoDB_));\r\n    //     UserModule_ = address(new UserModule(centerControl_, infoDB_));\r\n    //    AdminModule_ = address(new AdminModule(resDB_, orderDB_, OwnerAddr_));\r\n    // }\r\n\r\n    function _init(\r\n        address resDB_,\r\n        address orderDB_,\r\n        address infoDB_,\r\n        address centerControl_,\r\n        address AdminModule_,\r\n        address AuthorModule_,\r\n        address UserModule_\r\n    ) internal {\r\n        DeployCenter_.centerInit(resDB_, orderDB_, infoDB_);\r\n\r\n        // 1. claim center\r\n        DeployDB_.resWhite(centerControl_, true);\r\n        // 1. claimadmin\r\n        DeployDB_.resWhite(AdminModule_, true);\r\n        // 1. order center\r\n        DeployDB_.orderWhite(centerControl_, true);\r\n        // 1. info center\r\n        DeployDB_.infoWhite(centerControl_, true);\r\n\r\n        // 1. center author\r\n        DeployCenter_.centerWhite(AuthorModule_, true);\r\n        // 1. center user\r\n        DeployCenter_.centerWhite(UserModule_, true);\r\n\r\n    }\r\n\r\n    // function _init(address resDB_, address  orderDB_, address infoDB_, address centeCrontrol_,address AdminModule_ ) internal {\r\n    //     DeployCenter_.centerInit(resDB_, orderDB_, infoDB_);\r\n\r\n    //     // 1. claim center\r\n    //     DeployDB_.resWhite(centerCrontrol_, true);\r\n    //     // 1. claimadmin\r\n    //     DeployDB_.resWhite(AdminModule_, true);\r\n    //     // 1. order center\r\n    //     DeployDB_.orderWhite(centerControl_, true);\r\n    //     // 1. info center\r\n    //     DeployDB_.infoWhite(centerControl_, true);\r\n\r\n    //     // 1. center author\r\n    //     DeployCenter_.centerWhite(AuthorModule_, true);\r\n    //     // 1. center user\r\n    //     DeployCenter_.centerWhite(UserModule_, true);\r\n\r\n    // }\r\n\r\n    function _end(address _newAdmin) internal {\r\n        AdminModule(_AdminModule).transferAdminship(_newAdmin);\r\n    }\r\n\r\n    function end(address _newAdmin) public onlyAdmin returns (bool) {\r\n        DeployDB_.end(_newAdmin);\r\n        DeployCenter_.end(_newAdmin);\r\n        _end(_newAdmin);\r\n        return true;\r\n    }\r\n\r\n}\r\n",
  "sourcePath": "E:\\contracts\\contracts\\DeployHelper.sol",
  "compiler": {
    "name": "solc",
    "version": "0.6.3+commit.8dda9521.Emscripten.clang"
  },
  "schemaVersion": "3.0.23",
  "updatedAt": "2020-03-07T03:13:30.225Z",
  "networkType": "ethereum",
  "devdoc": {
    "methods": {
      "acceptOwnership()": {
        "details": "Allows the newOwner address to finalize the transfer."
      },
      "renounceOwnership()": {
        "details": "Allows the current owner to relinquish control of the contract."
      },
      "transferAdminship(address)": {
        "details": "Allows the current admin to transfer control of the contract to a newadmin.",
        "params": {
          "_newAdmin": "address : new admin address"
        }
      },
      "transferOwnership(address)": {
        "details": "Allows the current owner to transfer control of the contract to a newOwner.",
        "params": {
          "_newOwner": "The address to transfer ownership to."
        }
      }
    }
  },
  "userdoc": {
    "methods": {
      "renounceOwnership()": {
        "notice": "Renouncing to ownership will leave the contract without an owner. It will not be possible to call the functions with the `onlyOwner` modifier anymore."
      }
    }
  }
}