{
  "contractName": "DeployCenter",
  "abi": [
    {
      "inputs": [
        {
          "internalType": "address",
          "name": "_center",
          "type": "address"
        }
      ],
      "stateMutability": "nonpayable",
      "type": "constructor"
    },
    {
      "anonymous": false,
      "inputs": [
        {
          "indexed": false,
          "internalType": "string",
          "name": "info",
          "type": "string"
        },
        {
          "indexed": false,
          "internalType": "address",
          "name": "_resId",
          "type": "address"
        },
        {
          "indexed": true,
          "internalType": "address",
          "name": "_author",
          "type": "address"
        },
        {
          "indexed": false,
          "internalType": "address",
          "name": "who",
          "type": "address"
        }
      ],
      "name": "LogAddress",
      "type": "event"
    },
    {
      "anonymous": false,
      "inputs": [
        {
          "indexed": false,
          "internalType": "string",
          "name": "",
          "type": "string"
        },
        {
          "indexed": false,
          "internalType": "address",
          "name": "",
          "type": "address"
        },
        {
          "indexed": false,
          "internalType": "address",
          "name": "",
          "type": "address"
        }
      ],
      "name": "LogAddress",
      "type": "event"
    },
    {
      "anonymous": false,
      "inputs": [
        {
          "indexed": true,
          "internalType": "address",
          "name": "_old",
          "type": "address"
        },
        {
          "indexed": true,
          "internalType": "address",
          "name": "_new",
          "type": "address"
        }
      ],
      "name": "LogAdminshipTransferred",
      "type": "event"
    },
    {
      "anonymous": false,
      "inputs": [
        {
          "indexed": true,
          "internalType": "address",
          "name": "previousOwner",
          "type": "address"
        }
      ],
      "name": "LogOwnershipRenounced",
      "type": "event"
    },
    {
      "anonymous": false,
      "inputs": [
        {
          "indexed": true,
          "internalType": "address",
          "name": "previousOwner",
          "type": "address"
        },
        {
          "indexed": true,
          "internalType": "address",
          "name": "newOwner",
          "type": "address"
        }
      ],
      "name": "LogOwnershipTransferred",
      "type": "event"
    },
    {
      "inputs": [],
      "name": "CenterControl_",
      "outputs": [
        {
          "internalType": "address",
          "name": "",
          "type": "address"
        }
      ],
      "stateMutability": "view",
      "type": "function",
      "constant": true
    },
    {
      "inputs": [],
      "name": "OwnerAddr_",
      "outputs": [
        {
          "internalType": "address",
          "name": "",
          "type": "address"
        }
      ],
      "stateMutability": "view",
      "type": "function",
      "constant": true
    },
    {
      "inputs": [],
      "name": "acceptOwnership",
      "outputs": [],
      "stateMutability": "nonpayable",
      "type": "function"
    },
    {
      "inputs": [],
      "name": "admin",
      "outputs": [
        {
          "internalType": "address",
          "name": "",
          "type": "address"
        }
      ],
      "stateMutability": "view",
      "type": "function",
      "constant": true
    },
    {
      "inputs": [],
      "name": "newOwner",
      "outputs": [
        {
          "internalType": "address",
          "name": "",
          "type": "address"
        }
      ],
      "stateMutability": "view",
      "type": "function",
      "constant": true
    },
    {
      "inputs": [],
      "name": "owner",
      "outputs": [
        {
          "internalType": "address",
          "name": "",
          "type": "address"
        }
      ],
      "stateMutability": "view",
      "type": "function",
      "constant": true
    },
    {
      "inputs": [],
      "name": "renounceOwnership",
      "outputs": [],
      "stateMutability": "nonpayable",
      "type": "function"
    },
    {
      "inputs": [
        {
          "internalType": "address",
          "name": "_newAdmin",
          "type": "address"
        }
      ],
      "name": "transferAdminship",
      "outputs": [],
      "stateMutability": "nonpayable",
      "type": "function"
    },
    {
      "inputs": [
        {
          "internalType": "address",
          "name": "_newOwner",
          "type": "address"
        }
      ],
      "name": "transferOwnership",
      "outputs": [],
      "stateMutability": "nonpayable",
      "type": "function"
    },
    {
      "inputs": [
        {
          "internalType": "address",
          "name": "_target",
          "type": "address"
        },
        {
          "internalType": "bool",
          "name": "_allow",
          "type": "bool"
        }
      ],
      "name": "centerWhite",
      "outputs": [
        {
          "internalType": "bool",
          "name": "",
          "type": "bool"
        }
      ],
      "stateMutability": "nonpayable",
      "type": "function"
    },
    {
      "inputs": [
        {
          "internalType": "address",
          "name": "_resource",
          "type": "address"
        },
        {
          "internalType": "address",
          "name": "_order",
          "type": "address"
        },
        {
          "internalType": "address",
          "name": "_info",
          "type": "address"
        }
      ],
      "name": "centerInit",
      "outputs": [
        {
          "internalType": "bool",
          "name": "",
          "type": "bool"
        }
      ],
      "stateMutability": "nonpayable",
      "type": "function"
    },
    {
      "inputs": [
        {
          "internalType": "address",
          "name": "_newAdmin",
          "type": "address"
        }
      ],
      "name": "end",
      "outputs": [
        {
          "internalType": "bool",
          "name": "",
          "type": "bool"
        }
      ],
      "stateMutability": "nonpayable",
      "type": "function"
    }
  ],
  "bytecode": "0x608060405234801561001057600080fd5b506040516118243803806118248339818101604052602081101561003357600080fd5b8101908080519060200190929190505050336000806101000a81548173ffffffffffffffffffffffffffffffffffffffff021916908373ffffffffffffffffffffffffffffffffffffffff16021790555033600260006101000a81548173ffffffffffffffffffffffffffffffffffffffff021916908373ffffffffffffffffffffffffffffffffffffffff1602179055506000809054906101000a900473ffffffffffffffffffffffffffffffffffffffff1673ffffffffffffffffffffffffffffffffffffffff167f9e6965ca244a67ad615b5114db3886405a40a12f1190493f8e9201020885af1d600260009054906101000a900473ffffffffffffffffffffffffffffffffffffffff163360405180806020018473ffffffffffffffffffffffffffffffffffffffff1673ffffffffffffffffffffffffffffffffffffffff1681526020018373ffffffffffffffffffffffffffffffffffffffff1673ffffffffffffffffffffffffffffffffffffffff1681526020018281038252600a8152602001807f636f6e73747275636f7200000000000000000000000000000000000000000000815250602001935050505060405180910390a233600460006101000a81548173ffffffffffffffffffffffffffffffffffffffff021916908373ffffffffffffffffffffffffffffffffffffffff16021790555080600360006101000a81548173ffffffffffffffffffffffffffffffffffffffff021916908373ffffffffffffffffffffffffffffffffffffffff160217905550506115a3806102816000396000f3fe608060405234801561001057600080fd5b50600436106100b45760003560e01c806379ba50971161007157806379ba50971461029f5780638c4dd39d146102a95780638da5cb5b14610305578063d4ee1d901461034f578063f2fde38b14610399578063f851a440146103dd576100b4565b80631d021f0b146100b9578063439d028c1461012157806347f3b0321461016b5780635be7cc16146102075780636199c91d1461024b578063715018a614610295575b600080fd5b610107600480360360408110156100cf57600080fd5b81019080803573ffffffffffffffffffffffffffffffffffffffff169060200190929190803515159060200190929190505050610427565b604051808215151515815260200191505060405180910390f35b61012961076a565b604051808273ffffffffffffffffffffffffffffffffffffffff1673ffffffffffffffffffffffffffffffffffffffff16815260200191505060405180910390f35b6101ed6004803603606081101561018157600080fd5b81019080803573ffffffffffffffffffffffffffffffffffffffff169060200190929190803573ffffffffffffffffffffffffffffffffffffffff169060200190929190803573ffffffffffffffffffffffffffffffffffffffff169060200190929190505050610790565b604051808215151515815260200191505060405180910390f35b6102496004803603602081101561021d57600080fd5b81019080803573ffffffffffffffffffffffffffffffffffffffff1690602001909291905050506108e2565b005b610253610b7f565b604051808273ffffffffffffffffffffffffffffffffffffffff1673ffffffffffffffffffffffffffffffffffffffff16815260200191505060405180910390f35b61029d610ba5565b005b6102a7610d98565b005b6102eb600480360360208110156102bf57600080fd5b81019080803573ffffffffffffffffffffffffffffffffffffffff169060200190929190505050611028565b604051808215151515815260200191505060405180910390f35b61030d6112c9565b604051808273ffffffffffffffffffffffffffffffffffffffff1673ffffffffffffffffffffffffffffffffffffffff16815260200191505060405180910390f35b6103576112ee565b604051808273ffffffffffffffffffffffffffffffffffffffff1673ffffffffffffffffffffffffffffffffffffffff16815260200191505060405180910390f35b6103db600480360360208110156103af57600080fd5b81019080803573ffffffffffffffffffffffffffffffffffffffff169060200190929190505050611314565b005b6103e5611547565b604051808273ffffffffffffffffffffffffffffffffffffffff1673ffffffffffffffffffffffffffffffffffffffff16815260200191505060405180910390f35b60008060009054906101000a900473ffffffffffffffffffffffffffffffffffffffff1673ffffffffffffffffffffffffffffffffffffffff163373ffffffffffffffffffffffffffffffffffffffff1614806104d15750600260009054906101000a900473ffffffffffffffffffffffffffffffffffffffff1673ffffffffffffffffffffffffffffffffffffffff163373ffffffffffffffffffffffffffffffffffffffff16145b1561063957600360009054906101000a900473ffffffffffffffffffffffffffffffffffffffff1673ffffffffffffffffffffffffffffffffffffffff1663a8e1fba384846040518363ffffffff1660e01b8152600401808373ffffffffffffffffffffffffffffffffffffffff1673ffffffffffffffffffffffffffffffffffffffff1681526020018215151515815260200192505050602060405180830381600087803b15801561058357600080fd5b505af1158015610597573d6000803e3d6000fd5b505050506040513d60208110156105ad57600080fd5b8101908080519060200190929190505050610630576040517f08c379a00000000000000000000000000000000000000000000000000000000081526004018080602001828103825260038152602001807f616161000000000000000000000000000000000000000000000000000000000081525060200191505060405180910390fd5b60019050610764565b6000809054906101000a900473ffffffffffffffffffffffffffffffffffffffff1673ffffffffffffffffffffffffffffffffffffffff167f9e6965ca244a67ad615b5114db3886405a40a12f1190493f8e9201020885af1d600260009054906101000a900473ffffffffffffffffffffffffffffffffffffffff163360405180806020018473ffffffffffffffffffffffffffffffffffffffff1673ffffffffffffffffffffffffffffffffffffffff1681526020018373ffffffffffffffffffffffffffffffffffffffff1673ffffffffffffffffffffffffffffffffffffffff168152602001828103825260098152602001807f6f6e6c7941646d696e0000000000000000000000000000000000000000000000815250602001935050505060405180910390a25b92915050565b600360009054906101000a900473ffffffffffffffffffffffffffffffffffffffff1681565b6000600360009054906101000a900473ffffffffffffffffffffffffffffffffffffffff1673ffffffffffffffffffffffffffffffffffffffff1663c0c53b8b8585856040518463ffffffff1660e01b8152600401808473ffffffffffffffffffffffffffffffffffffffff1673ffffffffffffffffffffffffffffffffffffffff1681526020018373ffffffffffffffffffffffffffffffffffffffff1673ffffffffffffffffffffffffffffffffffffffff1681526020018273ffffffffffffffffffffffffffffffffffffffff1673ffffffffffffffffffffffffffffffffffffffff1681526020019350505050602060405180830381600087803b15801561089b57600080fd5b505af11580156108af573d6000803e3d6000fd5b505050506040513d60208110156108c557600080fd5b810190808051906020019092919050505050600190509392505050565b6000809054906101000a900473ffffffffffffffffffffffffffffffffffffffff1673ffffffffffffffffffffffffffffffffffffffff163373ffffffffffffffffffffffffffffffffffffffff16148061098a5750600260009054906101000a900473ffffffffffffffffffffffffffffffffffffffff1673ffffffffffffffffffffffffffffffffffffffff163373ffffffffffffffffffffffffffffffffffffffff16145b15610a51578073ffffffffffffffffffffffffffffffffffffffff16600260009054906101000a900473ffffffffffffffffffffffffffffffffffffffff1673ffffffffffffffffffffffffffffffffffffffff167ff73aa4459d935dbacd9313fffe485016147551d99ef401461704cd39e6e9028760405160405180910390a380600260006101000a81548173ffffffffffffffffffffffffffffffffffffffff021916908373ffffffffffffffffffffffffffffffffffffffff160217905550610b7c565b6000809054906101000a900473ffffffffffffffffffffffffffffffffffffffff1673ffffffffffffffffffffffffffffffffffffffff167f9e6965ca244a67ad615b5114db3886405a40a12f1190493f8e9201020885af1d600260009054906101000a900473ffffffffffffffffffffffffffffffffffffffff163360405180806020018473ffffffffffffffffffffffffffffffffffffffff1673ffffffffffffffffffffffffffffffffffffffff1681526020018373ffffffffffffffffffffffffffffffffffffffff1673ffffffffffffffffffffffffffffffffffffffff168152602001828103825260098152602001807f6f6e6c7941646d696e0000000000000000000000000000000000000000000000815250602001935050505060405180910390a25b50565b600460009054906101000a900473ffffffffffffffffffffffffffffffffffffffff1681565b6000809054906101000a900473ffffffffffffffffffffffffffffffffffffffff1673ffffffffffffffffffffffffffffffffffffffff163373ffffffffffffffffffffffffffffffffffffffff161415610ca4576000809054906101000a900473ffffffffffffffffffffffffffffffffffffffff1673ffffffffffffffffffffffffffffffffffffffff167f2dde1bc8b58ef192e7df3e7a354521d958331021e450d544346b936936916ef460405160405180910390a260008060006101000a81548173ffffffffffffffffffffffffffffffffffffffff021916908373ffffffffffffffffffffffffffffffffffffffff160217905550610d96565b7f6b26c3fc447c71078386bc5ad946c760ce605d2bc61b762901400eb9ac003a9a6000809054906101000a900473ffffffffffffffffffffffffffffffffffffffff163360405180806020018473ffffffffffffffffffffffffffffffffffffffff1673ffffffffffffffffffffffffffffffffffffffff1681526020018373ffffffffffffffffffffffffffffffffffffffff1673ffffffffffffffffffffffffffffffffffffffff1681526020018281038252600a8152602001807f6f6e6c79206f776e657200000000000000000000000000000000000000000000815250602001935050505060405180910390a15b565b600160009054906101000a900473ffffffffffffffffffffffffffffffffffffffff1673ffffffffffffffffffffffffffffffffffffffff163373ffffffffffffffffffffffffffffffffffffffff161415610f3457600160009054906101000a900473ffffffffffffffffffffffffffffffffffffffff1673ffffffffffffffffffffffffffffffffffffffff166000809054906101000a900473ffffffffffffffffffffffffffffffffffffffff1673ffffffffffffffffffffffffffffffffffffffff167fdb6d05f3295cede580affa301a1eb5297528f3b3f6a56b075887ce6f61c45f2160405160405180910390a3600160009054906101000a900473ffffffffffffffffffffffffffffffffffffffff166000806101000a81548173ffffffffffffffffffffffffffffffffffffffff021916908373ffffffffffffffffffffffffffffffffffffffff1602179055506000600160006101000a81548173ffffffffffffffffffffffffffffffffffffffff021916908373ffffffffffffffffffffffffffffffffffffffff160217905550611026565b7f6b26c3fc447c71078386bc5ad946c760ce605d2bc61b762901400eb9ac003a9a6000809054906101000a900473ffffffffffffffffffffffffffffffffffffffff163360405180806020018473ffffffffffffffffffffffffffffffffffffffff1673ffffffffffffffffffffffffffffffffffffffff1681526020018373ffffffffffffffffffffffffffffffffffffffff1673ffffffffffffffffffffffffffffffffffffffff1681526020018281038252600a8152602001807f6f6e6c79206f776e657200000000000000000000000000000000000000000000815250602001935050505060405180910390a15b565b60008060009054906101000a900473ffffffffffffffffffffffffffffffffffffffff1673ffffffffffffffffffffffffffffffffffffffff163373ffffffffffffffffffffffffffffffffffffffff1614806110d25750600260009054906101000a900473ffffffffffffffffffffffffffffffffffffffff1673ffffffffffffffffffffffffffffffffffffffff163373ffffffffffffffffffffffffffffffffffffffff16145b1561119957600360009054906101000a900473ffffffffffffffffffffffffffffffffffffffff1673ffffffffffffffffffffffffffffffffffffffff16635be7cc16836040518263ffffffff1660e01b8152600401808273ffffffffffffffffffffffffffffffffffffffff1673ffffffffffffffffffffffffffffffffffffffff168152602001915050600060405180830381600087803b15801561117857600080fd5b505af115801561118c573d6000803e3d6000fd5b50505050600190506112c4565b6000809054906101000a900473ffffffffffffffffffffffffffffffffffffffff1673ffffffffffffffffffffffffffffffffffffffff167f9e6965ca244a67ad615b5114db3886405a40a12f1190493f8e9201020885af1d600260009054906101000a900473ffffffffffffffffffffffffffffffffffffffff163360405180806020018473ffffffffffffffffffffffffffffffffffffffff1673ffffffffffffffffffffffffffffffffffffffff1681526020018373ffffffffffffffffffffffffffffffffffffffff1673ffffffffffffffffffffffffffffffffffffffff168152602001828103825260098152602001807f6f6e6c7941646d696e0000000000000000000000000000000000000000000000815250602001935050505060405180910390a25b919050565b6000809054906101000a900473ffffffffffffffffffffffffffffffffffffffff1681565b600160009054906101000a900473ffffffffffffffffffffffffffffffffffffffff1681565b6000809054906101000a900473ffffffffffffffffffffffffffffffffffffffff1673ffffffffffffffffffffffffffffffffffffffff163373ffffffffffffffffffffffffffffffffffffffff16141561145257600073ffffffffffffffffffffffffffffffffffffffff168173ffffffffffffffffffffffffffffffffffffffff16141561140c576040517f08c379a00000000000000000000000000000000000000000000000000000000081526004018080602001828103825260108152602001807f6e65774f776e6572206973206e756c6c0000000000000000000000000000000081525060200191505060405180910390fd5b80600160006101000a81548173ffffffffffffffffffffffffffffffffffffffff021916908373ffffffffffffffffffffffffffffffffffffffff160217905550611544565b7f6b26c3fc447c71078386bc5ad946c760ce605d2bc61b762901400eb9ac003a9a6000809054906101000a900473ffffffffffffffffffffffffffffffffffffffff163360405180806020018473ffffffffffffffffffffffffffffffffffffffff1673ffffffffffffffffffffffffffffffffffffffff1681526020018373ffffffffffffffffffffffffffffffffffffffff1673ffffffffffffffffffffffffffffffffffffffff1681526020018281038252600a8152602001807f6f6e6c79206f776e657200000000000000000000000000000000000000000000815250602001935050505060405180910390a15b50565b600260009054906101000a900473ffffffffffffffffffffffffffffffffffffffff168156fea2646970667358221220c0ab8e5624c1610d52dc814e42f27b67afeeea5fe45f9cb6ccb3bbbdd5b5847464736f6c63430006030033",
  "source": "pragma solidity >=0.5.12 <0.7.0;\r\n\r\nimport \"./ResourceDB.sol\";\r\nimport \"./OrderDB.sol\";\r\nimport \"./InfoDB.sol\";\r\n\r\nimport \"./CenterControl.sol\";\r\nimport \"./AuthorModule.sol\";\r\nimport \"./UserModule.sol\";\r\nimport \"./AdminModule.sol\";\r\n\r\n// import \"./MulTransfer.sol\";\r\n\r\ncontract DeployDB is OwnPlus {\r\n    address public ResDB_;\r\n    address public OrderDB_;\r\n    address public InfoDB_;\r\n\r\n    address public OwnerAddr_;\r\n\r\n    constructor(address _resDB, address _OrderDB, address _InfoDB) public {\r\n        OwnerAddr_ = msg.sender;\r\n        ResDB_ = _resDB;\r\n        OrderDB_ = _OrderDB;\r\n        InfoDB_ = _InfoDB;\r\n        admin = msg.sender;\r\n        owner = msg.sender;\r\n         emit  LogAddress(\"construcor\",admin, owner,msg.sender);\r\n        // _deployDB();\r\n    }\r\n\r\n    // function _deployDB() internal {\r\n    //     ResDB_ = address(new ResourceDB(OwnerAddr_));\r\n    //     OrderDB_ = address(new OrderDB(OwnerAddr_));\r\n    //     InfoDB_ = address(new InfoDB(OwnerAddr_));\r\n    // }\r\n\r\n    // bool public initFlag_ = false;\r\n    // function init() public {\r\n    //     require(!initFlag_,  initFlag_ ? \"true\" : \"false\");\r\n    //     initFlag_ = true;\r\n    // }\r\n\r\n    function resourceWhite(address _target, bool _allow)\r\n        public\r\n        onlyAdmin\r\n        returns (bool)\r\n    {\r\n        require(\r\n            ResourceDB(ResDB_).mangeWhiteList(_target, _allow),\r\n            \"resourceWhite\"\r\n        );\r\n        return true;\r\n    }\r\n\r\n    function orderWhite(address _target, bool _allow)\r\n        public\r\n        onlyAdmin\r\n        returns (bool)\r\n    {\r\n        require(\r\n            OrderDB(OrderDB_).mangeWhiteList(_target, _allow),\r\n            \"orderWhite\"\r\n        );\r\n        return true;\r\n    }\r\n\r\n    function infoWhite(address _target, bool _allow)\r\n        public\r\n        onlyAdmin\r\n        returns (bool)\r\n    {\r\n        require(InfoDB(InfoDB_).mangeWhiteList(_target, _allow), \"infoWhite\");\r\n        return true;\r\n    }\r\n\r\n    function end(address _newAdmin) public onlyAdmin returns (bool) {\r\n        ResourceDB(ResDB_).transferAdminship(_newAdmin);\r\n        OrderDB(OrderDB_).transferAdminship(_newAdmin);\r\n        InfoDB(InfoDB_).transferAdminship(_newAdmin);\r\n        return true;\r\n    }\r\n}\r\n\r\ncontract DeployCenter is OwnPlus {\r\n    address public CenterControl_;\r\n    address public OwnerAddr_;\r\n\r\n    constructor(address _center) public {\r\n        OwnerAddr_ = msg.sender;\r\n        CenterControl_ = _center;\r\n    }\r\n\r\n    // bool public initFlag_ = false;\r\n    // function init() public {\r\n    //     require(!initFlag_, initFlag_ ? \"true\" : \"false\");\r\n    //     admin = msg.sender;\r\n    //     owner = msg.sender;\r\n    //     initFlag_ = true;\r\n    // }\r\n\r\n    function centerWhite(address _target, bool _allow)\r\n        public\r\n        onlyAdmin\r\n        returns (bool)\r\n    {\r\n        require(\r\n            CenterControl(CenterControl_).mangeWhiteList(_target, _allow),\r\n            \"aaa\"\r\n        );\r\n        return true;\r\n    }\r\n\r\n    function centerInit(address _resource, address _order, address _info)\r\n        public\r\n        // onlyAdmin\r\n        returns (bool)\r\n    {\r\n        CenterControl(CenterControl_).initialize(_resource, _order, _info);\r\n        return true;\r\n    }\r\n\r\n    function end(address _newAdmin) public onlyAdmin returns (bool) {\r\n        CenterControl(CenterControl_).transferAdminship(_newAdmin);\r\n        return true;\r\n    }\r\n}\r\n\r\ncontract DeployUser is OwnPlus {\r\n    DeployDB public DeployDB_;\r\n    DeployCenter public DeployCenter_;\r\n\r\n    // address public resDB_;\r\n    // address public orderDB_;\r\n    // address public infoDB_;\r\n\r\n    // address public centerControl_;\r\n\r\n    // address public AuthorModule_;\r\n    address public _AdminModule;\r\n    // address public UserModule_;\r\n\r\n    address public OwnerAddr_;\r\n\r\n    // constructor(address _deploydb ) public {\r\n    //     OwnerAddr_ = msg.sender;\r\n    //     DeployDB_ = new DeployDB();\r\n    //     DeployCenter_ = new DeployCenter();\r\n    //     _getContractAddress();\r\n    //     _deploy();\r\n    // }\r\n\r\n    constructor(address _deploydb, address _DeployCenter,address AdminModule_) public {\r\n        OwnerAddr_ = msg.sender;\r\n        DeployDB_ = DeployDB(_deploydb);\r\n        DeployCenter_ = DeployCenter(_DeployCenter);\r\n        //    _getContractAddress();\r\n        //    _deploy();\r\n        init(AdminModule_);\r\n    }\r\n\r\n    // bool public initFlag_ = false;\r\n    function init(\r\n        address AdminModule_\r\n    ) public payable onlyAdmin {\r\n        // require(!initFlag_, \"initFlag null\");\r\n     //   admin = msg.sender;\r\n      //  owner = msg.sender;\r\n        // initFlag_ = true;\r\n        _AdminModule = AdminModule_;\r\n       // DeployDB_.init();\r\n       // DeployCenter_.init();\r\n        // _init(\r\n        //     resDB_,\r\n        //     orderDB_,\r\n        //     infoDB_,\r\n        //     center,\r\n        //     AdminModule_,\r\n        //     AuthorModule_,\r\n        //     UserModule_\r\n        // );\r\n    }\r\n\r\n    // function _getContractAddress() internal {\r\n    //     resDB_ = DeployDB_.ResDB_();\r\n    //     orderDB_ = DeployDB_.OrderDB_();\r\n    //     infoDB_ = DeployDB_.InfoDB_();\r\n    //     centerControl_ = DeployCenter_.CenterControl_();\r\n    // }\r\n\r\n    // function _deploy() internal {\r\n    //     AuthorModule_ = address(new AuthorModule(centerControl_, infoDB_));\r\n    //     UserModule_ = address(new UserModule(centerControl_, infoDB_));\r\n    //    AdminModule_ = address(new AdminModule(resDB_, orderDB_, OwnerAddr_));\r\n    // }\r\n\r\n    // function _init(\r\n    //     address resDB_,\r\n    //     address orderDB_,\r\n    //     address infoDB_,\r\n    //     address centerControl_,\r\n    //     address AdminModule_,\r\n    //     address AuthorModule_,\r\n    //     address UserModule_\r\n    // ) internal  {\r\n    //     DeployCenter_.centerInit(resDB_, orderDB_, infoDB_);\r\n    //     // 1. claim的白名单中添加 center\r\n    //     DeployDB_.resourceWhite(centerControl_, true);\r\n    //     // 1. claim的白名单中添加admin\r\n    //     DeployDB_.resourceWhite(AdminModule_, true);\r\n    //     // 1. order的白名单中添加 center\r\n    //     DeployDB_.orderWhite(centerControl_, true);\r\n    //     // 1. info的白名单中添加 center\r\n    //     DeployDB_.infoWhite(centerControl_, true);\r\n\r\n    //     // 1. center的白名单中添加 author\r\n    //     DeployCenter_.centerWhite(AuthorModule_, true);\r\n    //     // 1. center的白名单中添加 user\r\n    //     DeployCenter_.centerWhite(UserModule_, true);\r\n\r\n    // }\r\n\r\n    // function _init(address resDB_, address  orderDB_, address infoDB_, address centeCrontrol_,address AdminModule_ ) internal {\r\n    //     DeployCenter_.centerInit(resDB_, orderDB_, infoDB_);\r\n\r\n    //     // 1. claim的白名单中添加 center\r\n    //     DeployDB_.resWhite(centerCrontrol_, true);\r\n    //     // 1. claim的白名单中添加admin\r\n    //     DeployDB_.resWhite(AdminModule_, true);\r\n    //     // 1. order的白名单中添加 center\r\n    //     DeployDB_.orderWhite(centerControl_, true);\r\n    //     // 1. info的白名单中添加 center\r\n    //     DeployDB_.infoWhite(centerControl_, true);\r\n\r\n    //     // 1. center的白名单中添加 author\r\n    //     DeployCenter_.centerWhite(AuthorModule_, true);\r\n    //     // 1. center的白名单中添加 user\r\n    //     DeployCenter_.centerWhite(UserModule_, true);\r\n\r\n    // }\r\n\r\n    function _end(address _newAdmin) internal {\r\n        AdminModule(_AdminModule).transferAdminship(_newAdmin);\r\n    }\r\n\r\n    function end(address _newAdmin) public onlyAdmin returns (bool) {\r\n        DeployDB_.end(_newAdmin);\r\n        DeployCenter_.end(_newAdmin);\r\n        _end(_newAdmin);\r\n        return true;\r\n    }\r\n\r\n}\r\n",
  "sourcePath": "E:\\contracts\\contracts\\DeployHelper.sol",
  "compiler": {
    "name": "solc",
    "version": "0.6.3+commit.8dda9521.Emscripten.clang"
  },
  "schemaVersion": "3.0.23",
  "updatedAt": "2020-04-21T09:45:19.063Z",
  "networkType": "ethereum",
  "devdoc": {
    "methods": {
      "acceptOwnership()": {
        "details": "Allows the newOwner address to finalize the transfer."
      },
      "renounceOwnership()": {
        "details": "Allows the current owner to relinquish control of the contract."
      },
      "transferAdminship(address)": {
        "details": "Allows the current admin to transfer control of the contract to a newadmin.",
        "params": {
          "_newAdmin": "address : new admin address"
        }
      },
      "transferOwnership(address)": {
        "details": "Allows the current owner to transfer control of the contract to a newOwner.",
        "params": {
          "_newOwner": "The address to transfer ownership to."
        }
      }
    }
  },
  "userdoc": {
    "methods": {
      "renounceOwnership()": {
        "notice": "Renouncing to ownership will leave the contract without an owner. It will not be possible to call the functions with the `onlyOwner` modifier anymore."
      }
    }
  }
}