{
  "contractName": "DeployUser",
  "abi": [
    {
      "inputs": [
        {
          "internalType": "address",
          "name": "_deploydb",
          "type": "address"
        },
        {
          "internalType": "address",
          "name": "_DeployCenter",
          "type": "address"
        },
        {
          "internalType": "address",
          "name": "AdminModule_",
          "type": "address"
        }
      ],
      "stateMutability": "nonpayable",
      "type": "constructor"
    },
    {
      "anonymous": false,
      "inputs": [
        {
          "indexed": false,
          "internalType": "string",
          "name": "info",
          "type": "string"
        },
        {
          "indexed": false,
          "internalType": "address",
          "name": "_resId",
          "type": "address"
        },
        {
          "indexed": true,
          "internalType": "address",
          "name": "_author",
          "type": "address"
        },
        {
          "indexed": false,
          "internalType": "address",
          "name": "who",
          "type": "address"
        }
      ],
      "name": "LogAddress",
      "type": "event"
    },
    {
      "anonymous": false,
      "inputs": [
        {
          "indexed": false,
          "internalType": "string",
          "name": "",
          "type": "string"
        },
        {
          "indexed": false,
          "internalType": "address",
          "name": "",
          "type": "address"
        },
        {
          "indexed": false,
          "internalType": "address",
          "name": "",
          "type": "address"
        }
      ],
      "name": "LogAddress",
      "type": "event"
    },
    {
      "anonymous": false,
      "inputs": [
        {
          "indexed": true,
          "internalType": "address",
          "name": "_old",
          "type": "address"
        },
        {
          "indexed": true,
          "internalType": "address",
          "name": "_new",
          "type": "address"
        }
      ],
      "name": "LogAdminshipTransferred",
      "type": "event"
    },
    {
      "anonymous": false,
      "inputs": [
        {
          "indexed": true,
          "internalType": "address",
          "name": "previousOwner",
          "type": "address"
        }
      ],
      "name": "LogOwnershipRenounced",
      "type": "event"
    },
    {
      "anonymous": false,
      "inputs": [
        {
          "indexed": true,
          "internalType": "address",
          "name": "previousOwner",
          "type": "address"
        },
        {
          "indexed": true,
          "internalType": "address",
          "name": "newOwner",
          "type": "address"
        }
      ],
      "name": "LogOwnershipTransferred",
      "type": "event"
    },
    {
      "inputs": [],
      "name": "DeployCenter_",
      "outputs": [
        {
          "internalType": "contract DeployCenter",
          "name": "",
          "type": "address"
        }
      ],
      "stateMutability": "view",
      "type": "function",
      "constant": true
    },
    {
      "inputs": [],
      "name": "DeployDB_",
      "outputs": [
        {
          "internalType": "contract DeployDB",
          "name": "",
          "type": "address"
        }
      ],
      "stateMutability": "view",
      "type": "function",
      "constant": true
    },
    {
      "inputs": [],
      "name": "OwnerAddr_",
      "outputs": [
        {
          "internalType": "address",
          "name": "",
          "type": "address"
        }
      ],
      "stateMutability": "view",
      "type": "function",
      "constant": true
    },
    {
      "inputs": [],
      "name": "_AdminModule",
      "outputs": [
        {
          "internalType": "address",
          "name": "",
          "type": "address"
        }
      ],
      "stateMutability": "view",
      "type": "function",
      "constant": true
    },
    {
      "inputs": [],
      "name": "acceptOwnership",
      "outputs": [],
      "stateMutability": "nonpayable",
      "type": "function"
    },
    {
      "inputs": [],
      "name": "admin",
      "outputs": [
        {
          "internalType": "address",
          "name": "",
          "type": "address"
        }
      ],
      "stateMutability": "view",
      "type": "function",
      "constant": true
    },
    {
      "inputs": [],
      "name": "newOwner",
      "outputs": [
        {
          "internalType": "address",
          "name": "",
          "type": "address"
        }
      ],
      "stateMutability": "view",
      "type": "function",
      "constant": true
    },
    {
      "inputs": [],
      "name": "owner",
      "outputs": [
        {
          "internalType": "address",
          "name": "",
          "type": "address"
        }
      ],
      "stateMutability": "view",
      "type": "function",
      "constant": true
    },
    {
      "inputs": [],
      "name": "renounceOwnership",
      "outputs": [],
      "stateMutability": "nonpayable",
      "type": "function"
    },
    {
      "inputs": [
        {
          "internalType": "address",
          "name": "_newAdmin",
          "type": "address"
        }
      ],
      "name": "transferAdminship",
      "outputs": [],
      "stateMutability": "nonpayable",
      "type": "function"
    },
    {
      "inputs": [
        {
          "internalType": "address",
          "name": "_newOwner",
          "type": "address"
        }
      ],
      "name": "transferOwnership",
      "outputs": [],
      "stateMutability": "nonpayable",
      "type": "function"
    },
    {
      "inputs": [
        {
          "internalType": "address",
          "name": "AdminModule_",
          "type": "address"
        }
      ],
      "name": "init",
      "outputs": [],
      "stateMutability": "payable",
      "type": "function",
      "payable": true
    },
    {
      "inputs": [
        {
          "internalType": "address",
          "name": "_newAdmin",
          "type": "address"
        }
      ],
      "name": "end",
      "outputs": [
        {
          "internalType": "bool",
          "name": "",
          "type": "bool"
        }
      ],
      "stateMutability": "nonpayable",
      "type": "function"
    }
  ],
  "bytecode": "0x608060405234801561001057600080fd5b50604051611acc380380611acc8339818101604052606081101561003357600080fd5b81019080805190602001909291908051906020019092919080519060200190929190505050336000806101000a81548173ffffffffffffffffffffffffffffffffffffffff021916908373ffffffffffffffffffffffffffffffffffffffff16021790555033600260006101000a81548173ffffffffffffffffffffffffffffffffffffffff021916908373ffffffffffffffffffffffffffffffffffffffff1602179055506000809054906101000a900473ffffffffffffffffffffffffffffffffffffffff1673ffffffffffffffffffffffffffffffffffffffff167f9e6965ca244a67ad615b5114db3886405a40a12f1190493f8e9201020885af1d600260009054906101000a900473ffffffffffffffffffffffffffffffffffffffff163360405180806020018473ffffffffffffffffffffffffffffffffffffffff1673ffffffffffffffffffffffffffffffffffffffff1681526020018373ffffffffffffffffffffffffffffffffffffffff1673ffffffffffffffffffffffffffffffffffffffff1681526020018281038252600a8152602001807f636f6e73747275636f7200000000000000000000000000000000000000000000815250602001935050505060405180910390a233600660006101000a81548173ffffffffffffffffffffffffffffffffffffffff021916908373ffffffffffffffffffffffffffffffffffffffff16021790555082600360006101000a81548173ffffffffffffffffffffffffffffffffffffffff021916908373ffffffffffffffffffffffffffffffffffffffff16021790555081600460006101000a81548173ffffffffffffffffffffffffffffffffffffffff021916908373ffffffffffffffffffffffffffffffffffffffff1602179055506102d5816102dd60201b60201c565b5050506104fe565b6000809054906101000a900473ffffffffffffffffffffffffffffffffffffffff1673ffffffffffffffffffffffffffffffffffffffff163373ffffffffffffffffffffffffffffffffffffffff1614806103855750600260009054906101000a900473ffffffffffffffffffffffffffffffffffffffff1673ffffffffffffffffffffffffffffffffffffffff163373ffffffffffffffffffffffffffffffffffffffff16145b156103d05780600560006101000a81548173ffffffffffffffffffffffffffffffffffffffff021916908373ffffffffffffffffffffffffffffffffffffffff1602179055506104fb565b6000809054906101000a900473ffffffffffffffffffffffffffffffffffffffff1673ffffffffffffffffffffffffffffffffffffffff167f9e6965ca244a67ad615b5114db3886405a40a12f1190493f8e9201020885af1d600260009054906101000a900473ffffffffffffffffffffffffffffffffffffffff163360405180806020018473ffffffffffffffffffffffffffffffffffffffff1673ffffffffffffffffffffffffffffffffffffffff1681526020018373ffffffffffffffffffffffffffffffffffffffff1673ffffffffffffffffffffffffffffffffffffffff168152602001828103825260098152602001807f6f6e6c7941646d696e0000000000000000000000000000000000000000000000815250602001935050505060405180910390a25b50565b6115bf8061050d6000396000f3fe6080604052600436106100c25760003560e01c80638c4dd39d1161007f578063d44a23d811610059578063d44a23d81461034f578063d4ee1d90146103a6578063f2fde38b146103fd578063f851a4401461044e576100c2565b80638c4dd39d146102385780638da5cb5b146102a1578063b862bd61146102f8576100c2565b806319ab453c146100c757806323ba63131461010b5780635be7cc16146101625780636199c91d146101b3578063715018a61461020a57806379ba509714610221575b600080fd5b610109600480360360208110156100dd57600080fd5b81019080803573ffffffffffffffffffffffffffffffffffffffff1690602001909291905050506104a5565b005b34801561011757600080fd5b506101206106c6565b604051808273ffffffffffffffffffffffffffffffffffffffff1673ffffffffffffffffffffffffffffffffffffffff16815260200191505060405180910390f35b34801561016e57600080fd5b506101b16004803603602081101561018557600080fd5b81019080803573ffffffffffffffffffffffffffffffffffffffff1690602001909291905050506106ec565b005b3480156101bf57600080fd5b506101c8610989565b604051808273ffffffffffffffffffffffffffffffffffffffff1673ffffffffffffffffffffffffffffffffffffffff16815260200191505060405180910390f35b34801561021657600080fd5b5061021f6109af565b005b34801561022d57600080fd5b50610236610ba2565b005b34801561024457600080fd5b506102876004803603602081101561025b57600080fd5b81019080803573ffffffffffffffffffffffffffffffffffffffff169060200190929190505050610e32565b604051808215151515815260200191505060405180910390f35b3480156102ad57600080fd5b506102b66111dd565b604051808273ffffffffffffffffffffffffffffffffffffffff1673ffffffffffffffffffffffffffffffffffffffff16815260200191505060405180910390f35b34801561030457600080fd5b5061030d611202565b604051808273ffffffffffffffffffffffffffffffffffffffff1673ffffffffffffffffffffffffffffffffffffffff16815260200191505060405180910390f35b34801561035b57600080fd5b50610364611228565b604051808273ffffffffffffffffffffffffffffffffffffffff1673ffffffffffffffffffffffffffffffffffffffff16815260200191505060405180910390f35b3480156103b257600080fd5b506103bb61124e565b604051808273ffffffffffffffffffffffffffffffffffffffff1673ffffffffffffffffffffffffffffffffffffffff16815260200191505060405180910390f35b34801561040957600080fd5b5061044c6004803603602081101561042057600080fd5b81019080803573ffffffffffffffffffffffffffffffffffffffff169060200190929190505050611274565b005b34801561045a57600080fd5b506104636114a7565b604051808273ffffffffffffffffffffffffffffffffffffffff1673ffffffffffffffffffffffffffffffffffffffff16815260200191505060405180910390f35b6000809054906101000a900473ffffffffffffffffffffffffffffffffffffffff1673ffffffffffffffffffffffffffffffffffffffff163373ffffffffffffffffffffffffffffffffffffffff16148061054d5750600260009054906101000a900473ffffffffffffffffffffffffffffffffffffffff1673ffffffffffffffffffffffffffffffffffffffff163373ffffffffffffffffffffffffffffffffffffffff16145b156105985780600560006101000a81548173ffffffffffffffffffffffffffffffffffffffff021916908373ffffffffffffffffffffffffffffffffffffffff1602179055506106c3565b6000809054906101000a900473ffffffffffffffffffffffffffffffffffffffff1673ffffffffffffffffffffffffffffffffffffffff167f9e6965ca244a67ad615b5114db3886405a40a12f1190493f8e9201020885af1d600260009054906101000a900473ffffffffffffffffffffffffffffffffffffffff163360405180806020018473ffffffffffffffffffffffffffffffffffffffff1673ffffffffffffffffffffffffffffffffffffffff1681526020018373ffffffffffffffffffffffffffffffffffffffff1673ffffffffffffffffffffffffffffffffffffffff168152602001828103825260098152602001807f6f6e6c7941646d696e0000000000000000000000000000000000000000000000815250602001935050505060405180910390a25b50565b600560009054906101000a900473ffffffffffffffffffffffffffffffffffffffff1681565b6000809054906101000a900473ffffffffffffffffffffffffffffffffffffffff1673ffffffffffffffffffffffffffffffffffffffff163373ffffffffffffffffffffffffffffffffffffffff1614806107945750600260009054906101000a900473ffffffffffffffffffffffffffffffffffffffff1673ffffffffffffffffffffffffffffffffffffffff163373ffffffffffffffffffffffffffffffffffffffff16145b1561085b578073ffffffffffffffffffffffffffffffffffffffff16600260009054906101000a900473ffffffffffffffffffffffffffffffffffffffff1673ffffffffffffffffffffffffffffffffffffffff167ff73aa4459d935dbacd9313fffe485016147551d99ef401461704cd39e6e9028760405160405180910390a380600260006101000a81548173ffffffffffffffffffffffffffffffffffffffff021916908373ffffffffffffffffffffffffffffffffffffffff160217905550610986565b6000809054906101000a900473ffffffffffffffffffffffffffffffffffffffff1673ffffffffffffffffffffffffffffffffffffffff167f9e6965ca244a67ad615b5114db3886405a40a12f1190493f8e9201020885af1d600260009054906101000a900473ffffffffffffffffffffffffffffffffffffffff163360405180806020018473ffffffffffffffffffffffffffffffffffffffff1673ffffffffffffffffffffffffffffffffffffffff1681526020018373ffffffffffffffffffffffffffffffffffffffff1673ffffffffffffffffffffffffffffffffffffffff168152602001828103825260098152602001807f6f6e6c7941646d696e0000000000000000000000000000000000000000000000815250602001935050505060405180910390a25b50565b600660009054906101000a900473ffffffffffffffffffffffffffffffffffffffff1681565b6000809054906101000a900473ffffffffffffffffffffffffffffffffffffffff1673ffffffffffffffffffffffffffffffffffffffff163373ffffffffffffffffffffffffffffffffffffffff161415610aae576000809054906101000a900473ffffffffffffffffffffffffffffffffffffffff1673ffffffffffffffffffffffffffffffffffffffff167f2dde1bc8b58ef192e7df3e7a354521d958331021e450d544346b936936916ef460405160405180910390a260008060006101000a81548173ffffffffffffffffffffffffffffffffffffffff021916908373ffffffffffffffffffffffffffffffffffffffff160217905550610ba0565b7f6b26c3fc447c71078386bc5ad946c760ce605d2bc61b762901400eb9ac003a9a6000809054906101000a900473ffffffffffffffffffffffffffffffffffffffff163360405180806020018473ffffffffffffffffffffffffffffffffffffffff1673ffffffffffffffffffffffffffffffffffffffff1681526020018373ffffffffffffffffffffffffffffffffffffffff1673ffffffffffffffffffffffffffffffffffffffff1681526020018281038252600a8152602001807f6f6e6c79206f776e657200000000000000000000000000000000000000000000815250602001935050505060405180910390a15b565b600160009054906101000a900473ffffffffffffffffffffffffffffffffffffffff1673ffffffffffffffffffffffffffffffffffffffff163373ffffffffffffffffffffffffffffffffffffffff161415610d3e57600160009054906101000a900473ffffffffffffffffffffffffffffffffffffffff1673ffffffffffffffffffffffffffffffffffffffff166000809054906101000a900473ffffffffffffffffffffffffffffffffffffffff1673ffffffffffffffffffffffffffffffffffffffff167fdb6d05f3295cede580affa301a1eb5297528f3b3f6a56b075887ce6f61c45f2160405160405180910390a3600160009054906101000a900473ffffffffffffffffffffffffffffffffffffffff166000806101000a81548173ffffffffffffffffffffffffffffffffffffffff021916908373ffffffffffffffffffffffffffffffffffffffff1602179055506000600160006101000a81548173ffffffffffffffffffffffffffffffffffffffff021916908373ffffffffffffffffffffffffffffffffffffffff160217905550610e30565b7f6b26c3fc447c71078386bc5ad946c760ce605d2bc61b762901400eb9ac003a9a6000809054906101000a900473ffffffffffffffffffffffffffffffffffffffff163360405180806020018473ffffffffffffffffffffffffffffffffffffffff1673ffffffffffffffffffffffffffffffffffffffff1681526020018373ffffffffffffffffffffffffffffffffffffffff1673ffffffffffffffffffffffffffffffffffffffff1681526020018281038252600a8152602001807f6f6e6c79206f776e657200000000000000000000000000000000000000000000815250602001935050505060405180910390a15b565b60008060009054906101000a900473ffffffffffffffffffffffffffffffffffffffff1673ffffffffffffffffffffffffffffffffffffffff163373ffffffffffffffffffffffffffffffffffffffff161480610edc5750600260009054906101000a900473ffffffffffffffffffffffffffffffffffffffff1673ffffffffffffffffffffffffffffffffffffffff163373ffffffffffffffffffffffffffffffffffffffff16145b156110ad57600360009054906101000a900473ffffffffffffffffffffffffffffffffffffffff1673ffffffffffffffffffffffffffffffffffffffff16638c4dd39d836040518263ffffffff1660e01b8152600401808273ffffffffffffffffffffffffffffffffffffffff1673ffffffffffffffffffffffffffffffffffffffff168152602001915050602060405180830381600087803b158015610f8257600080fd5b505af1158015610f96573d6000803e3d6000fd5b505050506040513d6020811015610fac57600080fd5b810190808051906020019092919050505050600460009054906101000a900473ffffffffffffffffffffffffffffffffffffffff1673ffffffffffffffffffffffffffffffffffffffff16638c4dd39d836040518263ffffffff1660e01b8152600401808273ffffffffffffffffffffffffffffffffffffffff1673ffffffffffffffffffffffffffffffffffffffff168152602001915050602060405180830381600087803b15801561105f57600080fd5b505af1158015611073573d6000803e3d6000fd5b505050506040513d602081101561108957600080fd5b8101908080519060200190929190505050506110a4826114cd565b600190506111d8565b6000809054906101000a900473ffffffffffffffffffffffffffffffffffffffff1673ffffffffffffffffffffffffffffffffffffffff167f9e6965ca244a67ad615b5114db3886405a40a12f1190493f8e9201020885af1d600260009054906101000a900473ffffffffffffffffffffffffffffffffffffffff163360405180806020018473ffffffffffffffffffffffffffffffffffffffff1673ffffffffffffffffffffffffffffffffffffffff1681526020018373ffffffffffffffffffffffffffffffffffffffff1673ffffffffffffffffffffffffffffffffffffffff168152602001828103825260098152602001807f6f6e6c7941646d696e0000000000000000000000000000000000000000000000815250602001935050505060405180910390a25b919050565b6000809054906101000a900473ffffffffffffffffffffffffffffffffffffffff1681565b600360009054906101000a900473ffffffffffffffffffffffffffffffffffffffff1681565b600460009054906101000a900473ffffffffffffffffffffffffffffffffffffffff1681565b600160009054906101000a900473ffffffffffffffffffffffffffffffffffffffff1681565b6000809054906101000a900473ffffffffffffffffffffffffffffffffffffffff1673ffffffffffffffffffffffffffffffffffffffff163373ffffffffffffffffffffffffffffffffffffffff1614156113b257600073ffffffffffffffffffffffffffffffffffffffff168173ffffffffffffffffffffffffffffffffffffffff16141561136c576040517f08c379a00000000000000000000000000000000000000000000000000000000081526004018080602001828103825260108152602001807f6e65774f776e6572206973206e756c6c0000000000000000000000000000000081525060200191505060405180910390fd5b80600160006101000a81548173ffffffffffffffffffffffffffffffffffffffff021916908373ffffffffffffffffffffffffffffffffffffffff1602179055506114a4565b7f6b26c3fc447c71078386bc5ad946c760ce605d2bc61b762901400eb9ac003a9a6000809054906101000a900473ffffffffffffffffffffffffffffffffffffffff163360405180806020018473ffffffffffffffffffffffffffffffffffffffff1673ffffffffffffffffffffffffffffffffffffffff1681526020018373ffffffffffffffffffffffffffffffffffffffff1673ffffffffffffffffffffffffffffffffffffffff1681526020018281038252600a8152602001807f6f6e6c79206f776e657200000000000000000000000000000000000000000000815250602001935050505060405180910390a15b50565b600260009054906101000a900473ffffffffffffffffffffffffffffffffffffffff1681565b600560009054906101000a900473ffffffffffffffffffffffffffffffffffffffff1673ffffffffffffffffffffffffffffffffffffffff16635be7cc16826040518263ffffffff1660e01b8152600401808273ffffffffffffffffffffffffffffffffffffffff1673ffffffffffffffffffffffffffffffffffffffff168152602001915050600060405180830381600087803b15801561156e57600080fd5b505af1158015611582573d6000803e3d6000fd5b505050505056fea26469706673582212202fe5a122c1e664c4839b135334818082204716cf40b7ea71dcc07f4be447bf5a64736f6c63430006030033",
  "source": "pragma solidity >=0.5.12 <0.7.0;\r\n\r\nimport \"./ResourceDB.sol\";\r\nimport \"./OrderDB.sol\";\r\nimport \"./InfoDB.sol\";\r\n\r\nimport \"./CenterControl.sol\";\r\nimport \"./AuthorModule.sol\";\r\nimport \"./UserModule.sol\";\r\nimport \"./AdminModule.sol\";\r\n\r\n// import \"./MulTransfer.sol\";\r\n\r\ncontract DeployDB is OwnPlus {\r\n    address public ResDB_;\r\n    address public OrderDB_;\r\n    address public InfoDB_;\r\n\r\n    address public OwnerAddr_;\r\n\r\n    constructor(address _resDB, address _OrderDB, address _InfoDB) public {\r\n        OwnerAddr_ = msg.sender;\r\n        ResDB_ = _resDB;\r\n        OrderDB_ = _OrderDB;\r\n        InfoDB_ = _InfoDB;\r\n        admin = msg.sender;\r\n        owner = msg.sender;\r\n         emit  LogAddress(\"construcor\",admin, owner,msg.sender);\r\n        // _deployDB();\r\n    }\r\n\r\n    // function _deployDB() internal {\r\n    //     ResDB_ = address(new ResourceDB(OwnerAddr_));\r\n    //     OrderDB_ = address(new OrderDB(OwnerAddr_));\r\n    //     InfoDB_ = address(new InfoDB(OwnerAddr_));\r\n    // }\r\n\r\n    // bool public initFlag_ = false;\r\n    // function init() public {\r\n    //     require(!initFlag_,  initFlag_ ? \"true\" : \"false\");\r\n    //     initFlag_ = true;\r\n    // }\r\n\r\n    function resourceWhite(address _target, bool _allow)\r\n        public\r\n        onlyAdmin\r\n        returns (bool)\r\n    {\r\n        require(\r\n            ResourceDB(ResDB_).mangeWhiteList(_target, _allow),\r\n            \"resourceWhite\"\r\n        );\r\n        return true;\r\n    }\r\n\r\n    function orderWhite(address _target, bool _allow)\r\n        public\r\n        onlyAdmin\r\n        returns (bool)\r\n    {\r\n        require(\r\n            OrderDB(OrderDB_).mangeWhiteList(_target, _allow),\r\n            \"orderWhite\"\r\n        );\r\n        return true;\r\n    }\r\n\r\n    function infoWhite(address _target, bool _allow)\r\n        public\r\n        onlyAdmin\r\n        returns (bool)\r\n    {\r\n        require(InfoDB(InfoDB_).mangeWhiteList(_target, _allow), \"infoWhite\");\r\n        return true;\r\n    }\r\n\r\n    function end(address _newAdmin) public onlyAdmin returns (bool) {\r\n        ResourceDB(ResDB_).transferAdminship(_newAdmin);\r\n        OrderDB(OrderDB_).transferAdminship(_newAdmin);\r\n        InfoDB(InfoDB_).transferAdminship(_newAdmin);\r\n        return true;\r\n    }\r\n}\r\n\r\ncontract DeployCenter is OwnPlus {\r\n    address public CenterControl_;\r\n    address public OwnerAddr_;\r\n\r\n    constructor(address _center) public {\r\n        OwnerAddr_ = msg.sender;\r\n        CenterControl_ = _center;\r\n    }\r\n\r\n    // bool public initFlag_ = false;\r\n    // function init() public {\r\n    //     require(!initFlag_, initFlag_ ? \"true\" : \"false\");\r\n    //     admin = msg.sender;\r\n    //     owner = msg.sender;\r\n    //     initFlag_ = true;\r\n    // }\r\n\r\n    function centerWhite(address _target, bool _allow)\r\n        public\r\n        onlyAdmin\r\n        returns (bool)\r\n    {\r\n        require(\r\n            CenterControl(CenterControl_).mangeWhiteList(_target, _allow),\r\n            \"aaa\"\r\n        );\r\n        return true;\r\n    }\r\n\r\n    function centerInit(address _resource, address _order, address _info)\r\n        public\r\n        // onlyAdmin\r\n        returns (bool)\r\n    {\r\n        CenterControl(CenterControl_).initialize(_resource, _order, _info);\r\n        return true;\r\n    }\r\n\r\n    function end(address _newAdmin) public onlyAdmin returns (bool) {\r\n        CenterControl(CenterControl_).transferAdminship(_newAdmin);\r\n        return true;\r\n    }\r\n}\r\n\r\ncontract DeployUser is OwnPlus {\r\n    DeployDB public DeployDB_;\r\n    DeployCenter public DeployCenter_;\r\n\r\n    // address public resDB_;\r\n    // address public orderDB_;\r\n    // address public infoDB_;\r\n\r\n    // address public centerControl_;\r\n\r\n    // address public AuthorModule_;\r\n    address public _AdminModule;\r\n    // address public UserModule_;\r\n\r\n    address public OwnerAddr_;\r\n\r\n    // constructor(address _deploydb ) public {\r\n    //     OwnerAddr_ = msg.sender;\r\n    //     DeployDB_ = new DeployDB();\r\n    //     DeployCenter_ = new DeployCenter();\r\n    //     _getContractAddress();\r\n    //     _deploy();\r\n    // }\r\n\r\n    constructor(address _deploydb, address _DeployCenter,address AdminModule_) public {\r\n        OwnerAddr_ = msg.sender;\r\n        DeployDB_ = DeployDB(_deploydb);\r\n        DeployCenter_ = DeployCenter(_DeployCenter);\r\n        //    _getContractAddress();\r\n        //    _deploy();\r\n        init(AdminModule_);\r\n    }\r\n\r\n    // bool public initFlag_ = false;\r\n    function init(\r\n        address AdminModule_\r\n    ) public payable onlyAdmin {\r\n        // require(!initFlag_, \"initFlag null\");\r\n     //   admin = msg.sender;\r\n      //  owner = msg.sender;\r\n        // initFlag_ = true;\r\n        _AdminModule = AdminModule_;\r\n       // DeployDB_.init();\r\n       // DeployCenter_.init();\r\n        // _init(\r\n        //     resDB_,\r\n        //     orderDB_,\r\n        //     infoDB_,\r\n        //     center,\r\n        //     AdminModule_,\r\n        //     AuthorModule_,\r\n        //     UserModule_\r\n        // );\r\n    }\r\n\r\n    // function _getContractAddress() internal {\r\n    //     resDB_ = DeployDB_.ResDB_();\r\n    //     orderDB_ = DeployDB_.OrderDB_();\r\n    //     infoDB_ = DeployDB_.InfoDB_();\r\n    //     centerControl_ = DeployCenter_.CenterControl_();\r\n    // }\r\n\r\n    // function _deploy() internal {\r\n    //     AuthorModule_ = address(new AuthorModule(centerControl_, infoDB_));\r\n    //     UserModule_ = address(new UserModule(centerControl_, infoDB_));\r\n    //    AdminModule_ = address(new AdminModule(resDB_, orderDB_, OwnerAddr_));\r\n    // }\r\n\r\n    // function _init(\r\n    //     address resDB_,\r\n    //     address orderDB_,\r\n    //     address infoDB_,\r\n    //     address centerControl_,\r\n    //     address AdminModule_,\r\n    //     address AuthorModule_,\r\n    //     address UserModule_\r\n    // ) internal  {\r\n    //     DeployCenter_.centerInit(resDB_, orderDB_, infoDB_);\r\n    //     // 1. claim center\r\n    //     DeployDB_.resourceWhite(centerControl_, true);\r\n    //     // 1. claimadmin\r\n    //     DeployDB_.resourceWhite(AdminModule_, true);\r\n    //     // 1. order center\r\n    //     DeployDB_.orderWhite(centerControl_, true);\r\n    //     // 1. info center\r\n    //     DeployDB_.infoWhite(centerControl_, true);\r\n\r\n    //     // 1. center author\r\n    //     DeployCenter_.centerWhite(AuthorModule_, true);\r\n    //     // 1. center user\r\n    //     DeployCenter_.centerWhite(UserModule_, true);\r\n\r\n    // }\r\n\r\n    // function _init(address resDB_, address  orderDB_, address infoDB_, address centeCrontrol_,address AdminModule_ ) internal {\r\n    //     DeployCenter_.centerInit(resDB_, orderDB_, infoDB_);\r\n\r\n    //     // 1. claim center\r\n    //     DeployDB_.resWhite(centerCrontrol_, true);\r\n    //     // 1. claimadmin\r\n    //     DeployDB_.resWhite(AdminModule_, true);\r\n    //     // 1. order center\r\n    //     DeployDB_.orderWhite(centerControl_, true);\r\n    //     // 1. info center\r\n    //     DeployDB_.infoWhite(centerControl_, true);\r\n\r\n    //     // 1. center author\r\n    //     DeployCenter_.centerWhite(AuthorModule_, true);\r\n    //     // 1. center user\r\n    //     DeployCenter_.centerWhite(UserModule_, true);\r\n\r\n    // }\r\n\r\n    function _end(address _newAdmin) internal {\r\n        AdminModule(_AdminModule).transferAdminship(_newAdmin);\r\n    }\r\n\r\n    function end(address _newAdmin) public onlyAdmin returns (bool) {\r\n        DeployDB_.end(_newAdmin);\r\n        DeployCenter_.end(_newAdmin);\r\n        _end(_newAdmin);\r\n        return true;\r\n    }\r\n\r\n}\r\n",
  "sourcePath": "E:\\contracts\\contracts\\DeployHelper.sol",
  "compiler": {
    "name": "solc",
    "version": "0.6.3+commit.8dda9521.Emscripten.clang"
  },
  "schemaVersion": "3.0.23",
  "updatedAt": "2020-04-06T14:58:02.484Z",
  "networkType": "ethereum",
  "devdoc": {
    "methods": {
      "acceptOwnership()": {
        "details": "Allows the newOwner address to finalize the transfer."
      },
      "renounceOwnership()": {
        "details": "Allows the current owner to relinquish control of the contract."
      },
      "transferAdminship(address)": {
        "details": "Allows the current admin to transfer control of the contract to a newadmin.",
        "params": {
          "_newAdmin": "address : new admin address"
        }
      },
      "transferOwnership(address)": {
        "details": "Allows the current owner to transfer control of the contract to a newOwner.",
        "params": {
          "_newOwner": "The address to transfer ownership to."
        }
      }
    }
  },
  "userdoc": {
    "methods": {
      "renounceOwnership()": {
        "notice": "Renouncing to ownership will leave the contract without an owner. It will not be possible to call the functions with the `onlyOwner` modifier anymore."
      }
    }
  }
}