{
  "contractName": "InfoDB",
  "abi": [
    {
      "inputs": [],
      "stateMutability": "nonpayable",
      "type": "constructor"
    },
    {
      "anonymous": false,
      "inputs": [
        {
          "indexed": false,
          "internalType": "string",
          "name": "info",
          "type": "string"
        },
        {
          "indexed": false,
          "internalType": "address",
          "name": "_resId",
          "type": "address"
        },
        {
          "indexed": true,
          "internalType": "address",
          "name": "_author",
          "type": "address"
        },
        {
          "indexed": false,
          "internalType": "address",
          "name": "who",
          "type": "address"
        }
      ],
      "name": "LogAddress",
      "type": "event"
    },
    {
      "anonymous": false,
      "inputs": [
        {
          "indexed": false,
          "internalType": "string",
          "name": "",
          "type": "string"
        },
        {
          "indexed": false,
          "internalType": "address",
          "name": "",
          "type": "address"
        },
        {
          "indexed": false,
          "internalType": "address",
          "name": "",
          "type": "address"
        }
      ],
      "name": "LogAddress",
      "type": "event"
    },
    {
      "anonymous": false,
      "inputs": [
        {
          "indexed": true,
          "internalType": "address",
          "name": "_old",
          "type": "address"
        },
        {
          "indexed": true,
          "internalType": "address",
          "name": "_new",
          "type": "address"
        }
      ],
      "name": "LogAdminshipTransferred",
      "type": "event"
    },
    {
      "anonymous": false,
      "inputs": [
        {
          "indexed": false,
          "internalType": "enum ErrorModule.RScorr",
          "name": "_errorNumber",
          "type": "uint8"
        }
      ],
      "name": "LogError",
      "type": "event"
    },
    {
      "anonymous": false,
      "inputs": [
        {
          "indexed": true,
          "internalType": "address",
          "name": "previousOwner",
          "type": "address"
        }
      ],
      "name": "LogOwnershipRenounced",
      "type": "event"
    },
    {
      "anonymous": false,
      "inputs": [
        {
          "indexed": true,
          "internalType": "address",
          "name": "previousOwner",
          "type": "address"
        },
        {
          "indexed": true,
          "internalType": "address",
          "name": "newOwner",
          "type": "address"
        }
      ],
      "name": "LogOwnershipTransferred",
      "type": "event"
    },
    {
      "anonymous": false,
      "inputs": [
        {
          "indexed": true,
          "internalType": "address",
          "name": "_target",
          "type": "address"
        },
        {
          "indexed": false,
          "internalType": "bool",
          "name": "_allow",
          "type": "bool"
        }
      ],
      "name": "LogWhileChanged",
      "type": "event"
    },
    {
      "anonymous": false,
      "inputs": [
        {
          "indexed": false,
          "internalType": "string",
          "name": "info",
          "type": "string"
        }
      ],
      "name": "info",
      "type": "event"
    },
    {
      "inputs": [],
      "name": "acceptOwnership",
      "outputs": [],
      "stateMutability": "nonpayable",
      "type": "function"
    },
    {
      "inputs": [],
      "name": "admin",
      "outputs": [
        {
          "internalType": "address",
          "name": "",
          "type": "address"
        }
      ],
      "stateMutability": "view",
      "type": "function",
      "constant": true
    },
    {
      "inputs": [
        {
          "internalType": "address",
          "name": "_target",
          "type": "address"
        },
        {
          "internalType": "bool",
          "name": "_allow",
          "type": "bool"
        }
      ],
      "name": "mangeWhiteList",
      "outputs": [
        {
          "internalType": "bool",
          "name": "",
          "type": "bool"
        }
      ],
      "stateMutability": "nonpayable",
      "type": "function"
    },
    {
      "inputs": [
        {
          "internalType": "address[]",
          "name": "_addresses",
          "type": "address[]"
        }
      ],
      "name": "mulInsertWhite",
      "outputs": [
        {
          "internalType": "bool",
          "name": "",
          "type": "bool"
        }
      ],
      "stateMutability": "nonpayable",
      "type": "function"
    },
    {
      "inputs": [],
      "name": "newOwner",
      "outputs": [
        {
          "internalType": "address",
          "name": "",
          "type": "address"
        }
      ],
      "stateMutability": "view",
      "type": "function",
      "constant": true
    },
    {
      "inputs": [],
      "name": "owner",
      "outputs": [
        {
          "internalType": "address",
          "name": "",
          "type": "address"
        }
      ],
      "stateMutability": "view",
      "type": "function",
      "constant": true
    },
    {
      "inputs": [],
      "name": "renounceOwnership",
      "outputs": [],
      "stateMutability": "nonpayable",
      "type": "function"
    },
    {
      "inputs": [
        {
          "internalType": "address",
          "name": "_newAdmin",
          "type": "address"
        }
      ],
      "name": "transferAdminship",
      "outputs": [],
      "stateMutability": "nonpayable",
      "type": "function"
    },
    {
      "inputs": [
        {
          "internalType": "address",
          "name": "_newOwner",
          "type": "address"
        }
      ],
      "name": "transferOwnership",
      "outputs": [],
      "stateMutability": "nonpayable",
      "type": "function"
    },
    {
      "inputs": [
        {
          "internalType": "address",
          "name": "",
          "type": "address"
        }
      ],
      "name": "whitelist_",
      "outputs": [
        {
          "internalType": "bool",
          "name": "",
          "type": "bool"
        }
      ],
      "stateMutability": "view",
      "type": "function",
      "constant": true
    },
    {
      "inputs": [
        {
          "internalType": "address",
          "name": "_center",
          "type": "address"
        },
        {
          "internalType": "address",
          "name": "_admin",
          "type": "address"
        }
      ],
      "name": "setOwner",
      "outputs": [],
      "stateMutability": "nonpayable",
      "type": "function"
    },
    {
      "inputs": [
        {
          "internalType": "bytes32",
          "name": "_oId",
          "type": "bytes32"
        },
        {
          "internalType": "bytes16",
          "name": "_sid",
          "type": "bytes16"
        },
        {
          "internalType": "address",
          "name": "_buyer",
          "type": "address"
        }
      ],
      "name": "insertOrder",
      "outputs": [
        {
          "internalType": "bool",
          "name": "",
          "type": "bool"
        }
      ],
      "stateMutability": "nonpayable",
      "type": "function"
    },
    {
      "inputs": [
        {
          "internalType": "bytes16",
          "name": "_sid",
          "type": "bytes16"
        },
        {
          "internalType": "address",
          "name": "_author",
          "type": "address"
        }
      ],
      "name": "insertResource",
      "outputs": [
        {
          "internalType": "bool",
          "name": "",
          "type": "bool"
        }
      ],
      "stateMutability": "nonpayable",
      "type": "function"
    },
    {
      "inputs": [
        {
          "internalType": "address",
          "name": "_author",
          "type": "address"
        }
      ],
      "name": "getResourceByAuthor",
      "outputs": [
        {
          "internalType": "bytes16[]",
          "name": "",
          "type": "bytes16[]"
        }
      ],
      "stateMutability": "view",
      "type": "function",
      "constant": true
    },
    {
      "inputs": [
        {
          "internalType": "address",
          "name": "_buyer",
          "type": "address"
        }
      ],
      "name": "getOrdersByUser",
      "outputs": [
        {
          "internalType": "bytes32[]",
          "name": "",
          "type": "bytes32[]"
        }
      ],
      "stateMutability": "view",
      "type": "function",
      "constant": true
    },
    {
      "inputs": [
        {
          "internalType": "bytes16",
          "name": "_sid",
          "type": "bytes16"
        }
      ],
      "name": "getConsumerByResource",
      "outputs": [
        {
          "internalType": "address[]",
          "name": "",
          "type": "address[]"
        }
      ],
      "stateMutability": "view",
      "type": "function",
      "constant": true
    },
    {
      "inputs": [
        {
          "internalType": "address",
          "name": "_buyer",
          "type": "address"
        },
        {
          "internalType": "bytes16",
          "name": "_sid",
          "type": "bytes16"
        }
      ],
      "name": "isBought",
      "outputs": [
        {
          "internalType": "bool",
          "name": "",
          "type": "bool"
        }
      ],
      "stateMutability": "view",
      "type": "function",
      "constant": true
    }
  ],
  "bytecode": "0x60806040526000600760006101000a81548160ff02191690831515021790555034801561002b57600080fd5b50336000806101000a81548173ffffffffffffffffffffffffffffffffffffffff021916908373ffffffffffffffffffffffffffffffffffffffff16021790555033600260006101000a81548173ffffffffffffffffffffffffffffffffffffffff021916908373ffffffffffffffffffffffffffffffffffffffff1602179055506000809054906101000a900473ffffffffffffffffffffffffffffffffffffffff1673ffffffffffffffffffffffffffffffffffffffff167f9e6965ca244a67ad615b5114db3886405a40a12f1190493f8e9201020885af1d600260009054906101000a900473ffffffffffffffffffffffffffffffffffffffff163360405180806020018473ffffffffffffffffffffffffffffffffffffffff1673ffffffffffffffffffffffffffffffffffffffff1681526020018373ffffffffffffffffffffffffffffffffffffffff1673ffffffffffffffffffffffffffffffffffffffff1681526020018281038252600a8152602001807f636f6e73747275636f7200000000000000000000000000000000000000000000815250602001935050505060405180910390a26000809054906101000a900473ffffffffffffffffffffffffffffffffffffffff1673ffffffffffffffffffffffffffffffffffffffff167f9e6965ca244a67ad615b5114db3886405a40a12f1190493f8e9201020885af1d600260009054906101000a900473ffffffffffffffffffffffffffffffffffffffff163360405180806020018473ffffffffffffffffffffffffffffffffffffffff1673ffffffffffffffffffffffffffffffffffffffff1681526020018373ffffffffffffffffffffffffffffffffffffffff1673ffffffffffffffffffffffffffffffffffffffff1681526020018281038252600a8152602001807f636f6e73747275636f7200000000000000000000000000000000000000000000815250602001935050505060405180910390a2612118806103106000396000f3fe608060405234801561001057600080fd5b506004361061010b5760003560e01c80638da5cb5b116100a2578063e56a7c5d11610071578063e56a7c5d146105d9578063ee9a455014610635578063f2fde38b146106b8578063f851a440146106fc578063fd4dd1fe146107465761010b565b80638da5cb5b14610464578063a8e1fba3146104ae578063b98f929914610516578063d4ee1d901461058f5761010b565b80635be7cc16116100de5780635be7cc161461037357806369a32767146103b7578063715018a61461045057806379ba50971461045a5761010b565b806318f1c709146101105780631a0d24c5146101a9578063299a7bcc1461023f57806335e60e89146102a3575b600080fd5b6101526004803603602081101561012657600080fd5b81019080803573ffffffffffffffffffffffffffffffffffffffff1690602001909291905050506107bf565b6040518080602001828103825283818151815260200191508051906020019060200280838360005b8381101561019557808201518184015260208101905061017a565b505050509050019250505060405180910390f35b6101e8600480360360208110156101bf57600080fd5b8101908080356fffffffffffffffffffffffffffffffff19169060200190929190505050610859565b6040518080602001828103825283818151815260200191508051906020019060200280838360005b8381101561022b578082015181840152602081019050610210565b505050509050019250505060405180910390f35b6102a16004803603604081101561025557600080fd5b81019080803573ffffffffffffffffffffffffffffffffffffffff169060200190929190803573ffffffffffffffffffffffffffffffffffffffff169060200190929190505050610923565b005b610359600480360360208110156102b957600080fd5b81019080803590602001906401000000008111156102d657600080fd5b8201836020820111156102e857600080fd5b8035906020019184602083028401116401000000008311171561030a57600080fd5b919080806020026020016040519081016040528093929190818152602001838360200280828437600081840152601f19601f820116905080830192505050505050509192919290505050610d28565b604051808215151515815260200191505060405180910390f35b6103b56004803603602081101561038957600080fd5b81019080803573ffffffffffffffffffffffffffffffffffffffff169060200190929190505050610fd7565b005b6103f9600480360360208110156103cd57600080fd5b81019080803573ffffffffffffffffffffffffffffffffffffffff169060200190929190505050611274565b6040518080602001828103825283818151815260200191508051906020019060200280838360005b8381101561043c578082015181840152602081019050610421565b505050509050019250505060405180910390f35b610458611344565b005b610462611537565b005b61046c6117c7565b604051808273ffffffffffffffffffffffffffffffffffffffff1673ffffffffffffffffffffffffffffffffffffffff16815260200191505060405180910390f35b6104fc600480360360408110156104c457600080fd5b81019080803573ffffffffffffffffffffffffffffffffffffffff1690602001909291908035151590602001909291905050506117ec565b604051808215151515815260200191505060405180910390f35b6105756004803603604081101561052c57600080fd5b81019080803573ffffffffffffffffffffffffffffffffffffffff16906020019092919080356fffffffffffffffffffffffffffffffff19169060200190929190505050611a25565b604051808215151515815260200191505060405180910390f35b610597611abf565b604051808273ffffffffffffffffffffffffffffffffffffffff1673ffffffffffffffffffffffffffffffffffffffff16815260200191505060405180910390f35b61061b600480360360208110156105ef57600080fd5b81019080803573ffffffffffffffffffffffffffffffffffffffff169060200190929190505050611ae5565b604051808215151515815260200191505060405180910390f35b61069e6004803603606081101561064b57600080fd5b810190808035906020019092919080356fffffffffffffffffffffffffffffffff19169060200190929190803573ffffffffffffffffffffffffffffffffffffffff169060200190929190505050611b05565b604051808215151515815260200191505060405180910390f35b6106fa600480360360208110156106ce57600080fd5b81019080803573ffffffffffffffffffffffffffffffffffffffff169060200190929190505050611d3e565b005b610704611f71565b604051808273ffffffffffffffffffffffffffffffffffffffff1673ffffffffffffffffffffffffffffffffffffffff16815260200191505060405180910390f35b6107a56004803603604081101561075c57600080fd5b8101908080356fffffffffffffffffffffffffffffffff19169060200190929190803573ffffffffffffffffffffffffffffffffffffffff169060200190929190505050611f97565b604051808215151515815260200191505060405180910390f35b6060600460008373ffffffffffffffffffffffffffffffffffffffff1673ffffffffffffffffffffffffffffffffffffffff16815260200190815260200160002060000180548060200260200160405190810160405280929190818152602001828054801561084d57602002820191906000526020600020905b815481526020019060010190808311610839575b50505050509050919050565b606060056000836fffffffffffffffffffffffffffffffff19166fffffffffffffffffffffffffffffffff1916815260200190815260200160002060010180548060200260200160405190810160405280929190818152602001828054801561091757602002820191906000526020600020905b8160009054906101000a900473ffffffffffffffffffffffffffffffffffffffff1673ffffffffffffffffffffffffffffffffffffffff16815260200190600101908083116108cd575b50505050509050919050565b6000809054906101000a900473ffffffffffffffffffffffffffffffffffffffff1673ffffffffffffffffffffffffffffffffffffffff167f9e6965ca244a67ad615b5114db3886405a40a12f1190493f8e9201020885af1d833360405180806020018473ffffffffffffffffffffffffffffffffffffffff1673ffffffffffffffffffffffffffffffffffffffff1681526020018373ffffffffffffffffffffffffffffffffffffffff1673ffffffffffffffffffffffffffffffffffffffff168152602001828103825260148152602001807f5265736f757263654442636f6e73747275636f72000000000000000000000000815250602001935050505060405180910390a2600760009054906101000a900460ff1615610aae576040517f08c379a00000000000000000000000000000000000000000000000000000000081526004018080602001828103825260108152602001807f207365744f776e65725f3a20747275650000000000000000000000000000000081525060200191505060405180910390fd5b6001600760006101000a81548160ff021916908315150217905550336000806101000a81548173ffffffffffffffffffffffffffffffffffffffff021916908373ffffffffffffffffffffffffffffffffffffffff16021790555080600260006101000a81548173ffffffffffffffffffffffffffffffffffffffff021916908373ffffffffffffffffffffffffffffffffffffffff1602179055506001600360003373ffffffffffffffffffffffffffffffffffffffff1673ffffffffffffffffffffffffffffffffffffffff16815260200190815260200160002060006101000a81548160ff0219169083151502179055506001600360008473ffffffffffffffffffffffffffffffffffffffff1673ffffffffffffffffffffffffffffffffffffffff16815260200190815260200160002060006101000a81548160ff0219169083151502179055506000809054906101000a900473ffffffffffffffffffffffffffffffffffffffff1673ffffffffffffffffffffffffffffffffffffffff167f9e6965ca244a67ad615b5114db3886405a40a12f1190493f8e9201020885af1d600260009054906101000a900473ffffffffffffffffffffffffffffffffffffffff163360405180806020018473ffffffffffffffffffffffffffffffffffffffff1673ffffffffffffffffffffffffffffffffffffffff1681526020018373ffffffffffffffffffffffffffffffffffffffff1673ffffffffffffffffffffffffffffffffffffffff1681526020018281038252600a8152602001807f6765744164647265737300000000000000000000000000000000000000000000815250602001935050505060405180910390a25050565b60008060009054906101000a900473ffffffffffffffffffffffffffffffffffffffff1673ffffffffffffffffffffffffffffffffffffffff163373ffffffffffffffffffffffffffffffffffffffff1614158015610dd55750600260009054906101000a900473ffffffffffffffffffffffffffffffffffffffff1673ffffffffffffffffffffffffffffffffffffffff163373ffffffffffffffffffffffffffffffffffffffff1614155b15610e29577f0489f2369368f4688acd012107ac5a7d98ca739b913449d852f35d871e433cc3600f6040518082601d811115610e0d57fe5b60ff16815260200191505060405180910390a160009050610fd2565b60008090505b8251811015610fcc57600073ffffffffffffffffffffffffffffffffffffffff16838281518110610e5c57fe5b602002602001015173ffffffffffffffffffffffffffffffffffffffff161415610eee576040517f08c379a000000000000000000000000000000000000000000000000000000000815260040180806020018281038252600f8152602001807f61646472657373206973206e756c6c000000000000000000000000000000000081525060200191505060405180910390fd5b600160036000858481518110610f0057fe5b602002602001015173ffffffffffffffffffffffffffffffffffffffff1673ffffffffffffffffffffffffffffffffffffffff16815260200190815260200160002060006101000a81548160ff021916908315150217905550828181518110610f6557fe5b602002602001015173ffffffffffffffffffffffffffffffffffffffff167f9b3b880c67f4fab4215412179771cffd326a045e6016a7e363eb38460f7e91766001604051808215151515815260200191505060405180910390a28080600101915050610e2f565b50600190505b919050565b6000809054906101000a900473ffffffffffffffffffffffffffffffffffffffff1673ffffffffffffffffffffffffffffffffffffffff163373ffffffffffffffffffffffffffffffffffffffff16148061107f5750600260009054906101000a900473ffffffffffffffffffffffffffffffffffffffff1673ffffffffffffffffffffffffffffffffffffffff163373ffffffffffffffffffffffffffffffffffffffff16145b15611146578073ffffffffffffffffffffffffffffffffffffffff16600260009054906101000a900473ffffffffffffffffffffffffffffffffffffffff1673ffffffffffffffffffffffffffffffffffffffff167ff73aa4459d935dbacd9313fffe485016147551d99ef401461704cd39e6e9028760405160405180910390a380600260006101000a81548173ffffffffffffffffffffffffffffffffffffffff021916908373ffffffffffffffffffffffffffffffffffffffff160217905550611271565b6000809054906101000a900473ffffffffffffffffffffffffffffffffffffffff1673ffffffffffffffffffffffffffffffffffffffff167f9e6965ca244a67ad615b5114db3886405a40a12f1190493f8e9201020885af1d600260009054906101000a900473ffffffffffffffffffffffffffffffffffffffff163360405180806020018473ffffffffffffffffffffffffffffffffffffffff1673ffffffffffffffffffffffffffffffffffffffff1681526020018373ffffffffffffffffffffffffffffffffffffffff1673ffffffffffffffffffffffffffffffffffffffff168152602001828103825260098152602001807f6f6e6c7941646d696e0000000000000000000000000000000000000000000000815250602001935050505060405180910390a25b50565b6060600660008373ffffffffffffffffffffffffffffffffffffffff1673ffffffffffffffffffffffffffffffffffffffff16815260200190815260200160002060000180548060200260200160405190810160405280929190818152602001828054801561133857602002820191906000526020600020906000905b82829054906101000a900460801b6fffffffffffffffffffffffffffffffff191681526020019060100190602082600f010492830192600103820291508084116112f15790505b50505050509050919050565b6000809054906101000a900473ffffffffffffffffffffffffffffffffffffffff1673ffffffffffffffffffffffffffffffffffffffff163373ffffffffffffffffffffffffffffffffffffffff161415611443576000809054906101000a900473ffffffffffffffffffffffffffffffffffffffff1673ffffffffffffffffffffffffffffffffffffffff167f2dde1bc8b58ef192e7df3e7a354521d958331021e450d544346b936936916ef460405160405180910390a260008060006101000a81548173ffffffffffffffffffffffffffffffffffffffff021916908373ffffffffffffffffffffffffffffffffffffffff160217905550611535565b7f6b26c3fc447c71078386bc5ad946c760ce605d2bc61b762901400eb9ac003a9a6000809054906101000a900473ffffffffffffffffffffffffffffffffffffffff163360405180806020018473ffffffffffffffffffffffffffffffffffffffff1673ffffffffffffffffffffffffffffffffffffffff1681526020018373ffffffffffffffffffffffffffffffffffffffff1673ffffffffffffffffffffffffffffffffffffffff1681526020018281038252600a8152602001807f6f6e6c79206f776e657200000000000000000000000000000000000000000000815250602001935050505060405180910390a15b565b600160009054906101000a900473ffffffffffffffffffffffffffffffffffffffff1673ffffffffffffffffffffffffffffffffffffffff163373ffffffffffffffffffffffffffffffffffffffff1614156116d357600160009054906101000a900473ffffffffffffffffffffffffffffffffffffffff1673ffffffffffffffffffffffffffffffffffffffff166000809054906101000a900473ffffffffffffffffffffffffffffffffffffffff1673ffffffffffffffffffffffffffffffffffffffff167fdb6d05f3295cede580affa301a1eb5297528f3b3f6a56b075887ce6f61c45f2160405160405180910390a3600160009054906101000a900473ffffffffffffffffffffffffffffffffffffffff166000806101000a81548173ffffffffffffffffffffffffffffffffffffffff021916908373ffffffffffffffffffffffffffffffffffffffff1602179055506000600160006101000a81548173ffffffffffffffffffffffffffffffffffffffff021916908373ffffffffffffffffffffffffffffffffffffffff1602179055506117c5565b7f6b26c3fc447c71078386bc5ad946c760ce605d2bc61b762901400eb9ac003a9a6000809054906101000a900473ffffffffffffffffffffffffffffffffffffffff163360405180806020018473ffffffffffffffffffffffffffffffffffffffff1673ffffffffffffffffffffffffffffffffffffffff1681526020018373ffffffffffffffffffffffffffffffffffffffff1673ffffffffffffffffffffffffffffffffffffffff1681526020018281038252600a8152602001807f6f6e6c79206f776e657200000000000000000000000000000000000000000000815250602001935050505060405180910390a15b565b6000809054906101000a900473ffffffffffffffffffffffffffffffffffffffff1681565b60008060009054906101000a900473ffffffffffffffffffffffffffffffffffffffff1673ffffffffffffffffffffffffffffffffffffffff163373ffffffffffffffffffffffffffffffffffffffff16141580156118995750600260009054906101000a900473ffffffffffffffffffffffffffffffffffffffff1673ffffffffffffffffffffffffffffffffffffffff163373ffffffffffffffffffffffffffffffffffffffff1614155b156118ed577f0489f2369368f4688acd012107ac5a7d98ca739b913449d852f35d871e433cc3600f6040518082601d8111156118d157fe5b60ff16815260200191505060405180910390a160009050611a1f565b600073ffffffffffffffffffffffffffffffffffffffff168373ffffffffffffffffffffffffffffffffffffffff161415611971577f0489f2369368f4688acd012107ac5a7d98ca739b913449d852f35d871e433cc360026040518082601d81111561195557fe5b60ff16815260200191505060405180910390a160009050611a1f565b81600360008573ffffffffffffffffffffffffffffffffffffffff1673ffffffffffffffffffffffffffffffffffffffff16815260200190815260200160002060006101000a81548160ff0219169083151502179055508273ffffffffffffffffffffffffffffffffffffffff167f9b3b880c67f4fab4215412179771cffd326a045e6016a7e363eb38460f7e917683604051808215151515815260200191505060405180910390a2600190505b92915050565b60008060001b60056000846fffffffffffffffffffffffffffffffff19166fffffffffffffffffffffffffffffffff1916815260200190815260200160002060000160008573ffffffffffffffffffffffffffffffffffffffff1673ffffffffffffffffffffffffffffffffffffffff168152602001908152602001600020541415611ab45760009050611ab9565b600190505b92915050565b600160009054906101000a900473ffffffffffffffffffffffffffffffffffffffff1681565b60036020528060005260406000206000915054906101000a900460ff1681565b600060011515600360003373ffffffffffffffffffffffffffffffffffffffff1673ffffffffffffffffffffffffffffffffffffffff16815260200190815260200160002060009054906101000a900460ff16151514611bae577f0489f2369368f4688acd012107ac5a7d98ca739b913449d852f35d871e433cc3600e6040518082601d811115611b9257fe5b60ff16815260200191505060405180910390a160009050611d37565b600460008373ffffffffffffffffffffffffffffffffffffffff1673ffffffffffffffffffffffffffffffffffffffff16815260200190815260200160002060000184908060018154018082558091505060019003906000526020600020016000909190919091505560056000846fffffffffffffffffffffffffffffffff19166fffffffffffffffffffffffffffffffff19168152602001908152602001600020600101829080600181540180825580915050600190039060005260206000200160009091909190916101000a81548173ffffffffffffffffffffffffffffffffffffffff021916908373ffffffffffffffffffffffffffffffffffffffff1602179055508360056000856fffffffffffffffffffffffffffffffff19166fffffffffffffffffffffffffffffffff1916815260200190815260200160002060000160008473ffffffffffffffffffffffffffffffffffffffff1673ffffffffffffffffffffffffffffffffffffffff16815260200190815260200160002081905550600190505b9392505050565b6000809054906101000a900473ffffffffffffffffffffffffffffffffffffffff1673ffffffffffffffffffffffffffffffffffffffff163373ffffffffffffffffffffffffffffffffffffffff161415611e7c57600073ffffffffffffffffffffffffffffffffffffffff168173ffffffffffffffffffffffffffffffffffffffff161415611e36576040517f08c379a00000000000000000000000000000000000000000000000000000000081526004018080602001828103825260108152602001807f6e65774f776e6572206973206e756c6c0000000000000000000000000000000081525060200191505060405180910390fd5b80600160006101000a81548173ffffffffffffffffffffffffffffffffffffffff021916908373ffffffffffffffffffffffffffffffffffffffff160217905550611f6e565b7f6b26c3fc447c71078386bc5ad946c760ce605d2bc61b762901400eb9ac003a9a6000809054906101000a900473ffffffffffffffffffffffffffffffffffffffff163360405180806020018473ffffffffffffffffffffffffffffffffffffffff1673ffffffffffffffffffffffffffffffffffffffff1681526020018373ffffffffffffffffffffffffffffffffffffffff1673ffffffffffffffffffffffffffffffffffffffff1681526020018281038252600a8152602001807f6f6e6c79206f776e657200000000000000000000000000000000000000000000815250602001935050505060405180910390a15b50565b600260009054906101000a900473ffffffffffffffffffffffffffffffffffffffff1681565b600060011515600360003373ffffffffffffffffffffffffffffffffffffffff1673ffffffffffffffffffffffffffffffffffffffff16815260200190815260200160002060009054906101000a900460ff16151514612040577f0489f2369368f4688acd012107ac5a7d98ca739b913449d852f35d871e433cc3600e6040518082601d81111561202457fe5b60ff16815260200191505060405180910390a1600090506120dc565b600660008373ffffffffffffffffffffffffffffffffffffffff1673ffffffffffffffffffffffffffffffffffffffff1681526020019081526020016000206000018390806001815401808255809150506001900390600052602060002090600291828204019190066010029091909190916101000a8154816fffffffffffffffffffffffffffffffff021916908360801c0217905550600190505b9291505056fea264697066735822122033333666b4f052812e375c2ad129cd4f7e32a451b5ebfd1d599c91037335d96464736f6c63430006030033",
  "source": "pragma solidity >=0.5.12 <0.7.0;\r\n\r\nimport \"./WhiteMange.sol\";\r\n\r\n/**\r\n * @title InfoDB\r\n * @dev Used to query.\r\n * @notice Whitelist permission is required for data writing\r\n */\r\ncontract InfoDB is WhiteMange{\r\n\r\n    // list, uint8=256\r\n    // list\r\n    // list\r\n    // TODO:>10000\r\n\r\n    struct stUserInfo{\r\n        //uint256 orderCnt;\r\n        bytes32[] orderList;   // All orders from user.\r\n    }\r\n\r\n    struct stAuthorInfo{\r\n        bytes16[] resource;       // All resources published by the author\r\n    }\r\n\r\n    struct stResouceInfo{\r\n        mapping(address => bytes32) bought; // Query the order by a user on this resource.\r\n        address[] buyers;                   // All users from resources.\r\n        bytes32[] orderList;                // All orders for this resource\r\n    }\r\n\r\n    mapping(address => stUserInfo) user_;\r\n    mapping(bytes16 => stResouceInfo) res_;\r\n    mapping(address => stAuthorInfo) author_;\r\n\r\n    constructor () public {\r\n    //    owner = msg.sender;\r\n    //    admin = msg.sender;\r\n        emit  LogAddress(\"construcor\",admin, owner,msg.sender);\r\n    }\r\n\r\n  bool private setOwner_ = false;\r\n    function setOwner(address _center,address _admin) public {\r\n        emit  LogAddress(\"ResourceDBconstrucor\",_center, owner,msg.sender);\r\n        require(!setOwner_,\" setOwner_: true\");\r\n        setOwner_ = true;\r\n        owner = msg.sender;\r\n        admin = _admin;\r\n        whitelist_[msg.sender] = true;\r\n        whitelist_[_center] = true;\r\n        emit  LogAddress(\"getAddress\",admin, owner,msg.sender);\r\n    }\r\n\r\n    /**\r\n     * @dev Record an order.\r\n     * @param _oId   bytes32  : Orders index(OrderID).\r\n     * @param _sid   bytes16  : Resource index(ClaimID).\r\n     * @param _buyer address  : Buyer's address\r\n     * @return       bool     : The successful call returns true.\r\n     */\r\n    function insertOrder(bytes32 _oId, bytes16 _sid, address _buyer)\r\n        public\r\n        returns(bool)\r\n    {\r\n        if (whitelist_[msg.sender] != true){\r\n            emit LogError(RScorr.Insufficient);\r\n            return false;\r\n        } // Check the caller's whitelist permission.\r\n\r\n        user_[_buyer].orderList.push(_oId);\r\n        // \r\n        res_[_sid].buyers.push(_buyer);\r\n        // \r\n        res_[_sid].bought[_buyer] = _oId;\r\n\r\n        return true;\r\n    }\r\n\r\n    /**\r\n     * @dev Record a resource generation.\r\n     * @param _sid    bytes16  : Resource index(ClaimID).\r\n     * @param _author address  : Authors' address\r\n     * @return        bool     : The successful call returns true.\r\n     */\r\n    function insertResource(bytes16 _sid, address _author)\r\n        public\r\n        returns(bool)\r\n    {\r\n        if (whitelist_[msg.sender] != true){\r\n            emit LogError(RScorr.Insufficient);\r\n            return false;\r\n        } // Check the caller's whitelist permission.\r\n\r\n        author_[_author].resource.push(_sid);\r\n        return true;\r\n    }\r\n\r\n    /////////////////////////\r\n    /// View\r\n    /////////////////////////\r\n\r\n    /**\r\n     * @dev Query all resources the author has published.\r\n     * @param _author  address   : Author's address\r\n     * @return         bytes16[] : claimIDbytes16\r\n     */\r\n    function getResourceByAuthor(address _author) public view  returns(bytes16[] memory){\r\n        return author_[_author].resource;\r\n    }\r\n\r\n    /**\r\n     * @dev \r\n     * @param _buyer   address   : User's address\r\n     * @return         bytes32[] : orderIDbytes32\r\n     */\r\n    function getOrdersByUser(address _buyer) public view  returns(bytes32[] memory){\r\n        return user_[_buyer].orderList;\r\n    }\r\n\r\n    /**\r\n     * @dev \r\n     * @param _sid     bytes16   :  claimID\r\n     * @return         address[] : \r\n     */\r\n    function getConsumerByResource(bytes16 _sid)  public view  returns(address[] memory){\r\n        return res_[_sid].buyers;\r\n    }\r\n\r\n\r\n    //TODO:\r\n    /// \r\n//    function getOrdersByClaim(bytes16 _cid) view public returns(){\r\n//        return claim_[_cid][orderList];\r\n//    }\r\n\r\n\r\n    /**\r\n     * @dev Query whether a particular user has purchased a resource\r\n     * @param _buyer address : User's address\r\n     * @param _sid bytes16   : id\r\n     * @return bool          : truefalse;\r\n     */\r\n    function isBought(address _buyer, bytes16 _sid)  public view  returns(bool){\r\n        // \r\n        if (res_[_sid].bought[_buyer] == 0 ){\r\n            return false;\r\n        }\r\n        return true;\r\n    }\r\n}\r\n",
  "sourcePath": "E:\\contracts\\contracts\\InfoDB.sol",
  "compiler": {
    "name": "solc",
    "version": "0.6.3+commit.8dda9521.Emscripten.clang"
  },
  "schemaVersion": "3.0.23",
  "updatedAt": "2020-04-07T04:37:03.305Z",
  "networkType": "ethereum",
  "devdoc": {
    "details": "Used to query.",
    "methods": {
      "acceptOwnership()": {
        "details": "Allows the newOwner address to finalize the transfer."
      },
      "getConsumerByResource(bytes16)": {
        "details": "",
        "params": {
          "_sid": "bytes16   :  claimID"
        },
        "returns": {
          "_0": "address[] : "
        }
      },
      "getOrdersByUser(address)": {
        "details": "",
        "params": {
          "_buyer": "address   : User's address"
        },
        "returns": {
          "_0": "bytes32[] : orderIDbytes32"
        }
      },
      "getResourceByAuthor(address)": {
        "details": "Query all resources the author has published.",
        "params": {
          "_author": "address   : Author's address"
        },
        "returns": {
          "_0": "bytes16[] : claimIDbytes16"
        }
      },
      "insertOrder(bytes32,bytes16,address)": {
        "details": "Record an order.",
        "params": {
          "_buyer": "address  : Buyer's address",
          "_oId": "bytes32  : Orders index(OrderID).",
          "_sid": "bytes16  : Resource index(ClaimID)."
        },
        "returns": {
          "_0": "bool     : The successful call returns true."
        }
      },
      "insertResource(bytes16,address)": {
        "details": "Record a resource generation.",
        "params": {
          "_author": "address  : Authors' address",
          "_sid": "bytes16  : Resource index(ClaimID)."
        },
        "returns": {
          "_0": "bool     : The successful call returns true."
        }
      },
      "isBought(address,bytes16)": {
        "details": "Query whether a particular user has purchased a resource",
        "params": {
          "_buyer": "address : User's address",
          "_sid": "bytes16   : id"
        },
        "returns": {
          "_0": "bool          : truefalse;"
        }
      },
      "mangeWhiteList(address,bool)": {
        "details": "",
        "params": {
          "_allow": "bool     : truefalse",
          "_target": "address  : "
        },
        "returns": {
          "_0": "bool     : true"
        }
      },
      "mulInsertWhite(address[])": {
        "details": "",
        "params": {
          "_addresses": "address[] : "
        },
        "returns": {
          "_0": "bool      : true"
        }
      },
      "renounceOwnership()": {
        "details": "Allows the current owner to relinquish control of the contract."
      },
      "transferAdminship(address)": {
        "details": "Allows the current admin to transfer control of the contract to a newadmin.",
        "params": {
          "_newAdmin": "address : new admin address"
        }
      },
      "transferOwnership(address)": {
        "details": "Allows the current owner to transfer control of the contract to a newOwner.",
        "params": {
          "_newOwner": "The address to transfer ownership to."
        }
      }
    },
    "title": "InfoDB"
  },
  "userdoc": {
    "methods": {
      "mangeWhiteList(address,bool)": {
        "notice": ""
      },
      "mulInsertWhite(address[])": {
        "notice": ""
      },
      "renounceOwnership()": {
        "notice": "Renouncing to ownership will leave the contract without an owner. It will not be possible to call the functions with the `onlyOwner` modifier anymore."
      }
    },
    "notice": "Whitelist permission is required for data writing"
  }
}