{
  "contractName": "OrderDB",
  "abi": [
    {
      "inputs": [],
      "stateMutability": "nonpayable",
      "type": "constructor"
    },
    {
      "anonymous": false,
      "inputs": [
        {
          "indexed": false,
          "internalType": "string",
          "name": "info",
          "type": "string"
        },
        {
          "indexed": false,
          "internalType": "address",
          "name": "_resId",
          "type": "address"
        },
        {
          "indexed": true,
          "internalType": "address",
          "name": "_author",
          "type": "address"
        },
        {
          "indexed": false,
          "internalType": "address",
          "name": "who",
          "type": "address"
        }
      ],
      "name": "LogAddress",
      "type": "event"
    },
    {
      "anonymous": false,
      "inputs": [
        {
          "indexed": true,
          "internalType": "address",
          "name": "_old",
          "type": "address"
        },
        {
          "indexed": true,
          "internalType": "address",
          "name": "_new",
          "type": "address"
        }
      ],
      "name": "LogAdminshipTransferred",
      "type": "event"
    },
    {
      "anonymous": false,
      "inputs": [
        {
          "indexed": false,
          "internalType": "enum ErrorModule.RScorr",
          "name": "_errorNumber",
          "type": "uint8"
        }
      ],
      "name": "LogError",
      "type": "event"
    },
    {
      "anonymous": false,
      "inputs": [
        {
          "indexed": false,
          "internalType": "bytes32",
          "name": "orderId",
          "type": "bytes32"
        },
        {
          "indexed": false,
          "internalType": "bytes16",
          "name": "resourceId",
          "type": "bytes16"
        },
        {
          "indexed": true,
          "internalType": "address",
          "name": "author",
          "type": "address"
        },
        {
          "indexed": true,
          "internalType": "address",
          "name": "payer",
          "type": "address"
        },
        {
          "indexed": false,
          "internalType": "uint256",
          "name": "value",
          "type": "uint256"
        }
      ],
      "name": "LogNewOrder",
      "type": "event"
    },
    {
      "anonymous": false,
      "inputs": [
        {
          "indexed": true,
          "internalType": "address",
          "name": "previousOwner",
          "type": "address"
        }
      ],
      "name": "LogOwnershipRenounced",
      "type": "event"
    },
    {
      "anonymous": false,
      "inputs": [
        {
          "indexed": true,
          "internalType": "address",
          "name": "previousOwner",
          "type": "address"
        },
        {
          "indexed": true,
          "internalType": "address",
          "name": "newOwner",
          "type": "address"
        }
      ],
      "name": "LogOwnershipTransferred",
      "type": "event"
    },
    {
      "anonymous": false,
      "inputs": [
        {
          "indexed": false,
          "internalType": "bytes32",
          "name": "orderId",
          "type": "bytes32"
        }
      ],
      "name": "LogRemoveOrder",
      "type": "event"
    },
    {
      "anonymous": false,
      "inputs": [
        {
          "indexed": true,
          "internalType": "address",
          "name": "_target",
          "type": "address"
        },
        {
          "indexed": false,
          "internalType": "bool",
          "name": "_allow",
          "type": "bool"
        }
      ],
      "name": "LogWhileChanged",
      "type": "event"
    },
    {
      "inputs": [],
      "name": "acceptOwnership",
      "outputs": [],
      "stateMutability": "nonpayable",
      "type": "function"
    },
    {
      "inputs": [],
      "name": "admin",
      "outputs": [
        {
          "internalType": "address",
          "name": "",
          "type": "address"
        }
      ],
      "stateMutability": "view",
      "type": "function",
      "constant": true
    },
    {
      "inputs": [
        {
          "internalType": "address",
          "name": "_target",
          "type": "address"
        },
        {
          "internalType": "bool",
          "name": "_allow",
          "type": "bool"
        }
      ],
      "name": "mangeWhiteList",
      "outputs": [
        {
          "internalType": "bool",
          "name": "",
          "type": "bool"
        }
      ],
      "stateMutability": "nonpayable",
      "type": "function"
    },
    {
      "inputs": [
        {
          "internalType": "address[]",
          "name": "_addresses",
          "type": "address[]"
        }
      ],
      "name": "mulInsertWhite",
      "outputs": [
        {
          "internalType": "bool",
          "name": "",
          "type": "bool"
        }
      ],
      "stateMutability": "nonpayable",
      "type": "function"
    },
    {
      "inputs": [],
      "name": "newOwner",
      "outputs": [
        {
          "internalType": "address",
          "name": "",
          "type": "address"
        }
      ],
      "stateMutability": "view",
      "type": "function",
      "constant": true
    },
    {
      "inputs": [],
      "name": "owner",
      "outputs": [
        {
          "internalType": "address",
          "name": "",
          "type": "address"
        }
      ],
      "stateMutability": "view",
      "type": "function",
      "constant": true
    },
    {
      "inputs": [],
      "name": "renounceOwnership",
      "outputs": [],
      "stateMutability": "nonpayable",
      "type": "function"
    },
    {
      "inputs": [
        {
          "internalType": "bytes32",
          "name": "",
          "type": "bytes32"
        }
      ],
      "name": "store_",
      "outputs": [
        {
          "internalType": "uint256",
          "name": "time",
          "type": "uint256"
        },
        {
          "internalType": "uint256",
          "name": "value",
          "type": "uint256"
        },
        {
          "internalType": "address",
          "name": "author",
          "type": "address"
        },
        {
          "internalType": "address",
          "name": "payer",
          "type": "address"
        },
        {
          "internalType": "bytes16",
          "name": "resId",
          "type": "bytes16"
        }
      ],
      "stateMutability": "view",
      "type": "function",
      "constant": true
    },
    {
      "inputs": [
        {
          "internalType": "address",
          "name": "_newAdmin",
          "type": "address"
        }
      ],
      "name": "transferAdminship",
      "outputs": [],
      "stateMutability": "nonpayable",
      "type": "function"
    },
    {
      "inputs": [
        {
          "internalType": "address",
          "name": "_newOwner",
          "type": "address"
        }
      ],
      "name": "transferOwnership",
      "outputs": [],
      "stateMutability": "nonpayable",
      "type": "function"
    },
    {
      "inputs": [
        {
          "internalType": "address",
          "name": "",
          "type": "address"
        }
      ],
      "name": "whitelist_",
      "outputs": [
        {
          "internalType": "bool",
          "name": "",
          "type": "bool"
        }
      ],
      "stateMutability": "view",
      "type": "function",
      "constant": true
    },
    {
      "inputs": [
        {
          "internalType": "bytes32",
          "name": "_orderId",
          "type": "bytes32"
        },
        {
          "internalType": "address",
          "name": "_author",
          "type": "address"
        },
        {
          "internalType": "bytes16",
          "name": "_resId",
          "type": "bytes16"
        },
        {
          "internalType": "address",
          "name": "_payer",
          "type": "address"
        },
        {
          "internalType": "uint256",
          "name": "_value",
          "type": "uint256"
        }
      ],
      "name": "insert",
      "outputs": [
        {
          "internalType": "bool",
          "name": "",
          "type": "bool"
        }
      ],
      "stateMutability": "nonpayable",
      "type": "function"
    },
    {
      "inputs": [
        {
          "internalType": "bytes32",
          "name": "_orderId",
          "type": "bytes32"
        }
      ],
      "name": "remove",
      "outputs": [
        {
          "internalType": "bool",
          "name": "",
          "type": "bool"
        }
      ],
      "stateMutability": "nonpayable",
      "type": "function"
    },
    {
      "inputs": [
        {
          "internalType": "bytes32",
          "name": "_orderId",
          "type": "bytes32"
        }
      ],
      "name": "isExist",
      "outputs": [
        {
          "internalType": "bool",
          "name": "",
          "type": "bool"
        }
      ],
      "stateMutability": "view",
      "type": "function",
      "constant": true
    },
    {
      "inputs": [
        {
          "internalType": "bytes32",
          "name": "_orderId",
          "type": "bytes32"
        }
      ],
      "name": "getOrderInfoByID",
      "outputs": [
        {
          "internalType": "uint256",
          "name": "time",
          "type": "uint256"
        },
        {
          "internalType": "uint256",
          "name": "value",
          "type": "uint256"
        },
        {
          "internalType": "address",
          "name": "author",
          "type": "address"
        },
        {
          "internalType": "address",
          "name": "payer",
          "type": "address"
        },
        {
          "internalType": "bytes16",
          "name": "resId",
          "type": "bytes16"
        }
      ],
      "stateMutability": "view",
      "type": "function",
      "constant": true
    }
  ],
  "bytecode": "0x608060405234801561001057600080fd5b5073482ba190ce6f932808a745173e733ccb19ae9b5e6000806101000a81548173ffffffffffffffffffffffffffffffffffffffff021916908373ffffffffffffffffffffffffffffffffffffffff16021790555033600260006101000a81548173ffffffffffffffffffffffffffffffffffffffff021916908373ffffffffffffffffffffffffffffffffffffffff160217905550336000806101000a81548173ffffffffffffffffffffffffffffffffffffffff021916908373ffffffffffffffffffffffffffffffffffffffff160217905550336000806101000a81548173ffffffffffffffffffffffffffffffffffffffff021916908373ffffffffffffffffffffffffffffffffffffffff16021790555033600260006101000a81548173ffffffffffffffffffffffffffffffffffffffff021916908373ffffffffffffffffffffffffffffffffffffffff1602179055506000809054906101000a900473ffffffffffffffffffffffffffffffffffffffff1673ffffffffffffffffffffffffffffffffffffffff167f9e6965ca244a67ad615b5114db3886405a40a12f1190493f8e9201020885af1d600260009054906101000a900473ffffffffffffffffffffffffffffffffffffffff163360405180806020018473ffffffffffffffffffffffffffffffffffffffff1673ffffffffffffffffffffffffffffffffffffffff1681526020018373ffffffffffffffffffffffffffffffffffffffff1673ffffffffffffffffffffffffffffffffffffffff1681526020018281038252600a8152602001807f636f6e73747275636f7200000000000000000000000000000000000000000000815250602001935050505060405180910390a2611a6d806102a06000396000f3fe608060405234801561001057600080fd5b50600436106100f55760003560e01c806379ba509711610097578063d4ee1d9011610066578063d4ee1d90146105c5578063e56a7c5d1461060f578063f2fde38b1461066b578063f851a440146106af576100f5565b806379ba5097146104c35780638da5cb5b146104cd57806395bc267314610517578063a8e1fba31461055d576100f5565b80635d1d1e67116100d35780635d1d1e67146102ea57806363e319f4146103c6578063715018a614610473578063762fee181461047d576100f5565b8063224447eb146100fa57806335e60e89146101d65780635be7cc16146102a6575b600080fd5b6101266004803603602081101561011057600080fd5b81019080803590602001909291905050506106f9565b604051808681526020018581526020018473ffffffffffffffffffffffffffffffffffffffff1673ffffffffffffffffffffffffffffffffffffffff1681526020018373ffffffffffffffffffffffffffffffffffffffff1673ffffffffffffffffffffffffffffffffffffffff168152602001826fffffffffffffffffffffffffffffffff19166fffffffffffffffffffffffffffffffff191681526020019550505050505060405180910390f35b61028c600480360360208110156101ec57600080fd5b810190808035906020019064010000000081111561020957600080fd5b82018360208201111561021b57600080fd5b8035906020019184602083028401116401000000008311171561023d57600080fd5b919080806020026020016040519081016040528093929190818152602001838360200280828437600081840152601f19601f82011690508083019250505050505050919291929050505061077c565b604051808215151515815260200191505060405180910390f35b6102e8600480360360208110156102bc57600080fd5b81019080803573ffffffffffffffffffffffffffffffffffffffff169060200190929190505050610a2b565b005b6103166004803603602081101561030057600080fd5b8101908080359060200190929190505050610c05565b604051808681526020018581526020018473ffffffffffffffffffffffffffffffffffffffff1673ffffffffffffffffffffffffffffffffffffffff1681526020018373ffffffffffffffffffffffffffffffffffffffff1673ffffffffffffffffffffffffffffffffffffffff168152602001826fffffffffffffffffffffffffffffffff19166fffffffffffffffffffffffffffffffff191681526020019550505050505060405180910390f35b610459600480360360a08110156103dc57600080fd5b8101908080359060200190929190803573ffffffffffffffffffffffffffffffffffffffff16906020019092919080356fffffffffffffffffffffffffffffffff19169060200190929190803573ffffffffffffffffffffffffffffffffffffffff16906020019092919080359060200190929190505050610ce0565b604051808215151515815260200191505060405180910390f35b61047b610fdd565b005b6104a96004803603602081101561049357600080fd5b8101908080359060200190929190505050611146565b604051808215151515815260200191505060405180910390f35b6104cb611178565b005b6104d561137d565b604051808273ffffffffffffffffffffffffffffffffffffffff1673ffffffffffffffffffffffffffffffffffffffff16815260200191505060405180910390f35b6105436004803603602081101561052d57600080fd5b81019080803590602001909291905050506113a2565b604051808215151515815260200191505060405180910390f35b6105ab6004803603604081101561057357600080fd5b81019080803573ffffffffffffffffffffffffffffffffffffffff1690602001909291908035151590602001909291905050506115e9565b604051808215151515815260200191505060405180910390f35b6105cd611822565b604051808273ffffffffffffffffffffffffffffffffffffffff1673ffffffffffffffffffffffffffffffffffffffff16815260200191505060405180910390f35b6106516004803603602081101561062557600080fd5b81019080803573ffffffffffffffffffffffffffffffffffffffff169060200190929190505050611848565b604051808215151515815260200191505060405180910390f35b6106ad6004803603602081101561068157600080fd5b81019080803573ffffffffffffffffffffffffffffffffffffffff169060200190929190505050611868565b005b6106b7611a11565b604051808273ffffffffffffffffffffffffffffffffffffffff1673ffffffffffffffffffffffffffffffffffffffff16815260200191505060405180910390f35b60046020528060005260406000206000915090508060000154908060010154908060020160009054906101000a900473ffffffffffffffffffffffffffffffffffffffff16908060030160009054906101000a900473ffffffffffffffffffffffffffffffffffffffff16908060040160009054906101000a900460801b905085565b60008060009054906101000a900473ffffffffffffffffffffffffffffffffffffffff1673ffffffffffffffffffffffffffffffffffffffff163373ffffffffffffffffffffffffffffffffffffffff16141580156108295750600260009054906101000a900473ffffffffffffffffffffffffffffffffffffffff1673ffffffffffffffffffffffffffffffffffffffff163373ffffffffffffffffffffffffffffffffffffffff1614155b1561087d577f0489f2369368f4688acd012107ac5a7d98ca739b913449d852f35d871e433cc3600f6040518082601d81111561086157fe5b60ff16815260200191505060405180910390a160009050610a26565b60008090505b8251811015610a2057600073ffffffffffffffffffffffffffffffffffffffff168382815181106108b057fe5b602002602001015173ffffffffffffffffffffffffffffffffffffffff161415610942576040517f08c379a000000000000000000000000000000000000000000000000000000000815260040180806020018281038252600f8152602001807f61646472657373206973206e756c6c000000000000000000000000000000000081525060200191505060405180910390fd5b60016003600085848151811061095457fe5b602002602001015173ffffffffffffffffffffffffffffffffffffffff1673ffffffffffffffffffffffffffffffffffffffff16815260200190815260200160002060006101000a81548160ff0219169083151502179055508281815181106109b957fe5b602002602001015173ffffffffffffffffffffffffffffffffffffffff167f9b3b880c67f4fab4215412179771cffd326a045e6016a7e363eb38460f7e91766001604051808215151515815260200191505060405180910390a28080600101915050610883565b50600190505b919050565b6000809054906101000a900473ffffffffffffffffffffffffffffffffffffffff1673ffffffffffffffffffffffffffffffffffffffff163373ffffffffffffffffffffffffffffffffffffffff161480610ad35750600260009054906101000a900473ffffffffffffffffffffffffffffffffffffffff1673ffffffffffffffffffffffffffffffffffffffff163373ffffffffffffffffffffffffffffffffffffffff16145b610b45576040517f08c379a000000000000000000000000000000000000000000000000000000000815260040180806020018281038252600b8152602001807f6e6f2069732061646d696e00000000000000000000000000000000000000000081525060200191505060405180910390fd5b8073ffffffffffffffffffffffffffffffffffffffff16600260009054906101000a900473ffffffffffffffffffffffffffffffffffffffff1673ffffffffffffffffffffffffffffffffffffffff167ff73aa4459d935dbacd9313fffe485016147551d99ef401461704cd39e6e9028760405160405180910390a380600260006101000a81548173ffffffffffffffffffffffffffffffffffffffff021916908373ffffffffffffffffffffffffffffffffffffffff16021790555050565b6000806000806000600460008781526020019081526020016000206000015460046000888152602001908152602001600020600101546004600089815260200190815260200160002060020160009054906101000a900473ffffffffffffffffffffffffffffffffffffffff16600460008a815260200190815260200160002060030160009054906101000a900473ffffffffffffffffffffffffffffffffffffffff16600460008b815260200190815260200160002060040160009054906101000a900460801b9450945094509450945091939590929450565b600060011515600360003373ffffffffffffffffffffffffffffffffffffffff1673ffffffffffffffffffffffffffffffffffffffff16815260200190815260200160002060009054906101000a900460ff16151514610d89577f0489f2369368f4688acd012107ac5a7d98ca739b913449d852f35d871e433cc3600e6040518082601d811115610d6d57fe5b60ff16815260200191505060405180910390a160009050610fd4565b610d9286611146565b15610de6577f0489f2369368f4688acd012107ac5a7d98ca739b913449d852f35d871e433cc3600a6040518082601d811115610dca57fe5b60ff16815260200191505060405180910390a160009050610fd4565b6040518060a001604052804281526020018381526020018673ffffffffffffffffffffffffffffffffffffffff1681526020018473ffffffffffffffffffffffffffffffffffffffff168152602001856fffffffffffffffffffffffffffffffff191681525060046000888152602001908152602001600020600082015181600001556020820151816001015560408201518160020160006101000a81548173ffffffffffffffffffffffffffffffffffffffff021916908373ffffffffffffffffffffffffffffffffffffffff16021790555060608201518160030160006101000a81548173ffffffffffffffffffffffffffffffffffffffff021916908373ffffffffffffffffffffffffffffffffffffffff16021790555060808201518160040160006101000a8154816fffffffffffffffffffffffffffffffff021916908360801c02179055509050508273ffffffffffffffffffffffffffffffffffffffff168573ffffffffffffffffffffffffffffffffffffffff167fe46a76ede8736e6aa8566d61daadbca8a343f5e976a836574876ce02a62102e288878660405180848152602001836fffffffffffffffffffffffffffffffff19166fffffffffffffffffffffffffffffffff19168152602001828152602001935050505060405180910390a3600190505b95945050505050565b6000809054906101000a900473ffffffffffffffffffffffffffffffffffffffff1673ffffffffffffffffffffffffffffffffffffffff163373ffffffffffffffffffffffffffffffffffffffff161461109f576040517f08c379a000000000000000000000000000000000000000000000000000000000815260040180806020018281038252600b8152602001807f6e6f206973204f776e657200000000000000000000000000000000000000000081525060200191505060405180910390fd5b6000809054906101000a900473ffffffffffffffffffffffffffffffffffffffff1673ffffffffffffffffffffffffffffffffffffffff167f2dde1bc8b58ef192e7df3e7a354521d958331021e450d544346b936936916ef460405160405180910390a260008060006101000a81548173ffffffffffffffffffffffffffffffffffffffff021916908373ffffffffffffffffffffffffffffffffffffffff160217905550565b60008060046000848152602001908152602001600020600001541461116e5760019050611173565b600090505b919050565b6000809054906101000a900473ffffffffffffffffffffffffffffffffffffffff1673ffffffffffffffffffffffffffffffffffffffff163373ffffffffffffffffffffffffffffffffffffffff161461123a576040517f08c379a000000000000000000000000000000000000000000000000000000000815260040180806020018281038252600d8152602001807f6e6f7420746865206f776e65720000000000000000000000000000000000000081525060200191505060405180910390fd5b600160009054906101000a900473ffffffffffffffffffffffffffffffffffffffff1673ffffffffffffffffffffffffffffffffffffffff166000809054906101000a900473ffffffffffffffffffffffffffffffffffffffff1673ffffffffffffffffffffffffffffffffffffffff167fdb6d05f3295cede580affa301a1eb5297528f3b3f6a56b075887ce6f61c45f2160405160405180910390a3600160009054906101000a900473ffffffffffffffffffffffffffffffffffffffff166000806101000a81548173ffffffffffffffffffffffffffffffffffffffff021916908373ffffffffffffffffffffffffffffffffffffffff1602179055506000600160006101000a81548173ffffffffffffffffffffffffffffffffffffffff021916908373ffffffffffffffffffffffffffffffffffffffff160217905550565b6000809054906101000a900473ffffffffffffffffffffffffffffffffffffffff1681565b60008060009054906101000a900473ffffffffffffffffffffffffffffffffffffffff1673ffffffffffffffffffffffffffffffffffffffff163373ffffffffffffffffffffffffffffffffffffffff161415801561144f5750600260009054906101000a900473ffffffffffffffffffffffffffffffffffffffff1673ffffffffffffffffffffffffffffffffffffffff163373ffffffffffffffffffffffffffffffffffffffff1614155b156114a3577f0489f2369368f4688acd012107ac5a7d98ca739b913449d852f35d871e433cc3600f6040518082601d81111561148757fe5b60ff16815260200191505060405180910390a1600090506115e4565b600060046000848152602001908152602001600020600001541415611511577f0489f2369368f4688acd012107ac5a7d98ca739b913449d852f35d871e433cc360096040518082601d8111156114f557fe5b60ff16815260200191505060405180910390a1600090506115e4565b6004600083815260200190815260200160002060008082016000905560018201600090556002820160006101000a81549073ffffffffffffffffffffffffffffffffffffffff02191690556003820160006101000a81549073ffffffffffffffffffffffffffffffffffffffff02191690556004820160006101000a8154906fffffffffffffffffffffffffffffffff021916905550507f996eb95035696d46910fbd9cd1d5c01347adedb018480f8f038a2c59241d255f826040518082815260200191505060405180910390a1600190505b919050565b60008060009054906101000a900473ffffffffffffffffffffffffffffffffffffffff1673ffffffffffffffffffffffffffffffffffffffff163373ffffffffffffffffffffffffffffffffffffffff16141580156116965750600260009054906101000a900473ffffffffffffffffffffffffffffffffffffffff1673ffffffffffffffffffffffffffffffffffffffff163373ffffffffffffffffffffffffffffffffffffffff1614155b156116ea577f0489f2369368f4688acd012107ac5a7d98ca739b913449d852f35d871e433cc3600f6040518082601d8111156116ce57fe5b60ff16815260200191505060405180910390a16000905061181c565b600073ffffffffffffffffffffffffffffffffffffffff168373ffffffffffffffffffffffffffffffffffffffff16141561176e577f0489f2369368f4688acd012107ac5a7d98ca739b913449d852f35d871e433cc360026040518082601d81111561175257fe5b60ff16815260200191505060405180910390a16000905061181c565b81600360008573ffffffffffffffffffffffffffffffffffffffff1673ffffffffffffffffffffffffffffffffffffffff16815260200190815260200160002060006101000a81548160ff0219169083151502179055508273ffffffffffffffffffffffffffffffffffffffff167f9b3b880c67f4fab4215412179771cffd326a045e6016a7e363eb38460f7e917683604051808215151515815260200191505060405180910390a2600190505b92915050565b600160009054906101000a900473ffffffffffffffffffffffffffffffffffffffff1681565b60036020528060005260406000206000915054906101000a900460ff1681565b6000809054906101000a900473ffffffffffffffffffffffffffffffffffffffff1673ffffffffffffffffffffffffffffffffffffffff163373ffffffffffffffffffffffffffffffffffffffff161461192a576040517f08c379a000000000000000000000000000000000000000000000000000000000815260040180806020018281038252600b8152602001807f6e6f206973204f776e657200000000000000000000000000000000000000000081525060200191505060405180910390fd5b600073ffffffffffffffffffffffffffffffffffffffff168173ffffffffffffffffffffffffffffffffffffffff1614156119cd576040517f08c379a00000000000000000000000000000000000000000000000000000000081526004018080602001828103825260108152602001807f6e65774f776e6572206973206e756c6c0000000000000000000000000000000081525060200191505060405180910390fd5b80600160006101000a81548173ffffffffffffffffffffffffffffffffffffffff021916908373ffffffffffffffffffffffffffffffffffffffff16021790555050565b600260009054906101000a900473ffffffffffffffffffffffffffffffffffffffff168156fea2646970667358221220ddf4bb01a69465500c51454b85cd2f560f3ad391f116c626de4286e4bba3aca764736f6c63430006030033",
  "source": "pragma solidity >=0.5.12 <0.7.0;\r\n\r\nimport \"./WhiteMange.sol\";\r\nimport \"./SafeMath.sol\";\r\n\r\ncontract OrderDB is WhiteMange {\r\n    struct Order {\r\n        //,\r\n        uint256    time;       // \r\n        uint256    value;      // \r\n        address    author;   // \r\n        address    payer;      // \r\n        bytes16    resId;    // id\r\n    }\r\n\r\n    mapping (bytes32 => Order) public store_;\r\n\r\n\r\n    event LogNewOrder(\r\n        bytes32 orderId,\r\n        bytes16 resourceId,\r\n        address indexed author,\r\n        address indexed payer,\r\n        uint value\r\n    );\r\n\r\n    event LogRemoveOrder(bytes32 orderId);\r\n\r\n    constructor() public {\r\n       owner = msg.sender;\r\n       admin = msg.sender;\r\n        emit  LogAddress(\"construcor\",admin, owner,msg.sender);\r\n    }\r\n\r\n    /**\r\n     * @dev \r\n     * @param _orderId  bytes32 : ID\r\n     * @param _author   address : \r\n     * @param _resId    bytes16 : id\r\n     * @param _payer    address : \r\n     * @param _value     uint256 : \r\n     * @return          bool    : true\r\n     */\r\n    function insert(bytes32 _orderId, address _author,bytes16 _resId,\r\n                     address _payer,uint256 _value)\r\n        public\r\n        returns(bool)\r\n    {\r\n        if (whitelist_[msg.sender] != true){\r\n            emit LogError(RScorr.Insufficient);\r\n            return false;\r\n        } // Check the caller's whitelist permission.\r\n\r\n        if (isExist(_orderId)){\r\n            emit LogError(RScorr.ObjExist);\r\n            return false;\r\n        } // Check if the resource exists.\r\n\r\n        store_[_orderId] = Order({\r\n            time : block.timestamp,\r\n            value : _value,\r\n            author : _author,\r\n            payer : _payer,\r\n            resId : _resId\r\n        });\r\n\r\n        // store_[_orderId] = Order(now,_price,_cost,_customer,_payer,_claimid);\r\n\r\n        emit LogNewOrder(_orderId, _resId, _author, _payer,_value);\r\n        return true;\r\n    }\r\n\r\n    /**\r\n     * @dev \r\n     * @notice \r\n     * @param _orderId bytes32 : ID\r\n     * @return         bool    : true\r\n     */\r\n    function remove(bytes32 _orderId) public returns(bool) {\r\n        if(msg.sender != owner && msg.sender != admin){\r\n            emit LogError(RScorr.PermissionDenied);\r\n            return false;\r\n        } // \r\n\r\n        if(store_[_orderId].time == 0){\r\n            emit LogError(RScorr.ObjNotExist);\r\n            return false;\r\n        } // \r\n\r\n        delete store_[_orderId];\r\n        emit LogRemoveOrder(_orderId);\r\n\r\n        return true;\r\n    }\r\n\r\n    // function delete() public returns(bool){}\r\n\r\n    // function update() public returns(bool){}\r\n\r\n    // function find() public returns(bool){}\r\n\r\n\r\n    /////////////////////////\r\n    /// View\r\n    /////////////////////////\r\n\r\n    /**\r\n     * @dev \r\n     * @param _orderId bytes32 : id\r\n     * @return         bool    : true, false\r\n     */\r\n    function isExist(bytes32 _orderId) public view returns(bool){\r\n        if (store_[_orderId].time != 0) {\r\n            return true;\r\n        }\r\n        return false;\r\n    }\r\n\r\n    /**\r\n     * @dev \r\n     * @param _orderId bytes32  : ID\r\n     */\r\n    function getOrderInfoByID(bytes32 _orderId) public view  returns(\r\n        uint256 time,     uint256 value,\r\n        address author, address payer,  bytes16 resId)\r\n    {\r\n\r\n        return(\r\n            store_[_orderId].time,\r\n            store_[_orderId].value,\r\n            store_[_orderId].author,\r\n            store_[_orderId].payer,\r\n            store_[_orderId].resId\r\n        );\r\n    }\r\n}\r\n\r\n\r\n\r\n",
  "sourcePath": "E:\\contracts\\contracts\\OrderDB.sol",
  "compiler": {
    "name": "solc",
    "version": "0.6.3+commit.8dda9521.Emscripten.clang"
  },
  "schemaVersion": "3.0.23",
  "updatedAt": "2020-03-07T03:13:29.934Z",
  "networkType": "ethereum",
  "devdoc": {
    "methods": {
      "acceptOwnership()": {
        "details": "Allows the newOwner address to finalize the transfer."
      },
      "getOrderInfoByID(bytes32)": {
        "details": "",
        "params": {
          "_orderId": "bytes32  : ID"
        }
      },
      "insert(bytes32,address,bytes16,address,uint256)": {
        "details": "",
        "params": {
          "_author": "address : ",
          "_orderId": "bytes32 : ID",
          "_payer": "address : ",
          "_resId": "bytes16 : id",
          "_value": "uint256 : "
        },
        "returns": {
          "_0": "bool    : true"
        }
      },
      "isExist(bytes32)": {
        "details": "",
        "params": {
          "_orderId": "bytes32 : id"
        },
        "returns": {
          "_0": "bool    : true, false"
        }
      },
      "mangeWhiteList(address,bool)": {
        "details": "",
        "params": {
          "_allow": "bool     : truefalse",
          "_target": "address  : "
        },
        "returns": {
          "_0": "bool     : true"
        }
      },
      "mulInsertWhite(address[])": {
        "details": "",
        "params": {
          "_addresses": "address[] : "
        },
        "returns": {
          "_0": "bool      : true"
        }
      },
      "remove(bytes32)": {
        "details": "",
        "params": {
          "_orderId": "bytes32 : ID"
        },
        "returns": {
          "_0": "bool    : true"
        }
      },
      "renounceOwnership()": {
        "details": "Allows the current owner to relinquish control of the contract."
      },
      "transferAdminship(address)": {
        "details": "Allows the current admin to transfer control of the contract to a newadmin.",
        "params": {
          "_newAdmin": "address : new admin address"
        }
      },
      "transferOwnership(address)": {
        "details": "Allows the current owner to transfer control of the contract to a newOwner.",
        "params": {
          "_newOwner": "The address to transfer ownership to."
        }
      }
    }
  },
  "userdoc": {
    "methods": {
      "mangeWhiteList(address,bool)": {
        "notice": ""
      },
      "mulInsertWhite(address[])": {
        "notice": ""
      },
      "remove(bytes32)": {
        "notice": ""
      },
      "renounceOwnership()": {
        "notice": "Renouncing to ownership will leave the contract without an owner. It will not be possible to call the functions with the `onlyOwner` modifier anymore."
      }
    }
  }
}