{
  "contractName": "Ownable",
  "abi": [
    {
      "anonymous": false,
      "inputs": [
        {
          "indexed": false,
          "internalType": "string",
          "name": "",
          "type": "string"
        },
        {
          "indexed": false,
          "internalType": "address",
          "name": "",
          "type": "address"
        },
        {
          "indexed": false,
          "internalType": "address",
          "name": "",
          "type": "address"
        }
      ],
      "name": "LogAddress",
      "type": "event"
    },
    {
      "anonymous": false,
      "inputs": [
        {
          "indexed": true,
          "internalType": "address",
          "name": "previousOwner",
          "type": "address"
        }
      ],
      "name": "LogOwnershipRenounced",
      "type": "event"
    },
    {
      "anonymous": false,
      "inputs": [
        {
          "indexed": true,
          "internalType": "address",
          "name": "previousOwner",
          "type": "address"
        },
        {
          "indexed": true,
          "internalType": "address",
          "name": "newOwner",
          "type": "address"
        }
      ],
      "name": "LogOwnershipTransferred",
      "type": "event"
    },
    {
      "inputs": [],
      "name": "newOwner",
      "outputs": [
        {
          "internalType": "address",
          "name": "",
          "type": "address"
        }
      ],
      "stateMutability": "view",
      "type": "function"
    },
    {
      "inputs": [],
      "name": "owner",
      "outputs": [
        {
          "internalType": "address",
          "name": "",
          "type": "address"
        }
      ],
      "stateMutability": "view",
      "type": "function"
    },
    {
      "inputs": [],
      "name": "renounceOwnership",
      "outputs": [],
      "stateMutability": "nonpayable",
      "type": "function"
    },
    {
      "inputs": [
        {
          "internalType": "address",
          "name": "_newOwner",
          "type": "address"
        }
      ],
      "name": "transferOwnership",
      "outputs": [],
      "stateMutability": "nonpayable",
      "type": "function"
    },
    {
      "inputs": [],
      "name": "acceptOwnership",
      "outputs": [],
      "stateMutability": "nonpayable",
      "type": "function"
    }
  ],
  "bytecode": "0x6080604052336000806101000a81548173ffffffffffffffffffffffffffffffffffffffff021916908373ffffffffffffffffffffffffffffffffffffffff16021790555061087f806100536000396000f3fe608060405234801561001057600080fd5b50600436106100575760003560e01c8063715018a61461005c57806379ba5097146100665780638da5cb5b14610070578063d4ee1d90146100ba578063f2fde38b14610104575b600080fd5b610064610148565b005b61006e61033b565b005b6100786105cb565b604051808273ffffffffffffffffffffffffffffffffffffffff1673ffffffffffffffffffffffffffffffffffffffff16815260200191505060405180910390f35b6100c26105f0565b604051808273ffffffffffffffffffffffffffffffffffffffff1673ffffffffffffffffffffffffffffffffffffffff16815260200191505060405180910390f35b6101466004803603602081101561011a57600080fd5b81019080803573ffffffffffffffffffffffffffffffffffffffff169060200190929190505050610616565b005b6000809054906101000a900473ffffffffffffffffffffffffffffffffffffffff1673ffffffffffffffffffffffffffffffffffffffff163373ffffffffffffffffffffffffffffffffffffffff161415610247576000809054906101000a900473ffffffffffffffffffffffffffffffffffffffff1673ffffffffffffffffffffffffffffffffffffffff167f2dde1bc8b58ef192e7df3e7a354521d958331021e450d544346b936936916ef460405160405180910390a260008060006101000a81548173ffffffffffffffffffffffffffffffffffffffff021916908373ffffffffffffffffffffffffffffffffffffffff160217905550610339565b7f6b26c3fc447c71078386bc5ad946c760ce605d2bc61b762901400eb9ac003a9a6000809054906101000a900473ffffffffffffffffffffffffffffffffffffffff163360405180806020018473ffffffffffffffffffffffffffffffffffffffff1673ffffffffffffffffffffffffffffffffffffffff1681526020018373ffffffffffffffffffffffffffffffffffffffff1673ffffffffffffffffffffffffffffffffffffffff1681526020018281038252600a8152602001807f6f6e6c79206f776e657200000000000000000000000000000000000000000000815250602001935050505060405180910390a15b565b600160009054906101000a900473ffffffffffffffffffffffffffffffffffffffff1673ffffffffffffffffffffffffffffffffffffffff163373ffffffffffffffffffffffffffffffffffffffff1614156104d757600160009054906101000a900473ffffffffffffffffffffffffffffffffffffffff1673ffffffffffffffffffffffffffffffffffffffff166000809054906101000a900473ffffffffffffffffffffffffffffffffffffffff1673ffffffffffffffffffffffffffffffffffffffff167fdb6d05f3295cede580affa301a1eb5297528f3b3f6a56b075887ce6f61c45f2160405160405180910390a3600160009054906101000a900473ffffffffffffffffffffffffffffffffffffffff166000806101000a81548173ffffffffffffffffffffffffffffffffffffffff021916908373ffffffffffffffffffffffffffffffffffffffff1602179055506000600160006101000a81548173ffffffffffffffffffffffffffffffffffffffff021916908373ffffffffffffffffffffffffffffffffffffffff1602179055506105c9565b7f6b26c3fc447c71078386bc5ad946c760ce605d2bc61b762901400eb9ac003a9a6000809054906101000a900473ffffffffffffffffffffffffffffffffffffffff163360405180806020018473ffffffffffffffffffffffffffffffffffffffff1673ffffffffffffffffffffffffffffffffffffffff1681526020018373ffffffffffffffffffffffffffffffffffffffff1673ffffffffffffffffffffffffffffffffffffffff1681526020018281038252600a8152602001807f6f6e6c79206f776e657200000000000000000000000000000000000000000000815250602001935050505060405180910390a15b565b6000809054906101000a900473ffffffffffffffffffffffffffffffffffffffff1681565b600160009054906101000a900473ffffffffffffffffffffffffffffffffffffffff1681565b6000809054906101000a900473ffffffffffffffffffffffffffffffffffffffff1673ffffffffffffffffffffffffffffffffffffffff163373ffffffffffffffffffffffffffffffffffffffff16141561075457600073ffffffffffffffffffffffffffffffffffffffff168173ffffffffffffffffffffffffffffffffffffffff16141561070e576040517f08c379a00000000000000000000000000000000000000000000000000000000081526004018080602001828103825260108152602001807f6e65774f776e6572206973206e756c6c0000000000000000000000000000000081525060200191505060405180910390fd5b80600160006101000a81548173ffffffffffffffffffffffffffffffffffffffff021916908373ffffffffffffffffffffffffffffffffffffffff160217905550610846565b7f6b26c3fc447c71078386bc5ad946c760ce605d2bc61b762901400eb9ac003a9a6000809054906101000a900473ffffffffffffffffffffffffffffffffffffffff163360405180806020018473ffffffffffffffffffffffffffffffffffffffff1673ffffffffffffffffffffffffffffffffffffffff1681526020018373ffffffffffffffffffffffffffffffffffffffff1673ffffffffffffffffffffffffffffffffffffffff1681526020018281038252600a8152602001807f6f6e6c79206f776e657200000000000000000000000000000000000000000000815250602001935050505060405180910390a15b5056fea2646970667358221220a3caf9cce3d5e3736ae8bb310d1dacc9b14a01672ac8eed3b1b06aaae7aac25364736f6c63430006030033",
  "source": "pragma solidity >=0.5.12 <0.7.0;\r\n/**\r\n * @title OwnBase\r\n * @dev The OwnBase contract has an owner address, and provides basic authorization control\r\n * functions, this simplifies the implementation of \"user permissions\".\r\n */\r\ncontract OwnBase {\r\n    address public owner;\r\n\r\n    event LogOwnershipRenounced(address indexed previousOwner);\r\n    event LogAddress(string, address, address);\r\n    event LogOwnershipTransferred(\r\n        address indexed previousOwner,\r\n        address indexed newOwner\r\n    );\r\n\r\n    /**\r\n     * @dev The OwnBase constructor sets the original `owner` of the contract to the sender\r\n     * account.\r\n     */\r\n    constructor() public {\r\n        owner = msg.sender;\r\n        //   owner = address();\r\n    }\r\n\r\n    /**\r\n     * @dev Throws if called by any account other than the owner.\r\n     */\r\n    modifier onlyOwner() {\r\n        if (msg.sender == owner) {\r\n            _;\r\n        } else {\r\n            emit LogAddress(\"only owner\", owner, msg.sender);\r\n        }\r\n        // require(msg.sender == owner,\"no is Owner\");\r\n    }\r\n\r\n    /**\r\n     * @dev Allows the current owner to transfer control of the contract to a newOwner.\r\n     * @param _newOwner address : The address to transfer ownership to.\r\n     */\r\n    function transferOwnership(address _newOwner) public virtual onlyOwner {\r\n        require(_newOwner != address(0), \"newOwner address is null\");\r\n        emit LogOwnershipTransferred(owner, _newOwner);\r\n        owner = _newOwner;\r\n    }\r\n\r\n    /**\r\n     * @dev Allows the current owner to relinquish control of the contract.\r\n     * @notice Renouncing to ownership will leave the contract without an owner.\r\n     * It will not be possible to call the functions with the `onlyOwner`\r\n     * modifier anymore.\r\n     */\r\n    function renounceOwnership() public onlyOwner {\r\n        emit LogOwnershipRenounced(owner);\r\n        owner = address(0);\r\n    }\r\n}\r\n\r\n/**\r\n * @title Ownable\r\n * @dev Extension for the OwnBase contract, where the ownership needs to be confirmed.\r\n * This allows the new owner to accept the transfer.\r\n */\r\ncontract Ownable is OwnBase {\r\n    address public newOwner;\r\n\r\n    /**\r\n     * @dev Throws if called by any account other than the owner.\r\n     */\r\n    modifier onlyNewOwner() {\r\n        if (msg.sender == newOwner) {\r\n            _;\r\n        }\r\n        else {\r\n             emit LogAddress(\"only owner\", owner, msg.sender);\r\n        }\r\n        //require(msg.sender == owner,\"not the owner\");\r\n    }\r\n\r\n    /**\r\n     * @dev Allows the current owner to transfer control of the contract to a newOwner.\r\n     * @param _newOwner The address to transfer ownership to.\r\n     */\r\n    function transferOwnership(address _newOwner) public override onlyOwner {\r\n        require(_newOwner != address(0), \"newOwner is null\");\r\n        newOwner = _newOwner;\r\n    }\r\n\r\n    /**\r\n     * @dev Allows the newOwner address to finalize the transfer.\r\n     */\r\n    function acceptOwnership() public onlyNewOwner {\r\n        emit LogOwnershipTransferred(owner, newOwner);\r\n        owner = newOwner;\r\n        newOwner = address(0);\r\n    }\r\n}\r\n\r\n/**\r\n * @title 管理员扩展模块\r\n * @dev 避免单点故障，导致合约管理权限丢失，因此增加一个管理员\r\n *     推荐一般使用admin，owner作为根权限保存。\r\n *    owner的权限比admin要高。\r\n */\r\ncontract OwnPlus is Ownable {\r\n    address public admin;\r\n\r\n    event LogAdminshipTransferred(address indexed _old, address indexed _new);\r\n    event LogAddress(\r\n        string info,\r\n        address _resId,\r\n        address indexed _author,\r\n        address who\r\n    );\r\n\r\n    constructor() public {\r\n        admin = msg.sender;\r\n        emit LogAddress(\"construcor\", admin, owner, msg.sender);\r\n    }\r\n\r\n    /**\r\n     * @dev Throws if called by any account other than the owner.\r\n     */\r\n    modifier onlyAdmin() {\r\n        if (msg.sender == owner || msg.sender == admin) {\r\n            _;\r\n        } else {\r\n            emit LogAddress(\"onlyAdmin\", admin, owner, msg.sender);\r\n        }\r\n    }\r\n\r\n    /**\r\n     * @dev Allows the current admin to transfer control of the contract to a newadmin.\r\n     * @param _newAdmin address : new admin address\r\n     */\r\n    function transferAdminship(address _newAdmin) public onlyAdmin {\r\n        emit LogAdminshipTransferred(admin, _newAdmin);\r\n        admin = _newAdmin;\r\n    }\r\n}\r\n",
  "sourcePath": "E:\\contracts\\contracts\\Ownable.sol",
  "compiler": {
    "name": "solc",
    "version": "0.6.3+commit.8dda9521.Emscripten.clang"
  },
  "schemaVersion": "3.0.23",
  "updatedAt": "2020-04-21T09:45:08.335Z",
  "devdoc": {
    "details": "Extension for the OwnBase contract, where the ownership needs to be confirmed. This allows the new owner to accept the transfer.",
    "methods": {
      "acceptOwnership()": {
        "details": "Allows the newOwner address to finalize the transfer."
      },
      "renounceOwnership()": {
        "details": "Allows the current owner to relinquish control of the contract."
      },
      "transferOwnership(address)": {
        "details": "Allows the current owner to transfer control of the contract to a newOwner.",
        "params": {
          "_newOwner": "The address to transfer ownership to."
        }
      }
    },
    "title": "Ownable"
  },
  "userdoc": {
    "methods": {
      "renounceOwnership()": {
        "notice": "Renouncing to ownership will leave the contract without an owner. It will not be possible to call the functions with the `onlyOwner` modifier anymore."
      }
    }
  }
}