{
  "contractName": "ResourceDB",
  "abi": [
    {
      "inputs": [],
      "stateMutability": "nonpayable",
      "type": "constructor"
    },
    {
      "anonymous": false,
      "inputs": [
        {
          "indexed": false,
          "internalType": "string",
          "name": "info",
          "type": "string"
        },
        {
          "indexed": false,
          "internalType": "address",
          "name": "_resId",
          "type": "address"
        },
        {
          "indexed": true,
          "internalType": "address",
          "name": "_author",
          "type": "address"
        },
        {
          "indexed": false,
          "internalType": "address",
          "name": "who",
          "type": "address"
        }
      ],
      "name": "LogAddress",
      "type": "event"
    },
    {
      "anonymous": false,
      "inputs": [
        {
          "indexed": false,
          "internalType": "string",
          "name": "",
          "type": "string"
        },
        {
          "indexed": false,
          "internalType": "address",
          "name": "",
          "type": "address"
        },
        {
          "indexed": false,
          "internalType": "address",
          "name": "",
          "type": "address"
        }
      ],
      "name": "LogAddress",
      "type": "event"
    },
    {
      "anonymous": false,
      "inputs": [
        {
          "indexed": true,
          "internalType": "address",
          "name": "_old",
          "type": "address"
        },
        {
          "indexed": true,
          "internalType": "address",
          "name": "_new",
          "type": "address"
        }
      ],
      "name": "LogAdminshipTransferred",
      "type": "event"
    },
    {
      "anonymous": false,
      "inputs": [
        {
          "indexed": false,
          "internalType": "bytes16",
          "name": "_resId",
          "type": "bytes16"
        }
      ],
      "name": "LogDeleteResource",
      "type": "event"
    },
    {
      "anonymous": false,
      "inputs": [
        {
          "indexed": false,
          "internalType": "enum ErrorModule.RScorr",
          "name": "_errorNumber",
          "type": "uint8"
        }
      ],
      "name": "LogError",
      "type": "event"
    },
    {
      "anonymous": false,
      "inputs": [
        {
          "indexed": false,
          "internalType": "bytes16",
          "name": "_resId",
          "type": "bytes16"
        },
        {
          "indexed": true,
          "internalType": "address",
          "name": "_author",
          "type": "address"
        }
      ],
      "name": "LogNewResource",
      "type": "event"
    },
    {
      "anonymous": false,
      "inputs": [
        {
          "indexed": true,
          "internalType": "address",
          "name": "previousOwner",
          "type": "address"
        }
      ],
      "name": "LogOwnershipRenounced",
      "type": "event"
    },
    {
      "anonymous": false,
      "inputs": [
        {
          "indexed": true,
          "internalType": "address",
          "name": "previousOwner",
          "type": "address"
        },
        {
          "indexed": true,
          "internalType": "address",
          "name": "newOwner",
          "type": "address"
        }
      ],
      "name": "LogOwnershipTransferred",
      "type": "event"
    },
    {
      "anonymous": false,
      "inputs": [
        {
          "indexed": false,
          "internalType": "bytes16",
          "name": "_resId",
          "type": "bytes16"
        },
        {
          "indexed": true,
          "internalType": "address",
          "name": "_author",
          "type": "address"
        },
        {
          "indexed": false,
          "internalType": "string",
          "name": "_ipfs",
          "type": "string"
        },
        {
          "indexed": false,
          "internalType": "string[]",
          "name": "_thubanail",
          "type": "string[]"
        },
        {
          "indexed": false,
          "internalType": "string",
          "name": "_cover",
          "type": "string"
        }
      ],
      "name": "LogUpdateResource",
      "type": "event"
    },
    {
      "anonymous": false,
      "inputs": [
        {
          "indexed": false,
          "internalType": "bytes16",
          "name": "_resourceId",
          "type": "bytes16"
        },
        {
          "indexed": true,
          "internalType": "address",
          "name": "_author",
          "type": "address"
        },
        {
          "indexed": false,
          "internalType": "bool",
          "name": "_waive",
          "type": "bool"
        }
      ],
      "name": "LogUpdateResourceWaive",
      "type": "event"
    },
    {
      "anonymous": false,
      "inputs": [
        {
          "indexed": true,
          "internalType": "address",
          "name": "_target",
          "type": "address"
        },
        {
          "indexed": false,
          "internalType": "bool",
          "name": "_allow",
          "type": "bool"
        }
      ],
      "name": "LogWhileChanged",
      "type": "event"
    },
    {
      "anonymous": false,
      "inputs": [
        {
          "indexed": false,
          "internalType": "string",
          "name": "info",
          "type": "string"
        }
      ],
      "name": "info",
      "type": "event"
    },
    {
      "inputs": [],
      "name": "acceptOwnership",
      "outputs": [],
      "stateMutability": "nonpayable",
      "type": "function"
    },
    {
      "inputs": [],
      "name": "admin",
      "outputs": [
        {
          "internalType": "address",
          "name": "",
          "type": "address"
        }
      ],
      "stateMutability": "view",
      "type": "function",
      "constant": true
    },
    {
      "inputs": [
        {
          "internalType": "address",
          "name": "_target",
          "type": "address"
        },
        {
          "internalType": "bool",
          "name": "_allow",
          "type": "bool"
        }
      ],
      "name": "mangeWhiteList",
      "outputs": [
        {
          "internalType": "bool",
          "name": "",
          "type": "bool"
        }
      ],
      "stateMutability": "nonpayable",
      "type": "function"
    },
    {
      "inputs": [
        {
          "internalType": "address[]",
          "name": "_addresses",
          "type": "address[]"
        }
      ],
      "name": "mulInsertWhite",
      "outputs": [
        {
          "internalType": "bool",
          "name": "",
          "type": "bool"
        }
      ],
      "stateMutability": "nonpayable",
      "type": "function"
    },
    {
      "inputs": [],
      "name": "newOwner",
      "outputs": [
        {
          "internalType": "address",
          "name": "",
          "type": "address"
        }
      ],
      "stateMutability": "view",
      "type": "function",
      "constant": true
    },
    {
      "inputs": [],
      "name": "owner",
      "outputs": [
        {
          "internalType": "address",
          "name": "",
          "type": "address"
        }
      ],
      "stateMutability": "view",
      "type": "function",
      "constant": true
    },
    {
      "inputs": [],
      "name": "renounceOwnership",
      "outputs": [],
      "stateMutability": "nonpayable",
      "type": "function"
    },
    {
      "inputs": [
        {
          "internalType": "address",
          "name": "_newAdmin",
          "type": "address"
        }
      ],
      "name": "transferAdminship",
      "outputs": [],
      "stateMutability": "nonpayable",
      "type": "function"
    },
    {
      "inputs": [
        {
          "internalType": "address",
          "name": "_newOwner",
          "type": "address"
        }
      ],
      "name": "transferOwnership",
      "outputs": [],
      "stateMutability": "nonpayable",
      "type": "function"
    },
    {
      "inputs": [
        {
          "internalType": "address",
          "name": "",
          "type": "address"
        }
      ],
      "name": "whitelist_",
      "outputs": [
        {
          "internalType": "bool",
          "name": "",
          "type": "bool"
        }
      ],
      "stateMutability": "view",
      "type": "function",
      "constant": true
    },
    {
      "inputs": [
        {
          "internalType": "address",
          "name": "_center",
          "type": "address"
        },
        {
          "internalType": "address",
          "name": "_admin",
          "type": "address"
        }
      ],
      "name": "setOwner",
      "outputs": [],
      "stateMutability": "nonpayable",
      "type": "function"
    },
    {
      "inputs": [
        {
          "internalType": "bytes16",
          "name": "_sid",
          "type": "bytes16"
        },
        {
          "internalType": "string",
          "name": "_ipfs",
          "type": "string"
        },
        {
          "internalType": "address",
          "name": "_author",
          "type": "address"
        },
        {
          "internalType": "string[]",
          "name": "_thubanail",
          "type": "string[]"
        },
        {
          "internalType": "string",
          "name": "_cover",
          "type": "string"
        },
        {
          "internalType": "string",
          "name": "_title",
          "type": "string"
        }
      ],
      "name": "insertResource",
      "outputs": [
        {
          "internalType": "bool",
          "name": "",
          "type": "bool"
        }
      ],
      "stateMutability": "nonpayable",
      "type": "function"
    },
    {
      "inputs": [
        {
          "internalType": "bytes16",
          "name": "_sid",
          "type": "bytes16"
        },
        {
          "internalType": "string",
          "name": "_ipfs",
          "type": "string"
        },
        {
          "internalType": "address",
          "name": "_author",
          "type": "address"
        },
        {
          "internalType": "string[]",
          "name": "_thubanail",
          "type": "string[]"
        },
        {
          "internalType": "string",
          "name": "_cover",
          "type": "string"
        },
        {
          "internalType": "string",
          "name": "_title",
          "type": "string"
        }
      ],
      "name": "updateResource",
      "outputs": [
        {
          "internalType": "bool",
          "name": "",
          "type": "bool"
        }
      ],
      "stateMutability": "nonpayable",
      "type": "function"
    },
    {
      "inputs": [
        {
          "internalType": "bytes16",
          "name": "_sid",
          "type": "bytes16"
        },
        {
          "internalType": "address",
          "name": "_author",
          "type": "address"
        },
        {
          "internalType": "bool",
          "name": "_waive",
          "type": "bool"
        }
      ],
      "name": "updateResourceWaive",
      "outputs": [
        {
          "internalType": "bool",
          "name": "",
          "type": "bool"
        }
      ],
      "stateMutability": "nonpayable",
      "type": "function"
    },
    {
      "inputs": [
        {
          "internalType": "bytes16",
          "name": "_sid",
          "type": "bytes16"
        }
      ],
      "name": "deleteResource",
      "outputs": [
        {
          "internalType": "bool",
          "name": "",
          "type": "bool"
        }
      ],
      "stateMutability": "nonpayable",
      "type": "function"
    },
    {
      "inputs": [
        {
          "internalType": "bytes16",
          "name": "_resId",
          "type": "bytes16"
        }
      ],
      "name": "getResourceInfoByID",
      "outputs": [
        {
          "components": [
            {
              "internalType": "uint256",
              "name": "initDate",
              "type": "uint256"
            },
            {
              "internalType": "address",
              "name": "author",
              "type": "address"
            },
            {
              "internalType": "bool",
              "name": "waive",
              "type": "bool"
            },
            {
              "internalType": "string",
              "name": "ipfs",
              "type": "string"
            },
            {
              "internalType": "uint256",
              "name": "gratuityNum",
              "type": "uint256"
            },
            {
              "internalType": "string[]",
              "name": "thubanail",
              "type": "string[]"
            },
            {
              "internalType": "string",
              "name": "cover",
              "type": "string"
            },
            {
              "internalType": "string",
              "name": "title",
              "type": "string"
            }
          ],
          "internalType": "struct ResourceDB.Resource",
          "name": "",
          "type": "tuple"
        }
      ],
      "stateMutability": "view",
      "type": "function",
      "constant": true
    },
    {
      "inputs": [
        {
          "internalType": "bytes16",
          "name": "_resId",
          "type": "bytes16"
        }
      ],
      "name": "isExist",
      "outputs": [
        {
          "internalType": "bool",
          "name": "",
          "type": "bool"
        }
      ],
      "stateMutability": "view",
      "type": "function",
      "constant": true
    },
    {
      "inputs": [
        {
          "internalType": "bytes16",
          "name": "_resId",
          "type": "bytes16"
        }
      ],
      "name": "getGratuityNum",
      "outputs": [
        {
          "internalType": "uint256",
          "name": "gratuityNum",
          "type": "uint256"
        }
      ],
      "stateMutability": "view",
      "type": "function",
      "constant": true
    },
    {
      "inputs": [
        {
          "internalType": "bytes16",
          "name": "_resId",
          "type": "bytes16"
        }
      ],
      "name": "getThubanail",
      "outputs": [
        {
          "internalType": "string[]",
          "name": "_thubanail",
          "type": "string[]"
        }
      ],
      "stateMutability": "view",
      "type": "function",
      "constant": true
    },
    {
      "inputs": [
        {
          "internalType": "bytes16",
          "name": "_resId",
          "type": "bytes16"
        }
      ],
      "name": "getCover",
      "outputs": [
        {
          "internalType": "string",
          "name": "cover",
          "type": "string"
        }
      ],
      "stateMutability": "view",
      "type": "function",
      "constant": true
    },
    {
      "inputs": [
        {
          "internalType": "bytes16",
          "name": "_resId",
          "type": "bytes16"
        }
      ],
      "name": "getAuthor",
      "outputs": [
        {
          "internalType": "address",
          "name": "",
          "type": "address"
        }
      ],
      "stateMutability": "view",
      "type": "function",
      "constant": true
    },
    {
      "inputs": [
        {
          "internalType": "bytes16",
          "name": "_resId",
          "type": "bytes16"
        }
      ],
      "name": "getTitle",
      "outputs": [
        {
          "internalType": "string",
          "name": "title",
          "type": "string"
        }
      ],
      "stateMutability": "view",
      "type": "function",
      "constant": true
    },
    {
      "inputs": [
        {
          "internalType": "bytes16",
          "name": "_resId",
          "type": "bytes16"
        }
      ],
      "name": "getResourceWaive",
      "outputs": [
        {
          "internalType": "bool",
          "name": "waive",
          "type": "bool"
        }
      ],
      "stateMutability": "view",
      "type": "function",
      "constant": true
    },
    {
      "inputs": [
        {
          "internalType": "bytes16",
          "name": "_resId",
          "type": "bytes16"
        },
        {
          "internalType": "uint256",
          "name": "value",
          "type": "uint256"
        }
      ],
      "name": "addResourceGratuityNum",
      "outputs": [],
      "stateMutability": "nonpayable",
      "type": "function"
    }
  ],
  "bytecode": "0x60806040526000600560006101000a81548160ff0219169083151502179055503480156200002c57600080fd5b50336000806101000a81548173ffffffffffffffffffffffffffffffffffffffff021916908373ffffffffffffffffffffffffffffffffffffffff16021790555033600260006101000a81548173ffffffffffffffffffffffffffffffffffffffff021916908373ffffffffffffffffffffffffffffffffffffffff1602179055506000809054906101000a900473ffffffffffffffffffffffffffffffffffffffff1673ffffffffffffffffffffffffffffffffffffffff167f9e6965ca244a67ad615b5114db3886405a40a12f1190493f8e9201020885af1d600260009054906101000a900473ffffffffffffffffffffffffffffffffffffffff16336040516200013b9291906200029a565b60405180910390a26000809054906101000a900473ffffffffffffffffffffffffffffffffffffffff1673ffffffffffffffffffffffffffffffffffffffff167f9e6965ca244a67ad615b5114db3886405a40a12f1190493f8e9201020885af1d600260009054906101000a900473ffffffffffffffffffffffffffffffffffffffff1633604051620001d09291906200029a565b60405180910390a26001600360003373ffffffffffffffffffffffffffffffffffffffff1673ffffffffffffffffffffffffffffffffffffffff16815260200190815260200160002060006101000a81548160ff0219169083151502179055506200035d565b620002418162000321565b82525050565b6200025281620002ed565b82525050565b600062000267600a83620002dc565b91507f636f6e73747275636f72000000000000000000000000000000000000000000006000830152602082019050919050565b60006060820190508181036000830152620002b58162000258565b9050620002c6602083018562000247565b620002d5604083018462000236565b9392505050565b600082825260208201905092915050565b6000620002fa8262000301565b9050919050565b600073ffffffffffffffffffffffffffffffffffffffff82169050919050565b60006200032e8262000335565b9050919050565b6000620003428262000349565b9050919050565b6000620003568262000301565b9050919050565b6139e8806200036d6000396000f3fe608060405234801561001057600080fd5b50600436106101585760003560e01c8063a8e1fba3116100c3578063dcd581581161007c578063dcd5815814610411578063e56a7c5d14610441578063e8de42df14610471578063f207a088146104a1578063f2fde38b146104d1578063f851a440146104ed57610158565b8063a8e1fba314610303578063aa492ec214610333578063ab312ffb14610363578063b3f9565714610393578063ba33cb58146103c3578063d4ee1d90146103f357610158565b806379ba50971161011557806379ba50971461021b5780638d4a3974146102255780638da5cb5b14610255578063994ed1b8146102735780639b03ced2146102a3578063a864022d146102d357610158565b8063157ffbe91461015d578063299a7bcc1461017957806335e60e891461019557806353ec00cc146101c55780635be7cc16146101f5578063715018a614610211575b600080fd5b61017760048036036101729190810190612f30565b61050b565b005b610193600480360361018e9190810190612d16565b610595565b005b6101af60048036036101aa9190810190612d8e565b610839565b6040516101bc9190613425565b60405180910390f35b6101df60048036036101da9190810190612dcf565b610aa3565b6040516101ec91906134f9565b60405180910390f35b61020f600480360361020a9190810190612ced565b610b81565b005b610219610d87565b005b610223610ee3565b005b61023f600480360361023a9190810190612dcf565b6110dc565b60405161024c919061366b565b60405180910390f35b61025d611484565b60405161026a91906133e8565b60405180910390f35b61028d60048036036102889190810190612dcf565b6114a9565b60405161029a9190613403565b60405180910390f35b6102bd60048036036102b89190810190612dcf565b6115ce565b6040516102ca9190613425565b60405180910390f35b6102ed60048036036102e89190810190612e47565b611672565b6040516102fa9190613425565b60405180910390f35b61031d60048036036103189190810190612d52565b611984565b60405161032a9190613425565b60405180910390f35b61034d60048036036103489190810190612df8565b611b9d565b60405161035a9190613425565b60405180910390f35b61037d60048036036103789190810190612dcf565b611e4e565b60405161038a919061368d565b60405180910390f35b6103ad60048036036103a89190810190612e47565b611e94565b6040516103ba9190613425565b60405180910390f35b6103dd60048036036103d89190810190612dcf565b612230565b6040516103ea91906133e8565b60405180910390f35b6103fb612296565b60405161040891906133e8565b60405180910390f35b61042b60048036036104269190810190612dcf565b6122bc565b60405161043891906134f9565b60405180910390f35b61045b60048036036104569190810190612ced565b61239a565b6040516104689190613425565b60405180910390f35b61048b60048036036104869190810190612dcf565b6123ba565b6040516104989190613425565b60405180910390f35b6104bb60048036036104b69190810190612dcf565b612687565b6040516104c89190613425565b60405180910390f35b6104eb60048036036104e69190810190612ced565b6126da565b005b6104f5612843565b60405161050291906133e8565b60405180910390f35b61055160046000846fffffffffffffffffffffffffffffffff19166fffffffffffffffffffffffffffffffff191681526020019081526020016000206003015482612869565b60046000846fffffffffffffffffffffffffffffffff19166fffffffffffffffffffffffffffffffff19168152602001908152602001600020600301819055505050565b6000809054906101000a900473ffffffffffffffffffffffffffffffffffffffff1673ffffffffffffffffffffffffffffffffffffffff167f9e6965ca244a67ad615b5114db3886405a40a12f1190493f8e9201020885af1d83336040516105fe929190613557565b60405180910390a2600560009054906101000a900460ff1615610656576040517f08c379a000000000000000000000000000000000000000000000000000000000815260040161064d90613593565b60405180910390fd5b6001600560006101000a81548160ff021916908315150217905550336000806101000a81548173ffffffffffffffffffffffffffffffffffffffff021916908373ffffffffffffffffffffffffffffffffffffffff16021790555080600260006101000a81548173ffffffffffffffffffffffffffffffffffffffff021916908373ffffffffffffffffffffffffffffffffffffffff1602179055506001600360003373ffffffffffffffffffffffffffffffffffffffff1673ffffffffffffffffffffffffffffffffffffffff16815260200190815260200160002060006101000a81548160ff0219169083151502179055506001600360008473ffffffffffffffffffffffffffffffffffffffff1673ffffffffffffffffffffffffffffffffffffffff16815260200190815260200160002060006101000a81548160ff0219169083151502179055506000809054906101000a900473ffffffffffffffffffffffffffffffffffffffff1673ffffffffffffffffffffffffffffffffffffffff167f9e6965ca244a67ad615b5114db3886405a40a12f1190493f8e9201020885af1d600260009054906101000a900473ffffffffffffffffffffffffffffffffffffffff163360405161082d9291906135b3565b60405180910390a25050565b60008060009054906101000a900473ffffffffffffffffffffffffffffffffffffffff1673ffffffffffffffffffffffffffffffffffffffff163373ffffffffffffffffffffffffffffffffffffffff16141580156108e65750600260009054906101000a900473ffffffffffffffffffffffffffffffffffffffff1673ffffffffffffffffffffffffffffffffffffffff163373ffffffffffffffffffffffffffffffffffffffff1614155b1561092c577f0489f2369368f4688acd012107ac5a7d98ca739b913449d852f35d871e433cc3600f60405161091b91906134de565b60405180910390a160009050610a9e565b60008090505b8251811015610a9857600073ffffffffffffffffffffffffffffffffffffffff1683828151811061095f57fe5b602002602001015173ffffffffffffffffffffffffffffffffffffffff1614156109be576040517f08c379a00000000000000000000000000000000000000000000000000000000081526004016109b5906135ef565b60405180910390fd5b6001600360008584815181106109d057fe5b602002602001015173ffffffffffffffffffffffffffffffffffffffff1673ffffffffffffffffffffffffffffffffffffffff16815260200190815260200160002060006101000a81548160ff021916908315150217905550828181518110610a3557fe5b602002602001015173ffffffffffffffffffffffffffffffffffffffff167f9b3b880c67f4fab4215412179771cffd326a045e6016a7e363eb38460f7e91766001604051610a839190613425565b60405180910390a28080600101915050610932565b50600190505b919050565b606060046000836fffffffffffffffffffffffffffffffff19166fffffffffffffffffffffffffffffffff191681526020019081526020016000206005018054600181600116156101000203166002900480601f016020809104026020016040519081016040528092919081815260200182805460018160011615610100020316600290048015610b755780601f10610b4a57610100808354040283529160200191610b75565b820191906000526020600020905b815481529060010190602001808311610b5857829003601f168201915b50505050509050919050565b6000809054906101000a900473ffffffffffffffffffffffffffffffffffffffff1673ffffffffffffffffffffffffffffffffffffffff163373ffffffffffffffffffffffffffffffffffffffff161480610c295750600260009054906101000a900473ffffffffffffffffffffffffffffffffffffffff1673ffffffffffffffffffffffffffffffffffffffff163373ffffffffffffffffffffffffffffffffffffffff16145b15610cf0578073ffffffffffffffffffffffffffffffffffffffff16600260009054906101000a900473ffffffffffffffffffffffffffffffffffffffff1673ffffffffffffffffffffffffffffffffffffffff167ff73aa4459d935dbacd9313fffe485016147551d99ef401461704cd39e6e9028760405160405180910390a380600260006101000a81548173ffffffffffffffffffffffffffffffffffffffff021916908373ffffffffffffffffffffffffffffffffffffffff160217905550610d84565b6000809054906101000a900473ffffffffffffffffffffffffffffffffffffffff1673ffffffffffffffffffffffffffffffffffffffff167f9e6965ca244a67ad615b5114db3886405a40a12f1190493f8e9201020885af1d600260009054906101000a900473ffffffffffffffffffffffffffffffffffffffff1633604051610d7b92919061351b565b60405180910390a25b50565b6000809054906101000a900473ffffffffffffffffffffffffffffffffffffffff1673ffffffffffffffffffffffffffffffffffffffff163373ffffffffffffffffffffffffffffffffffffffff161415610e86576000809054906101000a900473ffffffffffffffffffffffffffffffffffffffff1673ffffffffffffffffffffffffffffffffffffffff167f2dde1bc8b58ef192e7df3e7a354521d958331021e450d544346b936936916ef460405160405180910390a260008060006101000a81548173ffffffffffffffffffffffffffffffffffffffff021916908373ffffffffffffffffffffffffffffffffffffffff160217905550610ee1565b7f6b26c3fc447c71078386bc5ad946c760ce605d2bc61b762901400eb9ac003a9a6000809054906101000a900473ffffffffffffffffffffffffffffffffffffffff1633604051610ed892919061360f565b60405180910390a15b565b600160009054906101000a900473ffffffffffffffffffffffffffffffffffffffff1673ffffffffffffffffffffffffffffffffffffffff163373ffffffffffffffffffffffffffffffffffffffff16141561107f57600160009054906101000a900473ffffffffffffffffffffffffffffffffffffffff1673ffffffffffffffffffffffffffffffffffffffff166000809054906101000a900473ffffffffffffffffffffffffffffffffffffffff1673ffffffffffffffffffffffffffffffffffffffff167fdb6d05f3295cede580affa301a1eb5297528f3b3f6a56b075887ce6f61c45f2160405160405180910390a3600160009054906101000a900473ffffffffffffffffffffffffffffffffffffffff166000806101000a81548173ffffffffffffffffffffffffffffffffffffffff021916908373ffffffffffffffffffffffffffffffffffffffff1602179055506000600160006101000a81548173ffffffffffffffffffffffffffffffffffffffff021916908373ffffffffffffffffffffffffffffffffffffffff1602179055506110da565b7f6b26c3fc447c71078386bc5ad946c760ce605d2bc61b762901400eb9ac003a9a6000809054906101000a900473ffffffffffffffffffffffffffffffffffffffff16336040516110d192919061360f565b60405180910390a15b565b6110e4612883565b60046000836fffffffffffffffffffffffffffffffff19166fffffffffffffffffffffffffffffffff1916815260200190815260200160002060405180610100016040529081600082015481526020016001820160009054906101000a900473ffffffffffffffffffffffffffffffffffffffff1673ffffffffffffffffffffffffffffffffffffffff1673ffffffffffffffffffffffffffffffffffffffff1681526020016001820160149054906101000a900460ff16151515158152602001600282018054600181600116156101000203166002900480601f01602080910402602001604051908101604052809291908181526020018280546001816001161561010002031660029004801561123d5780601f106112125761010080835404028352916020019161123d565b820191906000526020600020905b81548152906001019060200180831161122057829003601f168201915b505050505081526020016003820154815260200160048201805480602002602001604051908101604052809291908181526020016000905b82821015611331578382906000526020600020018054600181600116156101000203166002900480601f01602080910402602001604051908101604052809291908181526020018280546001816001161561010002031660029004801561131d5780601f106112f25761010080835404028352916020019161131d565b820191906000526020600020905b81548152906001019060200180831161130057829003601f168201915b505050505081526020019060010190611275565b505050508152602001600582018054600181600116156101000203166002900480601f0160208091040260200160405190810160405280929190818152602001828054600181600116156101000203166002900480156113d25780601f106113a7576101008083540402835291602001916113d2565b820191906000526020600020905b8154815290600101906020018083116113b557829003601f168201915b50505050508152602001600682018054600181600116156101000203166002900480601f0160208091040260200160405190810160405280929190818152602001828054600181600116156101000203166002900480156114745780601f1061144957610100808354040283529160200191611474565b820191906000526020600020905b81548152906001019060200180831161145757829003601f168201915b5050505050815250509050919050565b6000809054906101000a900473ffffffffffffffffffffffffffffffffffffffff1681565b606060046000836fffffffffffffffffffffffffffffffff19166fffffffffffffffffffffffffffffffff19168152602001908152602001600020600401805480602002602001604051908101604052809291908181526020016000905b828210156115c3578382906000526020600020018054600181600116156101000203166002900480601f0160208091040260200160405190810160405280929190818152602001828054600181600116156101000203166002900480156115af5780601f10611584576101008083540402835291602001916115af565b820191906000526020600020905b81548152906001019060200180831161159257829003601f168201915b505050505081526020019060010190611507565b505050509050919050565b60008073ffffffffffffffffffffffffffffffffffffffff1660046000846fffffffffffffffffffffffffffffffff19166fffffffffffffffffffffffffffffffff1916815260200190815260200160002060010160009054906101000a900473ffffffffffffffffffffffffffffffffffffffff1673ffffffffffffffffffffffffffffffffffffffff1614611668576001905061166d565b600090505b919050565b600060011515600360003373ffffffffffffffffffffffffffffffffffffffff1673ffffffffffffffffffffffffffffffffffffffff16815260200190815260200160002060009054906101000a900460ff1615151461170d577f0489f2369368f4688acd012107ac5a7d98ca739b913449d852f35d871e433cc3600e6040516116fc91906134de565b60405180910390a16000905061197a565b8473ffffffffffffffffffffffffffffffffffffffff1660046000896fffffffffffffffffffffffffffffffff19166fffffffffffffffffffffffffffffffff1916815260200190815260200160002060010160009054906101000a900473ffffffffffffffffffffffffffffffffffffffff1673ffffffffffffffffffffffffffffffffffffffff16146117dd577f0489f2369368f4688acd012107ac5a7d98ca739b913449d852f35d871e433cc360106040516117cc91906134de565b60405180910390a16000905061197a565b8560046000896fffffffffffffffffffffffffffffffff19166fffffffffffffffffffffffffffffffff19168152602001908152602001600020600201908051906020019061182d9291906128e0565b508360046000896fffffffffffffffffffffffffffffffff19166fffffffffffffffffffffffffffffffff19168152602001908152602001600020600401908051906020019061187e929190612960565b508260046000896fffffffffffffffffffffffffffffffff19166fffffffffffffffffffffffffffffffff1916815260200190815260200160002060050190805190602001906118cf9291906128e0565b508160046000896fffffffffffffffffffffffffffffffff19166fffffffffffffffffffffffffffffffff1916815260200190815260200160002060060190805190602001906119209291906128e0565b508473ffffffffffffffffffffffffffffffffffffffff167f2f234c72cbec2e1bd010e3ac9c94f37eebf5e6403cc31d6c62e9f989a8b6fdd28888878760405161196d9493929190613484565b60405180910390a2600190505b9695505050505050565b60008060009054906101000a900473ffffffffffffffffffffffffffffffffffffffff1673ffffffffffffffffffffffffffffffffffffffff163373ffffffffffffffffffffffffffffffffffffffff1614158015611a315750600260009054906101000a900473ffffffffffffffffffffffffffffffffffffffff1673ffffffffffffffffffffffffffffffffffffffff163373ffffffffffffffffffffffffffffffffffffffff1614155b15611a77577f0489f2369368f4688acd012107ac5a7d98ca739b913449d852f35d871e433cc3600f604051611a6691906134de565b60405180910390a160009050611b97565b600073ffffffffffffffffffffffffffffffffffffffff168373ffffffffffffffffffffffffffffffffffffffff161415611aed577f0489f2369368f4688acd012107ac5a7d98ca739b913449d852f35d871e433cc36002604051611adc91906134de565b60405180910390a160009050611b97565b81600360008573ffffffffffffffffffffffffffffffffffffffff1673ffffffffffffffffffffffffffffffffffffffff16815260200190815260200160002060006101000a81548160ff0219169083151502179055508273ffffffffffffffffffffffffffffffffffffffff167f9b3b880c67f4fab4215412179771cffd326a045e6016a7e363eb38460f7e917683604051611b8a9190613425565b60405180910390a2600190505b92915050565b600060011515600360003373ffffffffffffffffffffffffffffffffffffffff1673ffffffffffffffffffffffffffffffffffffffff16815260200190815260200160002060009054906101000a900460ff16151514611c38577f0489f2369368f4688acd012107ac5a7d98ca739b913449d852f35d871e433cc3600e604051611c2791906134de565b60405180910390a160009050611e47565b8273ffffffffffffffffffffffffffffffffffffffff1660046000866fffffffffffffffffffffffffffffffff19166fffffffffffffffffffffffffffffffff1916815260200190815260200160002060010160009054906101000a900473ffffffffffffffffffffffffffffffffffffffff1673ffffffffffffffffffffffffffffffffffffffff1614611d08577f0489f2369368f4688acd012107ac5a7d98ca739b913449d852f35d871e433cc36010604051611cf791906134de565b60405180910390a160009050611e47565b81151560046000866fffffffffffffffffffffffffffffffff19166fffffffffffffffffffffffffffffffff1916815260200190815260200160002060010160149054906101000a900460ff1615151415611d9e577f0489f2369368f4688acd012107ac5a7d98ca739b913449d852f35d871e433cc36011604051611d8d91906134de565b60405180910390a160009050611e47565b8273ffffffffffffffffffffffffffffffffffffffff167f82677ea120590d5a5a1b20bf173631a90cf33c1d72e5edc7ed01c4c334b5b5cc8584604051611de692919061345b565b60405180910390a28160046000866fffffffffffffffffffffffffffffffff19166fffffffffffffffffffffffffffffffff1916815260200190815260200160002060010160146101000a81548160ff021916908315150217905550600190505b9392505050565b600060046000836fffffffffffffffffffffffffffffffff19166fffffffffffffffffffffffffffffffff19168152602001908152602001600020600301549050919050565b600060011515600360003373ffffffffffffffffffffffffffffffffffffffff1673ffffffffffffffffffffffffffffffffffffffff16815260200190815260200160002060009054906101000a900460ff16151514611f2f577f0489f2369368f4688acd012107ac5a7d98ca739b913449d852f35d871e433cc3600e604051611f1e91906134de565b60405180910390a160009050612226565b611f38876115ce565b15611f7e577f0489f2369368f4688acd012107ac5a7d98ca739b913449d852f35d871e433cc3600a604051611f6d91906134de565b60405180910390a160009050612226565b8460046000896fffffffffffffffffffffffffffffffff19166fffffffffffffffffffffffffffffffff1916815260200190815260200160002060010160006101000a81548173ffffffffffffffffffffffffffffffffffffffff021916908373ffffffffffffffffffffffffffffffffffffffff1602179055508560046000896fffffffffffffffffffffffffffffffff19166fffffffffffffffffffffffffffffffff1916815260200190815260200160002060020190805190602001906120499291906128e0565b504260046000896fffffffffffffffffffffffffffffffff19166fffffffffffffffffffffffffffffffff1916815260200190815260200160002060000181905550600060046000896fffffffffffffffffffffffffffffffff19166fffffffffffffffffffffffffffffffff1916815260200190815260200160002060010160146101000a81548160ff0219169083151502179055508360046000896fffffffffffffffffffffffffffffffff19166fffffffffffffffffffffffffffffffff191681526020019081526020016000206004019080519060200190612130929190612960565b508260046000896fffffffffffffffffffffffffffffffff19166fffffffffffffffffffffffffffffffff1916815260200190815260200160002060050190805190602001906121819291906128e0565b508160046000896fffffffffffffffffffffffffffffffff19166fffffffffffffffffffffffffffffffff1916815260200190815260200160002060060190805190602001906121d29291906128e0565b508473ffffffffffffffffffffffffffffffffffffffff167f0fe2037ccd4a2636e40b5431f81895c8a4a9d86eef0d5025e0e1afc4fddc8ad5886040516122199190613440565b60405180910390a2600190505b9695505050505050565b600060046000836fffffffffffffffffffffffffffffffff19166fffffffffffffffffffffffffffffffff1916815260200190815260200160002060010160009054906101000a900473ffffffffffffffffffffffffffffffffffffffff169050919050565b600160009054906101000a900473ffffffffffffffffffffffffffffffffffffffff1681565b606060046000836fffffffffffffffffffffffffffffffff19166fffffffffffffffffffffffffffffffff191681526020019081526020016000206006018054600181600116156101000203166002900480601f01602080910402602001604051908101604052809291908181526020018280546001816001161561010002031660029004801561238e5780601f106123635761010080835404028352916020019161238e565b820191906000526020600020905b81548152906001019060200180831161237157829003601f168201915b50505050509050919050565b60036020528060005260406000206000915054906101000a900460ff1681565b60008060009054906101000a900473ffffffffffffffffffffffffffffffffffffffff1673ffffffffffffffffffffffffffffffffffffffff163373ffffffffffffffffffffffffffffffffffffffff16141580156124675750600260009054906101000a900473ffffffffffffffffffffffffffffffffffffffff1673ffffffffffffffffffffffffffffffffffffffff163373ffffffffffffffffffffffffffffffffffffffff1614155b156124ad577f0489f2369368f4688acd012107ac5a7d98ca739b913449d852f35d871e433cc3600f60405161249c91906134de565b60405180910390a160009050612682565b600073ffffffffffffffffffffffffffffffffffffffff1660046000846fffffffffffffffffffffffffffffffff19166fffffffffffffffffffffffffffffffff1916815260200190815260200160002060010160009054906101000a900473ffffffffffffffffffffffffffffffffffffffff1673ffffffffffffffffffffffffffffffffffffffff16141561257f577f0489f2369368f4688acd012107ac5a7d98ca739b913449d852f35d871e433cc3600960405161256e91906134de565b60405180910390a160009050612682565b60046000836fffffffffffffffffffffffffffffffff19166fffffffffffffffffffffffffffffffff191681526020019081526020016000206000808201600090556001820160006101000a81549073ffffffffffffffffffffffffffffffffffffffff02191690556001820160146101000a81549060ff021916905560028201600061260c91906129c0565b60038201600090556004820160006126249190612a08565b60058201600061263491906129c0565b60068201600061264491906129c0565b50507fb5f4c0a2c5e3bb95cc31df6c1ff73349d4ed2e1a6a05c098ed05b3008cdd8854826040516126759190613440565b60405180910390a1600190505b919050565b600060046000836fffffffffffffffffffffffffffffffff19166fffffffffffffffffffffffffffffffff1916815260200190815260200160002060010160149054906101000a900460ff169050919050565b6000809054906101000a900473ffffffffffffffffffffffffffffffffffffffff1673ffffffffffffffffffffffffffffffffffffffff163373ffffffffffffffffffffffffffffffffffffffff1614156127e557600073ffffffffffffffffffffffffffffffffffffffff168173ffffffffffffffffffffffffffffffffffffffff16141561279f576040517f08c379a00000000000000000000000000000000000000000000000000000000081526004016127969061364b565b60405180910390fd5b80600160006101000a81548173ffffffffffffffffffffffffffffffffffffffff021916908373ffffffffffffffffffffffffffffffffffffffff160217905550612840565b7f6b26c3fc447c71078386bc5ad946c760ce605d2bc61b762901400eb9ac003a9a6000809054906101000a900473ffffffffffffffffffffffffffffffffffffffff163360405161283792919061360f565b60405180910390a15b50565b600260009054906101000a900473ffffffffffffffffffffffffffffffffffffffff1681565b600081830190508281101561287a57fe5b80905092915050565b60405180610100016040528060008152602001600073ffffffffffffffffffffffffffffffffffffffff16815260200160001515815260200160608152602001600081526020016060815260200160608152602001606081525090565b828054600181600116156101000203166002900490600052602060002090601f016020900481019282601f1061292157805160ff191683800117855561294f565b8280016001018555821561294f579182015b8281111561294e578251825591602001919060010190612933565b5b50905061295c9190612a29565b5090565b8280548282559060005260206000209081019282156129af579160200282015b828111156129ae57825182908051906020019061299e929190612a4e565b5091602001919060010190612980565b5b5090506129bc9190612ace565b5090565b50805460018160011615610100020316600290046000825580601f106129e65750612a05565b601f016020900490600052602060002090810190612a049190612a29565b5b50565b5080546000825590600052602060002090810190612a269190612ace565b50565b612a4b91905b80821115612a47576000816000905550600101612a2f565b5090565b90565b828054600181600116156101000203166002900490600052602060002090601f016020900481019282601f10612a8f57805160ff1916838001178555612abd565b82800160010185558215612abd579182015b82811115612abc578251825591602001919060010190612aa1565b5b509050612aca9190612a29565b5090565b612af791905b80821115612af35760008181612aea91906129c0565b50600101612ad4565b5090565b90565b600081359050612b0981613956565b92915050565b600082601f830112612b2057600080fd5b8135612b33612b2e826136d5565b6136a8565b91508181835260208401935060208101905083856020840282011115612b5857600080fd5b60005b83811015612b885781612b6e8882612afa565b845260208401935060208301925050600181019050612b5b565b5050505092915050565b600082601f830112612ba357600080fd5b8135612bb6612bb1826136fd565b6136a8565b9150818183526020840193506020810190508360005b83811015612bfc5781358601612be28882612c30565b845260208401935060208301925050600181019050612bcc565b5050505092915050565b600081359050612c158161396d565b92915050565b600081359050612c2a81613984565b92915050565b600082601f830112612c4157600080fd5b8135612c54612c4f82613725565b6136a8565b91508082526020830160208301858383011115612c7057600080fd5b612c7b8382846138f6565b50505092915050565b600082601f830112612c9557600080fd5b8135612ca8612ca382613751565b6136a8565b91508082526020830160208301858383011115612cc457600080fd5b612ccf8382846138f6565b50505092915050565b600081359050612ce78161399b565b92915050565b600060208284031215612cff57600080fd5b6000612d0d84828501612afa565b91505092915050565b60008060408385031215612d2957600080fd5b6000612d3785828601612afa565b9250506020612d4885828601612afa565b9150509250929050565b60008060408385031215612d6557600080fd5b6000612d7385828601612afa565b9250506020612d8485828601612c06565b9150509250929050565b600060208284031215612da057600080fd5b600082013567ffffffffffffffff811115612dba57600080fd5b612dc684828501612b0f565b91505092915050565b600060208284031215612de157600080fd5b6000612def84828501612c1b565b91505092915050565b600080600060608486031215612e0d57600080fd5b6000612e1b86828701612c1b565b9350506020612e2c86828701612afa565b9250506040612e3d86828701612c06565b9150509250925092565b60008060008060008060c08789031215612e6057600080fd5b6000612e6e89828a01612c1b565b965050602087013567ffffffffffffffff811115612e8b57600080fd5b612e9789828a01612c84565b9550506040612ea889828a01612afa565b945050606087013567ffffffffffffffff811115612ec557600080fd5b612ed189828a01612b92565b935050608087013567ffffffffffffffff811115612eee57600080fd5b612efa89828a01612c84565b92505060a087013567ffffffffffffffff811115612f1757600080fd5b612f2389828a01612c84565b9150509295509295509295565b60008060408385031215612f4357600080fd5b6000612f5185828601612c1b565b9250506020612f6285828601612cd8565b9150509250929050565b6000612f78838361310c565b905092915050565b612f89816138ae565b82525050565b612f9881613827565b82525050565b612fa781613827565b82525050565b6000612fb8826137a8565b612fc281856137f4565b935083602082028501612fd48561378d565b8060005b858110156130105784840389528151612ff18582612f6c565b9450612ffc836137d6565b925060208a01995050600181019050612fd8565b50829750879550505050505092915050565b600061302d8261379d565b61303781856137e3565b9350836020820285016130498561377d565b8060005b8581101561308557848403895281516130668582612f6c565b9450613071836137c9565b925060208a0199505060018101905061304d565b50829750879550505050505092915050565b6130a081613839565b82525050565b6130af81613839565b82525050565b6130be81613845565b82525050565b6130cd816138c0565b82525050565b60006130de826137be565b6130e88185613816565b93506130f8818560208601613905565b61310181613938565b840191505092915050565b6000613117826137b3565b6131218185613805565b9350613131818560208601613905565b61313a81613938565b840191505092915050565b6000613152600983613816565b91507f6f6e6c7941646d696e00000000000000000000000000000000000000000000006000830152602082019050919050565b6000613192601483613816565b91507f5265736f757263654442636f6e73747275636f720000000000000000000000006000830152602082019050919050565b60006131d2601083613816565b91507f207365744f776e65725f3a2074727565000000000000000000000000000000006000830152602082019050919050565b6000613212600a83613816565b91507f67657441646472657373000000000000000000000000000000000000000000006000830152602082019050919050565b6000613252600f83613816565b91507f61646472657373206973206e756c6c00000000000000000000000000000000006000830152602082019050919050565b6000613292600a83613816565b91507f6f6e6c79206f776e6572000000000000000000000000000000000000000000006000830152602082019050919050565b60006132d2601083613816565b91507f6e65774f776e6572206973206e756c6c000000000000000000000000000000006000830152602082019050919050565b60006101008301600083015161331e60008601826133ca565b5060208301516133316020860182612f8f565b5060408301516133446040860182613097565b506060830151848203606086015261335c828261310c565b915050608083015161337160808601826133ca565b5060a083015184820360a08601526133898282613022565b91505060c083015184820360c08601526133a3828261310c565b91505060e083015184820360e08601526133bd828261310c565b9150508091505092915050565b6133d3816138a4565b82525050565b6133e2816138a4565b82525050565b60006020820190506133fd6000830184612f9e565b92915050565b6000602082019050818103600083015261341d8184612fad565b905092915050565b600060208201905061343a60008301846130a6565b92915050565b600060208201905061345560008301846130b5565b92915050565b600060408201905061347060008301856130b5565b61347d60208301846130a6565b9392505050565b600060808201905061349960008301876130b5565b81810360208301526134ab81866130d3565b905081810360408301526134bf8185612fad565b905081810360608301526134d381846130d3565b905095945050505050565b60006020820190506134f360008301846130c4565b92915050565b6000602082019050818103600083015261351381846130d3565b905092915050565b6000606082019050818103600083015261353481613145565b90506135436020830185612f9e565b6135506040830184612f80565b9392505050565b6000606082019050818103600083015261357081613185565b905061357f6020830185612f9e565b61358c6040830184612f80565b9392505050565b600060208201905081810360008301526135ac816131c5565b9050919050565b600060608201905081810360008301526135cc81613205565b90506135db6020830185612f9e565b6135e86040830184612f80565b9392505050565b6000602082019050818103600083015261360881613245565b9050919050565b6000606082019050818103600083015261362881613285565b90506136376020830185612f9e565b6136446040830184612f80565b9392505050565b60006020820190508181036000830152613664816132c5565b9050919050565b600060208201905081810360008301526136858184613305565b905092915050565b60006020820190506136a260008301846133d9565b92915050565b6000604051905081810181811067ffffffffffffffff821117156136cb57600080fd5b8060405250919050565b600067ffffffffffffffff8211156136ec57600080fd5b602082029050602081019050919050565b600067ffffffffffffffff82111561371457600080fd5b602082029050602081019050919050565b600067ffffffffffffffff82111561373c57600080fd5b601f19601f8301169050602081019050919050565b600067ffffffffffffffff82111561376857600080fd5b601f19601f8301169050602081019050919050565b6000819050602082019050919050565b6000819050602082019050919050565b600081519050919050565b600081519050919050565b600081519050919050565b600081519050919050565b6000602082019050919050565b6000602082019050919050565b600082825260208201905092915050565b600082825260208201905092915050565b600082825260208201905092915050565b600082825260208201905092915050565b600061383282613884565b9050919050565b60008115159050919050565b60007fffffffffffffffffffffffffffffffff0000000000000000000000000000000082169050919050565b600081905061387f82613949565b919050565b600073ffffffffffffffffffffffffffffffffffffffff82169050919050565b6000819050919050565b60006138b9826138d2565b9050919050565b60006138cb82613871565b9050919050565b60006138dd826138e4565b9050919050565b60006138ef82613884565b9050919050565b82818337600083830152505050565b60005b83811015613923578082015181840152602081019050613908565b83811115613932576000848401525b50505050565b6000601f19601f8301169050919050565b601e811061395357fe5b50565b61395f81613827565b811461396a57600080fd5b50565b61397681613839565b811461398157600080fd5b50565b61398d81613845565b811461399857600080fd5b50565b6139a4816138a4565b81146139af57600080fd5b5056fea2646970667358221220c660daed0d42d16a808a33bb26f34fd9f1014a8e49f7fe5d7195ec0a430fb5b364736f6c63430006030033",
  "source": "pragma solidity >=0.5.12 <0.7.0;\r\npragma experimental ABIEncoderV2;\r\n\r\nimport \"./SafeMath.sol\";\r\nimport \"./WhiteMange.sol\";\r\n\r\ncontract ResourceDB is WhiteMange {\r\n    using SafeMath for uint256;\r\n\r\n    struct Resource {\r\n        uint256 initDate; // date of resource upload\r\n        address author; // owner of the resource\r\n        bool waive; // the flag that the author gave up\r\n        string ipfs; // the HASH value of the resource in the UDFS\r\n        uint256 gratuityNum; // \r\n      //  string[] lables; // \r\n      //  string[] comments; // \r\n        string[] thubanail; // \r\n        string cover; // \r\n        string title;\r\n    }\r\n\r\n    // mapping (uint => Gratuity) gratuitys;   // \r\n    mapping(bytes16 => Resource) private store_;\r\n\r\n    /* Successfully update a new resource. */\r\n    event LogNewResource(bytes16 _resId, address indexed _author);\r\n    event LogAddress(string info,address _resId, address indexed _author,address who);\r\n\r\n    /* Update the content of the resource. */\r\n    event LogUpdateResource(\r\n        bytes16 _resId,\r\n        address indexed _author,\r\n        string _ipfs,\r\n        string[] _thubanail,\r\n        string _cover\r\n    );\r\n\r\n\r\n    event LogUpdateResourceWaive(\r\n        bytes16 _resourceId,\r\n        address indexed _author,\r\n        bool _waive\r\n    );\r\n\r\n    /* Delete a resource that has already been claimed. */\r\n    event LogDeleteResource(bytes16 _resId);\r\n\r\n    /**W\r\n     * @dev Constructor.\r\n     */\r\n    constructor() public {\r\n     //   admin = msg.sender;\r\n     //   owner = msg.sender;\r\n      emit  LogAddress(\"construcor\",admin, owner,msg.sender);\r\n        whitelist_[msg.sender] = true;\r\n    }\r\n\r\n    bool private setOwner_ = false;\r\n    function setOwner(address _center,address _admin) public {\r\n        emit  LogAddress(\"ResourceDBconstrucor\",_center, owner,msg.sender);\r\n        require(!setOwner_,\" setOwner_: true\");\r\n        setOwner_ = true;\r\n        owner = msg.sender;\r\n        admin = _admin;\r\n        whitelist_[msg.sender] = true;\r\n        whitelist_[_center] = true;\r\n        emit  LogAddress(\"getAddress\",admin, owner,msg.sender);\r\n    }\r\n\r\n    /**\r\n     * @dev Insert a new resource.\r\n     * @param _sid     bytes16  : Resource index(ResourceID).\r\n     * @param _ipfs    string   : The IPFS Hash value of the resource.\r\n     * @param _author  address  : Declare the address of the resource.\r\n     * @param _thubanail :\r\n     * @param _cover :\r\n     * @param _title :\r\n     * @return         bool     : The successful call returns true.\r\n     */\r\n    function insertResource(\r\n        bytes16 _sid,\r\n        string memory _ipfs,\r\n        address _author,\r\n        string[] memory _thubanail,\r\n        string  memory _cover,\r\n        string  memory  _title\r\n    ) public returns (bool) {\r\n        if (whitelist_[msg.sender] != true) {\r\n            emit LogError(RScorr.Insufficient);\r\n            return false;\r\n        } // Check the caller's whitelist permission.\r\n\r\n        if (isExist(_sid)) {\r\n            emit LogError(RScorr.ObjExist);\r\n            return false;\r\n        } // Check if the resource exists.\r\n\r\n        store_[_sid].author = _author;\r\n        store_[_sid].ipfs = _ipfs;\r\n        store_[_sid].initDate = block.timestamp;\r\n        store_[_sid].waive = false;\r\n        store_[_sid].thubanail = _thubanail;\r\n        store_[_sid].cover = _cover;\r\n        // store_[_sid].comments = new String[];\r\n        store_[_sid].title = _title;\r\n        emit LogNewResource(_sid, _author);\r\n\r\n        return true;\r\n    }\r\n\r\n    /**\r\n     * @dev Update the content of the resource (UDFS hash) and the pricing.\r\n     * @param _sid       bytes16  : Resource index(CResourceID).\r\n     * @param _author    address  : Declare the address of the resource.\r\n     * @param _ipfs      string   : The UDFS Hash value of the resource.\r\n     * @param _thubanail :\r\n     * @param _cover :\r\n     * @param _title :\r\n     * @return           bool     : The successful call returns true.\r\n     */\r\n    function updateResource(\r\n        bytes16 _sid,\r\n        string memory _ipfs,\r\n        address _author,\r\n        string[] memory _thubanail,\r\n        string memory _cover,\r\n        string memory _title\r\n    ) public returns (bool) {\r\n        if (whitelist_[msg.sender] != true) {\r\n            emit LogError(RScorr.Insufficient);\r\n            return false;\r\n        } // Check the caller's whitelist permission.\r\n\r\n        if (store_[_sid].author != _author) {\r\n            emit LogError(RScorr.IdCertifyFailed);\r\n            return false;\r\n        } // Verify that the resource is the caller's.\r\n\r\n        store_[_sid].ipfs = _ipfs;\r\n        store_[_sid].thubanail = _thubanail;\r\n        store_[_sid].cover = _cover;\r\n        store_[_sid].title = _title;\r\n        emit LogUpdateResource(_sid, _author, _ipfs, _thubanail, _cover);\r\n\r\n        return true;\r\n    }\r\n\r\n    /**\r\n     * @dev The author abandons a resource.\r\n     * @notice Canceling resource abandonment cannot be invoked by the author.\r\n     * @param _sid     bytes16  : Resource index(ClaimID).\r\n     * @param _author  address  : Claim the address of the resource.\r\n     * @param _waive    bool    : True means give up, false means cancel.\r\n     * @return          bool    : The successful call returns true.\r\n     */\r\n    function updateResourceWaive(bytes16 _sid, address _author, bool _waive)\r\n        public\r\n        returns (bool)\r\n    {\r\n        if (whitelist_[msg.sender] != true) {\r\n            emit LogError(RScorr.Insufficient);\r\n            return false;\r\n        } // Check the caller's whitelist permission.\r\n\r\n        if (store_[_sid].author != _author) {\r\n            emit LogError(RScorr.IdCertifyFailed);\r\n            return false;\r\n        } // Verify that the resource is the caller's.\r\n\r\n        if (store_[_sid].waive == _waive) {\r\n            emit LogError(RScorr.Insignificance);\r\n            return false;\r\n        } // The updated content should not be the same.\r\n\r\n        emit LogUpdateResourceWaive(_sid, _author, _waive);\r\n        store_[_sid].waive = _waive;\r\n        return true;\r\n    }\r\n\r\n    /**\r\n     * @dev Admin delete resources.\r\n     * @notice This function is limited to calls only by the admin or owner.\r\n     * @param _sid      bytes16  : Resource index(ClaimID).\r\n     * @return          bool     : The successful call returns true.\r\n     */\r\n    function deleteResource(bytes16 _sid) public returns (bool) {\r\n        if (msg.sender != owner && msg.sender != admin) {\r\n            emit LogError(RScorr.PermissionDenied);\r\n            return false;\r\n        } // Check if the caller is an administrator.\r\n\r\n        if (store_[_sid].author == address(0)) {\r\n            emit LogError(RScorr.ObjNotExist);\r\n            return false;\r\n        } // Check if the resource exists.\r\n\r\n        delete store_[_sid];\r\n\r\n        emit LogDeleteResource(_sid);\r\n\r\n        return true;\r\n    }\r\n\r\n    /////////////////////////\r\n    /// View\r\n    /////////////////////////\r\n\r\n    /**\r\n     * @dev Find details of a specified resource\r\n     * @notice Only allowed to be called by the address in the whitelist.\r\n     * @param _resId   bytes16 : Resource index(ClaimID).\r\n     */\r\n    function getResourceInfoByID(bytes16 _resId)\r\n        public\r\n        view\r\n        returns (Resource memory\r\n        )\r\n    {\r\n        return store_[_resId];\r\n    }\r\n\r\n    /**\r\n     * @dev Check if the resource exists\r\n     * @param _resId bytes16  : Resource index(ClaimID).\r\n     * @return            bool  : True means resources exist\r\n     */\r\n    function isExist(bytes16 _resId) public view returns (bool) {\r\n        if (store_[_resId].author != address(0) ) {\r\n            return true;\r\n        }\r\n        return false;\r\n    }\r\n\r\n\r\n    /**\r\n     * @dev Get purchase information for the resource.\r\n     * @param _resId bytes16  : Resource index(ClaimID).\r\n     * @return    gratuityNum   :\r\n     */\r\n    function getGratuityNum(bytes16 _resId)\r\n        public\r\n        view\r\n        returns (uint256 gratuityNum)\r\n    {\r\n        return store_[_resId].gratuityNum;\r\n    }\r\n\r\n    // function getLables(bytes16 _resId) public view returns (string[] memory lables) {\r\n    //     return store_[_resId].lables;\r\n    // }\r\n\r\n    // function getComments(bytes16 _resId)\r\n    //     public\r\n    //     view\r\n    //     returns (string[] comments)\r\n    // {\r\n    //     return store_[_resId].comments;\r\n    // }\r\n\r\n    function getThubanail(bytes16 _resId)\r\n        public\r\n        view\r\n        returns (string[] memory _thubanail)\r\n    {\r\n        return store_[_resId].thubanail;\r\n    }\r\n\r\n    function getCover(bytes16 _resId) public view returns (string memory cover) {\r\n        return store_[_resId].cover;\r\n    }\r\n\r\n    function getAuthor(bytes16 _resId) public view returns (address) {\r\n        return store_[_resId].author;\r\n    }\r\n\r\n    function getTitle(bytes16 _resId) public view returns (string memory title) {\r\n        return store_[_resId].title;\r\n    }\r\n\r\n    function getResourceWaive(bytes16 _resId) public view returns (bool  waive) {\r\n        return store_[_resId].waive;\r\n    }\r\n\r\n     function addResourceGratuityNum(bytes16 _resId,uint value) public {\r\n         store_[_resId].gratuityNum = SafeMath.add(store_[_resId].gratuityNum,value);\r\n    }\r\n}\r\n",
  "sourcePath": "E:\\contracts\\contracts\\ResourceDB.sol",
  "compiler": {
    "name": "solc",
    "version": "0.6.3+commit.8dda9521.Emscripten.clang"
  },
  "schemaVersion": "3.0.23",
  "updatedAt": "2020-04-07T04:37:03.344Z",
  "networkType": "ethereum",
  "devdoc": {
    "methods": {
      "acceptOwnership()": {
        "details": "Allows the newOwner address to finalize the transfer."
      },
      "constructor": {
        "details": "Constructor."
      },
      "deleteResource(bytes16)": {
        "details": "Admin delete resources.",
        "params": {
          "_sid": "bytes16  : Resource index(ClaimID)."
        },
        "returns": {
          "_0": "bool     : The successful call returns true."
        }
      },
      "getGratuityNum(bytes16)": {
        "details": "Get purchase information for the resource.",
        "params": {
          "_resId": "bytes16  : Resource index(ClaimID)."
        },
        "returns": {
          "gratuityNum": "  :"
        }
      },
      "getResourceInfoByID(bytes16)": {
        "details": "Find details of a specified resource",
        "params": {
          "_resId": "bytes16 : Resource index(ClaimID)."
        }
      },
      "insertResource(bytes16,string,address,string[],string,string)": {
        "details": "Insert a new resource.",
        "params": {
          "_author": "address  : Declare the address of the resource.",
          "_cover": ":",
          "_ipfs": "string   : The IPFS Hash value of the resource.",
          "_sid": "bytes16  : Resource index(ResourceID).",
          "_thubanail": ":",
          "_title": ":"
        },
        "returns": {
          "_0": "bool     : The successful call returns true."
        }
      },
      "isExist(bytes16)": {
        "details": "Check if the resource exists",
        "params": {
          "_resId": "bytes16  : Resource index(ClaimID)."
        },
        "returns": {
          "_0": "bool  : True means resources exist"
        }
      },
      "mangeWhiteList(address,bool)": {
        "details": "",
        "params": {
          "_allow": "bool     : truefalse",
          "_target": "address  : "
        },
        "returns": {
          "_0": "bool     : true"
        }
      },
      "mulInsertWhite(address[])": {
        "details": "",
        "params": {
          "_addresses": "address[] : "
        },
        "returns": {
          "_0": "bool      : true"
        }
      },
      "renounceOwnership()": {
        "details": "Allows the current owner to relinquish control of the contract."
      },
      "transferAdminship(address)": {
        "details": "Allows the current admin to transfer control of the contract to a newadmin.",
        "params": {
          "_newAdmin": "address : new admin address"
        }
      },
      "transferOwnership(address)": {
        "details": "Allows the current owner to transfer control of the contract to a newOwner.",
        "params": {
          "_newOwner": "The address to transfer ownership to."
        }
      },
      "updateResource(bytes16,string,address,string[],string,string)": {
        "details": "Update the content of the resource (UDFS hash) and the pricing.",
        "params": {
          "_author": "address  : Declare the address of the resource.",
          "_cover": ":",
          "_ipfs": "string   : The UDFS Hash value of the resource.",
          "_sid": "bytes16  : Resource index(CResourceID).",
          "_thubanail": ":",
          "_title": ":"
        },
        "returns": {
          "_0": "bool     : The successful call returns true."
        }
      },
      "updateResourceWaive(bytes16,address,bool)": {
        "details": "The author abandons a resource.",
        "params": {
          "_author": "address  : Claim the address of the resource.",
          "_sid": "bytes16  : Resource index(ClaimID).",
          "_waive": "bool    : True means give up, false means cancel."
        },
        "returns": {
          "_0": "bool    : The successful call returns true."
        }
      }
    }
  },
  "userdoc": {
    "methods": {
      "constructor": "W",
      "deleteResource(bytes16)": {
        "notice": "This function is limited to calls only by the admin or owner."
      },
      "getResourceInfoByID(bytes16)": {
        "notice": "Only allowed to be called by the address in the whitelist."
      },
      "mangeWhiteList(address,bool)": {
        "notice": ""
      },
      "mulInsertWhite(address[])": {
        "notice": ""
      },
      "renounceOwnership()": {
        "notice": "Renouncing to ownership will leave the contract without an owner. It will not be possible to call the functions with the `onlyOwner` modifier anymore."
      },
      "updateResourceWaive(bytes16,address,bool)": {
        "notice": "Canceling resource abandonment cannot be invoked by the author."
      }
    }
  }
}