{
  "contractName": "ResourceDB",
  "abi": [
    {
      "inputs": [],
      "stateMutability": "nonpayable",
      "type": "constructor"
    },
    {
      "anonymous": false,
      "inputs": [
        {
          "indexed": false,
          "internalType": "string",
          "name": "info",
          "type": "string"
        },
        {
          "indexed": false,
          "internalType": "address",
          "name": "_resId",
          "type": "address"
        },
        {
          "indexed": true,
          "internalType": "address",
          "name": "_author",
          "type": "address"
        },
        {
          "indexed": false,
          "internalType": "address",
          "name": "who",
          "type": "address"
        }
      ],
      "name": "LogAddress",
      "type": "event"
    },
    {
      "anonymous": false,
      "inputs": [
        {
          "indexed": false,
          "internalType": "string",
          "name": "",
          "type": "string"
        },
        {
          "indexed": false,
          "internalType": "address",
          "name": "",
          "type": "address"
        },
        {
          "indexed": false,
          "internalType": "address",
          "name": "",
          "type": "address"
        }
      ],
      "name": "LogAddress",
      "type": "event"
    },
    {
      "anonymous": false,
      "inputs": [
        {
          "indexed": true,
          "internalType": "address",
          "name": "_old",
          "type": "address"
        },
        {
          "indexed": true,
          "internalType": "address",
          "name": "_new",
          "type": "address"
        }
      ],
      "name": "LogAdminshipTransferred",
      "type": "event"
    },
    {
      "anonymous": false,
      "inputs": [
        {
          "indexed": false,
          "internalType": "bytes16",
          "name": "_resId",
          "type": "bytes16"
        }
      ],
      "name": "LogDeleteResource",
      "type": "event"
    },
    {
      "anonymous": false,
      "inputs": [
        {
          "indexed": false,
          "internalType": "enum ErrorModule.RScorr",
          "name": "_errorNumber",
          "type": "uint8"
        }
      ],
      "name": "LogError",
      "type": "event"
    },
    {
      "anonymous": false,
      "inputs": [
        {
          "indexed": false,
          "internalType": "bytes16",
          "name": "_resId",
          "type": "bytes16"
        },
        {
          "indexed": true,
          "internalType": "address",
          "name": "_author",
          "type": "address"
        }
      ],
      "name": "LogNewResource",
      "type": "event"
    },
    {
      "anonymous": false,
      "inputs": [
        {
          "indexed": true,
          "internalType": "address",
          "name": "previousOwner",
          "type": "address"
        }
      ],
      "name": "LogOwnershipRenounced",
      "type": "event"
    },
    {
      "anonymous": false,
      "inputs": [
        {
          "indexed": true,
          "internalType": "address",
          "name": "previousOwner",
          "type": "address"
        },
        {
          "indexed": true,
          "internalType": "address",
          "name": "newOwner",
          "type": "address"
        }
      ],
      "name": "LogOwnershipTransferred",
      "type": "event"
    },
    {
      "anonymous": false,
      "inputs": [
        {
          "indexed": false,
          "internalType": "bytes16",
          "name": "_resId",
          "type": "bytes16"
        },
        {
          "indexed": true,
          "internalType": "address",
          "name": "_author",
          "type": "address"
        },
        {
          "indexed": false,
          "internalType": "string",
          "name": "_ipfs",
          "type": "string"
        },
        {
          "indexed": false,
          "internalType": "string[]",
          "name": "_thubanail",
          "type": "string[]"
        },
        {
          "indexed": false,
          "internalType": "string",
          "name": "_cover",
          "type": "string"
        }
      ],
      "name": "LogUpdateResource",
      "type": "event"
    },
    {
      "anonymous": false,
      "inputs": [
        {
          "indexed": false,
          "internalType": "bytes16",
          "name": "_resourceId",
          "type": "bytes16"
        },
        {
          "indexed": true,
          "internalType": "address",
          "name": "_author",
          "type": "address"
        },
        {
          "indexed": false,
          "internalType": "bool",
          "name": "_waive",
          "type": "bool"
        }
      ],
      "name": "LogUpdateResourceWaive",
      "type": "event"
    },
    {
      "anonymous": false,
      "inputs": [
        {
          "indexed": true,
          "internalType": "address",
          "name": "_target",
          "type": "address"
        },
        {
          "indexed": false,
          "internalType": "bool",
          "name": "_allow",
          "type": "bool"
        }
      ],
      "name": "LogWhileChanged",
      "type": "event"
    },
    {
      "inputs": [],
      "name": "acceptOwnership",
      "outputs": [],
      "stateMutability": "nonpayable",
      "type": "function"
    },
    {
      "inputs": [],
      "name": "admin",
      "outputs": [
        {
          "internalType": "address",
          "name": "",
          "type": "address"
        }
      ],
      "stateMutability": "view",
      "type": "function",
      "constant": true
    },
    {
      "inputs": [
        {
          "internalType": "address",
          "name": "_target",
          "type": "address"
        },
        {
          "internalType": "bool",
          "name": "_allow",
          "type": "bool"
        }
      ],
      "name": "mangeWhiteList",
      "outputs": [
        {
          "internalType": "bool",
          "name": "",
          "type": "bool"
        }
      ],
      "stateMutability": "nonpayable",
      "type": "function"
    },
    {
      "inputs": [
        {
          "internalType": "address[]",
          "name": "_addresses",
          "type": "address[]"
        }
      ],
      "name": "mulInsertWhite",
      "outputs": [
        {
          "internalType": "bool",
          "name": "",
          "type": "bool"
        }
      ],
      "stateMutability": "nonpayable",
      "type": "function"
    },
    {
      "inputs": [],
      "name": "newOwner",
      "outputs": [
        {
          "internalType": "address",
          "name": "",
          "type": "address"
        }
      ],
      "stateMutability": "view",
      "type": "function",
      "constant": true
    },
    {
      "inputs": [],
      "name": "owner",
      "outputs": [
        {
          "internalType": "address",
          "name": "",
          "type": "address"
        }
      ],
      "stateMutability": "view",
      "type": "function",
      "constant": true
    },
    {
      "inputs": [],
      "name": "renounceOwnership",
      "outputs": [],
      "stateMutability": "nonpayable",
      "type": "function"
    },
    {
      "inputs": [
        {
          "internalType": "address",
          "name": "_newAdmin",
          "type": "address"
        }
      ],
      "name": "transferAdminship",
      "outputs": [],
      "stateMutability": "nonpayable",
      "type": "function"
    },
    {
      "inputs": [
        {
          "internalType": "address",
          "name": "_newOwner",
          "type": "address"
        }
      ],
      "name": "transferOwnership",
      "outputs": [],
      "stateMutability": "nonpayable",
      "type": "function"
    },
    {
      "inputs": [
        {
          "internalType": "address",
          "name": "",
          "type": "address"
        }
      ],
      "name": "whitelist_",
      "outputs": [
        {
          "internalType": "bool",
          "name": "",
          "type": "bool"
        }
      ],
      "stateMutability": "view",
      "type": "function",
      "constant": true
    },
    {
      "inputs": [
        {
          "internalType": "bytes16",
          "name": "_sid",
          "type": "bytes16"
        },
        {
          "internalType": "string",
          "name": "_ipfs",
          "type": "string"
        },
        {
          "internalType": "address",
          "name": "_author",
          "type": "address"
        },
        {
          "internalType": "string[]",
          "name": "_thubanail",
          "type": "string[]"
        },
        {
          "internalType": "string",
          "name": "_cover",
          "type": "string"
        },
        {
          "internalType": "string",
          "name": "_title",
          "type": "string"
        }
      ],
      "name": "insertResource",
      "outputs": [
        {
          "internalType": "bool",
          "name": "",
          "type": "bool"
        }
      ],
      "stateMutability": "nonpayable",
      "type": "function"
    },
    {
      "inputs": [
        {
          "internalType": "bytes16",
          "name": "_sid",
          "type": "bytes16"
        },
        {
          "internalType": "string",
          "name": "_ipfs",
          "type": "string"
        },
        {
          "internalType": "address",
          "name": "_author",
          "type": "address"
        },
        {
          "internalType": "string[]",
          "name": "_thubanail",
          "type": "string[]"
        },
        {
          "internalType": "string",
          "name": "_cover",
          "type": "string"
        },
        {
          "internalType": "string",
          "name": "_title",
          "type": "string"
        }
      ],
      "name": "updateResource",
      "outputs": [
        {
          "internalType": "bool",
          "name": "",
          "type": "bool"
        }
      ],
      "stateMutability": "nonpayable",
      "type": "function"
    },
    {
      "inputs": [
        {
          "internalType": "bytes16",
          "name": "_sid",
          "type": "bytes16"
        },
        {
          "internalType": "address",
          "name": "_author",
          "type": "address"
        },
        {
          "internalType": "bool",
          "name": "_waive",
          "type": "bool"
        }
      ],
      "name": "updateResourceWaive",
      "outputs": [
        {
          "internalType": "bool",
          "name": "",
          "type": "bool"
        }
      ],
      "stateMutability": "nonpayable",
      "type": "function"
    },
    {
      "inputs": [
        {
          "internalType": "bytes16",
          "name": "_sid",
          "type": "bytes16"
        }
      ],
      "name": "deleteResource",
      "outputs": [
        {
          "internalType": "bool",
          "name": "",
          "type": "bool"
        }
      ],
      "stateMutability": "nonpayable",
      "type": "function"
    },
    {
      "inputs": [
        {
          "internalType": "bytes16",
          "name": "_resId",
          "type": "bytes16"
        }
      ],
      "name": "getResourceInfoByID",
      "outputs": [
        {
          "components": [
            {
              "internalType": "uint256",
              "name": "initDate",
              "type": "uint256"
            },
            {
              "internalType": "address",
              "name": "author",
              "type": "address"
            },
            {
              "internalType": "bool",
              "name": "waive",
              "type": "bool"
            },
            {
              "internalType": "string",
              "name": "ipfs",
              "type": "string"
            },
            {
              "internalType": "uint256",
              "name": "gratuityNum",
              "type": "uint256"
            },
            {
              "internalType": "string[]",
              "name": "thubanail",
              "type": "string[]"
            },
            {
              "internalType": "string",
              "name": "cover",
              "type": "string"
            },
            {
              "internalType": "string",
              "name": "title",
              "type": "string"
            }
          ],
          "internalType": "struct ResourceDB.Resource",
          "name": "",
          "type": "tuple"
        }
      ],
      "stateMutability": "view",
      "type": "function",
      "constant": true
    },
    {
      "inputs": [
        {
          "internalType": "bytes16",
          "name": "_resId",
          "type": "bytes16"
        }
      ],
      "name": "isExist",
      "outputs": [
        {
          "internalType": "bool",
          "name": "",
          "type": "bool"
        }
      ],
      "stateMutability": "view",
      "type": "function",
      "constant": true
    },
    {
      "inputs": [
        {
          "internalType": "bytes16",
          "name": "_resId",
          "type": "bytes16"
        }
      ],
      "name": "getGratuityNum",
      "outputs": [
        {
          "internalType": "uint256",
          "name": "gratuityNum",
          "type": "uint256"
        }
      ],
      "stateMutability": "view",
      "type": "function",
      "constant": true
    },
    {
      "inputs": [
        {
          "internalType": "bytes16",
          "name": "_resId",
          "type": "bytes16"
        }
      ],
      "name": "getThubanail",
      "outputs": [
        {
          "internalType": "string[]",
          "name": "_thubanail",
          "type": "string[]"
        }
      ],
      "stateMutability": "view",
      "type": "function",
      "constant": true
    },
    {
      "inputs": [
        {
          "internalType": "bytes16",
          "name": "_resId",
          "type": "bytes16"
        }
      ],
      "name": "getCover",
      "outputs": [
        {
          "internalType": "string",
          "name": "cover",
          "type": "string"
        }
      ],
      "stateMutability": "view",
      "type": "function",
      "constant": true
    },
    {
      "inputs": [
        {
          "internalType": "bytes16",
          "name": "_resId",
          "type": "bytes16"
        }
      ],
      "name": "getAuthor",
      "outputs": [
        {
          "internalType": "address",
          "name": "",
          "type": "address"
        }
      ],
      "stateMutability": "view",
      "type": "function",
      "constant": true
    },
    {
      "inputs": [
        {
          "internalType": "bytes16",
          "name": "_resId",
          "type": "bytes16"
        }
      ],
      "name": "getTitle",
      "outputs": [
        {
          "internalType": "string",
          "name": "title",
          "type": "string"
        }
      ],
      "stateMutability": "view",
      "type": "function",
      "constant": true
    },
    {
      "inputs": [
        {
          "internalType": "bytes16",
          "name": "_resId",
          "type": "bytes16"
        }
      ],
      "name": "getResourceWaive",
      "outputs": [
        {
          "internalType": "bool",
          "name": "waive",
          "type": "bool"
        }
      ],
      "stateMutability": "view",
      "type": "function",
      "constant": true
    },
    {
      "inputs": [
        {
          "internalType": "bytes16",
          "name": "_resId",
          "type": "bytes16"
        },
        {
          "internalType": "uint256",
          "name": "value",
          "type": "uint256"
        }
      ],
      "name": "addResourceGratuityNum",
      "outputs": [],
      "stateMutability": "nonpayable",
      "type": "function"
    }
  ],
  "bytecode": "0x60806040523480156200001157600080fd5b50336000806101000a81548173ffffffffffffffffffffffffffffffffffffffff021916908373ffffffffffffffffffffffffffffffffffffffff16021790555033600260006101000a81548173ffffffffffffffffffffffffffffffffffffffff021916908373ffffffffffffffffffffffffffffffffffffffff1602179055506000809054906101000a900473ffffffffffffffffffffffffffffffffffffffff1673ffffffffffffffffffffffffffffffffffffffff167f9e6965ca244a67ad615b5114db3886405a40a12f1190493f8e9201020885af1d600260009054906101000a900473ffffffffffffffffffffffffffffffffffffffff1633604051620001209291906200027f565b60405180910390a26000809054906101000a900473ffffffffffffffffffffffffffffffffffffffff1673ffffffffffffffffffffffffffffffffffffffff167f9e6965ca244a67ad615b5114db3886405a40a12f1190493f8e9201020885af1d600260009054906101000a900473ffffffffffffffffffffffffffffffffffffffff1633604051620001b59291906200027f565b60405180910390a26001600360003373ffffffffffffffffffffffffffffffffffffffff1673ffffffffffffffffffffffffffffffffffffffff16815260200190815260200160002060006101000a81548160ff02191690831515021790555062000342565b620002268162000306565b82525050565b6200023781620002d2565b82525050565b60006200024c600a83620002c1565b91507f636f6e73747275636f72000000000000000000000000000000000000000000006000830152602082019050919050565b600060608201905081810360008301526200029a816200023d565b9050620002ab60208301856200022c565b620002ba60408301846200021b565b9392505050565b600082825260208201905092915050565b6000620002df82620002e6565b9050919050565b600073ffffffffffffffffffffffffffffffffffffffff82169050919050565b600062000313826200031a565b9050919050565b600062000327826200032e565b9050919050565b60006200033b82620002e6565b9050919050565b61358980620003526000396000f3fe608060405234801561001057600080fd5b506004361061014d5760003560e01c8063a8e1fba3116100c3578063dcd581581161007c578063dcd58158146103ea578063e56a7c5d1461041a578063e8de42df1461044a578063f207a0881461047a578063f2fde38b146104aa578063f851a440146104c65761014d565b8063a8e1fba3146102dc578063aa492ec21461030c578063ab312ffb1461033c578063b3f956571461036c578063ba33cb581461039c578063d4ee1d90146103cc5761014d565b806379ba50971161011557806379ba5097146101f45780638d4a3974146101fe5780638da5cb5b1461022e578063994ed1b81461024c5780639b03ced21461027c578063a864022d146102ac5761014d565b8063157ffbe91461015257806335e60e891461016e57806353ec00cc1461019e5780635be7cc16146101ce578063715018a6146101ea575b600080fd5b61016c60048036036101679190810190612c29565b6104e4565b005b61018860048036036101839190810190612a87565b61056e565b604051610195919061305e565b60405180910390f35b6101b860048036036101b39190810190612ac8565b6107d8565b6040516101c59190613132565b60405180910390f35b6101e860048036036101e39190810190612a22565b6108b6565b005b6101f2610abc565b005b6101fc610c18565b005b61021860048036036102139190810190612ac8565b610e11565b604051610225919061320c565b60405180910390f35b6102366111b9565b6040516102439190613021565b60405180910390f35b61026660048036036102619190810190612ac8565b6111de565b604051610273919061303c565b60405180910390f35b61029660048036036102919190810190612ac8565b611303565b6040516102a3919061305e565b60405180910390f35b6102c660048036036102c19190810190612b40565b6113a7565b6040516102d3919061305e565b60405180910390f35b6102f660048036036102f19190810190612a4b565b6116b9565b604051610303919061305e565b60405180910390f35b61032660048036036103219190810190612af1565b6118d2565b604051610333919061305e565b60405180910390f35b61035660048036036103519190810190612ac8565b611b83565b604051610363919061322e565b60405180910390f35b61038660048036036103819190810190612b40565b611bc9565b604051610393919061305e565b60405180910390f35b6103b660048036036103b19190810190612ac8565b611f65565b6040516103c39190613021565b60405180910390f35b6103d4611fcb565b6040516103e19190613021565b60405180910390f35b61040460048036036103ff9190810190612ac8565b611ff1565b6040516104119190613132565b60405180910390f35b610434600480360361042f9190810190612a22565b6120cf565b604051610441919061305e565b60405180910390f35b610464600480360361045f9190810190612ac8565b6120ef565b604051610471919061305e565b60405180910390f35b610494600480360361048f9190810190612ac8565b6123bc565b6040516104a1919061305e565b60405180910390f35b6104c460048036036104bf9190810190612a22565b61240f565b005b6104ce612578565b6040516104db9190613021565b60405180910390f35b61052a60046000846fffffffffffffffffffffffffffffffff19166fffffffffffffffffffffffffffffffff19168152602001908152602001600020600301548261259e565b60046000846fffffffffffffffffffffffffffffffff19166fffffffffffffffffffffffffffffffff19168152602001908152602001600020600301819055505050565b60008060009054906101000a900473ffffffffffffffffffffffffffffffffffffffff1673ffffffffffffffffffffffffffffffffffffffff163373ffffffffffffffffffffffffffffffffffffffff161415801561061b5750600260009054906101000a900473ffffffffffffffffffffffffffffffffffffffff1673ffffffffffffffffffffffffffffffffffffffff163373ffffffffffffffffffffffffffffffffffffffff1614155b15610661577f0489f2369368f4688acd012107ac5a7d98ca739b913449d852f35d871e433cc3600f6040516106509190613117565b60405180910390a1600090506107d3565b60008090505b82518110156107cd57600073ffffffffffffffffffffffffffffffffffffffff1683828151811061069457fe5b602002602001015173ffffffffffffffffffffffffffffffffffffffff1614156106f3576040517f08c379a00000000000000000000000000000000000000000000000000000000081526004016106ea90613190565b60405180910390fd5b60016003600085848151811061070557fe5b602002602001015173ffffffffffffffffffffffffffffffffffffffff1673ffffffffffffffffffffffffffffffffffffffff16815260200190815260200160002060006101000a81548160ff02191690831515021790555082818151811061076a57fe5b602002602001015173ffffffffffffffffffffffffffffffffffffffff167f9b3b880c67f4fab4215412179771cffd326a045e6016a7e363eb38460f7e917660016040516107b8919061305e565b60405180910390a28080600101915050610667565b50600190505b919050565b606060046000836fffffffffffffffffffffffffffffffff19166fffffffffffffffffffffffffffffffff191681526020019081526020016000206005018054600181600116156101000203166002900480601f0160208091040260200160405190810160405280929190818152602001828054600181600116156101000203166002900480156108aa5780601f1061087f576101008083540402835291602001916108aa565b820191906000526020600020905b81548152906001019060200180831161088d57829003601f168201915b50505050509050919050565b6000809054906101000a900473ffffffffffffffffffffffffffffffffffffffff1673ffffffffffffffffffffffffffffffffffffffff163373ffffffffffffffffffffffffffffffffffffffff16148061095e5750600260009054906101000a900473ffffffffffffffffffffffffffffffffffffffff1673ffffffffffffffffffffffffffffffffffffffff163373ffffffffffffffffffffffffffffffffffffffff16145b15610a25578073ffffffffffffffffffffffffffffffffffffffff16600260009054906101000a900473ffffffffffffffffffffffffffffffffffffffff1673ffffffffffffffffffffffffffffffffffffffff167ff73aa4459d935dbacd9313fffe485016147551d99ef401461704cd39e6e9028760405160405180910390a380600260006101000a81548173ffffffffffffffffffffffffffffffffffffffff021916908373ffffffffffffffffffffffffffffffffffffffff160217905550610ab9565b6000809054906101000a900473ffffffffffffffffffffffffffffffffffffffff1673ffffffffffffffffffffffffffffffffffffffff167f9e6965ca244a67ad615b5114db3886405a40a12f1190493f8e9201020885af1d600260009054906101000a900473ffffffffffffffffffffffffffffffffffffffff1633604051610ab0929190613154565b60405180910390a25b50565b6000809054906101000a900473ffffffffffffffffffffffffffffffffffffffff1673ffffffffffffffffffffffffffffffffffffffff163373ffffffffffffffffffffffffffffffffffffffff161415610bbb576000809054906101000a900473ffffffffffffffffffffffffffffffffffffffff1673ffffffffffffffffffffffffffffffffffffffff167f2dde1bc8b58ef192e7df3e7a354521d958331021e450d544346b936936916ef460405160405180910390a260008060006101000a81548173ffffffffffffffffffffffffffffffffffffffff021916908373ffffffffffffffffffffffffffffffffffffffff160217905550610c16565b7f6b26c3fc447c71078386bc5ad946c760ce605d2bc61b762901400eb9ac003a9a6000809054906101000a900473ffffffffffffffffffffffffffffffffffffffff1633604051610c0d9291906131b0565b60405180910390a15b565b600160009054906101000a900473ffffffffffffffffffffffffffffffffffffffff1673ffffffffffffffffffffffffffffffffffffffff163373ffffffffffffffffffffffffffffffffffffffff161415610db457600160009054906101000a900473ffffffffffffffffffffffffffffffffffffffff1673ffffffffffffffffffffffffffffffffffffffff166000809054906101000a900473ffffffffffffffffffffffffffffffffffffffff1673ffffffffffffffffffffffffffffffffffffffff167fdb6d05f3295cede580affa301a1eb5297528f3b3f6a56b075887ce6f61c45f2160405160405180910390a3600160009054906101000a900473ffffffffffffffffffffffffffffffffffffffff166000806101000a81548173ffffffffffffffffffffffffffffffffffffffff021916908373ffffffffffffffffffffffffffffffffffffffff1602179055506000600160006101000a81548173ffffffffffffffffffffffffffffffffffffffff021916908373ffffffffffffffffffffffffffffffffffffffff160217905550610e0f565b7f6b26c3fc447c71078386bc5ad946c760ce605d2bc61b762901400eb9ac003a9a6000809054906101000a900473ffffffffffffffffffffffffffffffffffffffff1633604051610e069291906131b0565b60405180910390a15b565b610e196125b8565b60046000836fffffffffffffffffffffffffffffffff19166fffffffffffffffffffffffffffffffff1916815260200190815260200160002060405180610100016040529081600082015481526020016001820160009054906101000a900473ffffffffffffffffffffffffffffffffffffffff1673ffffffffffffffffffffffffffffffffffffffff1673ffffffffffffffffffffffffffffffffffffffff1681526020016001820160149054906101000a900460ff16151515158152602001600282018054600181600116156101000203166002900480601f016020809104026020016040519081016040528092919081815260200182805460018160011615610100020316600290048015610f725780601f10610f4757610100808354040283529160200191610f72565b820191906000526020600020905b815481529060010190602001808311610f5557829003601f168201915b505050505081526020016003820154815260200160048201805480602002602001604051908101604052809291908181526020016000905b82821015611066578382906000526020600020018054600181600116156101000203166002900480601f0160208091040260200160405190810160405280929190818152602001828054600181600116156101000203166002900480156110525780601f1061102757610100808354040283529160200191611052565b820191906000526020600020905b81548152906001019060200180831161103557829003601f168201915b505050505081526020019060010190610faa565b505050508152602001600582018054600181600116156101000203166002900480601f0160208091040260200160405190810160405280929190818152602001828054600181600116156101000203166002900480156111075780601f106110dc57610100808354040283529160200191611107565b820191906000526020600020905b8154815290600101906020018083116110ea57829003601f168201915b50505050508152602001600682018054600181600116156101000203166002900480601f0160208091040260200160405190810160405280929190818152602001828054600181600116156101000203166002900480156111a95780601f1061117e576101008083540402835291602001916111a9565b820191906000526020600020905b81548152906001019060200180831161118c57829003601f168201915b5050505050815250509050919050565b6000809054906101000a900473ffffffffffffffffffffffffffffffffffffffff1681565b606060046000836fffffffffffffffffffffffffffffffff19166fffffffffffffffffffffffffffffffff19168152602001908152602001600020600401805480602002602001604051908101604052809291908181526020016000905b828210156112f8578382906000526020600020018054600181600116156101000203166002900480601f0160208091040260200160405190810160405280929190818152602001828054600181600116156101000203166002900480156112e45780601f106112b9576101008083540402835291602001916112e4565b820191906000526020600020905b8154815290600101906020018083116112c757829003601f168201915b50505050508152602001906001019061123c565b505050509050919050565b60008073ffffffffffffffffffffffffffffffffffffffff1660046000846fffffffffffffffffffffffffffffffff19166fffffffffffffffffffffffffffffffff1916815260200190815260200160002060010160009054906101000a900473ffffffffffffffffffffffffffffffffffffffff1673ffffffffffffffffffffffffffffffffffffffff161461139d57600190506113a2565b600090505b919050565b600060011515600360003373ffffffffffffffffffffffffffffffffffffffff1673ffffffffffffffffffffffffffffffffffffffff16815260200190815260200160002060009054906101000a900460ff16151514611442577f0489f2369368f4688acd012107ac5a7d98ca739b913449d852f35d871e433cc3600e6040516114319190613117565b60405180910390a1600090506116af565b8473ffffffffffffffffffffffffffffffffffffffff1660046000896fffffffffffffffffffffffffffffffff19166fffffffffffffffffffffffffffffffff1916815260200190815260200160002060010160009054906101000a900473ffffffffffffffffffffffffffffffffffffffff1673ffffffffffffffffffffffffffffffffffffffff1614611512577f0489f2369368f4688acd012107ac5a7d98ca739b913449d852f35d871e433cc360106040516115019190613117565b60405180910390a1600090506116af565b8560046000896fffffffffffffffffffffffffffffffff19166fffffffffffffffffffffffffffffffff191681526020019081526020016000206002019080519060200190611562929190612615565b508360046000896fffffffffffffffffffffffffffffffff19166fffffffffffffffffffffffffffffffff1916815260200190815260200160002060040190805190602001906115b3929190612695565b508260046000896fffffffffffffffffffffffffffffffff19166fffffffffffffffffffffffffffffffff191681526020019081526020016000206005019080519060200190611604929190612615565b508160046000896fffffffffffffffffffffffffffffffff19166fffffffffffffffffffffffffffffffff191681526020019081526020016000206006019080519060200190611655929190612615565b508473ffffffffffffffffffffffffffffffffffffffff167f2f234c72cbec2e1bd010e3ac9c94f37eebf5e6403cc31d6c62e9f989a8b6fdd2888887876040516116a294939291906130bd565b60405180910390a2600190505b9695505050505050565b60008060009054906101000a900473ffffffffffffffffffffffffffffffffffffffff1673ffffffffffffffffffffffffffffffffffffffff163373ffffffffffffffffffffffffffffffffffffffff16141580156117665750600260009054906101000a900473ffffffffffffffffffffffffffffffffffffffff1673ffffffffffffffffffffffffffffffffffffffff163373ffffffffffffffffffffffffffffffffffffffff1614155b156117ac577f0489f2369368f4688acd012107ac5a7d98ca739b913449d852f35d871e433cc3600f60405161179b9190613117565b60405180910390a1600090506118cc565b600073ffffffffffffffffffffffffffffffffffffffff168373ffffffffffffffffffffffffffffffffffffffff161415611822577f0489f2369368f4688acd012107ac5a7d98ca739b913449d852f35d871e433cc360026040516118119190613117565b60405180910390a1600090506118cc565b81600360008573ffffffffffffffffffffffffffffffffffffffff1673ffffffffffffffffffffffffffffffffffffffff16815260200190815260200160002060006101000a81548160ff0219169083151502179055508273ffffffffffffffffffffffffffffffffffffffff167f9b3b880c67f4fab4215412179771cffd326a045e6016a7e363eb38460f7e9176836040516118bf919061305e565b60405180910390a2600190505b92915050565b600060011515600360003373ffffffffffffffffffffffffffffffffffffffff1673ffffffffffffffffffffffffffffffffffffffff16815260200190815260200160002060009054906101000a900460ff1615151461196d577f0489f2369368f4688acd012107ac5a7d98ca739b913449d852f35d871e433cc3600e60405161195c9190613117565b60405180910390a160009050611b7c565b8273ffffffffffffffffffffffffffffffffffffffff1660046000866fffffffffffffffffffffffffffffffff19166fffffffffffffffffffffffffffffffff1916815260200190815260200160002060010160009054906101000a900473ffffffffffffffffffffffffffffffffffffffff1673ffffffffffffffffffffffffffffffffffffffff1614611a3d577f0489f2369368f4688acd012107ac5a7d98ca739b913449d852f35d871e433cc36010604051611a2c9190613117565b60405180910390a160009050611b7c565b81151560046000866fffffffffffffffffffffffffffffffff19166fffffffffffffffffffffffffffffffff1916815260200190815260200160002060010160149054906101000a900460ff1615151415611ad3577f0489f2369368f4688acd012107ac5a7d98ca739b913449d852f35d871e433cc36011604051611ac29190613117565b60405180910390a160009050611b7c565b8273ffffffffffffffffffffffffffffffffffffffff167f82677ea120590d5a5a1b20bf173631a90cf33c1d72e5edc7ed01c4c334b5b5cc8584604051611b1b929190613094565b60405180910390a28160046000866fffffffffffffffffffffffffffffffff19166fffffffffffffffffffffffffffffffff1916815260200190815260200160002060010160146101000a81548160ff021916908315150217905550600190505b9392505050565b600060046000836fffffffffffffffffffffffffffffffff19166fffffffffffffffffffffffffffffffff19168152602001908152602001600020600301549050919050565b600060011515600360003373ffffffffffffffffffffffffffffffffffffffff1673ffffffffffffffffffffffffffffffffffffffff16815260200190815260200160002060009054906101000a900460ff16151514611c64577f0489f2369368f4688acd012107ac5a7d98ca739b913449d852f35d871e433cc3600e604051611c539190613117565b60405180910390a160009050611f5b565b611c6d87611303565b15611cb3577f0489f2369368f4688acd012107ac5a7d98ca739b913449d852f35d871e433cc3600a604051611ca29190613117565b60405180910390a160009050611f5b565b8460046000896fffffffffffffffffffffffffffffffff19166fffffffffffffffffffffffffffffffff1916815260200190815260200160002060010160006101000a81548173ffffffffffffffffffffffffffffffffffffffff021916908373ffffffffffffffffffffffffffffffffffffffff1602179055508560046000896fffffffffffffffffffffffffffffffff19166fffffffffffffffffffffffffffffffff191681526020019081526020016000206002019080519060200190611d7e929190612615565b504260046000896fffffffffffffffffffffffffffffffff19166fffffffffffffffffffffffffffffffff1916815260200190815260200160002060000181905550600060046000896fffffffffffffffffffffffffffffffff19166fffffffffffffffffffffffffffffffff1916815260200190815260200160002060010160146101000a81548160ff0219169083151502179055508360046000896fffffffffffffffffffffffffffffffff19166fffffffffffffffffffffffffffffffff191681526020019081526020016000206004019080519060200190611e65929190612695565b508260046000896fffffffffffffffffffffffffffffffff19166fffffffffffffffffffffffffffffffff191681526020019081526020016000206005019080519060200190611eb6929190612615565b508160046000896fffffffffffffffffffffffffffffffff19166fffffffffffffffffffffffffffffffff191681526020019081526020016000206006019080519060200190611f07929190612615565b508473ffffffffffffffffffffffffffffffffffffffff167f0fe2037ccd4a2636e40b5431f81895c8a4a9d86eef0d5025e0e1afc4fddc8ad588604051611f4e9190613079565b60405180910390a2600190505b9695505050505050565b600060046000836fffffffffffffffffffffffffffffffff19166fffffffffffffffffffffffffffffffff1916815260200190815260200160002060010160009054906101000a900473ffffffffffffffffffffffffffffffffffffffff169050919050565b600160009054906101000a900473ffffffffffffffffffffffffffffffffffffffff1681565b606060046000836fffffffffffffffffffffffffffffffff19166fffffffffffffffffffffffffffffffff191681526020019081526020016000206006018054600181600116156101000203166002900480601f0160208091040260200160405190810160405280929190818152602001828054600181600116156101000203166002900480156120c35780601f10612098576101008083540402835291602001916120c3565b820191906000526020600020905b8154815290600101906020018083116120a657829003601f168201915b50505050509050919050565b60036020528060005260406000206000915054906101000a900460ff1681565b60008060009054906101000a900473ffffffffffffffffffffffffffffffffffffffff1673ffffffffffffffffffffffffffffffffffffffff163373ffffffffffffffffffffffffffffffffffffffff161415801561219c5750600260009054906101000a900473ffffffffffffffffffffffffffffffffffffffff1673ffffffffffffffffffffffffffffffffffffffff163373ffffffffffffffffffffffffffffffffffffffff1614155b156121e2577f0489f2369368f4688acd012107ac5a7d98ca739b913449d852f35d871e433cc3600f6040516121d19190613117565b60405180910390a1600090506123b7565b600073ffffffffffffffffffffffffffffffffffffffff1660046000846fffffffffffffffffffffffffffffffff19166fffffffffffffffffffffffffffffffff1916815260200190815260200160002060010160009054906101000a900473ffffffffffffffffffffffffffffffffffffffff1673ffffffffffffffffffffffffffffffffffffffff1614156122b4577f0489f2369368f4688acd012107ac5a7d98ca739b913449d852f35d871e433cc360096040516122a39190613117565b60405180910390a1600090506123b7565b60046000836fffffffffffffffffffffffffffffffff19166fffffffffffffffffffffffffffffffff191681526020019081526020016000206000808201600090556001820160006101000a81549073ffffffffffffffffffffffffffffffffffffffff02191690556001820160146101000a81549060ff021916905560028201600061234191906126f5565b6003820160009055600482016000612359919061273d565b60058201600061236991906126f5565b60068201600061237991906126f5565b50507fb5f4c0a2c5e3bb95cc31df6c1ff73349d4ed2e1a6a05c098ed05b3008cdd8854826040516123aa9190613079565b60405180910390a1600190505b919050565b600060046000836fffffffffffffffffffffffffffffffff19166fffffffffffffffffffffffffffffffff1916815260200190815260200160002060010160149054906101000a900460ff169050919050565b6000809054906101000a900473ffffffffffffffffffffffffffffffffffffffff1673ffffffffffffffffffffffffffffffffffffffff163373ffffffffffffffffffffffffffffffffffffffff16141561251a57600073ffffffffffffffffffffffffffffffffffffffff168173ffffffffffffffffffffffffffffffffffffffff1614156124d4576040517f08c379a00000000000000000000000000000000000000000000000000000000081526004016124cb906131ec565b60405180910390fd5b80600160006101000a81548173ffffffffffffffffffffffffffffffffffffffff021916908373ffffffffffffffffffffffffffffffffffffffff160217905550612575565b7f6b26c3fc447c71078386bc5ad946c760ce605d2bc61b762901400eb9ac003a9a6000809054906101000a900473ffffffffffffffffffffffffffffffffffffffff163360405161256c9291906131b0565b60405180910390a15b50565b600260009054906101000a900473ffffffffffffffffffffffffffffffffffffffff1681565b60008183019050828110156125af57fe5b80905092915050565b60405180610100016040528060008152602001600073ffffffffffffffffffffffffffffffffffffffff16815260200160001515815260200160608152602001600081526020016060815260200160608152602001606081525090565b828054600181600116156101000203166002900490600052602060002090601f016020900481019282601f1061265657805160ff1916838001178555612684565b82800160010185558215612684579182015b82811115612683578251825591602001919060010190612668565b5b509050612691919061275e565b5090565b8280548282559060005260206000209081019282156126e4579160200282015b828111156126e35782518290805190602001906126d3929190612783565b50916020019190600101906126b5565b5b5090506126f19190612803565b5090565b50805460018160011615610100020316600290046000825580601f1061271b575061273a565b601f016020900490600052602060002090810190612739919061275e565b5b50565b508054600082559060005260206000209081019061275b9190612803565b50565b61278091905b8082111561277c576000816000905550600101612764565b5090565b90565b828054600181600116156101000203166002900490600052602060002090601f016020900481019282601f106127c457805160ff19168380011785556127f2565b828001600101855582156127f2579182015b828111156127f15782518255916020019190600101906127d6565b5b5090506127ff919061275e565b5090565b61282c91905b80821115612828576000818161281f91906126f5565b50600101612809565b5090565b90565b60008135905061283e816134f7565b92915050565b600082601f83011261285557600080fd5b813561286861286382613276565b613249565b9150818183526020840193506020810190508385602084028201111561288d57600080fd5b60005b838110156128bd57816128a3888261282f565b845260208401935060208301925050600181019050612890565b5050505092915050565b600082601f8301126128d857600080fd5b81356128eb6128e68261329e565b613249565b9150818183526020840193506020810190508360005b8381101561293157813586016129178882612965565b845260208401935060208301925050600181019050612901565b5050505092915050565b60008135905061294a8161350e565b92915050565b60008135905061295f81613525565b92915050565b600082601f83011261297657600080fd5b8135612989612984826132c6565b613249565b915080825260208301602083018583830111156129a557600080fd5b6129b0838284613497565b50505092915050565b600082601f8301126129ca57600080fd5b81356129dd6129d8826132f2565b613249565b915080825260208301602083018583830111156129f957600080fd5b612a04838284613497565b50505092915050565b600081359050612a1c8161353c565b92915050565b600060208284031215612a3457600080fd5b6000612a428482850161282f565b91505092915050565b60008060408385031215612a5e57600080fd5b6000612a6c8582860161282f565b9250506020612a7d8582860161293b565b9150509250929050565b600060208284031215612a9957600080fd5b600082013567ffffffffffffffff811115612ab357600080fd5b612abf84828501612844565b91505092915050565b600060208284031215612ada57600080fd5b6000612ae884828501612950565b91505092915050565b600080600060608486031215612b0657600080fd5b6000612b1486828701612950565b9350506020612b258682870161282f565b9250506040612b368682870161293b565b9150509250925092565b60008060008060008060c08789031215612b5957600080fd5b6000612b6789828a01612950565b965050602087013567ffffffffffffffff811115612b8457600080fd5b612b9089828a016129b9565b9550506040612ba189828a0161282f565b945050606087013567ffffffffffffffff811115612bbe57600080fd5b612bca89828a016128c7565b935050608087013567ffffffffffffffff811115612be757600080fd5b612bf389828a016129b9565b92505060a087013567ffffffffffffffff811115612c1057600080fd5b612c1c89828a016129b9565b9150509295509295509295565b60008060408385031215612c3c57600080fd5b6000612c4a85828601612950565b9250506020612c5b85828601612a0d565b9150509250929050565b6000612c718383612e05565b905092915050565b612c828161344f565b82525050565b612c91816133c8565b82525050565b612ca0816133c8565b82525050565b6000612cb182613349565b612cbb8185613395565b935083602082028501612ccd8561332e565b8060005b85811015612d095784840389528151612cea8582612c65565b9450612cf583613377565b925060208a01995050600181019050612cd1565b50829750879550505050505092915050565b6000612d268261333e565b612d308185613384565b935083602082028501612d428561331e565b8060005b85811015612d7e5784840389528151612d5f8582612c65565b9450612d6a8361336a565b925060208a01995050600181019050612d46565b50829750879550505050505092915050565b612d99816133da565b82525050565b612da8816133da565b82525050565b612db7816133e6565b82525050565b612dc681613461565b82525050565b6000612dd78261335f565b612de181856133b7565b9350612df18185602086016134a6565b612dfa816134d9565b840191505092915050565b6000612e1082613354565b612e1a81856133a6565b9350612e2a8185602086016134a6565b612e33816134d9565b840191505092915050565b6000612e4b6009836133b7565b91507f6f6e6c7941646d696e00000000000000000000000000000000000000000000006000830152602082019050919050565b6000612e8b600f836133b7565b91507f61646472657373206973206e756c6c00000000000000000000000000000000006000830152602082019050919050565b6000612ecb600a836133b7565b91507f6f6e6c79206f776e6572000000000000000000000000000000000000000000006000830152602082019050919050565b6000612f0b6010836133b7565b91507f6e65774f776e6572206973206e756c6c000000000000000000000000000000006000830152602082019050919050565b600061010083016000830151612f576000860182613003565b506020830151612f6a6020860182612c88565b506040830151612f7d6040860182612d90565b5060608301518482036060860152612f958282612e05565b9150506080830151612faa6080860182613003565b5060a083015184820360a0860152612fc28282612d1b565b91505060c083015184820360c0860152612fdc8282612e05565b91505060e083015184820360e0860152612ff68282612e05565b9150508091505092915050565b61300c81613445565b82525050565b61301b81613445565b82525050565b60006020820190506130366000830184612c97565b92915050565b600060208201905081810360008301526130568184612ca6565b905092915050565b60006020820190506130736000830184612d9f565b92915050565b600060208201905061308e6000830184612dae565b92915050565b60006040820190506130a96000830185612dae565b6130b66020830184612d9f565b9392505050565b60006080820190506130d26000830187612dae565b81810360208301526130e48186612dcc565b905081810360408301526130f88185612ca6565b9050818103606083015261310c8184612dcc565b905095945050505050565b600060208201905061312c6000830184612dbd565b92915050565b6000602082019050818103600083015261314c8184612dcc565b905092915050565b6000606082019050818103600083015261316d81612e3e565b905061317c6020830185612c97565b6131896040830184612c79565b9392505050565b600060208201905081810360008301526131a981612e7e565b9050919050565b600060608201905081810360008301526131c981612ebe565b90506131d86020830185612c97565b6131e56040830184612c79565b9392505050565b6000602082019050818103600083015261320581612efe565b9050919050565b600060208201905081810360008301526132268184612f3e565b905092915050565b60006020820190506132436000830184613012565b92915050565b6000604051905081810181811067ffffffffffffffff8211171561326c57600080fd5b8060405250919050565b600067ffffffffffffffff82111561328d57600080fd5b602082029050602081019050919050565b600067ffffffffffffffff8211156132b557600080fd5b602082029050602081019050919050565b600067ffffffffffffffff8211156132dd57600080fd5b601f19601f8301169050602081019050919050565b600067ffffffffffffffff82111561330957600080fd5b601f19601f8301169050602081019050919050565b6000819050602082019050919050565b6000819050602082019050919050565b600081519050919050565b600081519050919050565b600081519050919050565b600081519050919050565b6000602082019050919050565b6000602082019050919050565b600082825260208201905092915050565b600082825260208201905092915050565b600082825260208201905092915050565b600082825260208201905092915050565b60006133d382613425565b9050919050565b60008115159050919050565b60007fffffffffffffffffffffffffffffffff0000000000000000000000000000000082169050919050565b6000819050613420826134ea565b919050565b600073ffffffffffffffffffffffffffffffffffffffff82169050919050565b6000819050919050565b600061345a82613473565b9050919050565b600061346c82613412565b9050919050565b600061347e82613485565b9050919050565b600061349082613425565b9050919050565b82818337600083830152505050565b60005b838110156134c45780820151818401526020810190506134a9565b838111156134d3576000848401525b50505050565b6000601f19601f8301169050919050565b601e81106134f457fe5b50565b613500816133c8565b811461350b57600080fd5b50565b613517816133da565b811461352257600080fd5b50565b61352e816133e6565b811461353957600080fd5b50565b61354581613445565b811461355057600080fd5b5056fea2646970667358221220312e26bdba2754cac400204318b7441eeca86f8b370d69a51e6d26382c0609bf64736f6c63430006030033",
  "source": "pragma solidity >=0.5.12 <0.7.0;\r\npragma experimental ABIEncoderV2;\r\n\r\nimport \"./SafeMath.sol\";\r\nimport \"./WhiteMange.sol\";\r\n\r\ncontract ResourceDB is WhiteMange {\r\n    using SafeMath for uint256;\r\n\r\n    struct Resource {\r\n        uint256 initDate; // date of resource upload\r\n        address author; // owner of the resource\r\n        bool waive; // the flag that the author gave up\r\n        string ipfs; // the HASH value of the resource in the UDFS\r\n        uint256 gratuityNum; // \r\n      //  string[] lables; // \r\n      //  string[] comments; // \r\n        string[] thubanail; // \r\n        string cover; // \r\n        string title;\r\n    }\r\n\r\n    // mapping (uint => Gratuity) gratuitys;   // \r\n    mapping(bytes16 => Resource) private store_;\r\n\r\n    /* Successfully update a new resource. */\r\n    event LogNewResource(bytes16 _resId, address indexed _author);\r\n    event LogAddress(string info,address _resId, address indexed _author,address who);\r\n\r\n    /* Update the content of the resource. */\r\n    event LogUpdateResource(\r\n        bytes16 _resId,\r\n        address indexed _author,\r\n        string _ipfs,\r\n        string[] _thubanail,\r\n        string _cover\r\n    );\r\n\r\n\r\n    event LogUpdateResourceWaive(\r\n        bytes16 _resourceId,\r\n        address indexed _author,\r\n        bool _waive\r\n    );\r\n\r\n    /* Delete a resource that has already been claimed. */\r\n    event LogDeleteResource(bytes16 _resId);\r\n\r\n    /**W\r\n     * @dev Constructor.\r\n     */\r\n    constructor() public {\r\n     //   admin = msg.sender;\r\n     //   owner = msg.sender;\r\n      emit  LogAddress(\"construcor\",admin, owner,msg.sender);\r\n        whitelist_[msg.sender] = true;\r\n    }\r\n\r\n    /**\r\n     * @dev Insert a new resource.\r\n     * @param _sid     bytes16  : Resource index(ResourceID).\r\n     * @param _ipfs    string   : The IPFS Hash value of the resource.\r\n     * @param _author  address  : Declare the address of the resource.\r\n     * @param _thubanail :\r\n     * @param _cover :\r\n     * @param _title :\r\n     * @return         bool     : The successful call returns true.\r\n     */\r\n    function insertResource(\r\n        bytes16 _sid,\r\n        string memory _ipfs,\r\n        address _author,\r\n        string[] memory _thubanail,\r\n        string  memory _cover,\r\n        string  memory  _title\r\n    ) public returns (bool) {\r\n        if (whitelist_[msg.sender] != true) {\r\n            emit LogError(RScorr.Insufficient);\r\n            return false;\r\n        } // Check the caller's whitelist permission.\r\n\r\n        if (isExist(_sid)) {\r\n            emit LogError(RScorr.ObjExist);\r\n            return false;\r\n        } // Check if the resource exists.\r\n\r\n        store_[_sid].author = _author;\r\n        store_[_sid].ipfs = _ipfs;\r\n        store_[_sid].initDate = block.timestamp;\r\n        store_[_sid].waive = false;\r\n        store_[_sid].thubanail = _thubanail;\r\n        store_[_sid].cover = _cover;\r\n        // store_[_sid].comments = new String[];\r\n        store_[_sid].title = _title;\r\n        emit LogNewResource(_sid, _author);\r\n\r\n        return true;\r\n    }\r\n\r\n    /**\r\n     * @dev Update the content of the resource (UDFS hash) and the pricing.\r\n     * @param _sid       bytes16  : Resource index(CResourceID).\r\n     * @param _author    address  : Declare the address of the resource.\r\n     * @param _ipfs      string   : The UDFS Hash value of the resource.\r\n     * @param _thubanail :\r\n     * @param _cover :\r\n     * @param _title :\r\n     * @return           bool     : The successful call returns true.\r\n     */\r\n    function updateResource(\r\n        bytes16 _sid,\r\n        string memory _ipfs,\r\n        address _author,\r\n        string[] memory _thubanail,\r\n        string memory _cover,\r\n        string memory _title\r\n    ) public returns (bool) {\r\n        if (whitelist_[msg.sender] != true) {\r\n            emit LogError(RScorr.Insufficient);\r\n            return false;\r\n        } // Check the caller's whitelist permission.\r\n\r\n        if (store_[_sid].author != _author) {\r\n            emit LogError(RScorr.IdCertifyFailed);\r\n            return false;\r\n        } // Verify that the resource is the caller's.\r\n\r\n        store_[_sid].ipfs = _ipfs;\r\n        store_[_sid].thubanail = _thubanail;\r\n        store_[_sid].cover = _cover;\r\n        store_[_sid].title = _title;\r\n        emit LogUpdateResource(_sid, _author, _ipfs, _thubanail, _cover);\r\n\r\n        return true;\r\n    }\r\n\r\n    /**\r\n     * @dev The author abandons a resource.\r\n     * @notice Canceling resource abandonment cannot be invoked by the author.\r\n     * @param _sid     bytes16  : Resource index(ClaimID).\r\n     * @param _author  address  : Claim the address of the resource.\r\n     * @param _waive    bool    : True means give up, false means cancel.\r\n     * @return          bool    : The successful call returns true.\r\n     */\r\n    function updateResourceWaive(bytes16 _sid, address _author, bool _waive)\r\n        public\r\n        returns (bool)\r\n    {\r\n        if (whitelist_[msg.sender] != true) {\r\n            emit LogError(RScorr.Insufficient);\r\n            return false;\r\n        } // Check the caller's whitelist permission.\r\n\r\n        if (store_[_sid].author != _author) {\r\n            emit LogError(RScorr.IdCertifyFailed);\r\n            return false;\r\n        } // Verify that the resource is the caller's.\r\n\r\n        if (store_[_sid].waive == _waive) {\r\n            emit LogError(RScorr.Insignificance);\r\n            return false;\r\n        } // The updated content should not be the same.\r\n\r\n        emit LogUpdateResourceWaive(_sid, _author, _waive);\r\n        store_[_sid].waive = _waive;\r\n        return true;\r\n    }\r\n\r\n    /**\r\n     * @dev Admin delete resources.\r\n     * @notice This function is limited to calls only by the admin or owner.\r\n     * @param _sid      bytes16  : Resource index(ClaimID).\r\n     * @return          bool     : The successful call returns true.\r\n     */\r\n    function deleteResource(bytes16 _sid) public returns (bool) {\r\n        if (msg.sender != owner && msg.sender != admin) {\r\n            emit LogError(RScorr.PermissionDenied);\r\n            return false;\r\n        } // Check if the caller is an administrator.\r\n\r\n        if (store_[_sid].author == address(0)) {\r\n            emit LogError(RScorr.ObjNotExist);\r\n            return false;\r\n        } // Check if the resource exists.\r\n\r\n        delete store_[_sid];\r\n\r\n        emit LogDeleteResource(_sid);\r\n\r\n        return true;\r\n    }\r\n\r\n    /////////////////////////\r\n    /// View\r\n    /////////////////////////\r\n\r\n    /**\r\n     * @dev Find details of a specified resource\r\n     * @notice Only allowed to be called by the address in the whitelist.\r\n     * @param _resId   bytes16 : Resource index(ClaimID).\r\n     */\r\n    function getResourceInfoByID(bytes16 _resId)\r\n        public\r\n        view\r\n        returns (Resource memory\r\n        )\r\n    {\r\n        return store_[_resId];\r\n    }\r\n\r\n    /**\r\n     * @dev Check if the resource exists\r\n     * @param _resId bytes16  : Resource index(ClaimID).\r\n     * @return            bool  : True means resources exist\r\n     */\r\n    function isExist(bytes16 _resId) public view returns (bool) {\r\n        if (store_[_resId].author != address(0) ) {\r\n            return true;\r\n        }\r\n        return false;\r\n    }\r\n\r\n\r\n    /**\r\n     * @dev Get purchase information for the resource.\r\n     * @param _resId bytes16  : Resource index(ClaimID).\r\n     * @return    gratuityNum   :\r\n     */\r\n    function getGratuityNum(bytes16 _resId)\r\n        public\r\n        view\r\n        returns (uint256 gratuityNum)\r\n    {\r\n        return store_[_resId].gratuityNum;\r\n    }\r\n\r\n    // function getLables(bytes16 _resId) public view returns (string[] memory lables) {\r\n    //     return store_[_resId].lables;\r\n    // }\r\n\r\n    // function getComments(bytes16 _resId)\r\n    //     public\r\n    //     view\r\n    //     returns (string[] comments)\r\n    // {\r\n    //     return store_[_resId].comments;\r\n    // }\r\n\r\n    function getThubanail(bytes16 _resId)\r\n        public\r\n        view\r\n        returns (string[] memory _thubanail)\r\n    {\r\n        return store_[_resId].thubanail;\r\n    }\r\n\r\n    function getCover(bytes16 _resId) public view returns (string memory cover) {\r\n        return store_[_resId].cover;\r\n    }\r\n\r\n    function getAuthor(bytes16 _resId) public view returns (address) {\r\n        return store_[_resId].author;\r\n    }\r\n\r\n    function getTitle(bytes16 _resId) public view returns (string memory title) {\r\n        return store_[_resId].title;\r\n    }\r\n\r\n    function getResourceWaive(bytes16 _resId) public view returns (bool  waive) {\r\n        return store_[_resId].waive;\r\n    }\r\n\r\n     function addResourceGratuityNum(bytes16 _resId,uint value) public {\r\n         store_[_resId].gratuityNum = SafeMath.add(store_[_resId].gratuityNum,value);\r\n    }\r\n}\r\n",
  "sourcePath": "E:\\contracts\\contracts\\ResourceDB.sol",
  "compiler": {
    "name": "solc",
    "version": "0.6.3+commit.8dda9521.Emscripten.clang"
  },
  "schemaVersion": "3.0.23",
  "updatedAt": "2020-03-09T03:33:22.320Z",
  "networkType": "ethereum",
  "devdoc": {
    "methods": {
      "acceptOwnership()": {
        "details": "Allows the newOwner address to finalize the transfer."
      },
      "constructor": {
        "details": "Constructor."
      },
      "deleteResource(bytes16)": {
        "details": "Admin delete resources.",
        "params": {
          "_sid": "bytes16  : Resource index(ClaimID)."
        },
        "returns": {
          "_0": "bool     : The successful call returns true."
        }
      },
      "getGratuityNum(bytes16)": {
        "details": "Get purchase information for the resource.",
        "params": {
          "_resId": "bytes16  : Resource index(ClaimID)."
        },
        "returns": {
          "gratuityNum": "  :"
        }
      },
      "getResourceInfoByID(bytes16)": {
        "details": "Find details of a specified resource",
        "params": {
          "_resId": "bytes16 : Resource index(ClaimID)."
        }
      },
      "insertResource(bytes16,string,address,string[],string,string)": {
        "details": "Insert a new resource.",
        "params": {
          "_author": "address  : Declare the address of the resource.",
          "_cover": ":",
          "_ipfs": "string   : The IPFS Hash value of the resource.",
          "_sid": "bytes16  : Resource index(ResourceID).",
          "_thubanail": ":",
          "_title": ":"
        },
        "returns": {
          "_0": "bool     : The successful call returns true."
        }
      },
      "isExist(bytes16)": {
        "details": "Check if the resource exists",
        "params": {
          "_resId": "bytes16  : Resource index(ClaimID)."
        },
        "returns": {
          "_0": "bool  : True means resources exist"
        }
      },
      "mangeWhiteList(address,bool)": {
        "details": "",
        "params": {
          "_allow": "bool     : truefalse",
          "_target": "address  : "
        },
        "returns": {
          "_0": "bool     : true"
        }
      },
      "mulInsertWhite(address[])": {
        "details": "",
        "params": {
          "_addresses": "address[] : "
        },
        "returns": {
          "_0": "bool      : true"
        }
      },
      "renounceOwnership()": {
        "details": "Allows the current owner to relinquish control of the contract."
      },
      "transferAdminship(address)": {
        "details": "Allows the current admin to transfer control of the contract to a newadmin.",
        "params": {
          "_newAdmin": "address : new admin address"
        }
      },
      "transferOwnership(address)": {
        "details": "Allows the current owner to transfer control of the contract to a newOwner.",
        "params": {
          "_newOwner": "The address to transfer ownership to."
        }
      },
      "updateResource(bytes16,string,address,string[],string,string)": {
        "details": "Update the content of the resource (UDFS hash) and the pricing.",
        "params": {
          "_author": "address  : Declare the address of the resource.",
          "_cover": ":",
          "_ipfs": "string   : The UDFS Hash value of the resource.",
          "_sid": "bytes16  : Resource index(CResourceID).",
          "_thubanail": ":",
          "_title": ":"
        },
        "returns": {
          "_0": "bool     : The successful call returns true."
        }
      },
      "updateResourceWaive(bytes16,address,bool)": {
        "details": "The author abandons a resource.",
        "params": {
          "_author": "address  : Claim the address of the resource.",
          "_sid": "bytes16  : Resource index(ClaimID).",
          "_waive": "bool    : True means give up, false means cancel."
        },
        "returns": {
          "_0": "bool    : The successful call returns true."
        }
      }
    }
  },
  "userdoc": {
    "methods": {
      "constructor": "W",
      "deleteResource(bytes16)": {
        "notice": "This function is limited to calls only by the admin or owner."
      },
      "getResourceInfoByID(bytes16)": {
        "notice": "Only allowed to be called by the address in the whitelist."
      },
      "mangeWhiteList(address,bool)": {
        "notice": ""
      },
      "mulInsertWhite(address[])": {
        "notice": ""
      },
      "renounceOwnership()": {
        "notice": "Renouncing to ownership will leave the contract without an owner. It will not be possible to call the functions with the `onlyOwner` modifier anymore."
      },
      "updateResourceWaive(bytes16,address,bool)": {
        "notice": "Canceling resource abandonment cannot be invoked by the author."
      }
    }
  }
}