{
  "contractName": "ResourceDB",
  "abi": [
    {
      "inputs": [],
      "stateMutability": "nonpayable",
      "type": "constructor"
    },
    {
      "anonymous": false,
      "inputs": [
        {
          "indexed": false,
          "internalType": "string",
          "name": "info",
          "type": "string"
        },
        {
          "indexed": false,
          "internalType": "address",
          "name": "_resId",
          "type": "address"
        },
        {
          "indexed": true,
          "internalType": "address",
          "name": "_author",
          "type": "address"
        },
        {
          "indexed": false,
          "internalType": "address",
          "name": "who",
          "type": "address"
        }
      ],
      "name": "LogAddress",
      "type": "event"
    },
    {
      "anonymous": false,
      "inputs": [
        {
          "indexed": false,
          "internalType": "string",
          "name": "",
          "type": "string"
        },
        {
          "indexed": false,
          "internalType": "address",
          "name": "",
          "type": "address"
        },
        {
          "indexed": false,
          "internalType": "address",
          "name": "",
          "type": "address"
        }
      ],
      "name": "LogAddress",
      "type": "event"
    },
    {
      "anonymous": false,
      "inputs": [
        {
          "indexed": true,
          "internalType": "address",
          "name": "_old",
          "type": "address"
        },
        {
          "indexed": true,
          "internalType": "address",
          "name": "_new",
          "type": "address"
        }
      ],
      "name": "LogAdminshipTransferred",
      "type": "event"
    },
    {
      "anonymous": false,
      "inputs": [
        {
          "indexed": false,
          "internalType": "bytes16",
          "name": "_resId",
          "type": "bytes16"
        }
      ],
      "name": "LogDeleteResource",
      "type": "event"
    },
    {
      "anonymous": false,
      "inputs": [
        {
          "indexed": false,
          "internalType": "enum ErrorModule.RScorr",
          "name": "_errorNumber",
          "type": "uint8"
        }
      ],
      "name": "LogError",
      "type": "event"
    },
    {
      "anonymous": false,
      "inputs": [
        {
          "indexed": false,
          "internalType": "bytes16",
          "name": "_resId",
          "type": "bytes16"
        },
        {
          "indexed": true,
          "internalType": "address",
          "name": "_author",
          "type": "address"
        }
      ],
      "name": "LogNewResource",
      "type": "event"
    },
    {
      "anonymous": false,
      "inputs": [
        {
          "indexed": true,
          "internalType": "address",
          "name": "previousOwner",
          "type": "address"
        }
      ],
      "name": "LogOwnershipRenounced",
      "type": "event"
    },
    {
      "anonymous": false,
      "inputs": [
        {
          "indexed": true,
          "internalType": "address",
          "name": "previousOwner",
          "type": "address"
        },
        {
          "indexed": true,
          "internalType": "address",
          "name": "newOwner",
          "type": "address"
        }
      ],
      "name": "LogOwnershipTransferred",
      "type": "event"
    },
    {
      "anonymous": false,
      "inputs": [
        {
          "indexed": false,
          "internalType": "bytes16",
          "name": "_resId",
          "type": "bytes16"
        },
        {
          "indexed": true,
          "internalType": "address",
          "name": "_author",
          "type": "address"
        },
        {
          "indexed": false,
          "internalType": "string",
          "name": "_ipfs",
          "type": "string"
        },
        {
          "indexed": false,
          "internalType": "string[]",
          "name": "_thubanail",
          "type": "string[]"
        },
        {
          "indexed": false,
          "internalType": "string",
          "name": "_cover",
          "type": "string"
        }
      ],
      "name": "LogUpdateResource",
      "type": "event"
    },
    {
      "anonymous": false,
      "inputs": [
        {
          "indexed": false,
          "internalType": "bytes16",
          "name": "_resourceId",
          "type": "bytes16"
        },
        {
          "indexed": true,
          "internalType": "address",
          "name": "_author",
          "type": "address"
        },
        {
          "indexed": false,
          "internalType": "bool",
          "name": "_waive",
          "type": "bool"
        }
      ],
      "name": "LogUpdateResourceWaive",
      "type": "event"
    },
    {
      "anonymous": false,
      "inputs": [
        {
          "indexed": true,
          "internalType": "address",
          "name": "_target",
          "type": "address"
        },
        {
          "indexed": false,
          "internalType": "bool",
          "name": "_allow",
          "type": "bool"
        }
      ],
      "name": "LogWhileChanged",
      "type": "event"
    },
    {
      "anonymous": false,
      "inputs": [
        {
          "indexed": false,
          "internalType": "string",
          "name": "info",
          "type": "string"
        }
      ],
      "name": "info",
      "type": "event"
    },
    {
      "inputs": [],
      "name": "acceptOwnership",
      "outputs": [],
      "stateMutability": "nonpayable",
      "type": "function"
    },
    {
      "inputs": [],
      "name": "admin",
      "outputs": [
        {
          "internalType": "address",
          "name": "",
          "type": "address"
        }
      ],
      "stateMutability": "view",
      "type": "function",
      "constant": true
    },
    {
      "inputs": [
        {
          "internalType": "address",
          "name": "_target",
          "type": "address"
        },
        {
          "internalType": "bool",
          "name": "_allow",
          "type": "bool"
        }
      ],
      "name": "mangeWhiteList",
      "outputs": [
        {
          "internalType": "bool",
          "name": "",
          "type": "bool"
        }
      ],
      "stateMutability": "nonpayable",
      "type": "function"
    },
    {
      "inputs": [
        {
          "internalType": "address[]",
          "name": "_addresses",
          "type": "address[]"
        }
      ],
      "name": "mulInsertWhite",
      "outputs": [
        {
          "internalType": "bool",
          "name": "",
          "type": "bool"
        }
      ],
      "stateMutability": "nonpayable",
      "type": "function"
    },
    {
      "inputs": [],
      "name": "newOwner",
      "outputs": [
        {
          "internalType": "address",
          "name": "",
          "type": "address"
        }
      ],
      "stateMutability": "view",
      "type": "function",
      "constant": true
    },
    {
      "inputs": [],
      "name": "owner",
      "outputs": [
        {
          "internalType": "address",
          "name": "",
          "type": "address"
        }
      ],
      "stateMutability": "view",
      "type": "function",
      "constant": true
    },
    {
      "inputs": [],
      "name": "renounceOwnership",
      "outputs": [],
      "stateMutability": "nonpayable",
      "type": "function"
    },
    {
      "inputs": [
        {
          "internalType": "address",
          "name": "_newAdmin",
          "type": "address"
        }
      ],
      "name": "transferAdminship",
      "outputs": [],
      "stateMutability": "nonpayable",
      "type": "function"
    },
    {
      "inputs": [
        {
          "internalType": "address",
          "name": "_newOwner",
          "type": "address"
        }
      ],
      "name": "transferOwnership",
      "outputs": [],
      "stateMutability": "nonpayable",
      "type": "function"
    },
    {
      "inputs": [
        {
          "internalType": "address",
          "name": "",
          "type": "address"
        }
      ],
      "name": "whitelist_",
      "outputs": [
        {
          "internalType": "bool",
          "name": "",
          "type": "bool"
        }
      ],
      "stateMutability": "view",
      "type": "function",
      "constant": true
    },
    {
      "inputs": [
        {
          "internalType": "address",
          "name": "_center",
          "type": "address"
        },
        {
          "internalType": "address",
          "name": "_admin",
          "type": "address"
        }
      ],
      "name": "setOwner",
      "outputs": [],
      "stateMutability": "nonpayable",
      "type": "function"
    },
    {
      "inputs": [
        {
          "internalType": "bytes16",
          "name": "_sid",
          "type": "bytes16"
        },
        {
          "internalType": "string",
          "name": "_ipfs",
          "type": "string"
        },
        {
          "internalType": "address",
          "name": "_author",
          "type": "address"
        },
        {
          "internalType": "string[]",
          "name": "_thubanail",
          "type": "string[]"
        },
        {
          "internalType": "string",
          "name": "_cover",
          "type": "string"
        },
        {
          "internalType": "string",
          "name": "_title",
          "type": "string"
        }
      ],
      "name": "insertResource",
      "outputs": [
        {
          "internalType": "bool",
          "name": "",
          "type": "bool"
        }
      ],
      "stateMutability": "nonpayable",
      "type": "function"
    },
    {
      "inputs": [
        {
          "internalType": "bytes16",
          "name": "_sid",
          "type": "bytes16"
        },
        {
          "internalType": "string",
          "name": "_ipfs",
          "type": "string"
        },
        {
          "internalType": "address",
          "name": "_author",
          "type": "address"
        },
        {
          "internalType": "string[]",
          "name": "_thubanail",
          "type": "string[]"
        },
        {
          "internalType": "string",
          "name": "_cover",
          "type": "string"
        },
        {
          "internalType": "string",
          "name": "_title",
          "type": "string"
        }
      ],
      "name": "updateResource",
      "outputs": [
        {
          "internalType": "bool",
          "name": "",
          "type": "bool"
        }
      ],
      "stateMutability": "nonpayable",
      "type": "function"
    },
    {
      "inputs": [
        {
          "internalType": "bytes16",
          "name": "_sid",
          "type": "bytes16"
        },
        {
          "internalType": "address",
          "name": "_author",
          "type": "address"
        },
        {
          "internalType": "bool",
          "name": "_waive",
          "type": "bool"
        }
      ],
      "name": "updateResourceWaive",
      "outputs": [
        {
          "internalType": "bool",
          "name": "",
          "type": "bool"
        }
      ],
      "stateMutability": "nonpayable",
      "type": "function"
    },
    {
      "inputs": [
        {
          "internalType": "bytes16",
          "name": "_sid",
          "type": "bytes16"
        }
      ],
      "name": "deleteResource",
      "outputs": [
        {
          "internalType": "bool",
          "name": "",
          "type": "bool"
        }
      ],
      "stateMutability": "nonpayable",
      "type": "function"
    },
    {
      "inputs": [
        {
          "internalType": "bytes16",
          "name": "_resId",
          "type": "bytes16"
        }
      ],
      "name": "getResourceInfoByID",
      "outputs": [
        {
          "components": [
            {
              "internalType": "uint256",
              "name": "initDate",
              "type": "uint256"
            },
            {
              "internalType": "address",
              "name": "author",
              "type": "address"
            },
            {
              "internalType": "bool",
              "name": "waive",
              "type": "bool"
            },
            {
              "internalType": "string",
              "name": "ipfs",
              "type": "string"
            },
            {
              "internalType": "uint256",
              "name": "gratuityNum",
              "type": "uint256"
            },
            {
              "internalType": "string[]",
              "name": "thubanail",
              "type": "string[]"
            },
            {
              "internalType": "string",
              "name": "cover",
              "type": "string"
            },
            {
              "internalType": "string",
              "name": "title",
              "type": "string"
            }
          ],
          "internalType": "struct ResourceDB.Resource",
          "name": "",
          "type": "tuple"
        }
      ],
      "stateMutability": "view",
      "type": "function",
      "constant": true
    },
    {
      "inputs": [
        {
          "internalType": "bytes16",
          "name": "_resId",
          "type": "bytes16"
        }
      ],
      "name": "isExist",
      "outputs": [
        {
          "internalType": "bool",
          "name": "",
          "type": "bool"
        }
      ],
      "stateMutability": "view",
      "type": "function",
      "constant": true
    },
    {
      "inputs": [
        {
          "internalType": "bytes16",
          "name": "_resId",
          "type": "bytes16"
        }
      ],
      "name": "getGratuityNum",
      "outputs": [
        {
          "internalType": "uint256",
          "name": "gratuityNum",
          "type": "uint256"
        }
      ],
      "stateMutability": "view",
      "type": "function",
      "constant": true
    },
    {
      "inputs": [
        {
          "internalType": "bytes16",
          "name": "_resId",
          "type": "bytes16"
        }
      ],
      "name": "getThubanail",
      "outputs": [
        {
          "internalType": "string[]",
          "name": "_thubanail",
          "type": "string[]"
        }
      ],
      "stateMutability": "view",
      "type": "function",
      "constant": true
    },
    {
      "inputs": [
        {
          "internalType": "bytes16",
          "name": "_resId",
          "type": "bytes16"
        }
      ],
      "name": "getCover",
      "outputs": [
        {
          "internalType": "string",
          "name": "cover",
          "type": "string"
        }
      ],
      "stateMutability": "view",
      "type": "function",
      "constant": true
    },
    {
      "inputs": [
        {
          "internalType": "bytes16",
          "name": "_resId",
          "type": "bytes16"
        }
      ],
      "name": "getAuthor",
      "outputs": [
        {
          "internalType": "address",
          "name": "",
          "type": "address"
        }
      ],
      "stateMutability": "view",
      "type": "function",
      "constant": true
    },
    {
      "inputs": [
        {
          "internalType": "bytes16",
          "name": "_resId",
          "type": "bytes16"
        }
      ],
      "name": "getTitle",
      "outputs": [
        {
          "internalType": "string",
          "name": "title",
          "type": "string"
        }
      ],
      "stateMutability": "view",
      "type": "function",
      "constant": true
    },
    {
      "inputs": [
        {
          "internalType": "bytes16",
          "name": "_resId",
          "type": "bytes16"
        }
      ],
      "name": "getResourceWaive",
      "outputs": [
        {
          "internalType": "bool",
          "name": "waive",
          "type": "bool"
        }
      ],
      "stateMutability": "view",
      "type": "function",
      "constant": true
    },
    {
      "inputs": [
        {
          "internalType": "bytes16",
          "name": "_resId",
          "type": "bytes16"
        },
        {
          "internalType": "uint256",
          "name": "value",
          "type": "uint256"
        }
      ],
      "name": "addResourceGratuityNum",
      "outputs": [],
      "stateMutability": "nonpayable",
      "type": "function"
    }
  ],
  "bytecode": "0x60806040526000600560006101000a81548160ff0219169083151502179055503480156200002c57600080fd5b50336000806101000a81548173ffffffffffffffffffffffffffffffffffffffff021916908373ffffffffffffffffffffffffffffffffffffffff16021790555033600260006101000a81548173ffffffffffffffffffffffffffffffffffffffff021916908373ffffffffffffffffffffffffffffffffffffffff1602179055506000809054906101000a900473ffffffffffffffffffffffffffffffffffffffff1673ffffffffffffffffffffffffffffffffffffffff167f9e6965ca244a67ad615b5114db3886405a40a12f1190493f8e9201020885af1d600260009054906101000a900473ffffffffffffffffffffffffffffffffffffffff16336040516200013b9291906200029a565b60405180910390a26000809054906101000a900473ffffffffffffffffffffffffffffffffffffffff1673ffffffffffffffffffffffffffffffffffffffff167f9e6965ca244a67ad615b5114db3886405a40a12f1190493f8e9201020885af1d600260009054906101000a900473ffffffffffffffffffffffffffffffffffffffff1633604051620001d09291906200029a565b60405180910390a26001600360003373ffffffffffffffffffffffffffffffffffffffff1673ffffffffffffffffffffffffffffffffffffffff16815260200190815260200160002060006101000a81548160ff0219169083151502179055506200035d565b620002418162000321565b82525050565b6200025281620002ed565b82525050565b600062000267600a83620002dc565b91507f636f6e73747275636f72000000000000000000000000000000000000000000006000830152602082019050919050565b60006060820190508181036000830152620002b58162000258565b9050620002c6602083018562000247565b620002d5604083018462000236565b9392505050565b600082825260208201905092915050565b6000620002fa8262000301565b9050919050565b600073ffffffffffffffffffffffffffffffffffffffff82169050919050565b60006200032e8262000335565b9050919050565b6000620003428262000349565b9050919050565b6000620003568262000301565b9050919050565b613a40806200036d6000396000f3fe608060405234801561001057600080fd5b50600436106101585760003560e01c8063a8e1fba3116100c3578063dcd581581161007c578063dcd5815814610411578063e56a7c5d14610441578063e8de42df14610471578063f207a088146104a1578063f2fde38b146104d1578063f851a440146104ed57610158565b8063a8e1fba314610303578063aa492ec214610333578063ab312ffb14610363578063b3f9565714610393578063ba33cb58146103c3578063d4ee1d90146103f357610158565b806379ba50971161011557806379ba50971461021b5780638d4a3974146102255780638da5cb5b14610255578063994ed1b8146102735780639b03ced2146102a3578063a864022d146102d357610158565b8063157ffbe91461015d578063299a7bcc1461017957806335e60e891461019557806353ec00cc146101c55780635be7cc16146101f5578063715018a614610211575b600080fd5b61017760048036036101729190810190612f88565b61050b565b005b610193600480360361018e9190810190612d6e565b610595565b005b6101af60048036036101aa9190810190612de6565b610839565b6040516101bc919061347d565b60405180910390f35b6101df60048036036101da9190810190612e27565b610aa3565b6040516101ec9190613551565b60405180910390f35b61020f600480360361020a9190810190612d45565b610b81565b005b610219610d87565b005b610223610ee3565b005b61023f600480360361023a9190810190612e27565b6110dc565b60405161024c91906136c3565b60405180910390f35b61025d611484565b60405161026a9190613440565b60405180910390f35b61028d60048036036102889190810190612e27565b6114a9565b60405161029a919061345b565b60405180910390f35b6102bd60048036036102b89190810190612e27565b6115ce565b6040516102ca919061347d565b60405180910390f35b6102ed60048036036102e89190810190612e9f565b611672565b6040516102fa919061347d565b60405180910390f35b61031d60048036036103189190810190612daa565b611984565b60405161032a919061347d565b60405180910390f35b61034d60048036036103489190810190612e50565b611bf5565b60405161035a919061347d565b60405180910390f35b61037d60048036036103789190810190612e27565b611ea6565b60405161038a91906136e5565b60405180910390f35b6103ad60048036036103a89190810190612e9f565b611eec565b6040516103ba919061347d565b60405180910390f35b6103dd60048036036103d89190810190612e27565b612288565b6040516103ea9190613440565b60405180910390f35b6103fb6122ee565b6040516104089190613440565b60405180910390f35b61042b60048036036104269190810190612e27565b612314565b6040516104389190613551565b60405180910390f35b61045b60048036036104569190810190612d45565b6123f2565b604051610468919061347d565b60405180910390f35b61048b60048036036104869190810190612e27565b612412565b604051610498919061347d565b60405180910390f35b6104bb60048036036104b69190810190612e27565b6126df565b6040516104c8919061347d565b60405180910390f35b6104eb60048036036104e69190810190612d45565b612732565b005b6104f561289b565b6040516105029190613440565b60405180910390f35b61055160046000846fffffffffffffffffffffffffffffffff19166fffffffffffffffffffffffffffffffff1916815260200190815260200160002060030154826128c1565b60046000846fffffffffffffffffffffffffffffffff19166fffffffffffffffffffffffffffffffff19168152602001908152602001600020600301819055505050565b6000809054906101000a900473ffffffffffffffffffffffffffffffffffffffff1673ffffffffffffffffffffffffffffffffffffffff167f9e6965ca244a67ad615b5114db3886405a40a12f1190493f8e9201020885af1d83336040516105fe9291906135af565b60405180910390a2600560009054906101000a900460ff1615610656576040517f08c379a000000000000000000000000000000000000000000000000000000000815260040161064d906135eb565b60405180910390fd5b6001600560006101000a81548160ff021916908315150217905550336000806101000a81548173ffffffffffffffffffffffffffffffffffffffff021916908373ffffffffffffffffffffffffffffffffffffffff16021790555080600260006101000a81548173ffffffffffffffffffffffffffffffffffffffff021916908373ffffffffffffffffffffffffffffffffffffffff1602179055506001600360003373ffffffffffffffffffffffffffffffffffffffff1673ffffffffffffffffffffffffffffffffffffffff16815260200190815260200160002060006101000a81548160ff0219169083151502179055506001600360008473ffffffffffffffffffffffffffffffffffffffff1673ffffffffffffffffffffffffffffffffffffffff16815260200190815260200160002060006101000a81548160ff0219169083151502179055506000809054906101000a900473ffffffffffffffffffffffffffffffffffffffff1673ffffffffffffffffffffffffffffffffffffffff167f9e6965ca244a67ad615b5114db3886405a40a12f1190493f8e9201020885af1d600260009054906101000a900473ffffffffffffffffffffffffffffffffffffffff163360405161082d92919061360b565b60405180910390a25050565b60008060009054906101000a900473ffffffffffffffffffffffffffffffffffffffff1673ffffffffffffffffffffffffffffffffffffffff163373ffffffffffffffffffffffffffffffffffffffff16141580156108e65750600260009054906101000a900473ffffffffffffffffffffffffffffffffffffffff1673ffffffffffffffffffffffffffffffffffffffff163373ffffffffffffffffffffffffffffffffffffffff1614155b1561092c577f0489f2369368f4688acd012107ac5a7d98ca739b913449d852f35d871e433cc3600f60405161091b9190613536565b60405180910390a160009050610a9e565b60008090505b8251811015610a9857600073ffffffffffffffffffffffffffffffffffffffff1683828151811061095f57fe5b602002602001015173ffffffffffffffffffffffffffffffffffffffff1614156109be576040517f08c379a00000000000000000000000000000000000000000000000000000000081526004016109b590613647565b60405180910390fd5b6001600360008584815181106109d057fe5b602002602001015173ffffffffffffffffffffffffffffffffffffffff1673ffffffffffffffffffffffffffffffffffffffff16815260200190815260200160002060006101000a81548160ff021916908315150217905550828181518110610a3557fe5b602002602001015173ffffffffffffffffffffffffffffffffffffffff167f9b3b880c67f4fab4215412179771cffd326a045e6016a7e363eb38460f7e91766001604051610a83919061347d565b60405180910390a28080600101915050610932565b50600190505b919050565b606060046000836fffffffffffffffffffffffffffffffff19166fffffffffffffffffffffffffffffffff191681526020019081526020016000206005018054600181600116156101000203166002900480601f016020809104026020016040519081016040528092919081815260200182805460018160011615610100020316600290048015610b755780601f10610b4a57610100808354040283529160200191610b75565b820191906000526020600020905b815481529060010190602001808311610b5857829003601f168201915b50505050509050919050565b6000809054906101000a900473ffffffffffffffffffffffffffffffffffffffff1673ffffffffffffffffffffffffffffffffffffffff163373ffffffffffffffffffffffffffffffffffffffff161480610c295750600260009054906101000a900473ffffffffffffffffffffffffffffffffffffffff1673ffffffffffffffffffffffffffffffffffffffff163373ffffffffffffffffffffffffffffffffffffffff16145b15610cf0578073ffffffffffffffffffffffffffffffffffffffff16600260009054906101000a900473ffffffffffffffffffffffffffffffffffffffff1673ffffffffffffffffffffffffffffffffffffffff167ff73aa4459d935dbacd9313fffe485016147551d99ef401461704cd39e6e9028760405160405180910390a380600260006101000a81548173ffffffffffffffffffffffffffffffffffffffff021916908373ffffffffffffffffffffffffffffffffffffffff160217905550610d84565b6000809054906101000a900473ffffffffffffffffffffffffffffffffffffffff1673ffffffffffffffffffffffffffffffffffffffff167f9e6965ca244a67ad615b5114db3886405a40a12f1190493f8e9201020885af1d600260009054906101000a900473ffffffffffffffffffffffffffffffffffffffff1633604051610d7b929190613573565b60405180910390a25b50565b6000809054906101000a900473ffffffffffffffffffffffffffffffffffffffff1673ffffffffffffffffffffffffffffffffffffffff163373ffffffffffffffffffffffffffffffffffffffff161415610e86576000809054906101000a900473ffffffffffffffffffffffffffffffffffffffff1673ffffffffffffffffffffffffffffffffffffffff167f2dde1bc8b58ef192e7df3e7a354521d958331021e450d544346b936936916ef460405160405180910390a260008060006101000a81548173ffffffffffffffffffffffffffffffffffffffff021916908373ffffffffffffffffffffffffffffffffffffffff160217905550610ee1565b7f6b26c3fc447c71078386bc5ad946c760ce605d2bc61b762901400eb9ac003a9a6000809054906101000a900473ffffffffffffffffffffffffffffffffffffffff1633604051610ed8929190613667565b60405180910390a15b565b600160009054906101000a900473ffffffffffffffffffffffffffffffffffffffff1673ffffffffffffffffffffffffffffffffffffffff163373ffffffffffffffffffffffffffffffffffffffff16141561107f57600160009054906101000a900473ffffffffffffffffffffffffffffffffffffffff1673ffffffffffffffffffffffffffffffffffffffff166000809054906101000a900473ffffffffffffffffffffffffffffffffffffffff1673ffffffffffffffffffffffffffffffffffffffff167fdb6d05f3295cede580affa301a1eb5297528f3b3f6a56b075887ce6f61c45f2160405160405180910390a3600160009054906101000a900473ffffffffffffffffffffffffffffffffffffffff166000806101000a81548173ffffffffffffffffffffffffffffffffffffffff021916908373ffffffffffffffffffffffffffffffffffffffff1602179055506000600160006101000a81548173ffffffffffffffffffffffffffffffffffffffff021916908373ffffffffffffffffffffffffffffffffffffffff1602179055506110da565b7f6b26c3fc447c71078386bc5ad946c760ce605d2bc61b762901400eb9ac003a9a6000809054906101000a900473ffffffffffffffffffffffffffffffffffffffff16336040516110d1929190613667565b60405180910390a15b565b6110e46128db565b60046000836fffffffffffffffffffffffffffffffff19166fffffffffffffffffffffffffffffffff1916815260200190815260200160002060405180610100016040529081600082015481526020016001820160009054906101000a900473ffffffffffffffffffffffffffffffffffffffff1673ffffffffffffffffffffffffffffffffffffffff1673ffffffffffffffffffffffffffffffffffffffff1681526020016001820160149054906101000a900460ff16151515158152602001600282018054600181600116156101000203166002900480601f01602080910402602001604051908101604052809291908181526020018280546001816001161561010002031660029004801561123d5780601f106112125761010080835404028352916020019161123d565b820191906000526020600020905b81548152906001019060200180831161122057829003601f168201915b505050505081526020016003820154815260200160048201805480602002602001604051908101604052809291908181526020016000905b82821015611331578382906000526020600020018054600181600116156101000203166002900480601f01602080910402602001604051908101604052809291908181526020018280546001816001161561010002031660029004801561131d5780601f106112f25761010080835404028352916020019161131d565b820191906000526020600020905b81548152906001019060200180831161130057829003601f168201915b505050505081526020019060010190611275565b505050508152602001600582018054600181600116156101000203166002900480601f0160208091040260200160405190810160405280929190818152602001828054600181600116156101000203166002900480156113d25780601f106113a7576101008083540402835291602001916113d2565b820191906000526020600020905b8154815290600101906020018083116113b557829003601f168201915b50505050508152602001600682018054600181600116156101000203166002900480601f0160208091040260200160405190810160405280929190818152602001828054600181600116156101000203166002900480156114745780601f1061144957610100808354040283529160200191611474565b820191906000526020600020905b81548152906001019060200180831161145757829003601f168201915b5050505050815250509050919050565b6000809054906101000a900473ffffffffffffffffffffffffffffffffffffffff1681565b606060046000836fffffffffffffffffffffffffffffffff19166fffffffffffffffffffffffffffffffff19168152602001908152602001600020600401805480602002602001604051908101604052809291908181526020016000905b828210156115c3578382906000526020600020018054600181600116156101000203166002900480601f0160208091040260200160405190810160405280929190818152602001828054600181600116156101000203166002900480156115af5780601f10611584576101008083540402835291602001916115af565b820191906000526020600020905b81548152906001019060200180831161159257829003601f168201915b505050505081526020019060010190611507565b505050509050919050565b60008073ffffffffffffffffffffffffffffffffffffffff1660046000846fffffffffffffffffffffffffffffffff19166fffffffffffffffffffffffffffffffff1916815260200190815260200160002060010160009054906101000a900473ffffffffffffffffffffffffffffffffffffffff1673ffffffffffffffffffffffffffffffffffffffff1614611668576001905061166d565b600090505b919050565b600060011515600360003373ffffffffffffffffffffffffffffffffffffffff1673ffffffffffffffffffffffffffffffffffffffff16815260200190815260200160002060009054906101000a900460ff1615151461170d577f0489f2369368f4688acd012107ac5a7d98ca739b913449d852f35d871e433cc3600e6040516116fc9190613536565b60405180910390a16000905061197a565b8473ffffffffffffffffffffffffffffffffffffffff1660046000896fffffffffffffffffffffffffffffffff19166fffffffffffffffffffffffffffffffff1916815260200190815260200160002060010160009054906101000a900473ffffffffffffffffffffffffffffffffffffffff1673ffffffffffffffffffffffffffffffffffffffff16146117dd577f0489f2369368f4688acd012107ac5a7d98ca739b913449d852f35d871e433cc360106040516117cc9190613536565b60405180910390a16000905061197a565b8560046000896fffffffffffffffffffffffffffffffff19166fffffffffffffffffffffffffffffffff19168152602001908152602001600020600201908051906020019061182d929190612938565b508360046000896fffffffffffffffffffffffffffffffff19166fffffffffffffffffffffffffffffffff19168152602001908152602001600020600401908051906020019061187e9291906129b8565b508260046000896fffffffffffffffffffffffffffffffff19166fffffffffffffffffffffffffffffffff1916815260200190815260200160002060050190805190602001906118cf929190612938565b508160046000896fffffffffffffffffffffffffffffffff19166fffffffffffffffffffffffffffffffff191681526020019081526020016000206006019080519060200190611920929190612938565b508473ffffffffffffffffffffffffffffffffffffffff167f2f234c72cbec2e1bd010e3ac9c94f37eebf5e6403cc31d6c62e9f989a8b6fdd28888878760405161196d94939291906134dc565b60405180910390a2600190505b9695505050505050565b60008060009054906101000a900473ffffffffffffffffffffffffffffffffffffffff1673ffffffffffffffffffffffffffffffffffffffff163373ffffffffffffffffffffffffffffffffffffffff1614158015611a315750600260009054906101000a900473ffffffffffffffffffffffffffffffffffffffff1673ffffffffffffffffffffffffffffffffffffffff163373ffffffffffffffffffffffffffffffffffffffff1614155b15611a77577f0489f2369368f4688acd012107ac5a7d98ca739b913449d852f35d871e433cc3600f604051611a669190613536565b60405180910390a160009050611bef565b600073ffffffffffffffffffffffffffffffffffffffff168373ffffffffffffffffffffffffffffffffffffffff161415611aed577f0489f2369368f4688acd012107ac5a7d98ca739b913449d852f35d871e433cc36002604051611adc9190613536565b60405180910390a160009050611bef565b811515600360008573ffffffffffffffffffffffffffffffffffffffff1673ffffffffffffffffffffffffffffffffffffffff16815260200190815260200160002060009054906101000a900460ff16151514611b9c5781600360008573ffffffffffffffffffffffffffffffffffffffff1673ffffffffffffffffffffffffffffffffffffffff16815260200190815260200160002060006101000a81548160ff0219169083151502179055505b8273ffffffffffffffffffffffffffffffffffffffff167f9b3b880c67f4fab4215412179771cffd326a045e6016a7e363eb38460f7e917683604051611be2919061347d565b60405180910390a2600190505b92915050565b600060011515600360003373ffffffffffffffffffffffffffffffffffffffff1673ffffffffffffffffffffffffffffffffffffffff16815260200190815260200160002060009054906101000a900460ff16151514611c90577f0489f2369368f4688acd012107ac5a7d98ca739b913449d852f35d871e433cc3600e604051611c7f9190613536565b60405180910390a160009050611e9f565b8273ffffffffffffffffffffffffffffffffffffffff1660046000866fffffffffffffffffffffffffffffffff19166fffffffffffffffffffffffffffffffff1916815260200190815260200160002060010160009054906101000a900473ffffffffffffffffffffffffffffffffffffffff1673ffffffffffffffffffffffffffffffffffffffff1614611d60577f0489f2369368f4688acd012107ac5a7d98ca739b913449d852f35d871e433cc36010604051611d4f9190613536565b60405180910390a160009050611e9f565b81151560046000866fffffffffffffffffffffffffffffffff19166fffffffffffffffffffffffffffffffff1916815260200190815260200160002060010160149054906101000a900460ff1615151415611df6577f0489f2369368f4688acd012107ac5a7d98ca739b913449d852f35d871e433cc36011604051611de59190613536565b60405180910390a160009050611e9f565b8273ffffffffffffffffffffffffffffffffffffffff167f82677ea120590d5a5a1b20bf173631a90cf33c1d72e5edc7ed01c4c334b5b5cc8584604051611e3e9291906134b3565b60405180910390a28160046000866fffffffffffffffffffffffffffffffff19166fffffffffffffffffffffffffffffffff1916815260200190815260200160002060010160146101000a81548160ff021916908315150217905550600190505b9392505050565b600060046000836fffffffffffffffffffffffffffffffff19166fffffffffffffffffffffffffffffffff19168152602001908152602001600020600301549050919050565b600060011515600360003373ffffffffffffffffffffffffffffffffffffffff1673ffffffffffffffffffffffffffffffffffffffff16815260200190815260200160002060009054906101000a900460ff16151514611f87577f0489f2369368f4688acd012107ac5a7d98ca739b913449d852f35d871e433cc3600e604051611f769190613536565b60405180910390a16000905061227e565b611f90876115ce565b15611fd6577f0489f2369368f4688acd012107ac5a7d98ca739b913449d852f35d871e433cc3600a604051611fc59190613536565b60405180910390a16000905061227e565b8460046000896fffffffffffffffffffffffffffffffff19166fffffffffffffffffffffffffffffffff1916815260200190815260200160002060010160006101000a81548173ffffffffffffffffffffffffffffffffffffffff021916908373ffffffffffffffffffffffffffffffffffffffff1602179055508560046000896fffffffffffffffffffffffffffffffff19166fffffffffffffffffffffffffffffffff1916815260200190815260200160002060020190805190602001906120a1929190612938565b504260046000896fffffffffffffffffffffffffffffffff19166fffffffffffffffffffffffffffffffff1916815260200190815260200160002060000181905550600060046000896fffffffffffffffffffffffffffffffff19166fffffffffffffffffffffffffffffffff1916815260200190815260200160002060010160146101000a81548160ff0219169083151502179055508360046000896fffffffffffffffffffffffffffffffff19166fffffffffffffffffffffffffffffffff1916815260200190815260200160002060040190805190602001906121889291906129b8565b508260046000896fffffffffffffffffffffffffffffffff19166fffffffffffffffffffffffffffffffff1916815260200190815260200160002060050190805190602001906121d9929190612938565b508160046000896fffffffffffffffffffffffffffffffff19166fffffffffffffffffffffffffffffffff19168152602001908152602001600020600601908051906020019061222a929190612938565b508473ffffffffffffffffffffffffffffffffffffffff167f0fe2037ccd4a2636e40b5431f81895c8a4a9d86eef0d5025e0e1afc4fddc8ad5886040516122719190613498565b60405180910390a2600190505b9695505050505050565b600060046000836fffffffffffffffffffffffffffffffff19166fffffffffffffffffffffffffffffffff1916815260200190815260200160002060010160009054906101000a900473ffffffffffffffffffffffffffffffffffffffff169050919050565b600160009054906101000a900473ffffffffffffffffffffffffffffffffffffffff1681565b606060046000836fffffffffffffffffffffffffffffffff19166fffffffffffffffffffffffffffffffff191681526020019081526020016000206006018054600181600116156101000203166002900480601f0160208091040260200160405190810160405280929190818152602001828054600181600116156101000203166002900480156123e65780601f106123bb576101008083540402835291602001916123e6565b820191906000526020600020905b8154815290600101906020018083116123c957829003601f168201915b50505050509050919050565b60036020528060005260406000206000915054906101000a900460ff1681565b60008060009054906101000a900473ffffffffffffffffffffffffffffffffffffffff1673ffffffffffffffffffffffffffffffffffffffff163373ffffffffffffffffffffffffffffffffffffffff16141580156124bf5750600260009054906101000a900473ffffffffffffffffffffffffffffffffffffffff1673ffffffffffffffffffffffffffffffffffffffff163373ffffffffffffffffffffffffffffffffffffffff1614155b15612505577f0489f2369368f4688acd012107ac5a7d98ca739b913449d852f35d871e433cc3600f6040516124f49190613536565b60405180910390a1600090506126da565b600073ffffffffffffffffffffffffffffffffffffffff1660046000846fffffffffffffffffffffffffffffffff19166fffffffffffffffffffffffffffffffff1916815260200190815260200160002060010160009054906101000a900473ffffffffffffffffffffffffffffffffffffffff1673ffffffffffffffffffffffffffffffffffffffff1614156125d7577f0489f2369368f4688acd012107ac5a7d98ca739b913449d852f35d871e433cc360096040516125c69190613536565b60405180910390a1600090506126da565b60046000836fffffffffffffffffffffffffffffffff19166fffffffffffffffffffffffffffffffff191681526020019081526020016000206000808201600090556001820160006101000a81549073ffffffffffffffffffffffffffffffffffffffff02191690556001820160146101000a81549060ff02191690556002820160006126649190612a18565b600382016000905560048201600061267c9190612a60565b60058201600061268c9190612a18565b60068201600061269c9190612a18565b50507fb5f4c0a2c5e3bb95cc31df6c1ff73349d4ed2e1a6a05c098ed05b3008cdd8854826040516126cd9190613498565b60405180910390a1600190505b919050565b600060046000836fffffffffffffffffffffffffffffffff19166fffffffffffffffffffffffffffffffff1916815260200190815260200160002060010160149054906101000a900460ff169050919050565b6000809054906101000a900473ffffffffffffffffffffffffffffffffffffffff1673ffffffffffffffffffffffffffffffffffffffff163373ffffffffffffffffffffffffffffffffffffffff16141561283d57600073ffffffffffffffffffffffffffffffffffffffff168173ffffffffffffffffffffffffffffffffffffffff1614156127f7576040517f08c379a00000000000000000000000000000000000000000000000000000000081526004016127ee906136a3565b60405180910390fd5b80600160006101000a81548173ffffffffffffffffffffffffffffffffffffffff021916908373ffffffffffffffffffffffffffffffffffffffff160217905550612898565b7f6b26c3fc447c71078386bc5ad946c760ce605d2bc61b762901400eb9ac003a9a6000809054906101000a900473ffffffffffffffffffffffffffffffffffffffff163360405161288f929190613667565b60405180910390a15b50565b600260009054906101000a900473ffffffffffffffffffffffffffffffffffffffff1681565b60008183019050828110156128d257fe5b80905092915050565b60405180610100016040528060008152602001600073ffffffffffffffffffffffffffffffffffffffff16815260200160001515815260200160608152602001600081526020016060815260200160608152602001606081525090565b828054600181600116156101000203166002900490600052602060002090601f016020900481019282601f1061297957805160ff19168380011785556129a7565b828001600101855582156129a7579182015b828111156129a657825182559160200191906001019061298b565b5b5090506129b49190612a81565b5090565b828054828255906000526020600020908101928215612a07579160200282015b82811115612a065782518290805190602001906129f6929190612aa6565b50916020019190600101906129d8565b5b509050612a149190612b26565b5090565b50805460018160011615610100020316600290046000825580601f10612a3e5750612a5d565b601f016020900490600052602060002090810190612a5c9190612a81565b5b50565b5080546000825590600052602060002090810190612a7e9190612b26565b50565b612aa391905b80821115612a9f576000816000905550600101612a87565b5090565b90565b828054600181600116156101000203166002900490600052602060002090601f016020900481019282601f10612ae757805160ff1916838001178555612b15565b82800160010185558215612b15579182015b82811115612b14578251825591602001919060010190612af9565b5b509050612b229190612a81565b5090565b612b4f91905b80821115612b4b5760008181612b429190612a18565b50600101612b2c565b5090565b90565b600081359050612b61816139ae565b92915050565b600082601f830112612b7857600080fd5b8135612b8b612b868261372d565b613700565b91508181835260208401935060208101905083856020840282011115612bb057600080fd5b60005b83811015612be05781612bc68882612b52565b845260208401935060208301925050600181019050612bb3565b5050505092915050565b600082601f830112612bfb57600080fd5b8135612c0e612c0982613755565b613700565b9150818183526020840193506020810190508360005b83811015612c545781358601612c3a8882612c88565b845260208401935060208301925050600181019050612c24565b5050505092915050565b600081359050612c6d816139c5565b92915050565b600081359050612c82816139dc565b92915050565b600082601f830112612c9957600080fd5b8135612cac612ca78261377d565b613700565b91508082526020830160208301858383011115612cc857600080fd5b612cd383828461394e565b50505092915050565b600082601f830112612ced57600080fd5b8135612d00612cfb826137a9565b613700565b91508082526020830160208301858383011115612d1c57600080fd5b612d2783828461394e565b50505092915050565b600081359050612d3f816139f3565b92915050565b600060208284031215612d5757600080fd5b6000612d6584828501612b52565b91505092915050565b60008060408385031215612d8157600080fd5b6000612d8f85828601612b52565b9250506020612da085828601612b52565b9150509250929050565b60008060408385031215612dbd57600080fd5b6000612dcb85828601612b52565b9250506020612ddc85828601612c5e565b9150509250929050565b600060208284031215612df857600080fd5b600082013567ffffffffffffffff811115612e1257600080fd5b612e1e84828501612b67565b91505092915050565b600060208284031215612e3957600080fd5b6000612e4784828501612c73565b91505092915050565b600080600060608486031215612e6557600080fd5b6000612e7386828701612c73565b9350506020612e8486828701612b52565b9250506040612e9586828701612c5e565b9150509250925092565b60008060008060008060c08789031215612eb857600080fd5b6000612ec689828a01612c73565b965050602087013567ffffffffffffffff811115612ee357600080fd5b612eef89828a01612cdc565b9550506040612f0089828a01612b52565b945050606087013567ffffffffffffffff811115612f1d57600080fd5b612f2989828a01612bea565b935050608087013567ffffffffffffffff811115612f4657600080fd5b612f5289828a01612cdc565b92505060a087013567ffffffffffffffff811115612f6f57600080fd5b612f7b89828a01612cdc565b9150509295509295509295565b60008060408385031215612f9b57600080fd5b6000612fa985828601612c73565b9250506020612fba85828601612d30565b9150509250929050565b6000612fd08383613164565b905092915050565b612fe181613906565b82525050565b612ff08161387f565b82525050565b612fff8161387f565b82525050565b600061301082613800565b61301a818561384c565b93508360208202850161302c856137e5565b8060005b8581101561306857848403895281516130498582612fc4565b94506130548361382e565b925060208a01995050600181019050613030565b50829750879550505050505092915050565b6000613085826137f5565b61308f818561383b565b9350836020820285016130a1856137d5565b8060005b858110156130dd57848403895281516130be8582612fc4565b94506130c983613821565b925060208a019950506001810190506130a5565b50829750879550505050505092915050565b6130f881613891565b82525050565b61310781613891565b82525050565b6131168161389d565b82525050565b61312581613918565b82525050565b600061313682613816565b613140818561386e565b935061315081856020860161395d565b61315981613990565b840191505092915050565b600061316f8261380b565b613179818561385d565b935061318981856020860161395d565b61319281613990565b840191505092915050565b60006131aa60098361386e565b91507f6f6e6c7941646d696e00000000000000000000000000000000000000000000006000830152602082019050919050565b60006131ea60148361386e565b91507f5265736f757263654442636f6e73747275636f720000000000000000000000006000830152602082019050919050565b600061322a60108361386e565b91507f207365744f776e65725f3a2074727565000000000000000000000000000000006000830152602082019050919050565b600061326a600a8361386e565b91507f67657441646472657373000000000000000000000000000000000000000000006000830152602082019050919050565b60006132aa600f8361386e565b91507f61646472657373206973206e756c6c00000000000000000000000000000000006000830152602082019050919050565b60006132ea600a8361386e565b91507f6f6e6c79206f776e6572000000000000000000000000000000000000000000006000830152602082019050919050565b600061332a60108361386e565b91507f6e65774f776e6572206973206e756c6c000000000000000000000000000000006000830152602082019050919050565b6000610100830160008301516133766000860182613422565b5060208301516133896020860182612fe7565b50604083015161339c60408601826130ef565b50606083015184820360608601526133b48282613164565b91505060808301516133c96080860182613422565b5060a083015184820360a08601526133e1828261307a565b91505060c083015184820360c08601526133fb8282613164565b91505060e083015184820360e08601526134158282613164565b9150508091505092915050565b61342b816138fc565b82525050565b61343a816138fc565b82525050565b60006020820190506134556000830184612ff6565b92915050565b600060208201905081810360008301526134758184613005565b905092915050565b600060208201905061349260008301846130fe565b92915050565b60006020820190506134ad600083018461310d565b92915050565b60006040820190506134c8600083018561310d565b6134d560208301846130fe565b9392505050565b60006080820190506134f1600083018761310d565b8181036020830152613503818661312b565b905081810360408301526135178185613005565b9050818103606083015261352b818461312b565b905095945050505050565b600060208201905061354b600083018461311c565b92915050565b6000602082019050818103600083015261356b818461312b565b905092915050565b6000606082019050818103600083015261358c8161319d565b905061359b6020830185612ff6565b6135a86040830184612fd8565b9392505050565b600060608201905081810360008301526135c8816131dd565b90506135d76020830185612ff6565b6135e46040830184612fd8565b9392505050565b600060208201905081810360008301526136048161321d565b9050919050565b600060608201905081810360008301526136248161325d565b90506136336020830185612ff6565b6136406040830184612fd8565b9392505050565b600060208201905081810360008301526136608161329d565b9050919050565b60006060820190508181036000830152613680816132dd565b905061368f6020830185612ff6565b61369c6040830184612fd8565b9392505050565b600060208201905081810360008301526136bc8161331d565b9050919050565b600060208201905081810360008301526136dd818461335d565b905092915050565b60006020820190506136fa6000830184613431565b92915050565b6000604051905081810181811067ffffffffffffffff8211171561372357600080fd5b8060405250919050565b600067ffffffffffffffff82111561374457600080fd5b602082029050602081019050919050565b600067ffffffffffffffff82111561376c57600080fd5b602082029050602081019050919050565b600067ffffffffffffffff82111561379457600080fd5b601f19601f8301169050602081019050919050565b600067ffffffffffffffff8211156137c057600080fd5b601f19601f8301169050602081019050919050565b6000819050602082019050919050565b6000819050602082019050919050565b600081519050919050565b600081519050919050565b600081519050919050565b600081519050919050565b6000602082019050919050565b6000602082019050919050565b600082825260208201905092915050565b600082825260208201905092915050565b600082825260208201905092915050565b600082825260208201905092915050565b600061388a826138dc565b9050919050565b60008115159050919050565b60007fffffffffffffffffffffffffffffffff0000000000000000000000000000000082169050919050565b60008190506138d7826139a1565b919050565b600073ffffffffffffffffffffffffffffffffffffffff82169050919050565b6000819050919050565b60006139118261392a565b9050919050565b6000613923826138c9565b9050919050565b60006139358261393c565b9050919050565b6000613947826138dc565b9050919050565b82818337600083830152505050565b60005b8381101561397b578082015181840152602081019050613960565b8381111561398a576000848401525b50505050565b6000601f19601f8301169050919050565b601e81106139ab57fe5b50565b6139b78161387f565b81146139c257600080fd5b50565b6139ce81613891565b81146139d957600080fd5b50565b6139e58161389d565b81146139f057600080fd5b50565b6139fc816138fc565b8114613a0757600080fd5b5056fea2646970667358221220fdc38c5ab0a393351e9492a1739b9eb3f9e95be886bcd3e43bdd0f8f9d09709d64736f6c63430006030033",
  "source": "pragma solidity >=0.5.12 <0.7.0;\r\npragma experimental ABIEncoderV2;\r\n\r\nimport \"./SafeMath.sol\";\r\nimport \"./WhiteMange.sol\";\r\n\r\ncontract ResourceDB is WhiteMange {\r\n    using SafeMath for uint256;\r\n\r\n    struct Resource {\r\n        uint256 initDate; // date of resource upload\r\n        address author; // owner of the resource\r\n        bool waive; // the flag that the author gave up\r\n        string ipfs; // the HASH value of the resource in the UDFS\r\n        uint256 gratuityNum; // \r\n      //  string[] lables; // \r\n      //  string[] comments; // \r\n        string[] thubanail; // \r\n        string cover; // \r\n        string title;\r\n    }\r\n\r\n    // mapping (uint => Gratuity) gratuitys;   // \r\n    mapping(bytes16 => Resource) private store_;\r\n\r\n    /* Successfully update a new resource. */\r\n    event LogNewResource(bytes16 _resId, address indexed _author);\r\n    event LogAddress(string info,address _resId, address indexed _author,address who);\r\n\r\n    /* Update the content of the resource. */\r\n    event LogUpdateResource(\r\n        bytes16 _resId,\r\n        address indexed _author,\r\n        string _ipfs,\r\n        string[] _thubanail,\r\n        string _cover\r\n    );\r\n\r\n\r\n    event LogUpdateResourceWaive(\r\n        bytes16 _resourceId,\r\n        address indexed _author,\r\n        bool _waive\r\n    );\r\n\r\n    /* Delete a resource that has already been claimed. */\r\n    event LogDeleteResource(bytes16 _resId);\r\n\r\n    /**W\r\n     * @dev Constructor.\r\n     */\r\n    constructor() public {\r\n     //   admin = msg.sender;\r\n     //   owner = msg.sender;\r\n      emit  LogAddress(\"construcor\",admin, owner,msg.sender);\r\n        whitelist_[msg.sender] = true;\r\n    }\r\n\r\n    bool private setOwner_ = false;\r\n    function setOwner(address _center,address _admin) public {\r\n        emit  LogAddress(\"ResourceDBconstrucor\",_center, owner,msg.sender);\r\n        require(!setOwner_,\" setOwner_: true\");\r\n        setOwner_ = true;\r\n        owner = msg.sender;\r\n        admin = _admin;\r\n        whitelist_[msg.sender] = true;\r\n        whitelist_[_center] = true;\r\n        emit  LogAddress(\"getAddress\",admin, owner,msg.sender);\r\n    }\r\n\r\n    /**\r\n     * @dev Insert a new resource.\r\n     * @param _sid     bytes16  : Resource index(ResourceID).\r\n     * @param _ipfs    string   : The IPFS Hash value of the resource.\r\n     * @param _author  address  : Declare the address of the resource.\r\n     * @param _thubanail :\r\n     * @param _cover :\r\n     * @param _title :\r\n     * @return         bool     : The successful call returns true.\r\n     */\r\n    function insertResource(\r\n        bytes16  _sid,\r\n        string memory _ipfs,\r\n        address _author,\r\n        string[] memory _thubanail,\r\n        string  memory _cover,\r\n        string  memory  _title\r\n    ) public  returns (bool) {\r\n        if (whitelist_[msg.sender] != true) {\r\n            emit LogError(RScorr.Insufficient);\r\n            return false;\r\n        } // Check the caller's whitelist permission.\r\n\r\n        if (isExist(_sid)) {\r\n            emit LogError(RScorr.ObjExist);\r\n            return false;\r\n        } // Check if the resource exists.\r\n\r\n        store_[_sid].author = _author;\r\n        store_[_sid].ipfs = _ipfs;\r\n        store_[_sid].initDate = block.timestamp;\r\n        store_[_sid].waive = false;\r\n        store_[_sid].thubanail = _thubanail;\r\n        store_[_sid].cover = _cover;\r\n        // store_[_sid].comments = new String[];\r\n        store_[_sid].title = _title;\r\n        emit LogNewResource(_sid, _author);\r\n\r\n        return true;\r\n    }\r\n\r\n    /**\r\n     * @dev Update the content of the resource (UDFS hash) and the pricing.\r\n     * @param _sid       bytes16  : Resource index(CResourceID).\r\n     * @param _author    address  : Declare the address of the resource.\r\n     * @param _ipfs      string   : The UDFS Hash value of the resource.\r\n     * @param _thubanail :\r\n     * @param _cover :\r\n     * @param _title :\r\n     * @return           bool     : The successful call returns true.\r\n     */\r\n    function updateResource(\r\n        bytes16 _sid,\r\n        string memory _ipfs,\r\n        address _author,\r\n        string[] memory _thubanail,\r\n        string memory _cover,\r\n        string memory _title\r\n    ) public returns (bool) {\r\n        if (whitelist_[msg.sender] != true) {\r\n            emit LogError(RScorr.Insufficient);\r\n            return false;\r\n        } // Check the caller's whitelist permission.\r\n\r\n        if (store_[_sid].author != _author) {\r\n            emit LogError(RScorr.IdCertifyFailed);\r\n            return false;\r\n        } // Verify that the resource is the caller's.\r\n\r\n        store_[_sid].ipfs = _ipfs;\r\n        store_[_sid].thubanail = _thubanail;\r\n        store_[_sid].cover = _cover;\r\n        store_[_sid].title = _title;\r\n        emit LogUpdateResource(_sid, _author, _ipfs, _thubanail, _cover);\r\n\r\n        return true;\r\n    }\r\n\r\n    /**\r\n     * @dev The author abandons a resource.\r\n     * @notice Canceling resource abandonment cannot be invoked by the author.\r\n     * @param _sid     bytes16  : Resource index(ClaimID).\r\n     * @param _author  address  : Claim the address of the resource.\r\n     * @param _waive    bool    : True means give up, false means cancel.\r\n     * @return          bool    : The successful call returns true.\r\n     */\r\n    function updateResourceWaive(bytes16 _sid, address _author, bool _waive)\r\n        public\r\n        returns (bool)\r\n    {\r\n        if (whitelist_[msg.sender] != true) {\r\n            emit LogError(RScorr.Insufficient);\r\n            return false;\r\n        } // Check the caller's whitelist permission.\r\n\r\n        if (store_[_sid].author != _author) {\r\n            emit LogError(RScorr.IdCertifyFailed);\r\n            return false;\r\n        } // Verify that the resource is the caller's.\r\n\r\n        if (store_[_sid].waive == _waive) {\r\n            emit LogError(RScorr.Insignificance);\r\n            return false;\r\n        } // The updated content should not be the same.\r\n\r\n        emit LogUpdateResourceWaive(_sid, _author, _waive);\r\n        store_[_sid].waive = _waive;\r\n        return true;\r\n    }\r\n\r\n    /**\r\n     * @dev Admin delete resources.\r\n     * @notice This function is limited to calls only by the admin or owner.\r\n     * @param _sid      bytes16  : Resource index(ClaimID).\r\n     * @return          bool     : The successful call returns true.\r\n     */\r\n    function deleteResource(bytes16 _sid) public returns (bool) {\r\n        if (msg.sender != owner && msg.sender != admin) {\r\n            emit LogError(RScorr.PermissionDenied);\r\n            return false;\r\n        } // Check if the caller is an administrator.\r\n\r\n        if (store_[_sid].author == address(0)) {\r\n            emit LogError(RScorr.ObjNotExist);\r\n            return false;\r\n        } // Check if the resource exists.\r\n\r\n        delete store_[_sid];\r\n\r\n        emit LogDeleteResource(_sid);\r\n\r\n        return true;\r\n    }\r\n\r\n    /////////////////////////\r\n    /// View\r\n    /////////////////////////\r\n\r\n    /**\r\n     * @dev Find details of a specified resource\r\n     * @notice Only allowed to be called by the address in the whitelist.\r\n     * @param _resId   bytes16 : Resource index(ClaimID).\r\n     */\r\n    function getResourceInfoByID(bytes16 _resId)\r\n        public\r\n        view\r\n        returns (Resource memory\r\n        )\r\n    {\r\n        return store_[_resId];\r\n    }\r\n\r\n    /**\r\n     * @dev Check if the resource exists\r\n     * @param _resId bytes16  : Resource index(ClaimID).\r\n     * @return            bool  : True means resources exist\r\n     */\r\n    function isExist(bytes16 _resId) public view returns (bool) {\r\n        if (store_[_resId].author != address(0) ) {\r\n            return true;\r\n        }\r\n        return false;\r\n    }\r\n\r\n\r\n    /**\r\n     * @dev Get purchase information for the resource.\r\n     * @param _resId bytes16  : Resource index(ClaimID).\r\n     * @return    gratuityNum   :\r\n     */\r\n    function getGratuityNum(bytes16 _resId)\r\n        public\r\n        view\r\n        returns (uint256 gratuityNum)\r\n    {\r\n        return store_[_resId].gratuityNum;\r\n    }\r\n\r\n    // function getLables(bytes16 _resId) public view returns (string[] memory lables) {\r\n    //     return store_[_resId].lables;\r\n    // }\r\n\r\n    // function getComments(bytes16 _resId)\r\n    //     public\r\n    //     view\r\n    //     returns (string[] comments)\r\n    // {\r\n    //     return store_[_resId].comments;\r\n    // }\r\n\r\n    function getThubanail(bytes16 _resId)\r\n        public\r\n        view\r\n        returns (string[] memory _thubanail)\r\n    {\r\n        return store_[_resId].thubanail;\r\n    }\r\n\r\n    function getCover(bytes16 _resId) public view returns (string memory cover) {\r\n        return store_[_resId].cover;\r\n    }\r\n\r\n    function getAuthor(bytes16 _resId) public view returns (address) {\r\n        return store_[_resId].author;\r\n    }\r\n\r\n    function getTitle(bytes16 _resId) public view returns (string memory title) {\r\n        return store_[_resId].title;\r\n    }\r\n\r\n    function getResourceWaive(bytes16 _resId) public view returns (bool  waive) {\r\n        return store_[_resId].waive;\r\n    }\r\n\r\n     function addResourceGratuityNum(bytes16 _resId,uint value) public {\r\n         store_[_resId].gratuityNum = SafeMath.add(store_[_resId].gratuityNum,value);\r\n    }\r\n}\r\n",
  "sourcePath": "E:\\contracts\\contracts\\ResourceDB.sol",
  "compiler": {
    "name": "solc",
    "version": "0.6.3+commit.8dda9521.Emscripten.clang"
  },
  "schemaVersion": "3.0.23",
  "updatedAt": "2020-04-21T09:45:18.841Z",
  "networkType": "ethereum",
  "devdoc": {
    "methods": {
      "acceptOwnership()": {
        "details": "Allows the newOwner address to finalize the transfer."
      },
      "constructor": {
        "details": "Constructor."
      },
      "deleteResource(bytes16)": {
        "details": "Admin delete resources.",
        "params": {
          "_sid": "bytes16  : Resource index(ClaimID)."
        },
        "returns": {
          "_0": "bool     : The successful call returns true."
        }
      },
      "getGratuityNum(bytes16)": {
        "details": "Get purchase information for the resource.",
        "params": {
          "_resId": "bytes16  : Resource index(ClaimID)."
        },
        "returns": {
          "gratuityNum": "  :"
        }
      },
      "getResourceInfoByID(bytes16)": {
        "details": "Find details of a specified resource",
        "params": {
          "_resId": "bytes16 : Resource index(ClaimID)."
        }
      },
      "insertResource(bytes16,string,address,string[],string,string)": {
        "details": "Insert a new resource.",
        "params": {
          "_author": "address  : Declare the address of the resource.",
          "_cover": ":",
          "_ipfs": "string   : The IPFS Hash value of the resource.",
          "_sid": "bytes16  : Resource index(ResourceID).",
          "_thubanail": ":",
          "_title": ":"
        },
        "returns": {
          "_0": "bool     : The successful call returns true."
        }
      },
      "isExist(bytes16)": {
        "details": "Check if the resource exists",
        "params": {
          "_resId": "bytes16  : Resource index(ClaimID)."
        },
        "returns": {
          "_0": "bool  : True means resources exist"
        }
      },
      "mangeWhiteList(address,bool)": {
        "details": "",
        "params": {
          "_allow": "bool     : truefalse",
          "_target": "address  : "
        },
        "returns": {
          "_0": "bool     : true"
        }
      },
      "mulInsertWhite(address[])": {
        "details": "",
        "params": {
          "_addresses": "address[] : "
        },
        "returns": {
          "_0": "bool      : true"
        }
      },
      "renounceOwnership()": {
        "details": "Allows the current owner to relinquish control of the contract."
      },
      "transferAdminship(address)": {
        "details": "Allows the current admin to transfer control of the contract to a newadmin.",
        "params": {
          "_newAdmin": "address : new admin address"
        }
      },
      "transferOwnership(address)": {
        "details": "Allows the current owner to transfer control of the contract to a newOwner.",
        "params": {
          "_newOwner": "The address to transfer ownership to."
        }
      },
      "updateResource(bytes16,string,address,string[],string,string)": {
        "details": "Update the content of the resource (UDFS hash) and the pricing.",
        "params": {
          "_author": "address  : Declare the address of the resource.",
          "_cover": ":",
          "_ipfs": "string   : The UDFS Hash value of the resource.",
          "_sid": "bytes16  : Resource index(CResourceID).",
          "_thubanail": ":",
          "_title": ":"
        },
        "returns": {
          "_0": "bool     : The successful call returns true."
        }
      },
      "updateResourceWaive(bytes16,address,bool)": {
        "details": "The author abandons a resource.",
        "params": {
          "_author": "address  : Claim the address of the resource.",
          "_sid": "bytes16  : Resource index(ClaimID).",
          "_waive": "bool    : True means give up, false means cancel."
        },
        "returns": {
          "_0": "bool    : The successful call returns true."
        }
      }
    }
  },
  "userdoc": {
    "methods": {
      "constructor": "W",
      "deleteResource(bytes16)": {
        "notice": "This function is limited to calls only by the admin or owner."
      },
      "getResourceInfoByID(bytes16)": {
        "notice": "Only allowed to be called by the address in the whitelist."
      },
      "mangeWhiteList(address,bool)": {
        "notice": ""
      },
      "mulInsertWhite(address[])": {
        "notice": ""
      },
      "renounceOwnership()": {
        "notice": "Renouncing to ownership will leave the contract without an owner. It will not be possible to call the functions with the `onlyOwner` modifier anymore."
      },
      "updateResourceWaive(bytes16,address,bool)": {
        "notice": "Canceling resource abandonment cannot be invoked by the author."
      }
    }
  }
}