{
  "contractName": "ResourceDB",
  "abi": [
    {
      "inputs": [],
      "stateMutability": "nonpayable",
      "type": "constructor"
    },
    {
      "anonymous": false,
      "inputs": [
        {
          "indexed": false,
          "internalType": "string",
          "name": "info",
          "type": "string"
        },
        {
          "indexed": false,
          "internalType": "address",
          "name": "_resId",
          "type": "address"
        },
        {
          "indexed": true,
          "internalType": "address",
          "name": "_author",
          "type": "address"
        },
        {
          "indexed": false,
          "internalType": "address",
          "name": "who",
          "type": "address"
        }
      ],
      "name": "LogAddress",
      "type": "event"
    },
    {
      "anonymous": false,
      "inputs": [
        {
          "indexed": true,
          "internalType": "address",
          "name": "_old",
          "type": "address"
        },
        {
          "indexed": true,
          "internalType": "address",
          "name": "_new",
          "type": "address"
        }
      ],
      "name": "LogAdminshipTransferred",
      "type": "event"
    },
    {
      "anonymous": false,
      "inputs": [
        {
          "indexed": false,
          "internalType": "bytes16",
          "name": "_resId",
          "type": "bytes16"
        }
      ],
      "name": "LogDeleteResource",
      "type": "event"
    },
    {
      "anonymous": false,
      "inputs": [
        {
          "indexed": false,
          "internalType": "enum ErrorModule.RScorr",
          "name": "_errorNumber",
          "type": "uint8"
        }
      ],
      "name": "LogError",
      "type": "event"
    },
    {
      "anonymous": false,
      "inputs": [
        {
          "indexed": false,
          "internalType": "bytes16",
          "name": "_resId",
          "type": "bytes16"
        },
        {
          "indexed": true,
          "internalType": "address",
          "name": "_author",
          "type": "address"
        }
      ],
      "name": "LogNewResource",
      "type": "event"
    },
    {
      "anonymous": false,
      "inputs": [
        {
          "indexed": true,
          "internalType": "address",
          "name": "previousOwner",
          "type": "address"
        }
      ],
      "name": "LogOwnershipRenounced",
      "type": "event"
    },
    {
      "anonymous": false,
      "inputs": [
        {
          "indexed": true,
          "internalType": "address",
          "name": "previousOwner",
          "type": "address"
        },
        {
          "indexed": true,
          "internalType": "address",
          "name": "newOwner",
          "type": "address"
        }
      ],
      "name": "LogOwnershipTransferred",
      "type": "event"
    },
    {
      "anonymous": false,
      "inputs": [
        {
          "indexed": false,
          "internalType": "bytes16",
          "name": "_resId",
          "type": "bytes16"
        },
        {
          "indexed": true,
          "internalType": "address",
          "name": "_author",
          "type": "address"
        },
        {
          "indexed": false,
          "internalType": "string",
          "name": "_ipfs",
          "type": "string"
        },
        {
          "indexed": false,
          "internalType": "string[]",
          "name": "_thubanail",
          "type": "string[]"
        },
        {
          "indexed": false,
          "internalType": "string",
          "name": "_cover",
          "type": "string"
        }
      ],
      "name": "LogUpdateResource",
      "type": "event"
    },
    {
      "anonymous": false,
      "inputs": [
        {
          "indexed": false,
          "internalType": "bytes16",
          "name": "_resourceId",
          "type": "bytes16"
        },
        {
          "indexed": true,
          "internalType": "address",
          "name": "_author",
          "type": "address"
        },
        {
          "indexed": false,
          "internalType": "bool",
          "name": "_waive",
          "type": "bool"
        }
      ],
      "name": "LogUpdateResourceWaive",
      "type": "event"
    },
    {
      "anonymous": false,
      "inputs": [
        {
          "indexed": true,
          "internalType": "address",
          "name": "_target",
          "type": "address"
        },
        {
          "indexed": false,
          "internalType": "bool",
          "name": "_allow",
          "type": "bool"
        }
      ],
      "name": "LogWhileChanged",
      "type": "event"
    },
    {
      "inputs": [],
      "name": "acceptOwnership",
      "outputs": [],
      "stateMutability": "nonpayable",
      "type": "function"
    },
    {
      "inputs": [],
      "name": "admin",
      "outputs": [
        {
          "internalType": "address",
          "name": "",
          "type": "address"
        }
      ],
      "stateMutability": "view",
      "type": "function",
      "constant": true
    },
    {
      "inputs": [
        {
          "internalType": "address",
          "name": "_target",
          "type": "address"
        },
        {
          "internalType": "bool",
          "name": "_allow",
          "type": "bool"
        }
      ],
      "name": "mangeWhiteList",
      "outputs": [
        {
          "internalType": "bool",
          "name": "",
          "type": "bool"
        }
      ],
      "stateMutability": "nonpayable",
      "type": "function"
    },
    {
      "inputs": [
        {
          "internalType": "address[]",
          "name": "_addresses",
          "type": "address[]"
        }
      ],
      "name": "mulInsertWhite",
      "outputs": [
        {
          "internalType": "bool",
          "name": "",
          "type": "bool"
        }
      ],
      "stateMutability": "nonpayable",
      "type": "function"
    },
    {
      "inputs": [],
      "name": "newOwner",
      "outputs": [
        {
          "internalType": "address",
          "name": "",
          "type": "address"
        }
      ],
      "stateMutability": "view",
      "type": "function",
      "constant": true
    },
    {
      "inputs": [],
      "name": "owner",
      "outputs": [
        {
          "internalType": "address",
          "name": "",
          "type": "address"
        }
      ],
      "stateMutability": "view",
      "type": "function",
      "constant": true
    },
    {
      "inputs": [],
      "name": "renounceOwnership",
      "outputs": [],
      "stateMutability": "nonpayable",
      "type": "function"
    },
    {
      "inputs": [
        {
          "internalType": "address",
          "name": "_newAdmin",
          "type": "address"
        }
      ],
      "name": "transferAdminship",
      "outputs": [],
      "stateMutability": "nonpayable",
      "type": "function"
    },
    {
      "inputs": [
        {
          "internalType": "address",
          "name": "_newOwner",
          "type": "address"
        }
      ],
      "name": "transferOwnership",
      "outputs": [],
      "stateMutability": "nonpayable",
      "type": "function"
    },
    {
      "inputs": [
        {
          "internalType": "address",
          "name": "",
          "type": "address"
        }
      ],
      "name": "whitelist_",
      "outputs": [
        {
          "internalType": "bool",
          "name": "",
          "type": "bool"
        }
      ],
      "stateMutability": "view",
      "type": "function",
      "constant": true
    },
    {
      "inputs": [
        {
          "internalType": "bytes16",
          "name": "_sid",
          "type": "bytes16"
        },
        {
          "internalType": "string",
          "name": "_ipfs",
          "type": "string"
        },
        {
          "internalType": "address",
          "name": "_author",
          "type": "address"
        },
        {
          "internalType": "string[]",
          "name": "_thubanail",
          "type": "string[]"
        },
        {
          "internalType": "string",
          "name": "_cover",
          "type": "string"
        },
        {
          "internalType": "string",
          "name": "_title",
          "type": "string"
        }
      ],
      "name": "insertResource",
      "outputs": [
        {
          "internalType": "bool",
          "name": "",
          "type": "bool"
        }
      ],
      "stateMutability": "nonpayable",
      "type": "function"
    },
    {
      "inputs": [
        {
          "internalType": "bytes16",
          "name": "_sid",
          "type": "bytes16"
        },
        {
          "internalType": "string",
          "name": "_ipfs",
          "type": "string"
        },
        {
          "internalType": "address",
          "name": "_author",
          "type": "address"
        },
        {
          "internalType": "string[]",
          "name": "_thubanail",
          "type": "string[]"
        },
        {
          "internalType": "string",
          "name": "_cover",
          "type": "string"
        },
        {
          "internalType": "string",
          "name": "_title",
          "type": "string"
        }
      ],
      "name": "updateResource",
      "outputs": [
        {
          "internalType": "bool",
          "name": "",
          "type": "bool"
        }
      ],
      "stateMutability": "nonpayable",
      "type": "function"
    },
    {
      "inputs": [
        {
          "internalType": "bytes16",
          "name": "_sid",
          "type": "bytes16"
        },
        {
          "internalType": "address",
          "name": "_author",
          "type": "address"
        },
        {
          "internalType": "bool",
          "name": "_waive",
          "type": "bool"
        }
      ],
      "name": "updateResourceWaive",
      "outputs": [
        {
          "internalType": "bool",
          "name": "",
          "type": "bool"
        }
      ],
      "stateMutability": "nonpayable",
      "type": "function"
    },
    {
      "inputs": [
        {
          "internalType": "bytes16",
          "name": "_sid",
          "type": "bytes16"
        }
      ],
      "name": "deleteResource",
      "outputs": [
        {
          "internalType": "bool",
          "name": "",
          "type": "bool"
        }
      ],
      "stateMutability": "nonpayable",
      "type": "function"
    },
    {
      "inputs": [
        {
          "internalType": "bytes16",
          "name": "_resId",
          "type": "bytes16"
        }
      ],
      "name": "getResourceInfoByID",
      "outputs": [
        {
          "components": [
            {
              "internalType": "uint256",
              "name": "initDate",
              "type": "uint256"
            },
            {
              "internalType": "address",
              "name": "author",
              "type": "address"
            },
            {
              "internalType": "bool",
              "name": "waive",
              "type": "bool"
            },
            {
              "internalType": "string",
              "name": "ipfs",
              "type": "string"
            },
            {
              "internalType": "uint256",
              "name": "gratuityNum",
              "type": "uint256"
            },
            {
              "internalType": "string[]",
              "name": "thubanail",
              "type": "string[]"
            },
            {
              "internalType": "string",
              "name": "cover",
              "type": "string"
            },
            {
              "internalType": "string",
              "name": "title",
              "type": "string"
            }
          ],
          "internalType": "struct ResourceDB.Resource",
          "name": "",
          "type": "tuple"
        }
      ],
      "stateMutability": "view",
      "type": "function",
      "constant": true
    },
    {
      "inputs": [
        {
          "internalType": "bytes16",
          "name": "_resId",
          "type": "bytes16"
        }
      ],
      "name": "isExist",
      "outputs": [
        {
          "internalType": "bool",
          "name": "",
          "type": "bool"
        }
      ],
      "stateMutability": "view",
      "type": "function",
      "constant": true
    },
    {
      "inputs": [
        {
          "internalType": "bytes16",
          "name": "_resId",
          "type": "bytes16"
        }
      ],
      "name": "getGratuityNum",
      "outputs": [
        {
          "internalType": "uint256",
          "name": "gratuityNum",
          "type": "uint256"
        }
      ],
      "stateMutability": "view",
      "type": "function",
      "constant": true
    },
    {
      "inputs": [
        {
          "internalType": "bytes16",
          "name": "_resId",
          "type": "bytes16"
        }
      ],
      "name": "getThubanail",
      "outputs": [
        {
          "internalType": "string[]",
          "name": "_thubanail",
          "type": "string[]"
        }
      ],
      "stateMutability": "view",
      "type": "function",
      "constant": true
    },
    {
      "inputs": [
        {
          "internalType": "bytes16",
          "name": "_resId",
          "type": "bytes16"
        }
      ],
      "name": "getCover",
      "outputs": [
        {
          "internalType": "string",
          "name": "cover",
          "type": "string"
        }
      ],
      "stateMutability": "view",
      "type": "function",
      "constant": true
    },
    {
      "inputs": [
        {
          "internalType": "bytes16",
          "name": "_resId",
          "type": "bytes16"
        }
      ],
      "name": "getAuthor",
      "outputs": [
        {
          "internalType": "address",
          "name": "",
          "type": "address"
        }
      ],
      "stateMutability": "view",
      "type": "function",
      "constant": true
    },
    {
      "inputs": [
        {
          "internalType": "bytes16",
          "name": "_resId",
          "type": "bytes16"
        }
      ],
      "name": "getTitle",
      "outputs": [
        {
          "internalType": "string",
          "name": "title",
          "type": "string"
        }
      ],
      "stateMutability": "view",
      "type": "function",
      "constant": true
    },
    {
      "inputs": [
        {
          "internalType": "bytes16",
          "name": "_resId",
          "type": "bytes16"
        }
      ],
      "name": "getResourceWaive",
      "outputs": [
        {
          "internalType": "bool",
          "name": "waive",
          "type": "bool"
        }
      ],
      "stateMutability": "view",
      "type": "function",
      "constant": true
    },
    {
      "inputs": [
        {
          "internalType": "bytes16",
          "name": "_resId",
          "type": "bytes16"
        },
        {
          "internalType": "uint256",
          "name": "value",
          "type": "uint256"
        }
      ],
      "name": "addResourceGratuityNum",
      "outputs": [],
      "stateMutability": "nonpayable",
      "type": "function"
    }
  ],
  "bytecode": "0x60806040523480156200001157600080fd5b5073482ba190ce6f932808a745173e733ccb19ae9b5e6000806101000a81548173ffffffffffffffffffffffffffffffffffffffff021916908373ffffffffffffffffffffffffffffffffffffffff16021790555033600260006101000a81548173ffffffffffffffffffffffffffffffffffffffff021916908373ffffffffffffffffffffffffffffffffffffffff160217905550336000806101000a81548173ffffffffffffffffffffffffffffffffffffffff021916908373ffffffffffffffffffffffffffffffffffffffff1602179055506000809054906101000a900473ffffffffffffffffffffffffffffffffffffffff1673ffffffffffffffffffffffffffffffffffffffff167f9e6965ca244a67ad615b5114db3886405a40a12f1190493f8e9201020885af1d600260009054906101000a900473ffffffffffffffffffffffffffffffffffffffff1633604051620001749291906200023e565b60405180910390a26001600360003373ffffffffffffffffffffffffffffffffffffffff1673ffffffffffffffffffffffffffffffffffffffff16815260200190815260200160002060006101000a81548160ff02191690831515021790555062000301565b620001e581620002c5565b82525050565b620001f68162000291565b82525050565b60006200020b600a8362000280565b91507f636f6e73747275636f72000000000000000000000000000000000000000000006000830152602082019050919050565b600060608201905081810360008301526200025981620001fc565b90506200026a6020830185620001eb565b620002796040830184620001da565b9392505050565b600082825260208201905092915050565b60006200029e82620002a5565b9050919050565b600073ffffffffffffffffffffffffffffffffffffffff82169050919050565b6000620002d282620002d9565b9050919050565b6000620002e682620002ed565b9050919050565b6000620002fa82620002a5565b9050919050565b61349a80620003116000396000f3fe608060405234801561001057600080fd5b506004361061014d5760003560e01c8063a8e1fba3116100c3578063dcd581581161007c578063dcd58158146103ea578063e56a7c5d1461041a578063e8de42df1461044a578063f207a0881461047a578063f2fde38b146104aa578063f851a440146104c65761014d565b8063a8e1fba3146102dc578063aa492ec21461030c578063ab312ffb1461033c578063b3f956571461036c578063ba33cb581461039c578063d4ee1d90146103cc5761014d565b806379ba50971161011557806379ba5097146101f45780638d4a3974146101fe5780638da5cb5b1461022e578063994ed1b81461024c5780639b03ced21461027c578063a864022d146102ac5761014d565b8063157ffbe91461015257806335e60e891461016e57806353ec00cc1461019e5780635be7cc16146101ce578063715018a6146101ea575b600080fd5b61016c60048036036101679190810190612b57565b6104e4565b005b610188600480360361018391908101906129b5565b61056e565b6040516101959190612fbd565b60405180910390f35b6101b860048036036101b391908101906129f6565b6107d8565b6040516101c59190613091565b60405180910390f35b6101e860048036036101e39190810190612950565b6108b6565b005b6101f2610a5d565b005b6101fc610b93565b005b610218600480360361021391908101906129f6565b610d65565b6040516102259190613153565b60405180910390f35b61023661110d565b6040516102439190612f80565b60405180910390f35b610266600480360361026191908101906129f6565b611132565b6040516102739190612f9b565b60405180910390f35b610296600480360361029191908101906129f6565b611257565b6040516102a39190612fbd565b60405180910390f35b6102c660048036036102c19190810190612a6e565b6112fb565b6040516102d39190612fbd565b60405180910390f35b6102f660048036036102f19190810190612979565b61160d565b6040516103039190612fbd565b60405180910390f35b61032660048036036103219190810190612a1f565b611826565b6040516103339190612fbd565b60405180910390f35b610356600480360361035191908101906129f6565b611ad7565b6040516103639190613175565b60405180910390f35b61038660048036036103819190810190612a6e565b611b1d565b6040516103939190612fbd565b60405180910390f35b6103b660048036036103b191908101906129f6565b611eb9565b6040516103c39190612f80565b60405180910390f35b6103d4611f1f565b6040516103e19190612f80565b60405180910390f35b61040460048036036103ff91908101906129f6565b611f45565b6040516104119190613091565b60405180910390f35b610434600480360361042f9190810190612950565b612023565b6040516104419190612fbd565b60405180910390f35b610464600480360361045f91908101906129f6565b612043565b6040516104719190612fbd565b60405180910390f35b610494600480360361048f91908101906129f6565b612310565b6040516104a19190612fbd565b60405180910390f35b6104c460048036036104bf9190810190612950565b612363565b005b6104ce6124a6565b6040516104db9190612f80565b60405180910390f35b61052a60046000846fffffffffffffffffffffffffffffffff19166fffffffffffffffffffffffffffffffff1916815260200190815260200160002060030154826124cc565b60046000846fffffffffffffffffffffffffffffffff19166fffffffffffffffffffffffffffffffff19168152602001908152602001600020600301819055505050565b60008060009054906101000a900473ffffffffffffffffffffffffffffffffffffffff1673ffffffffffffffffffffffffffffffffffffffff163373ffffffffffffffffffffffffffffffffffffffff161415801561061b5750600260009054906101000a900473ffffffffffffffffffffffffffffffffffffffff1673ffffffffffffffffffffffffffffffffffffffff163373ffffffffffffffffffffffffffffffffffffffff1614155b15610661577f0489f2369368f4688acd012107ac5a7d98ca739b913449d852f35d871e433cc3600f6040516106509190613076565b60405180910390a1600090506107d3565b60008090505b82518110156107cd57600073ffffffffffffffffffffffffffffffffffffffff1683828151811061069457fe5b602002602001015173ffffffffffffffffffffffffffffffffffffffff1614156106f3576040517f08c379a00000000000000000000000000000000000000000000000000000000081526004016106ea906130f3565b60405180910390fd5b60016003600085848151811061070557fe5b602002602001015173ffffffffffffffffffffffffffffffffffffffff1673ffffffffffffffffffffffffffffffffffffffff16815260200190815260200160002060006101000a81548160ff02191690831515021790555082818151811061076a57fe5b602002602001015173ffffffffffffffffffffffffffffffffffffffff167f9b3b880c67f4fab4215412179771cffd326a045e6016a7e363eb38460f7e917660016040516107b89190612fbd565b60405180910390a28080600101915050610667565b50600190505b919050565b606060046000836fffffffffffffffffffffffffffffffff19166fffffffffffffffffffffffffffffffff191681526020019081526020016000206005018054600181600116156101000203166002900480601f0160208091040260200160405190810160405280929190818152602001828054600181600116156101000203166002900480156108aa5780601f1061087f576101008083540402835291602001916108aa565b820191906000526020600020905b81548152906001019060200180831161088d57829003601f168201915b50505050509050919050565b6000809054906101000a900473ffffffffffffffffffffffffffffffffffffffff1673ffffffffffffffffffffffffffffffffffffffff163373ffffffffffffffffffffffffffffffffffffffff16148061095e5750600260009054906101000a900473ffffffffffffffffffffffffffffffffffffffff1673ffffffffffffffffffffffffffffffffffffffff163373ffffffffffffffffffffffffffffffffffffffff16145b61099d576040517f08c379a0000000000000000000000000000000000000000000000000000000008152600401610994906130d3565b60405180910390fd5b8073ffffffffffffffffffffffffffffffffffffffff16600260009054906101000a900473ffffffffffffffffffffffffffffffffffffffff1673ffffffffffffffffffffffffffffffffffffffff167ff73aa4459d935dbacd9313fffe485016147551d99ef401461704cd39e6e9028760405160405180910390a380600260006101000a81548173ffffffffffffffffffffffffffffffffffffffff021916908373ffffffffffffffffffffffffffffffffffffffff16021790555050565b6000809054906101000a900473ffffffffffffffffffffffffffffffffffffffff1673ffffffffffffffffffffffffffffffffffffffff163373ffffffffffffffffffffffffffffffffffffffff1614610aec576040517f08c379a0000000000000000000000000000000000000000000000000000000008152600401610ae390613113565b60405180910390fd5b6000809054906101000a900473ffffffffffffffffffffffffffffffffffffffff1673ffffffffffffffffffffffffffffffffffffffff167f2dde1bc8b58ef192e7df3e7a354521d958331021e450d544346b936936916ef460405160405180910390a260008060006101000a81548173ffffffffffffffffffffffffffffffffffffffff021916908373ffffffffffffffffffffffffffffffffffffffff160217905550565b6000809054906101000a900473ffffffffffffffffffffffffffffffffffffffff1673ffffffffffffffffffffffffffffffffffffffff163373ffffffffffffffffffffffffffffffffffffffff1614610c22576040517f08c379a0000000000000000000000000000000000000000000000000000000008152600401610c19906130b3565b60405180910390fd5b600160009054906101000a900473ffffffffffffffffffffffffffffffffffffffff1673ffffffffffffffffffffffffffffffffffffffff166000809054906101000a900473ffffffffffffffffffffffffffffffffffffffff1673ffffffffffffffffffffffffffffffffffffffff167fdb6d05f3295cede580affa301a1eb5297528f3b3f6a56b075887ce6f61c45f2160405160405180910390a3600160009054906101000a900473ffffffffffffffffffffffffffffffffffffffff166000806101000a81548173ffffffffffffffffffffffffffffffffffffffff021916908373ffffffffffffffffffffffffffffffffffffffff1602179055506000600160006101000a81548173ffffffffffffffffffffffffffffffffffffffff021916908373ffffffffffffffffffffffffffffffffffffffff160217905550565b610d6d6124e6565b60046000836fffffffffffffffffffffffffffffffff19166fffffffffffffffffffffffffffffffff1916815260200190815260200160002060405180610100016040529081600082015481526020016001820160009054906101000a900473ffffffffffffffffffffffffffffffffffffffff1673ffffffffffffffffffffffffffffffffffffffff1673ffffffffffffffffffffffffffffffffffffffff1681526020016001820160149054906101000a900460ff16151515158152602001600282018054600181600116156101000203166002900480601f016020809104026020016040519081016040528092919081815260200182805460018160011615610100020316600290048015610ec65780601f10610e9b57610100808354040283529160200191610ec6565b820191906000526020600020905b815481529060010190602001808311610ea957829003601f168201915b505050505081526020016003820154815260200160048201805480602002602001604051908101604052809291908181526020016000905b82821015610fba578382906000526020600020018054600181600116156101000203166002900480601f016020809104026020016040519081016040528092919081815260200182805460018160011615610100020316600290048015610fa65780601f10610f7b57610100808354040283529160200191610fa6565b820191906000526020600020905b815481529060010190602001808311610f8957829003601f168201915b505050505081526020019060010190610efe565b505050508152602001600582018054600181600116156101000203166002900480601f01602080910402602001604051908101604052809291908181526020018280546001816001161561010002031660029004801561105b5780601f106110305761010080835404028352916020019161105b565b820191906000526020600020905b81548152906001019060200180831161103e57829003601f168201915b50505050508152602001600682018054600181600116156101000203166002900480601f0160208091040260200160405190810160405280929190818152602001828054600181600116156101000203166002900480156110fd5780601f106110d2576101008083540402835291602001916110fd565b820191906000526020600020905b8154815290600101906020018083116110e057829003601f168201915b5050505050815250509050919050565b6000809054906101000a900473ffffffffffffffffffffffffffffffffffffffff1681565b606060046000836fffffffffffffffffffffffffffffffff19166fffffffffffffffffffffffffffffffff19168152602001908152602001600020600401805480602002602001604051908101604052809291908181526020016000905b8282101561124c578382906000526020600020018054600181600116156101000203166002900480601f0160208091040260200160405190810160405280929190818152602001828054600181600116156101000203166002900480156112385780601f1061120d57610100808354040283529160200191611238565b820191906000526020600020905b81548152906001019060200180831161121b57829003601f168201915b505050505081526020019060010190611190565b505050509050919050565b60008073ffffffffffffffffffffffffffffffffffffffff1660046000846fffffffffffffffffffffffffffffffff19166fffffffffffffffffffffffffffffffff1916815260200190815260200160002060010160009054906101000a900473ffffffffffffffffffffffffffffffffffffffff1673ffffffffffffffffffffffffffffffffffffffff16146112f157600190506112f6565b600090505b919050565b600060011515600360003373ffffffffffffffffffffffffffffffffffffffff1673ffffffffffffffffffffffffffffffffffffffff16815260200190815260200160002060009054906101000a900460ff16151514611396577f0489f2369368f4688acd012107ac5a7d98ca739b913449d852f35d871e433cc3600e6040516113859190613076565b60405180910390a160009050611603565b8473ffffffffffffffffffffffffffffffffffffffff1660046000896fffffffffffffffffffffffffffffffff19166fffffffffffffffffffffffffffffffff1916815260200190815260200160002060010160009054906101000a900473ffffffffffffffffffffffffffffffffffffffff1673ffffffffffffffffffffffffffffffffffffffff1614611466577f0489f2369368f4688acd012107ac5a7d98ca739b913449d852f35d871e433cc360106040516114559190613076565b60405180910390a160009050611603565b8560046000896fffffffffffffffffffffffffffffffff19166fffffffffffffffffffffffffffffffff1916815260200190815260200160002060020190805190602001906114b6929190612543565b508360046000896fffffffffffffffffffffffffffffffff19166fffffffffffffffffffffffffffffffff1916815260200190815260200160002060040190805190602001906115079291906125c3565b508260046000896fffffffffffffffffffffffffffffffff19166fffffffffffffffffffffffffffffffff191681526020019081526020016000206005019080519060200190611558929190612543565b508160046000896fffffffffffffffffffffffffffffffff19166fffffffffffffffffffffffffffffffff1916815260200190815260200160002060060190805190602001906115a9929190612543565b508473ffffffffffffffffffffffffffffffffffffffff167f2f234c72cbec2e1bd010e3ac9c94f37eebf5e6403cc31d6c62e9f989a8b6fdd2888887876040516115f6949392919061301c565b60405180910390a2600190505b9695505050505050565b60008060009054906101000a900473ffffffffffffffffffffffffffffffffffffffff1673ffffffffffffffffffffffffffffffffffffffff163373ffffffffffffffffffffffffffffffffffffffff16141580156116ba5750600260009054906101000a900473ffffffffffffffffffffffffffffffffffffffff1673ffffffffffffffffffffffffffffffffffffffff163373ffffffffffffffffffffffffffffffffffffffff1614155b15611700577f0489f2369368f4688acd012107ac5a7d98ca739b913449d852f35d871e433cc3600f6040516116ef9190613076565b60405180910390a160009050611820565b600073ffffffffffffffffffffffffffffffffffffffff168373ffffffffffffffffffffffffffffffffffffffff161415611776577f0489f2369368f4688acd012107ac5a7d98ca739b913449d852f35d871e433cc360026040516117659190613076565b60405180910390a160009050611820565b81600360008573ffffffffffffffffffffffffffffffffffffffff1673ffffffffffffffffffffffffffffffffffffffff16815260200190815260200160002060006101000a81548160ff0219169083151502179055508273ffffffffffffffffffffffffffffffffffffffff167f9b3b880c67f4fab4215412179771cffd326a045e6016a7e363eb38460f7e9176836040516118139190612fbd565b60405180910390a2600190505b92915050565b600060011515600360003373ffffffffffffffffffffffffffffffffffffffff1673ffffffffffffffffffffffffffffffffffffffff16815260200190815260200160002060009054906101000a900460ff161515146118c1577f0489f2369368f4688acd012107ac5a7d98ca739b913449d852f35d871e433cc3600e6040516118b09190613076565b60405180910390a160009050611ad0565b8273ffffffffffffffffffffffffffffffffffffffff1660046000866fffffffffffffffffffffffffffffffff19166fffffffffffffffffffffffffffffffff1916815260200190815260200160002060010160009054906101000a900473ffffffffffffffffffffffffffffffffffffffff1673ffffffffffffffffffffffffffffffffffffffff1614611991577f0489f2369368f4688acd012107ac5a7d98ca739b913449d852f35d871e433cc360106040516119809190613076565b60405180910390a160009050611ad0565b81151560046000866fffffffffffffffffffffffffffffffff19166fffffffffffffffffffffffffffffffff1916815260200190815260200160002060010160149054906101000a900460ff1615151415611a27577f0489f2369368f4688acd012107ac5a7d98ca739b913449d852f35d871e433cc36011604051611a169190613076565b60405180910390a160009050611ad0565b8273ffffffffffffffffffffffffffffffffffffffff167f82677ea120590d5a5a1b20bf173631a90cf33c1d72e5edc7ed01c4c334b5b5cc8584604051611a6f929190612ff3565b60405180910390a28160046000866fffffffffffffffffffffffffffffffff19166fffffffffffffffffffffffffffffffff1916815260200190815260200160002060010160146101000a81548160ff021916908315150217905550600190505b9392505050565b600060046000836fffffffffffffffffffffffffffffffff19166fffffffffffffffffffffffffffffffff19168152602001908152602001600020600301549050919050565b600060011515600360003373ffffffffffffffffffffffffffffffffffffffff1673ffffffffffffffffffffffffffffffffffffffff16815260200190815260200160002060009054906101000a900460ff16151514611bb8577f0489f2369368f4688acd012107ac5a7d98ca739b913449d852f35d871e433cc3600e604051611ba79190613076565b60405180910390a160009050611eaf565b611bc187611257565b15611c07577f0489f2369368f4688acd012107ac5a7d98ca739b913449d852f35d871e433cc3600a604051611bf69190613076565b60405180910390a160009050611eaf565b8460046000896fffffffffffffffffffffffffffffffff19166fffffffffffffffffffffffffffffffff1916815260200190815260200160002060010160006101000a81548173ffffffffffffffffffffffffffffffffffffffff021916908373ffffffffffffffffffffffffffffffffffffffff1602179055508560046000896fffffffffffffffffffffffffffffffff19166fffffffffffffffffffffffffffffffff191681526020019081526020016000206002019080519060200190611cd2929190612543565b504260046000896fffffffffffffffffffffffffffffffff19166fffffffffffffffffffffffffffffffff1916815260200190815260200160002060000181905550600060046000896fffffffffffffffffffffffffffffffff19166fffffffffffffffffffffffffffffffff1916815260200190815260200160002060010160146101000a81548160ff0219169083151502179055508360046000896fffffffffffffffffffffffffffffffff19166fffffffffffffffffffffffffffffffff191681526020019081526020016000206004019080519060200190611db99291906125c3565b508260046000896fffffffffffffffffffffffffffffffff19166fffffffffffffffffffffffffffffffff191681526020019081526020016000206005019080519060200190611e0a929190612543565b508160046000896fffffffffffffffffffffffffffffffff19166fffffffffffffffffffffffffffffffff191681526020019081526020016000206006019080519060200190611e5b929190612543565b508473ffffffffffffffffffffffffffffffffffffffff167f0fe2037ccd4a2636e40b5431f81895c8a4a9d86eef0d5025e0e1afc4fddc8ad588604051611ea29190612fd8565b60405180910390a2600190505b9695505050505050565b600060046000836fffffffffffffffffffffffffffffffff19166fffffffffffffffffffffffffffffffff1916815260200190815260200160002060010160009054906101000a900473ffffffffffffffffffffffffffffffffffffffff169050919050565b600160009054906101000a900473ffffffffffffffffffffffffffffffffffffffff1681565b606060046000836fffffffffffffffffffffffffffffffff19166fffffffffffffffffffffffffffffffff191681526020019081526020016000206006018054600181600116156101000203166002900480601f0160208091040260200160405190810160405280929190818152602001828054600181600116156101000203166002900480156120175780601f10611fec57610100808354040283529160200191612017565b820191906000526020600020905b815481529060010190602001808311611ffa57829003601f168201915b50505050509050919050565b60036020528060005260406000206000915054906101000a900460ff1681565b60008060009054906101000a900473ffffffffffffffffffffffffffffffffffffffff1673ffffffffffffffffffffffffffffffffffffffff163373ffffffffffffffffffffffffffffffffffffffff16141580156120f05750600260009054906101000a900473ffffffffffffffffffffffffffffffffffffffff1673ffffffffffffffffffffffffffffffffffffffff163373ffffffffffffffffffffffffffffffffffffffff1614155b15612136577f0489f2369368f4688acd012107ac5a7d98ca739b913449d852f35d871e433cc3600f6040516121259190613076565b60405180910390a16000905061230b565b600073ffffffffffffffffffffffffffffffffffffffff1660046000846fffffffffffffffffffffffffffffffff19166fffffffffffffffffffffffffffffffff1916815260200190815260200160002060010160009054906101000a900473ffffffffffffffffffffffffffffffffffffffff1673ffffffffffffffffffffffffffffffffffffffff161415612208577f0489f2369368f4688acd012107ac5a7d98ca739b913449d852f35d871e433cc360096040516121f79190613076565b60405180910390a16000905061230b565b60046000836fffffffffffffffffffffffffffffffff19166fffffffffffffffffffffffffffffffff191681526020019081526020016000206000808201600090556001820160006101000a81549073ffffffffffffffffffffffffffffffffffffffff02191690556001820160146101000a81549060ff02191690556002820160006122959190612623565b60038201600090556004820160006122ad919061266b565b6005820160006122bd9190612623565b6006820160006122cd9190612623565b50507fb5f4c0a2c5e3bb95cc31df6c1ff73349d4ed2e1a6a05c098ed05b3008cdd8854826040516122fe9190612fd8565b60405180910390a1600190505b919050565b600060046000836fffffffffffffffffffffffffffffffff19166fffffffffffffffffffffffffffffffff1916815260200190815260200160002060010160149054906101000a900460ff169050919050565b6000809054906101000a900473ffffffffffffffffffffffffffffffffffffffff1673ffffffffffffffffffffffffffffffffffffffff163373ffffffffffffffffffffffffffffffffffffffff16146123f2576040517f08c379a00000000000000000000000000000000000000000000000000000000081526004016123e990613113565b60405180910390fd5b600073ffffffffffffffffffffffffffffffffffffffff168173ffffffffffffffffffffffffffffffffffffffff161415612462576040517f08c379a000000000000000000000000000000000000000000000000000000000815260040161245990613133565b60405180910390fd5b80600160006101000a81548173ffffffffffffffffffffffffffffffffffffffff021916908373ffffffffffffffffffffffffffffffffffffffff16021790555050565b600260009054906101000a900473ffffffffffffffffffffffffffffffffffffffff1681565b60008183019050828110156124dd57fe5b80905092915050565b60405180610100016040528060008152602001600073ffffffffffffffffffffffffffffffffffffffff16815260200160001515815260200160608152602001600081526020016060815260200160608152602001606081525090565b828054600181600116156101000203166002900490600052602060002090601f016020900481019282601f1061258457805160ff19168380011785556125b2565b828001600101855582156125b2579182015b828111156125b1578251825591602001919060010190612596565b5b5090506125bf919061268c565b5090565b828054828255906000526020600020908101928215612612579160200282015b828111156126115782518290805190602001906126019291906126b1565b50916020019190600101906125e3565b5b50905061261f9190612731565b5090565b50805460018160011615610100020316600290046000825580601f106126495750612668565b601f016020900490600052602060002090810190612667919061268c565b5b50565b50805460008255906000526020600020908101906126899190612731565b50565b6126ae91905b808211156126aa576000816000905550600101612692565b5090565b90565b828054600181600116156101000203166002900490600052602060002090601f016020900481019282601f106126f257805160ff1916838001178555612720565b82800160010185558215612720579182015b8281111561271f578251825591602001919060010190612704565b5b50905061272d919061268c565b5090565b61275a91905b80821115612756576000818161274d9190612623565b50600101612737565b5090565b90565b60008135905061276c81613408565b92915050565b600082601f83011261278357600080fd5b8135612796612791826131bd565b613190565b915081818352602084019350602081019050838560208402820111156127bb57600080fd5b60005b838110156127eb57816127d1888261275d565b8452602084019350602083019250506001810190506127be565b5050505092915050565b600082601f83011261280657600080fd5b8135612819612814826131e5565b613190565b9150818183526020840193506020810190508360005b8381101561285f57813586016128458882612893565b84526020840193506020830192505060018101905061282f565b5050505092915050565b6000813590506128788161341f565b92915050565b60008135905061288d81613436565b92915050565b600082601f8301126128a457600080fd5b81356128b76128b28261320d565b613190565b915080825260208301602083018583830111156128d357600080fd5b6128de8382846133a8565b50505092915050565b600082601f8301126128f857600080fd5b813561290b61290682613239565b613190565b9150808252602083016020830185838301111561292757600080fd5b6129328382846133a8565b50505092915050565b60008135905061294a8161344d565b92915050565b60006020828403121561296257600080fd5b60006129708482850161275d565b91505092915050565b6000806040838503121561298c57600080fd5b600061299a8582860161275d565b92505060206129ab85828601612869565b9150509250929050565b6000602082840312156129c757600080fd5b600082013567ffffffffffffffff8111156129e157600080fd5b6129ed84828501612772565b91505092915050565b600060208284031215612a0857600080fd5b6000612a168482850161287e565b91505092915050565b600080600060608486031215612a3457600080fd5b6000612a428682870161287e565b9350506020612a538682870161275d565b9250506040612a6486828701612869565b9150509250925092565b60008060008060008060c08789031215612a8757600080fd5b6000612a9589828a0161287e565b965050602087013567ffffffffffffffff811115612ab257600080fd5b612abe89828a016128e7565b9550506040612acf89828a0161275d565b945050606087013567ffffffffffffffff811115612aec57600080fd5b612af889828a016127f5565b935050608087013567ffffffffffffffff811115612b1557600080fd5b612b2189828a016128e7565b92505060a087013567ffffffffffffffff811115612b3e57600080fd5b612b4a89828a016128e7565b9150509295509295509295565b60008060408385031215612b6a57600080fd5b6000612b788582860161287e565b9250506020612b898582860161293b565b9150509250929050565b6000612b9f8383612d24565b905092915050565b612bb08161330f565b82525050565b612bbf8161330f565b82525050565b6000612bd082613290565b612bda81856132dc565b935083602082028501612bec85613275565b8060005b85811015612c285784840389528151612c098582612b93565b9450612c14836132be565b925060208a01995050600181019050612bf0565b50829750879550505050505092915050565b6000612c4582613285565b612c4f81856132cb565b935083602082028501612c6185613265565b8060005b85811015612c9d5784840389528151612c7e8582612b93565b9450612c89836132b1565b925060208a01995050600181019050612c65565b50829750879550505050505092915050565b612cb881613321565b82525050565b612cc781613321565b82525050565b612cd68161332d565b82525050565b612ce581613396565b82525050565b6000612cf6826132a6565b612d0081856132fe565b9350612d108185602086016133b7565b612d19816133ea565b840191505092915050565b6000612d2f8261329b565b612d3981856132ed565b9350612d498185602086016133b7565b612d52816133ea565b840191505092915050565b6000612d6a600d836132fe565b91507f6e6f7420746865206f776e6572000000000000000000000000000000000000006000830152602082019050919050565b6000612daa600b836132fe565b91507f6e6f2069732061646d696e0000000000000000000000000000000000000000006000830152602082019050919050565b6000612dea600f836132fe565b91507f61646472657373206973206e756c6c00000000000000000000000000000000006000830152602082019050919050565b6000612e2a600b836132fe565b91507f6e6f206973204f776e65720000000000000000000000000000000000000000006000830152602082019050919050565b6000612e6a6010836132fe565b91507f6e65774f776e6572206973206e756c6c000000000000000000000000000000006000830152602082019050919050565b600061010083016000830151612eb66000860182612f62565b506020830151612ec96020860182612ba7565b506040830151612edc6040860182612caf565b5060608301518482036060860152612ef48282612d24565b9150506080830151612f096080860182612f62565b5060a083015184820360a0860152612f218282612c3a565b91505060c083015184820360c0860152612f3b8282612d24565b91505060e083015184820360e0860152612f558282612d24565b9150508091505092915050565b612f6b8161338c565b82525050565b612f7a8161338c565b82525050565b6000602082019050612f956000830184612bb6565b92915050565b60006020820190508181036000830152612fb58184612bc5565b905092915050565b6000602082019050612fd26000830184612cbe565b92915050565b6000602082019050612fed6000830184612ccd565b92915050565b60006040820190506130086000830185612ccd565b6130156020830184612cbe565b9392505050565b60006080820190506130316000830187612ccd565b81810360208301526130438186612ceb565b905081810360408301526130578185612bc5565b9050818103606083015261306b8184612ceb565b905095945050505050565b600060208201905061308b6000830184612cdc565b92915050565b600060208201905081810360008301526130ab8184612ceb565b905092915050565b600060208201905081810360008301526130cc81612d5d565b9050919050565b600060208201905081810360008301526130ec81612d9d565b9050919050565b6000602082019050818103600083015261310c81612ddd565b9050919050565b6000602082019050818103600083015261312c81612e1d565b9050919050565b6000602082019050818103600083015261314c81612e5d565b9050919050565b6000602082019050818103600083015261316d8184612e9d565b905092915050565b600060208201905061318a6000830184612f71565b92915050565b6000604051905081810181811067ffffffffffffffff821117156131b357600080fd5b8060405250919050565b600067ffffffffffffffff8211156131d457600080fd5b602082029050602081019050919050565b600067ffffffffffffffff8211156131fc57600080fd5b602082029050602081019050919050565b600067ffffffffffffffff82111561322457600080fd5b601f19601f8301169050602081019050919050565b600067ffffffffffffffff82111561325057600080fd5b601f19601f8301169050602081019050919050565b6000819050602082019050919050565b6000819050602082019050919050565b600081519050919050565b600081519050919050565b600081519050919050565b600081519050919050565b6000602082019050919050565b6000602082019050919050565b600082825260208201905092915050565b600082825260208201905092915050565b600082825260208201905092915050565b600082825260208201905092915050565b600061331a8261336c565b9050919050565b60008115159050919050565b60007fffffffffffffffffffffffffffffffff0000000000000000000000000000000082169050919050565b6000819050613367826133fb565b919050565b600073ffffffffffffffffffffffffffffffffffffffff82169050919050565b6000819050919050565b60006133a182613359565b9050919050565b82818337600083830152505050565b60005b838110156133d55780820151818401526020810190506133ba565b838111156133e4576000848401525b50505050565b6000601f19601f8301169050919050565b601e811061340557fe5b50565b6134118161330f565b811461341c57600080fd5b50565b61342881613321565b811461343357600080fd5b50565b61343f8161332d565b811461344a57600080fd5b50565b6134568161338c565b811461346157600080fd5b5056fea2646970667358221220e467595db3f2b934f35acf17e5b56ecbda7a90ff4fc752d6f20fdcc976bc22f964736f6c63430006030033",
  "source": "pragma solidity >=0.5.12 <0.7.0;\r\npragma experimental ABIEncoderV2;\r\n\r\nimport \"./SafeMath.sol\";\r\nimport \"./WhiteMange.sol\";\r\n\r\ncontract ResourceDB is WhiteMange {\r\n    using SafeMath for uint256;\r\n\r\n    struct Resource {\r\n        uint256 initDate; // date of resource upload\r\n        address author; // owner of the resource\r\n        bool waive; // the flag that the author gave up\r\n        string ipfs; // the HASH value of the resource in the UDFS\r\n        uint256 gratuityNum; // \r\n      //  string[] lables; // \r\n      //  string[] comments; // \r\n        string[] thubanail; // \r\n        string cover; // \r\n        string title;\r\n    }\r\n\r\n    // mapping (uint => Gratuity) gratuitys;   // \r\n    mapping(bytes16 => Resource) private store_;\r\n\r\n    /* Successfully update a new resource. */\r\n    event LogNewResource(bytes16 _resId, address indexed _author);\r\n    event LogAddress(string info,address _resId, address indexed _author,address who);\r\n\r\n    /* Update the content of the resource. */\r\n    event LogUpdateResource(\r\n        bytes16 _resId,\r\n        address indexed _author,\r\n        string _ipfs,\r\n        string[] _thubanail,\r\n        string _cover\r\n    );\r\n\r\n\r\n    event LogUpdateResourceWaive(\r\n        bytes16 _resourceId,\r\n        address indexed _author,\r\n        bool _waive\r\n    );\r\n\r\n    /* Delete a resource that has already been claimed. */\r\n    event LogDeleteResource(bytes16 _resId);\r\n\r\n    /**W\r\n     * @dev Constructor.\r\n     */\r\n    constructor() public {\r\n     //   admin = msg.sender;\r\n     //   owner = msg.sender;\r\n      emit  LogAddress(\"construcor\",admin, owner,msg.sender);\r\n        whitelist_[msg.sender] = true;\r\n    }\r\n\r\n    /**\r\n     * @dev Insert a new resource.\r\n     * @param _sid     bytes16  : Resource index(ResourceID).\r\n     * @param _ipfs    string   : The IPFS Hash value of the resource.\r\n     * @param _author  address  : Declare the address of the resource.\r\n     * @param _thubanail :\r\n     * @param _cover :\r\n     * @param _title :\r\n     * @return         bool     : The successful call returns true.\r\n     */\r\n    function insertResource(\r\n        bytes16 _sid,\r\n        string memory _ipfs,\r\n        address _author,\r\n        string[] memory _thubanail,\r\n        string  memory _cover,\r\n        string  memory  _title\r\n    ) public returns (bool) {\r\n        if (whitelist_[msg.sender] != true) {\r\n            emit LogError(RScorr.Insufficient);\r\n            return false;\r\n        } // Check the caller's whitelist permission.\r\n\r\n        if (isExist(_sid)) {\r\n            emit LogError(RScorr.ObjExist);\r\n            return false;\r\n        } // Check if the resource exists.\r\n\r\n        store_[_sid].author = _author;\r\n        store_[_sid].ipfs = _ipfs;\r\n        store_[_sid].initDate = block.timestamp;\r\n        store_[_sid].waive = false;\r\n        store_[_sid].thubanail = _thubanail;\r\n        store_[_sid].cover = _cover;\r\n        // store_[_sid].comments = new String[];\r\n        store_[_sid].title = _title;\r\n        emit LogNewResource(_sid, _author);\r\n\r\n        return true;\r\n    }\r\n\r\n    /**\r\n     * @dev Update the content of the resource (UDFS hash) and the pricing.\r\n     * @param _sid       bytes16  : Resource index(CResourceID).\r\n     * @param _author    address  : Declare the address of the resource.\r\n     * @param _ipfs      string   : The UDFS Hash value of the resource.\r\n     * @param _thubanail :\r\n     * @param _cover :\r\n     * @param _title :\r\n     * @return           bool     : The successful call returns true.\r\n     */\r\n    function updateResource(\r\n        bytes16 _sid,\r\n        string memory _ipfs,\r\n        address _author,\r\n        string[] memory _thubanail,\r\n        string memory _cover,\r\n        string memory _title\r\n    ) public returns (bool) {\r\n        if (whitelist_[msg.sender] != true) {\r\n            emit LogError(RScorr.Insufficient);\r\n            return false;\r\n        } // Check the caller's whitelist permission.\r\n\r\n        if (store_[_sid].author != _author) {\r\n            emit LogError(RScorr.IdCertifyFailed);\r\n            return false;\r\n        } // Verify that the resource is the caller's.\r\n\r\n        store_[_sid].ipfs = _ipfs;\r\n        store_[_sid].thubanail = _thubanail;\r\n        store_[_sid].cover = _cover;\r\n        store_[_sid].title = _title;\r\n        emit LogUpdateResource(_sid, _author, _ipfs, _thubanail, _cover);\r\n\r\n        return true;\r\n    }\r\n\r\n    /**\r\n     * @dev The author abandons a resource.\r\n     * @notice Canceling resource abandonment cannot be invoked by the author.\r\n     * @param _sid     bytes16  : Resource index(ClaimID).\r\n     * @param _author  address  : Claim the address of the resource.\r\n     * @param _waive    bool    : True means give up, false means cancel.\r\n     * @return          bool    : The successful call returns true.\r\n     */\r\n    function updateResourceWaive(bytes16 _sid, address _author, bool _waive)\r\n        public\r\n        returns (bool)\r\n    {\r\n        if (whitelist_[msg.sender] != true) {\r\n            emit LogError(RScorr.Insufficient);\r\n            return false;\r\n        } // Check the caller's whitelist permission.\r\n\r\n        if (store_[_sid].author != _author) {\r\n            emit LogError(RScorr.IdCertifyFailed);\r\n            return false;\r\n        } // Verify that the resource is the caller's.\r\n\r\n        if (store_[_sid].waive == _waive) {\r\n            emit LogError(RScorr.Insignificance);\r\n            return false;\r\n        } // The updated content should not be the same.\r\n\r\n        emit LogUpdateResourceWaive(_sid, _author, _waive);\r\n        store_[_sid].waive = _waive;\r\n        return true;\r\n    }\r\n\r\n    /**\r\n     * @dev Admin delete resources.\r\n     * @notice This function is limited to calls only by the admin or owner.\r\n     * @param _sid      bytes16  : Resource index(ClaimID).\r\n     * @return          bool     : The successful call returns true.\r\n     */\r\n    function deleteResource(bytes16 _sid) public returns (bool) {\r\n        if (msg.sender != owner && msg.sender != admin) {\r\n            emit LogError(RScorr.PermissionDenied);\r\n            return false;\r\n        } // Check if the caller is an administrator.\r\n\r\n        if (store_[_sid].author == address(0)) {\r\n            emit LogError(RScorr.ObjNotExist);\r\n            return false;\r\n        } // Check if the resource exists.\r\n\r\n        delete store_[_sid];\r\n\r\n        emit LogDeleteResource(_sid);\r\n\r\n        return true;\r\n    }\r\n\r\n    /////////////////////////\r\n    /// View\r\n    /////////////////////////\r\n\r\n    /**\r\n     * @dev Find details of a specified resource\r\n     * @notice Only allowed to be called by the address in the whitelist.\r\n     * @param _resId   bytes16 : Resource index(ClaimID).\r\n     */\r\n    function getResourceInfoByID(bytes16 _resId)\r\n        public\r\n        view\r\n        returns (Resource memory\r\n        )\r\n    {\r\n        return store_[_resId];\r\n    }\r\n\r\n    /**\r\n     * @dev Check if the resource exists\r\n     * @param _resId bytes16  : Resource index(ClaimID).\r\n     * @return            bool  : True means resources exist\r\n     */\r\n    function isExist(bytes16 _resId) public view returns (bool) {\r\n        if (store_[_resId].author != address(0) ) {\r\n            return true;\r\n        }\r\n        return false;\r\n    }\r\n\r\n\r\n    /**\r\n     * @dev Get purchase information for the resource.\r\n     * @param _resId bytes16  : Resource index(ClaimID).\r\n     * @return    gratuityNum   :\r\n     */\r\n    function getGratuityNum(bytes16 _resId)\r\n        public\r\n        view\r\n        returns (uint256 gratuityNum)\r\n    {\r\n        return store_[_resId].gratuityNum;\r\n    }\r\n\r\n    // function getLables(bytes16 _resId) public view returns (string[] memory lables) {\r\n    //     return store_[_resId].lables;\r\n    // }\r\n\r\n    // function getComments(bytes16 _resId)\r\n    //     public\r\n    //     view\r\n    //     returns (string[] comments)\r\n    // {\r\n    //     return store_[_resId].comments;\r\n    // }\r\n\r\n    function getThubanail(bytes16 _resId)\r\n        public\r\n        view\r\n        returns (string[] memory _thubanail)\r\n    {\r\n        return store_[_resId].thubanail;\r\n    }\r\n\r\n    function getCover(bytes16 _resId) public view returns (string memory cover) {\r\n        return store_[_resId].cover;\r\n    }\r\n\r\n    function getAuthor(bytes16 _resId) public view returns (address) {\r\n        return store_[_resId].author;\r\n    }\r\n\r\n    function getTitle(bytes16 _resId) public view returns (string memory title) {\r\n        return store_[_resId].title;\r\n    }\r\n\r\n    function getResourceWaive(bytes16 _resId) public view returns (bool  waive) {\r\n        return store_[_resId].waive;\r\n    }\r\n\r\n     function addResourceGratuityNum(bytes16 _resId,uint value) public {\r\n         store_[_resId].gratuityNum = SafeMath.add(store_[_resId].gratuityNum,value);\r\n    }\r\n}\r\n",
  "sourcePath": "E:\\contracts\\contracts\\ResourceDB.sol",
  "compiler": {
    "name": "solc",
    "version": "0.6.3+commit.8dda9521.Emscripten.clang"
  },
  "schemaVersion": "3.0.23",
  "updatedAt": "2020-03-07T03:13:29.892Z",
  "networkType": "ethereum",
  "devdoc": {
    "methods": {
      "acceptOwnership()": {
        "details": "Allows the newOwner address to finalize the transfer."
      },
      "constructor": {
        "details": "Constructor."
      },
      "deleteResource(bytes16)": {
        "details": "Admin delete resources.",
        "params": {
          "_sid": "bytes16  : Resource index(ClaimID)."
        },
        "returns": {
          "_0": "bool     : The successful call returns true."
        }
      },
      "getGratuityNum(bytes16)": {
        "details": "Get purchase information for the resource.",
        "params": {
          "_resId": "bytes16  : Resource index(ClaimID)."
        },
        "returns": {
          "gratuityNum": "  :"
        }
      },
      "getResourceInfoByID(bytes16)": {
        "details": "Find details of a specified resource",
        "params": {
          "_resId": "bytes16 : Resource index(ClaimID)."
        }
      },
      "insertResource(bytes16,string,address,string[],string,string)": {
        "details": "Insert a new resource.",
        "params": {
          "_author": "address  : Declare the address of the resource.",
          "_cover": ":",
          "_ipfs": "string   : The IPFS Hash value of the resource.",
          "_sid": "bytes16  : Resource index(ResourceID).",
          "_thubanail": ":",
          "_title": ":"
        },
        "returns": {
          "_0": "bool     : The successful call returns true."
        }
      },
      "isExist(bytes16)": {
        "details": "Check if the resource exists",
        "params": {
          "_resId": "bytes16  : Resource index(ClaimID)."
        },
        "returns": {
          "_0": "bool  : True means resources exist"
        }
      },
      "mangeWhiteList(address,bool)": {
        "details": "",
        "params": {
          "_allow": "bool     : truefalse",
          "_target": "address  : "
        },
        "returns": {
          "_0": "bool     : true"
        }
      },
      "mulInsertWhite(address[])": {
        "details": "",
        "params": {
          "_addresses": "address[] : "
        },
        "returns": {
          "_0": "bool      : true"
        }
      },
      "renounceOwnership()": {
        "details": "Allows the current owner to relinquish control of the contract."
      },
      "transferAdminship(address)": {
        "details": "Allows the current admin to transfer control of the contract to a newadmin.",
        "params": {
          "_newAdmin": "address : new admin address"
        }
      },
      "transferOwnership(address)": {
        "details": "Allows the current owner to transfer control of the contract to a newOwner.",
        "params": {
          "_newOwner": "The address to transfer ownership to."
        }
      },
      "updateResource(bytes16,string,address,string[],string,string)": {
        "details": "Update the content of the resource (UDFS hash) and the pricing.",
        "params": {
          "_author": "address  : Declare the address of the resource.",
          "_cover": ":",
          "_ipfs": "string   : The UDFS Hash value of the resource.",
          "_sid": "bytes16  : Resource index(CResourceID).",
          "_thubanail": ":",
          "_title": ":"
        },
        "returns": {
          "_0": "bool     : The successful call returns true."
        }
      },
      "updateResourceWaive(bytes16,address,bool)": {
        "details": "The author abandons a resource.",
        "params": {
          "_author": "address  : Claim the address of the resource.",
          "_sid": "bytes16  : Resource index(ClaimID).",
          "_waive": "bool    : True means give up, false means cancel."
        },
        "returns": {
          "_0": "bool    : The successful call returns true."
        }
      }
    }
  },
  "userdoc": {
    "methods": {
      "constructor": "W",
      "deleteResource(bytes16)": {
        "notice": "This function is limited to calls only by the admin or owner."
      },
      "getResourceInfoByID(bytes16)": {
        "notice": "Only allowed to be called by the address in the whitelist."
      },
      "mangeWhiteList(address,bool)": {
        "notice": ""
      },
      "mulInsertWhite(address[])": {
        "notice": ""
      },
      "renounceOwnership()": {
        "notice": "Renouncing to ownership will leave the contract without an owner. It will not be possible to call the functions with the `onlyOwner` modifier anymore."
      },
      "updateResourceWaive(bytes16,address,bool)": {
        "notice": "Canceling resource abandonment cannot be invoked by the author."
      }
    }
  }
}