{
  "contractName": "UserModule",
  "abi": [
    {
      "inputs": [
        {
          "internalType": "address",
          "name": "_center",
          "type": "address"
        },
        {
          "internalType": "address",
          "name": "_info",
          "type": "address"
        }
      ],
      "stateMutability": "nonpayable",
      "type": "constructor"
    },
    {
      "anonymous": false,
      "inputs": [
        {
          "indexed": false,
          "internalType": "bool",
          "name": "succ",
          "type": "bool"
        },
        {
          "indexed": false,
          "internalType": "string",
          "name": "info",
          "type": "string"
        },
        {
          "indexed": false,
          "internalType": "bytes32",
          "name": "_orderID",
          "type": "bytes32"
        }
      ],
      "name": "LogGratuity",
      "type": "event"
    },
    {
      "inputs": [],
      "name": "Center_",
      "outputs": [
        {
          "internalType": "contract CenterControl",
          "name": "",
          "type": "address"
        }
      ],
      "stateMutability": "view",
      "type": "function",
      "constant": true
    },
    {
      "inputs": [],
      "name": "Info_",
      "outputs": [
        {
          "internalType": "contract InfoDB",
          "name": "",
          "type": "address"
        }
      ],
      "stateMutability": "view",
      "type": "function",
      "constant": true
    },
    {
      "inputs": [
        {
          "internalType": "bytes16",
          "name": "_resId",
          "type": "bytes16"
        },
        {
          "internalType": "uint256",
          "name": "value",
          "type": "uint256"
        }
      ],
      "name": "buy",
      "outputs": [],
      "stateMutability": "payable",
      "type": "function",
      "payable": true
    },
    {
      "inputs": [],
      "name": "myGoods",
      "outputs": [
        {
          "internalType": "bytes16[]",
          "name": "",
          "type": "bytes16[]"
        }
      ],
      "stateMutability": "view",
      "type": "function",
      "constant": true
    },
    {
      "inputs": [],
      "name": "myOrders",
      "outputs": [
        {
          "internalType": "bytes32[]",
          "name": "",
          "type": "bytes32[]"
        }
      ],
      "stateMutability": "view",
      "type": "function",
      "constant": true
    },
    {
      "inputs": [
        {
          "internalType": "bytes32",
          "name": "_orderId",
          "type": "bytes32"
        }
      ],
      "name": "findOrderInfo",
      "outputs": [
        {
          "internalType": "uint256",
          "name": "time",
          "type": "uint256"
        },
        {
          "internalType": "uint256",
          "name": "value",
          "type": "uint256"
        },
        {
          "internalType": "address",
          "name": "author",
          "type": "address"
        },
        {
          "internalType": "address",
          "name": "payer",
          "type": "address"
        },
        {
          "internalType": "bytes16",
          "name": "resId",
          "type": "bytes16"
        }
      ],
      "stateMutability": "view",
      "type": "function",
      "constant": true
    }
  ],
  "bytecode": "0x608060405234801561001057600080fd5b50604051610d39380380610d398339818101604052604081101561003357600080fd5b810190808051906020019092919080519060200190929190505050816000806101000a81548173ffffffffffffffffffffffffffffffffffffffff021916908373ffffffffffffffffffffffffffffffffffffffff16021790555080600160006101000a81548173ffffffffffffffffffffffffffffffffffffffff021916908373ffffffffffffffffffffffffffffffffffffffff1602179055505050610c59806100e06000396000f3fe6080604052600436106100555760003560e01c8063105bc5461461005a5780632e090f28146100c6578063555ef0d41461011d57806355e4169814610174578063809533741461025d578063f4959d06146102a8575b600080fd5b34801561006657600080fd5b5061006f610314565b6040518080602001828103825283818151815260200191508051906020019060200280838360005b838110156100b2578082015181840152602081019050610097565b505050509050019250505060405180910390f35b3480156100d257600080fd5b506100db61048f565b604051808273ffffffffffffffffffffffffffffffffffffffff1673ffffffffffffffffffffffffffffffffffffffff16815260200191505060405180910390f35b34801561012957600080fd5b506101326104b4565b604051808273ffffffffffffffffffffffffffffffffffffffff1673ffffffffffffffffffffffffffffffffffffffff16815260200191505060405180910390f35b34801561018057600080fd5b506101ad6004803603602081101561019757600080fd5b81019080803590602001909291905050506104da565b604051808681526020018581526020018473ffffffffffffffffffffffffffffffffffffffff1673ffffffffffffffffffffffffffffffffffffffff1681526020018373ffffffffffffffffffffffffffffffffffffffff1673ffffffffffffffffffffffffffffffffffffffff168152602001826fffffffffffffffffffffffffffffffff19166fffffffffffffffffffffffffffffffff191681526020019550505050505060405180910390f35b6102a66004803603604081101561027357600080fd5b8101908080356fffffffffffffffffffffffffffffffff19169060200190929190803590602001909291905050506105ca565b005b3480156102b457600080fd5b506102bd610aa8565b6040518080602001828103825283818151815260200191508051906020019060200280838360005b838110156103005780820151818401526020810190506102e5565b505050509050019250505060405180910390f35b6060600160009054906101000a900473ffffffffffffffffffffffffffffffffffffffff1673ffffffffffffffffffffffffffffffffffffffff166318f1c709336040518263ffffffff1660e01b8152600401808273ffffffffffffffffffffffffffffffffffffffff1673ffffffffffffffffffffffffffffffffffffffff16815260200191505060006040518083038186803b1580156103b557600080fd5b505afa1580156103c9573d6000803e3d6000fd5b505050506040513d6000823e3d601f19601f8201168201806040525060208110156103f357600080fd5b810190808051604051939291908464010000000082111561041357600080fd5b8382019150602082018581111561042957600080fd5b825186602082028301116401000000008211171561044657600080fd5b8083526020830192505050908051906020019060200280838360005b8381101561047d578082015181840152602081019050610462565b50505050905001604052505050905090565b6000809054906101000a900473ffffffffffffffffffffffffffffffffffffffff1681565b600160009054906101000a900473ffffffffffffffffffffffffffffffffffffffff1681565b60008060008060008060009054906101000a900473ffffffffffffffffffffffffffffffffffffffff1673ffffffffffffffffffffffffffffffffffffffff1663024663f7876040518263ffffffff1660e01b81526004018082815260200191505060a06040518083038186803b15801561055457600080fd5b505afa158015610568573d6000803e3d6000fd5b505050506040513d60a081101561057e57600080fd5b8101908080519060200190929190805190602001909291908051906020019092919080519060200190929190805190602001909291905050509450945094509450945091939590929450565b60008060009054906101000a900473ffffffffffffffffffffffffffffffffffffffff1673ffffffffffffffffffffffffffffffffffffffff1663d035360b846040518263ffffffff1660e01b815260040180826fffffffffffffffffffffffffffffffff19166fffffffffffffffffffffffffffffffff1916815260200191505060206040518083038186803b15801561066457600080fd5b505afa158015610678573d6000803e3d6000fd5b505050506040513d602081101561068e57600080fd5b810190808051906020019092919050505090508073ffffffffffffffffffffffffffffffffffffffff166108fc839081150290604051600060405180830381858888f193505050501580156106e7573d6000803e3d6000fd5b506000809050606060405180602001604052806000815250905060008060001b90506000809054906101000a900473ffffffffffffffffffffffffffffffffffffffff1673ffffffffffffffffffffffffffffffffffffffff166305cc9a61858888336040518563ffffffff1660e01b8152600401808573ffffffffffffffffffffffffffffffffffffffff1673ffffffffffffffffffffffffffffffffffffffff168152602001846fffffffffffffffffffffffffffffffff19166fffffffffffffffffffffffffffffffff191681526020018381526020018273ffffffffffffffffffffffffffffffffffffffff1673ffffffffffffffffffffffffffffffffffffffff168152602001945050505050600060405180830381600087803b15801561081357600080fd5b505af1158015610827573d6000803e3d6000fd5b505050506040513d6000823e3d601f19601f82011682018060405250606081101561085157600080fd5b81019080805190602001909291908051604051939291908464010000000082111561087b57600080fd5b8382019150602082018581111561089157600080fd5b82518660018202830111640100000000821117156108ae57600080fd5b8083526020830192505050908051906020019080838360005b838110156108e25780820151818401526020810190506108c7565b50505050905090810190601f16801561090f5780820380516001836020036101000a031916815260200191505b506040526020018051906020019092919050505080935081945082955050505082156109f0576000809054906101000a900473ffffffffffffffffffffffffffffffffffffffff1673ffffffffffffffffffffffffffffffffffffffff1663157ffbe987876040518363ffffffff1660e01b815260040180836fffffffffffffffffffffffffffffffff19166fffffffffffffffffffffffffffffffff1916815260200182815260200192505050600060405180830381600087803b1580156109d757600080fd5b505af11580156109eb573d6000803e3d6000fd5b505050505b7f49b16c6516d826f435605e5782cc88ef22c980d73c8e8c5713d64835c5c3749b838383604051808415151515815260200180602001838152602001828103825284818151815260200191508051906020019080838360005b83811015610a64578082015181840152602081019050610a49565b50505050905090810190601f168015610a915780820380516001836020036101000a031916815260200191505b5094505050505060405180910390a1505050505050565b6060600160009054906101000a900473ffffffffffffffffffffffffffffffffffffffff1673ffffffffffffffffffffffffffffffffffffffff166369a32767336040518263ffffffff1660e01b8152600401808273ffffffffffffffffffffffffffffffffffffffff1673ffffffffffffffffffffffffffffffffffffffff16815260200191505060006040518083038186803b158015610b4957600080fd5b505afa158015610b5d573d6000803e3d6000fd5b505050506040513d6000823e3d601f19601f820116820180604052506020811015610b8757600080fd5b8101908080516040519392919084640100000000821115610ba757600080fd5b83820191506020820185811115610bbd57600080fd5b8251866020820283011164010000000082111715610bda57600080fd5b8083526020830192505050908051906020019060200280838360005b83811015610c11578082015181840152602081019050610bf6565b5050505090500160405250505090509056fea2646970667358221220d83eda724fc56dce6b65fd3db5ca45a16b0bb5b71e8f4912beb773166ae7539164736f6c63430006030033",
  "source": "pragma solidity >=0.5.12 <0.7.0;\r\n\r\nimport \"./SafeMath.sol\";\r\nimport \"./CenterControl.sol\";\r\nimport \"./InfoDB.sol\";\r\n\r\ncontract UserModule {\r\n    using SafeMath for uint256;\r\n\r\n    CenterControl public Center_;\r\n    InfoDB public Info_;\r\n\r\n\r\n    event LogGratuity(bool succ,string  info, bytes32 _orderID);\r\n    /**\r\n     * @dev 构造函数\r\n     * @param _center address : 中心合约地址\r\n     * @param _info   address : 信息数据合约地址\r\n     */\r\n    constructor(address _center, address _info) public {\r\n        Center_ = CenterControl(_center);\r\n        Info_ = InfoDB(_info);\r\n    }\r\n\r\n    /**\r\n     * @dev 打赏视频\r\n     */\r\n    function buy(bytes16 _resId,uint256 value) public payable {\r\n        address  _author = Center_.getResourceAutherInfo(_resId);\r\n        payable(_author).transfer(value);\r\n        bool succ = false;\r\n        string memory info = \"\";\r\n        bytes32 _orderID = 0;\r\n        (succ,info,_orderID) = Center_.createOrder(_author,_resId,value,msg.sender);\r\n        if (succ) {\r\n             Center_.addResourceGratuityNum(_resId,value);\r\n        }\r\n        emit LogGratuity(succ,info,_orderID);\r\n    }\r\n\r\n    /////////////////////////\r\n    /// View\r\n    /////////////////////////\r\n\r\n    /**\r\n     * @dev 查询用户自己资源\r\n     * @return claims bytes16[] : 由claimID组成的列表\r\n     */\r\n    function myGoods() public view returns (bytes16[] memory) {\r\n        return Info_.getResourceByAuthor(msg.sender);\r\n    }\r\n\r\n    /**\r\n     * @dev 查询用户自己所有的订单\r\n     * @return claims bytes32[] : 由orderID组成的列表\r\n     */\r\n    function myOrders() public view returns (bytes32[] memory) {\r\n        return Info_.getOrdersByUser(msg.sender);\r\n    }\r\n\r\n    /**\r\n     * @dev 获取订单的详细信息\r\n     * @param _orderId bytes32  : 订单ID\r\n     */\r\n    function findOrderInfo(bytes32 _orderId)\r\n        public\r\n        view\r\n        returns (\r\n            uint256 time,\r\n            uint256 value,\r\n            address author,\r\n            address payer,\r\n            bytes16 resId\r\n        )\r\n    {\r\n        return Center_.getOrderDetails(_orderId);\r\n    }\r\n\r\n}\r\n",
  "sourcePath": "E:\\contracts\\contracts\\UserModule.sol",
  "compiler": {
    "name": "solc",
    "version": "0.6.3+commit.8dda9521.Emscripten.clang"
  },
  "schemaVersion": "3.0.23",
  "updatedAt": "2020-04-21T09:45:19.006Z",
  "networkType": "ethereum",
  "devdoc": {
    "methods": {
      "buy(bytes16,uint256)": {
        "details": "打赏视频"
      },
      "constructor": {
        "details": "构造函数",
        "params": {
          "_center": "address : 中心合约地址",
          "_info": "address : 信息数据合约地址"
        }
      },
      "findOrderInfo(bytes32)": {
        "details": "获取订单的详细信息",
        "params": {
          "_orderId": "bytes32  : 订单ID"
        }
      },
      "myGoods()": {
        "details": "查询用户自己资源",
        "returns": {
          "_0": "claims bytes16[] : 由claimID组成的列表"
        }
      },
      "myOrders()": {
        "details": "查询用户自己所有的订单",
        "returns": {
          "_0": "claims bytes32[] : 由orderID组成的列表"
        }
      }
    }
  },
  "userdoc": {
    "methods": {}
  }
}