{
  "contractName": "UserModule",
  "abi": [
    {
      "inputs": [
        {
          "internalType": "address",
          "name": "_center",
          "type": "address"
        },
        {
          "internalType": "address",
          "name": "_info",
          "type": "address"
        }
      ],
      "stateMutability": "nonpayable",
      "type": "constructor"
    },
    {
      "inputs": [],
      "name": "Center_",
      "outputs": [
        {
          "internalType": "contract CenterControl",
          "name": "",
          "type": "address"
        }
      ],
      "stateMutability": "view",
      "type": "function",
      "constant": true
    },
    {
      "inputs": [],
      "name": "Info_",
      "outputs": [
        {
          "internalType": "contract InfoDB",
          "name": "",
          "type": "address"
        }
      ],
      "stateMutability": "view",
      "type": "function",
      "constant": true
    },
    {
      "inputs": [
        {
          "internalType": "bytes16",
          "name": "_resId",
          "type": "bytes16"
        },
        {
          "internalType": "uint256",
          "name": "value",
          "type": "uint256"
        }
      ],
      "name": "buy",
      "outputs": [
        {
          "internalType": "bool",
          "name": "",
          "type": "bool"
        }
      ],
      "stateMutability": "payable",
      "type": "function",
      "payable": true
    },
    {
      "inputs": [],
      "name": "myGoods",
      "outputs": [
        {
          "internalType": "bytes16[]",
          "name": "",
          "type": "bytes16[]"
        }
      ],
      "stateMutability": "view",
      "type": "function",
      "constant": true
    },
    {
      "inputs": [],
      "name": "myOrders",
      "outputs": [
        {
          "internalType": "bytes32[]",
          "name": "",
          "type": "bytes32[]"
        }
      ],
      "stateMutability": "view",
      "type": "function",
      "constant": true
    },
    {
      "inputs": [
        {
          "internalType": "bytes32",
          "name": "_orderId",
          "type": "bytes32"
        }
      ],
      "name": "findOrderInfo",
      "outputs": [
        {
          "internalType": "uint256",
          "name": "time",
          "type": "uint256"
        },
        {
          "internalType": "uint256",
          "name": "value",
          "type": "uint256"
        },
        {
          "internalType": "address",
          "name": "author",
          "type": "address"
        },
        {
          "internalType": "address",
          "name": "payer",
          "type": "address"
        },
        {
          "internalType": "bytes16",
          "name": "resId",
          "type": "bytes16"
        }
      ],
      "stateMutability": "view",
      "type": "function",
      "constant": true
    }
  ],
  "bytecode": "0x608060405234801561001057600080fd5b50604051610bce380380610bce8339818101604052604081101561003357600080fd5b810190808051906020019092919080519060200190929190505050816000806101000a81548173ffffffffffffffffffffffffffffffffffffffff021916908373ffffffffffffffffffffffffffffffffffffffff16021790555080600160006101000a81548173ffffffffffffffffffffffffffffffffffffffff021916908373ffffffffffffffffffffffffffffffffffffffff1602179055505050610aee806100e06000396000f3fe6080604052600436106100555760003560e01c8063105bc5461461005a5780632e090f28146100c6578063555ef0d41461011d57806355e4169814610174578063809533741461025d578063f4959d06146102c0575b600080fd5b34801561006657600080fd5b5061006f61032c565b6040518080602001828103825283818151815260200191508051906020019060200280838360005b838110156100b2578082015181840152602081019050610097565b505050509050019250505060405180910390f35b3480156100d257600080fd5b506100db6104a7565b604051808273ffffffffffffffffffffffffffffffffffffffff1673ffffffffffffffffffffffffffffffffffffffff16815260200191505060405180910390f35b34801561012957600080fd5b506101326104cc565b604051808273ffffffffffffffffffffffffffffffffffffffff1673ffffffffffffffffffffffffffffffffffffffff16815260200191505060405180910390f35b34801561018057600080fd5b506101ad6004803603602081101561019757600080fd5b81019080803590602001909291905050506104f2565b604051808681526020018581526020018473ffffffffffffffffffffffffffffffffffffffff1673ffffffffffffffffffffffffffffffffffffffff1681526020018373ffffffffffffffffffffffffffffffffffffffff1673ffffffffffffffffffffffffffffffffffffffff168152602001826fffffffffffffffffffffffffffffffff19166fffffffffffffffffffffffffffffffff191681526020019550505050505060405180910390f35b6102a66004803603604081101561027357600080fd5b8101908080356fffffffffffffffffffffffffffffffff19169060200190929190803590602001909291905050506105e2565b604051808215151515815260200191505060405180910390f35b3480156102cc57600080fd5b506102d561093d565b6040518080602001828103825283818151815260200191508051906020019060200280838360005b838110156103185780820151818401526020810190506102fd565b505050509050019250505060405180910390f35b6060600160009054906101000a900473ffffffffffffffffffffffffffffffffffffffff1673ffffffffffffffffffffffffffffffffffffffff166318f1c709336040518263ffffffff1660e01b8152600401808273ffffffffffffffffffffffffffffffffffffffff1673ffffffffffffffffffffffffffffffffffffffff16815260200191505060006040518083038186803b1580156103cd57600080fd5b505afa1580156103e1573d6000803e3d6000fd5b505050506040513d6000823e3d601f19601f82011682018060405250602081101561040b57600080fd5b810190808051604051939291908464010000000082111561042b57600080fd5b8382019150602082018581111561044157600080fd5b825186602082028301116401000000008211171561045e57600080fd5b8083526020830192505050908051906020019060200280838360005b8381101561049557808201518184015260208101905061047a565b50505050905001604052505050905090565b6000809054906101000a900473ffffffffffffffffffffffffffffffffffffffff1681565b600160009054906101000a900473ffffffffffffffffffffffffffffffffffffffff1681565b60008060008060008060009054906101000a900473ffffffffffffffffffffffffffffffffffffffff1673ffffffffffffffffffffffffffffffffffffffff1663024663f7876040518263ffffffff1660e01b81526004018082815260200191505060a06040518083038186803b15801561056c57600080fd5b505afa158015610580573d6000803e3d6000fd5b505050506040513d60a081101561059657600080fd5b8101908080519060200190929190805190602001909291908051906020019092919080519060200190929190805190602001909291905050509450945094509450945091939590929450565b6000806000809054906101000a900473ffffffffffffffffffffffffffffffffffffffff1673ffffffffffffffffffffffffffffffffffffffff1663d035360b856040518263ffffffff1660e01b815260040180826fffffffffffffffffffffffffffffffff19166fffffffffffffffffffffffffffffffff1916815260200191505060206040518083038186803b15801561067d57600080fd5b505afa158015610691573d6000803e3d6000fd5b505050506040513d60208110156106a757600080fd5b810190808051906020019092919050505090508073ffffffffffffffffffffffffffffffffffffffff166108fc849081150290604051600060405180830381858888f19350505050158015610700573d6000803e3d6000fd5b5060008090506000809054906101000a900473ffffffffffffffffffffffffffffffffffffffff1673ffffffffffffffffffffffffffffffffffffffff166305cc9a61838787336040518563ffffffff1660e01b8152600401808573ffffffffffffffffffffffffffffffffffffffff1673ffffffffffffffffffffffffffffffffffffffff168152602001846fffffffffffffffffffffffffffffffff19166fffffffffffffffffffffffffffffffff191681526020018381526020018273ffffffffffffffffffffffffffffffffffffffff1673ffffffffffffffffffffffffffffffffffffffff168152602001945050505050600060405180830381600087803b15801561081057600080fd5b505af1158015610824573d6000803e3d6000fd5b505050506040513d6000823e3d601f19601f82011682018060405250604081101561084e57600080fd5b81019080805190602001909291908051604051939291908464010000000082111561087857600080fd5b8382019150602082018581111561088e57600080fd5b82518660018202830111640100000000821117156108ab57600080fd5b8083526020830192505050908051906020019080838360005b838110156108df5780820151818401526020810190506108c4565b50505050905090810190601f16801561090c5780820380516001836020036101000a031916815260200191505b50604052505050508091505060011515811515141561093057600192505050610937565b6000925050505b92915050565b6060600160009054906101000a900473ffffffffffffffffffffffffffffffffffffffff1673ffffffffffffffffffffffffffffffffffffffff166369a32767336040518263ffffffff1660e01b8152600401808273ffffffffffffffffffffffffffffffffffffffff1673ffffffffffffffffffffffffffffffffffffffff16815260200191505060006040518083038186803b1580156109de57600080fd5b505afa1580156109f2573d6000803e3d6000fd5b505050506040513d6000823e3d601f19601f820116820180604052506020811015610a1c57600080fd5b8101908080516040519392919084640100000000821115610a3c57600080fd5b83820191506020820185811115610a5257600080fd5b8251866020820283011164010000000082111715610a6f57600080fd5b8083526020830192505050908051906020019060200280838360005b83811015610aa6578082015181840152602081019050610a8b565b5050505090500160405250505090509056fea2646970667358221220e82179caeb8969e9fc2c04ba70b7e32900776c90a30514533e091baecbb3149c64736f6c63430006030033",
  "source": "pragma solidity >=0.5.12 <0.7.0;\r\n\r\nimport \"./SafeMath.sol\";\r\nimport \"./CenterControl.sol\";\r\nimport \"./InfoDB.sol\";\r\n\r\ncontract UserModule {\r\n    using SafeMath for uint256;\r\n\r\n    CenterControl public Center_;\r\n    InfoDB public Info_;\r\n\r\n    /**\r\n     * @dev 构造函数\r\n     * @param _center address : 中心合约地址\r\n     * @param _info   address : 信息数据合约地址\r\n     */\r\n    constructor(address _center, address _info) public {\r\n        Center_ = CenterControl(_center);\r\n        Info_ = InfoDB(_info);\r\n    }\r\n\r\n    /**\r\n     * @dev 打赏视频\r\n     * @param _resId bytes16 : 资源id\r\n     * @return         bool    : 操作成功返回true\r\n     */\r\n    function buy(bytes16 _resId,uint256 value) public payable returns (bool) {\r\n        address  _author = Center_.getResourceAutherInfo(_resId);\r\n        payable(_author).transfer(value);\r\n        bool succ = false;\r\n        (succ,) = Center_.createOrder(_author,_resId,value,msg.sender);\r\n        if (succ == true) {\r\n            return true;\r\n        } else {\r\n            return false;\r\n        }\r\n    }\r\n\r\n    /////////////////////////\r\n    /// View\r\n    /////////////////////////\r\n\r\n    /**\r\n     * @dev 查询用户自己资源\r\n     * @return claims bytes16[] : 由claimID组成的列表\r\n     */\r\n    function myGoods() public view returns (bytes16[] memory) {\r\n        return Info_.getResourceByAuthor(msg.sender);\r\n    }\r\n\r\n    /**\r\n     * @dev 查询用户自己所有的订单\r\n     * @return claims bytes32[] : 由orderID组成的列表\r\n     */\r\n    function myOrders() public view returns (bytes32[] memory) {\r\n        return Info_.getOrdersByUser(msg.sender);\r\n    }\r\n\r\n    /**\r\n     * @dev 获取订单的详细信息\r\n     * @param _orderId bytes32  : 订单ID\r\n     */\r\n    function findOrderInfo(bytes32 _orderId)\r\n        public\r\n        view\r\n        returns (\r\n            uint256 time,\r\n            uint256 value,\r\n            address author,\r\n            address payer,\r\n            bytes16 resId\r\n        )\r\n    {\r\n        return Center_.getOrderDetails(_orderId);\r\n    }\r\n\r\n}\r\n",
  "sourcePath": "E:\\contracts\\contracts\\UserModule.sol",
  "compiler": {
    "name": "solc",
    "version": "0.6.3+commit.8dda9521.Emscripten.clang"
  },
  "schemaVersion": "3.0.23",
  "updatedAt": "2020-03-07T03:13:30.086Z",
  "networkType": "ethereum",
  "devdoc": {
    "methods": {
      "buy(bytes16,uint256)": {
        "details": "打赏视频",
        "params": {
          "_resId": "bytes16 : 资源id"
        },
        "returns": {
          "_0": "bool    : 操作成功返回true"
        }
      },
      "constructor": {
        "details": "构造函数",
        "params": {
          "_center": "address : 中心合约地址",
          "_info": "address : 信息数据合约地址"
        }
      },
      "findOrderInfo(bytes32)": {
        "details": "获取订单的详细信息",
        "params": {
          "_orderId": "bytes32  : 订单ID"
        }
      },
      "myGoods()": {
        "details": "查询用户自己资源",
        "returns": {
          "_0": "claims bytes16[] : 由claimID组成的列表"
        }
      },
      "myOrders()": {
        "details": "查询用户自己所有的订单",
        "returns": {
          "_0": "claims bytes32[] : 由orderID组成的列表"
        }
      }
    }
  },
  "userdoc": {
    "methods": {}
  }
}