{
  "contractName": "WhiteMange",
  "abi": [
    {
      "anonymous": false,
      "inputs": [
        {
          "indexed": false,
          "internalType": "string",
          "name": "info",
          "type": "string"
        },
        {
          "indexed": false,
          "internalType": "address",
          "name": "_resId",
          "type": "address"
        },
        {
          "indexed": true,
          "internalType": "address",
          "name": "_author",
          "type": "address"
        },
        {
          "indexed": false,
          "internalType": "address",
          "name": "who",
          "type": "address"
        }
      ],
      "name": "LogAddress",
      "type": "event"
    },
    {
      "anonymous": false,
      "inputs": [
        {
          "indexed": false,
          "internalType": "string",
          "name": "",
          "type": "string"
        },
        {
          "indexed": false,
          "internalType": "address",
          "name": "",
          "type": "address"
        },
        {
          "indexed": false,
          "internalType": "address",
          "name": "",
          "type": "address"
        }
      ],
      "name": "LogAddress",
      "type": "event"
    },
    {
      "anonymous": false,
      "inputs": [
        {
          "indexed": true,
          "internalType": "address",
          "name": "_old",
          "type": "address"
        },
        {
          "indexed": true,
          "internalType": "address",
          "name": "_new",
          "type": "address"
        }
      ],
      "name": "LogAdminshipTransferred",
      "type": "event"
    },
    {
      "anonymous": false,
      "inputs": [
        {
          "indexed": false,
          "internalType": "enum ErrorModule.RScorr",
          "name": "_errorNumber",
          "type": "uint8"
        }
      ],
      "name": "LogError",
      "type": "event"
    },
    {
      "anonymous": false,
      "inputs": [
        {
          "indexed": true,
          "internalType": "address",
          "name": "previousOwner",
          "type": "address"
        }
      ],
      "name": "LogOwnershipRenounced",
      "type": "event"
    },
    {
      "anonymous": false,
      "inputs": [
        {
          "indexed": true,
          "internalType": "address",
          "name": "previousOwner",
          "type": "address"
        },
        {
          "indexed": true,
          "internalType": "address",
          "name": "newOwner",
          "type": "address"
        }
      ],
      "name": "LogOwnershipTransferred",
      "type": "event"
    },
    {
      "anonymous": false,
      "inputs": [
        {
          "indexed": true,
          "internalType": "address",
          "name": "_target",
          "type": "address"
        },
        {
          "indexed": false,
          "internalType": "bool",
          "name": "_allow",
          "type": "bool"
        }
      ],
      "name": "LogWhileChanged",
      "type": "event"
    },
    {
      "anonymous": false,
      "inputs": [
        {
          "indexed": false,
          "internalType": "string",
          "name": "info",
          "type": "string"
        }
      ],
      "name": "info",
      "type": "event"
    },
    {
      "inputs": [],
      "name": "acceptOwnership",
      "outputs": [],
      "stateMutability": "nonpayable",
      "type": "function"
    },
    {
      "inputs": [],
      "name": "admin",
      "outputs": [
        {
          "internalType": "address",
          "name": "",
          "type": "address"
        }
      ],
      "stateMutability": "view",
      "type": "function"
    },
    {
      "inputs": [],
      "name": "newOwner",
      "outputs": [
        {
          "internalType": "address",
          "name": "",
          "type": "address"
        }
      ],
      "stateMutability": "view",
      "type": "function"
    },
    {
      "inputs": [],
      "name": "owner",
      "outputs": [
        {
          "internalType": "address",
          "name": "",
          "type": "address"
        }
      ],
      "stateMutability": "view",
      "type": "function"
    },
    {
      "inputs": [],
      "name": "renounceOwnership",
      "outputs": [],
      "stateMutability": "nonpayable",
      "type": "function"
    },
    {
      "inputs": [
        {
          "internalType": "address",
          "name": "_newAdmin",
          "type": "address"
        }
      ],
      "name": "transferAdminship",
      "outputs": [],
      "stateMutability": "nonpayable",
      "type": "function"
    },
    {
      "inputs": [
        {
          "internalType": "address",
          "name": "_newOwner",
          "type": "address"
        }
      ],
      "name": "transferOwnership",
      "outputs": [],
      "stateMutability": "nonpayable",
      "type": "function"
    },
    {
      "inputs": [
        {
          "internalType": "address",
          "name": "",
          "type": "address"
        }
      ],
      "name": "whitelist_",
      "outputs": [
        {
          "internalType": "bool",
          "name": "",
          "type": "bool"
        }
      ],
      "stateMutability": "view",
      "type": "function"
    },
    {
      "inputs": [
        {
          "internalType": "address",
          "name": "_target",
          "type": "address"
        },
        {
          "internalType": "bool",
          "name": "_allow",
          "type": "bool"
        }
      ],
      "name": "mangeWhiteList",
      "outputs": [
        {
          "internalType": "bool",
          "name": "",
          "type": "bool"
        }
      ],
      "stateMutability": "nonpayable",
      "type": "function"
    },
    {
      "inputs": [
        {
          "internalType": "address[]",
          "name": "_addresses",
          "type": "address[]"
        }
      ],
      "name": "mulInsertWhite",
      "outputs": [
        {
          "internalType": "bool",
          "name": "",
          "type": "bool"
        }
      ],
      "stateMutability": "nonpayable",
      "type": "function"
    }
  ],
  "bytecode": "0x6080604052336000806101000a81548173ffffffffffffffffffffffffffffffffffffffff021916908373ffffffffffffffffffffffffffffffffffffffff16021790555033600260006101000a81548173ffffffffffffffffffffffffffffffffffffffff021916908373ffffffffffffffffffffffffffffffffffffffff1602179055506000809054906101000a900473ffffffffffffffffffffffffffffffffffffffff1673ffffffffffffffffffffffffffffffffffffffff167f9e6965ca244a67ad615b5114db3886405a40a12f1190493f8e9201020885af1d600260009054906101000a900473ffffffffffffffffffffffffffffffffffffffff163360405180806020018473ffffffffffffffffffffffffffffffffffffffff1673ffffffffffffffffffffffffffffffffffffffff1681526020018373ffffffffffffffffffffffffffffffffffffffff1673ffffffffffffffffffffffffffffffffffffffff1681526020018281038252600a8152602001807f636f6e73747275636f7200000000000000000000000000000000000000000000815250602001935050505060405180910390a26112b3806101be6000396000f3fe608060405234801561001057600080fd5b506004361061009e5760003560e01c8063a8e1fba311610066578063a8e1fba314610215578063d4ee1d901461027d578063e56a7c5d146102c7578063f2fde38b14610323578063f851a440146103675761009e565b806335e60e89146100a35780635be7cc1614610173578063715018a6146101b757806379ba5097146101c15780638da5cb5b146101cb575b600080fd5b610159600480360360208110156100b957600080fd5b81019080803590602001906401000000008111156100d657600080fd5b8201836020820111156100e857600080fd5b8035906020019184602083028401116401000000008311171561010a57600080fd5b919080806020026020016040519081016040528093929190818152602001838360200280828437600081840152601f19601f8201169050808301925050505050505091929192905050506103b1565b604051808215151515815260200191505060405180910390f35b6101b56004803603602081101561018957600080fd5b81019080803573ffffffffffffffffffffffffffffffffffffffff169060200190929190505050610660565b005b6101bf6108fd565b005b6101c9610af0565b005b6101d3610d80565b604051808273ffffffffffffffffffffffffffffffffffffffff1673ffffffffffffffffffffffffffffffffffffffff16815260200191505060405180910390f35b6102636004803603604081101561022b57600080fd5b81019080803573ffffffffffffffffffffffffffffffffffffffff169060200190929190803515159060200190929190505050610da5565b604051808215151515815260200191505060405180910390f35b610285610fde565b604051808273ffffffffffffffffffffffffffffffffffffffff1673ffffffffffffffffffffffffffffffffffffffff16815260200191505060405180910390f35b610309600480360360208110156102dd57600080fd5b81019080803573ffffffffffffffffffffffffffffffffffffffff169060200190929190505050611004565b604051808215151515815260200191505060405180910390f35b6103656004803603602081101561033957600080fd5b81019080803573ffffffffffffffffffffffffffffffffffffffff169060200190929190505050611024565b005b61036f611257565b604051808273ffffffffffffffffffffffffffffffffffffffff1673ffffffffffffffffffffffffffffffffffffffff16815260200191505060405180910390f35b60008060009054906101000a900473ffffffffffffffffffffffffffffffffffffffff1673ffffffffffffffffffffffffffffffffffffffff163373ffffffffffffffffffffffffffffffffffffffff161415801561045e5750600260009054906101000a900473ffffffffffffffffffffffffffffffffffffffff1673ffffffffffffffffffffffffffffffffffffffff163373ffffffffffffffffffffffffffffffffffffffff1614155b156104b2577f0489f2369368f4688acd012107ac5a7d98ca739b913449d852f35d871e433cc3600f6040518082601d81111561049657fe5b60ff16815260200191505060405180910390a16000905061065b565b60008090505b825181101561065557600073ffffffffffffffffffffffffffffffffffffffff168382815181106104e557fe5b602002602001015173ffffffffffffffffffffffffffffffffffffffff161415610577576040517f08c379a000000000000000000000000000000000000000000000000000000000815260040180806020018281038252600f8152602001807f61646472657373206973206e756c6c000000000000000000000000000000000081525060200191505060405180910390fd5b60016003600085848151811061058957fe5b602002602001015173ffffffffffffffffffffffffffffffffffffffff1673ffffffffffffffffffffffffffffffffffffffff16815260200190815260200160002060006101000a81548160ff0219169083151502179055508281815181106105ee57fe5b602002602001015173ffffffffffffffffffffffffffffffffffffffff167f9b3b880c67f4fab4215412179771cffd326a045e6016a7e363eb38460f7e91766001604051808215151515815260200191505060405180910390a280806001019150506104b8565b50600190505b919050565b6000809054906101000a900473ffffffffffffffffffffffffffffffffffffffff1673ffffffffffffffffffffffffffffffffffffffff163373ffffffffffffffffffffffffffffffffffffffff1614806107085750600260009054906101000a900473ffffffffffffffffffffffffffffffffffffffff1673ffffffffffffffffffffffffffffffffffffffff163373ffffffffffffffffffffffffffffffffffffffff16145b156107cf578073ffffffffffffffffffffffffffffffffffffffff16600260009054906101000a900473ffffffffffffffffffffffffffffffffffffffff1673ffffffffffffffffffffffffffffffffffffffff167ff73aa4459d935dbacd9313fffe485016147551d99ef401461704cd39e6e9028760405160405180910390a380600260006101000a81548173ffffffffffffffffffffffffffffffffffffffff021916908373ffffffffffffffffffffffffffffffffffffffff1602179055506108fa565b6000809054906101000a900473ffffffffffffffffffffffffffffffffffffffff1673ffffffffffffffffffffffffffffffffffffffff167f9e6965ca244a67ad615b5114db3886405a40a12f1190493f8e9201020885af1d600260009054906101000a900473ffffffffffffffffffffffffffffffffffffffff163360405180806020018473ffffffffffffffffffffffffffffffffffffffff1673ffffffffffffffffffffffffffffffffffffffff1681526020018373ffffffffffffffffffffffffffffffffffffffff1673ffffffffffffffffffffffffffffffffffffffff168152602001828103825260098152602001807f6f6e6c7941646d696e0000000000000000000000000000000000000000000000815250602001935050505060405180910390a25b50565b6000809054906101000a900473ffffffffffffffffffffffffffffffffffffffff1673ffffffffffffffffffffffffffffffffffffffff163373ffffffffffffffffffffffffffffffffffffffff1614156109fc576000809054906101000a900473ffffffffffffffffffffffffffffffffffffffff1673ffffffffffffffffffffffffffffffffffffffff167f2dde1bc8b58ef192e7df3e7a354521d958331021e450d544346b936936916ef460405160405180910390a260008060006101000a81548173ffffffffffffffffffffffffffffffffffffffff021916908373ffffffffffffffffffffffffffffffffffffffff160217905550610aee565b7f6b26c3fc447c71078386bc5ad946c760ce605d2bc61b762901400eb9ac003a9a6000809054906101000a900473ffffffffffffffffffffffffffffffffffffffff163360405180806020018473ffffffffffffffffffffffffffffffffffffffff1673ffffffffffffffffffffffffffffffffffffffff1681526020018373ffffffffffffffffffffffffffffffffffffffff1673ffffffffffffffffffffffffffffffffffffffff1681526020018281038252600a8152602001807f6f6e6c79206f776e657200000000000000000000000000000000000000000000815250602001935050505060405180910390a15b565b600160009054906101000a900473ffffffffffffffffffffffffffffffffffffffff1673ffffffffffffffffffffffffffffffffffffffff163373ffffffffffffffffffffffffffffffffffffffff161415610c8c57600160009054906101000a900473ffffffffffffffffffffffffffffffffffffffff1673ffffffffffffffffffffffffffffffffffffffff166000809054906101000a900473ffffffffffffffffffffffffffffffffffffffff1673ffffffffffffffffffffffffffffffffffffffff167fdb6d05f3295cede580affa301a1eb5297528f3b3f6a56b075887ce6f61c45f2160405160405180910390a3600160009054906101000a900473ffffffffffffffffffffffffffffffffffffffff166000806101000a81548173ffffffffffffffffffffffffffffffffffffffff021916908373ffffffffffffffffffffffffffffffffffffffff1602179055506000600160006101000a81548173ffffffffffffffffffffffffffffffffffffffff021916908373ffffffffffffffffffffffffffffffffffffffff160217905550610d7e565b7f6b26c3fc447c71078386bc5ad946c760ce605d2bc61b762901400eb9ac003a9a6000809054906101000a900473ffffffffffffffffffffffffffffffffffffffff163360405180806020018473ffffffffffffffffffffffffffffffffffffffff1673ffffffffffffffffffffffffffffffffffffffff1681526020018373ffffffffffffffffffffffffffffffffffffffff1673ffffffffffffffffffffffffffffffffffffffff1681526020018281038252600a8152602001807f6f6e6c79206f776e657200000000000000000000000000000000000000000000815250602001935050505060405180910390a15b565b6000809054906101000a900473ffffffffffffffffffffffffffffffffffffffff1681565b60008060009054906101000a900473ffffffffffffffffffffffffffffffffffffffff1673ffffffffffffffffffffffffffffffffffffffff163373ffffffffffffffffffffffffffffffffffffffff1614158015610e525750600260009054906101000a900473ffffffffffffffffffffffffffffffffffffffff1673ffffffffffffffffffffffffffffffffffffffff163373ffffffffffffffffffffffffffffffffffffffff1614155b15610ea6577f0489f2369368f4688acd012107ac5a7d98ca739b913449d852f35d871e433cc3600f6040518082601d811115610e8a57fe5b60ff16815260200191505060405180910390a160009050610fd8565b600073ffffffffffffffffffffffffffffffffffffffff168373ffffffffffffffffffffffffffffffffffffffff161415610f2a577f0489f2369368f4688acd012107ac5a7d98ca739b913449d852f35d871e433cc360026040518082601d811115610f0e57fe5b60ff16815260200191505060405180910390a160009050610fd8565b81600360008573ffffffffffffffffffffffffffffffffffffffff1673ffffffffffffffffffffffffffffffffffffffff16815260200190815260200160002060006101000a81548160ff0219169083151502179055508273ffffffffffffffffffffffffffffffffffffffff167f9b3b880c67f4fab4215412179771cffd326a045e6016a7e363eb38460f7e917683604051808215151515815260200191505060405180910390a2600190505b92915050565b600160009054906101000a900473ffffffffffffffffffffffffffffffffffffffff1681565b60036020528060005260406000206000915054906101000a900460ff1681565b6000809054906101000a900473ffffffffffffffffffffffffffffffffffffffff1673ffffffffffffffffffffffffffffffffffffffff163373ffffffffffffffffffffffffffffffffffffffff16141561116257600073ffffffffffffffffffffffffffffffffffffffff168173ffffffffffffffffffffffffffffffffffffffff16141561111c576040517f08c379a00000000000000000000000000000000000000000000000000000000081526004018080602001828103825260108152602001807f6e65774f776e6572206973206e756c6c0000000000000000000000000000000081525060200191505060405180910390fd5b80600160006101000a81548173ffffffffffffffffffffffffffffffffffffffff021916908373ffffffffffffffffffffffffffffffffffffffff160217905550611254565b7f6b26c3fc447c71078386bc5ad946c760ce605d2bc61b762901400eb9ac003a9a6000809054906101000a900473ffffffffffffffffffffffffffffffffffffffff163360405180806020018473ffffffffffffffffffffffffffffffffffffffff1673ffffffffffffffffffffffffffffffffffffffff1681526020018373ffffffffffffffffffffffffffffffffffffffff1673ffffffffffffffffffffffffffffffffffffffff1681526020018281038252600a8152602001807f6f6e6c79206f776e657200000000000000000000000000000000000000000000815250602001935050505060405180910390a15b50565b600260009054906101000a900473ffffffffffffffffffffffffffffffffffffffff168156fea26469706673582212205f0ae09bd83facb018eff309ef6e1a917328b624b3f1b831bc00971c0248918264736f6c63430006030033",
  "source": "pragma solidity >=0.5.12 <0.7.0;\r\n\r\nimport \"./ErrorModule.sol\";\r\nimport \"./Ownable.sol\";\r\n\r\n/**\r\n * @title WhiteMange\r\n * @dev 增加一个白名单列表，方便控制合约权限\r\n * @dev 反复设置白名单，并不会抛出错误日志。\r\n */\r\ncontract WhiteMange is OwnPlus, ErrorModule{\r\n\r\n    /* 控制本合约函数调用权限的白名单列表 */\r\n    mapping (address => bool) public whitelist_;\r\n\r\n    event LogWhileChanged(address indexed _target, bool _allow);\r\n\r\n    event info(string info);\r\n\r\n    /**\r\n     * @dev 添加或移除一个地址的白名单调用权限\r\n     * @notice  限制为管理员调用。\r\n     * @param _target  address  : 将修改的权限的地址\r\n     * @param _allow   bool     : true代表增加，false代表移除\r\n     * @return         bool     : 操作成功返回true\r\n     */\r\n    function mangeWhiteList(address _target, bool _allow) public returns(bool){\r\n        if(msg.sender != owner && msg.sender != admin){\r\n            emit LogError(RScorr.PermissionDenied);\r\n            return false;\r\n        }// Authority certification\r\n\r\n        if (_target == address(0)) {\r\n            emit LogError(RScorr.InvalidAddr);\r\n            return false;\r\n        } // The address cannot be zero\r\n\r\n        whitelist_[_target] = _allow;\r\n        emit LogWhileChanged(_target, _allow);\r\n        return true;\r\n    }\r\n\r\n    /**\r\n     * @dev 批量增加白名单\r\n     * @notice 只允许管理员调用\r\n     * @param _addresses address[] : 待添加的地址组\r\n     * @return           bool      : 操作成功返回true\r\n     */\r\n    function mulInsertWhite(address[] memory _addresses) public returns(bool){\r\n        if(msg.sender != owner && msg.sender != admin){\r\n            emit LogError(RScorr.PermissionDenied);\r\n            return false;\r\n        } // Authority certification\r\n\r\n        for(uint i = 0; i < _addresses.length; i++){\r\n            // The address cannot be zero\r\n            require(_addresses[i] != address(0),\"address is null\");\r\n\r\n            whitelist_[_addresses[i]] = true;\r\n            emit LogWhileChanged(_addresses[i], true);\r\n        }\r\n\r\n        return true;\r\n    }\r\n}\r\n",
  "sourcePath": "E:\\contracts\\contracts\\WhiteMange.sol",
  "compiler": {
    "name": "solc",
    "version": "0.6.3+commit.8dda9521.Emscripten.clang"
  },
  "schemaVersion": "3.0.23",
  "updatedAt": "2020-04-06T14:57:51.464Z",
  "devdoc": {
    "details": "增加一个白名单列表，方便控制合约权限反复设置白名单，并不会抛出错误日志。",
    "methods": {
      "acceptOwnership()": {
        "details": "Allows the newOwner address to finalize the transfer."
      },
      "mangeWhiteList(address,bool)": {
        "details": "添加或移除一个地址的白名单调用权限",
        "params": {
          "_allow": "bool     : true代表增加，false代表移除",
          "_target": "address  : 将修改的权限的地址"
        },
        "returns": {
          "_0": "bool     : 操作成功返回true"
        }
      },
      "mulInsertWhite(address[])": {
        "details": "批量增加白名单",
        "params": {
          "_addresses": "address[] : 待添加的地址组"
        },
        "returns": {
          "_0": "bool      : 操作成功返回true"
        }
      },
      "renounceOwnership()": {
        "details": "Allows the current owner to relinquish control of the contract."
      },
      "transferAdminship(address)": {
        "details": "Allows the current admin to transfer control of the contract to a newadmin.",
        "params": {
          "_newAdmin": "address : new admin address"
        }
      },
      "transferOwnership(address)": {
        "details": "Allows the current owner to transfer control of the contract to a newOwner.",
        "params": {
          "_newOwner": "The address to transfer ownership to."
        }
      }
    },
    "title": "WhiteMange"
  },
  "userdoc": {
    "methods": {
      "mangeWhiteList(address,bool)": {
        "notice": "限制为管理员调用。"
      },
      "mulInsertWhite(address[])": {
        "notice": "只允许管理员调用"
      },
      "renounceOwnership()": {
        "notice": "Renouncing to ownership will leave the contract without an owner. It will not be possible to call the functions with the `onlyOwner` modifier anymore."
      }
    }
  }
}